:1000000055C1000083C1000081C100007FC1000014
:100010007DC100007BC1000079C1000077C10000F4
:1000200075C1000073C1000071C100006FC1000004
:100030006DC100006BC1000069C1000067C1000014
:1000400065C1000063C1000061C100005FC1000024
:100050005DC100005BC1000059C100006EC300001B
:1000600055C1000053C1000051C100004FC1000044
:100070004DC100004BC1000049C1000047C1000054
:1000800045C1000043C1000041C100003FC1000064
:100090003DC100003BC1000039C1000074C5000033
:1000A00035C1000033C1000031C100002FC1000084
:1000B0002DC100002BC1000029C1000027C1000094
:1000C00025C1000023C1000021C100001FC10000A4
:1000D0001DC100001BC1000019C1000017C10000B4
:1000E00015C10000CD01D001BF01C301C901070244
:1000F000D401D801DE01E201E601EC01F001F401D6
:100100000702FA01FE01020207634236B79BD8A735
:100110001A39685618AEBAAB558C1D3CB7CC57632C
:10012000BD6DEDFD753EF6177231BF000000803FDA
:1001300008000000BE922449123EABAAAA2ABECDF6
:10014000CCCC4C3E00000080BEABAAAAAA3E000068
:100150000000BF000000803F000000000008417860
:10016000D3BB4387D1133D190E3CC3BD4282AD2B97
:100170003E68EC8276BED98FE1A93E4C80EFFFBE8F
:1001800001C4FF7F3F0000000000000021002400A8
:1001900027002A002D003000330001010000040177
:1001A00007010A0100002200250028002B002E0074
:1001B0003100340002010000050108010B010000BC
:1001C00020002300260029002C002F00320000010F
:1001D00000000301060109010505050507050808DA
:1001E0000808020202020A0A0808040404040101C1
:1001F00001010101010103030303030303030407D6
:1002000007070C0C0C0C0C0C0C0C0202020206066C
:100210000606060606060B0B0B0B0B0B0B0B01025F
:100220001020200808102040102040800201020108
:1002300008040201010204081020408080402010C0
:100240000804020180040201804020100804020119
:100250000804020101020408102040800102040881
:100260001020408000000A0B02090C0D0E08070345
:100270000401000000000000000000000000000079
:10028000000000000000000000000000000000006E
:10029000121110000000000000000000000000002B
:1002A00000000000000000000000930A11241FBE9F
:1002B000CFEFD1E2DEBFCDBF00E00CBF12E0A0E087
:1002C000B2E0E8E7FDE100E00BBF02C007900D924D
:1002D000AE31B107D9F724E0AEE1B2E001C01D9222
:1002E000AD31B207E1F711E0C6E5D1E000E006C0AC
:1002F00021970109802FFE010E94AE0EC535D1075E
:1003000080E00807A9F79ED70C94BA0E79CECF9259
:10031000DF92EF92FF920F931F93CF93DF936C01C5
:100320007A018B01C0E0D0E0CE15DF0589F0D8015D
:100330006D918D01D601ED91FC910190F081E02D40
:10034000C6011995892B11F47E0102C02196ECCFCC
:10035000C701DF91CF911F910F91FF90EF90DF9038
:10036000CF90089590E0FC013197E231F10508F05B
:100370004EC08827EE58FF4F8F4F0C94AE0E8091E1
:1003800080008F7703C0809180008F7D80938000F4
:10039000089580918000877FF9CF84B58F7702C060
:1003A00084B58F7D84BD08958091B0008F7703C0A0
:1003B0008091B0008F7D8093B0000895809190006F
:1003C0008F7707C0809190008F7D03C0809190004F
:1003D000877F8093900008958091A0008F7707C059
:1003E0008091A0008F7D03C08091A000877F8093C3
:1003F000A0000895809120018F7707C0809120018F
:100400008F7D03C080912001877F80932001089514
:100410003FB7F89480916B0290916C02A0916D02AD
:10042000B0916E0226B5A89B05C02F3F19F001962A
:10043000A11DB11D3FBFBA2FA92F982F8827820F6A
:10044000911DA11DB11DBC01CD0142E0660F771FBA
:10045000881F991F4A95D1F7089585ED8093BC00B8
:100460008091BC0084FDFCCF1092B80208954091A9
:100470004002262F30E0240F311D21323105DCF4FB
:100480002091B8022430C9F4FC0180E090E0861786
:1004900058F4309140022191DC01A25EBD4FA30FC0
:1004A000B11D2C930196F3CF80914002680F6093A9
:1004B000400280E0089581E0089582E00895089563
:1004C000E091910280919002E81730F4F0E0E05959
:1004D000FD4F808190E008958FEF9FEF08959091F8
:1004E000910280919002981750F4E92FF0E0E059C2
:1004F000FD4F208130E09F5F9093910202C02FEF6B
:100500003FEFC90108958091900290E020919102FF
:10051000821B91090895CF92DF92EF92FF920F9381
:100520001F93CF93DF937C01262F972F8A01809111
:10053000B902882391F0C62FD72F6E01C40ED51EA5
:10054000CC15DD0569F06991D701ED91FC91019021
:10055000F081E02DC7011995F3CF642F822F87DF3B
:10056000C801DF91CF911F910F91FF90EF90DF9025
:10057000CF900895CF93DF931F92CDB7DEB76983F5
:100580002091B9022223D1F02091DB02203240F0E9
:1005900021E030E0FC013383228380E090E014C04E
:1005A0008091BA02E82FF0E0E554FD4F99819083E5
:1005B0008F5F8093BA028093DB0204C061E0CE01BA
:1005C000019655DF81E090E00F90DF91CF91089583
:1005D000089580E090E008950E94B60E1F93CF9397
:1005E000DF93282F30E0F901EC59FD4F8491F90198
:1005F000E25EFD4FD491F901E852FE4FC491CC2345
:10060000C1F0162F8111AEDEEC2FF0E0EE0FFF1FD0
:10061000EC55FE4FA591B4918FB7F894111105C018
:100620009C91ED2FE095E92302C0EC91ED2BEC932A
:100630008FBFDF91CF911F910895CF93DF9390E00B
:10064000FC01E25EFD4F2491FC01E852FE4F8491D3
:10065000882361F190E0880F991FFC01E657FE4F57
:10066000C591D491FC01EC55FE4FA591B491611157
:1006700009C09FB7F8948881209582238883EC91E4
:100680002E230BC0623061F49FB7F8943881822F1B
:10069000809583238883EC912E2B2C939FBF06C0DB
:1006A0008FB7F894E8812E2B28838FBFDF91CF91ED
:1006B00008958F929F92AF92BF92CF92DF92EF9266
:1006C000FF926B017C01A4DE4B015C01C114D104DB
:1006D000E104F104E9F09CDEDC01CB018819990901
:1006E000AA09BB09883E9340A105B10578F321E032
:1006F000C21AD108E108F10888EE880E83E0981E3E
:10070000A11CB11CC114D104E104F10421F7DECF16
:10071000FF90EF90DF90CF90BF90AF909F908F9021
:1007200008952FB7F89460916702709168028091E4
:10073000690290916A022FBF08951F920F920FB61F
:100740000F9211242F933F938F939F93AF93BF9357
:100750008091670290916802A0916902B0916A024B
:100760003091660223E0230F2D3720F40196A11D5E
:10077000B11D05C026E8230F0296A11DB11D2093CF
:1007800066028093670290936802A0936902B09317
:100790006A0280916B0290916C02A0916D02B091FF
:1007A0006E020196A11DB11D80936B0290936C02A5
:1007B000A0936D02B0936E02BF91AF919F918F9104
:1007C0003F912F910F900FBE0F901F9018959CB5E1
:1007D000282F23709C7F922B9CBD2DB582FB9927DF
:1007E00090F9822F8E7F892B8DBD0895CF93DF9353
:1007F000EC018A89ECDF8C89811103C08CB58062A1
:1008000002C08CB58F7D8CBD8CB5837F9B89892B75
:100810008CBD60E08989E2DE8F858EBD00000DB45D
:1008200007FEFDCF8EB561E08989DF91CF91D6CEED
:10083000CF92DF92EF92FF92CF93DF93EC01888902
:1008400081110CC060E08E81C9DE61E08E81C6DE60
:1008500060E08E81C3DE8BE891E033C0C12CD12CE7
:100860007601C394D701C6010E8004C0880F991F7A
:10087000AA1FBB1F0A94D2F780959F8589238F8773
:10088000CE01B4DFD701C6010E8004C0880F991FC6
:10089000AA1FBB1F0A94D2F72F85822B8F87CE0108
:1008A000A5DF0E8004C0CC0CDD1CEE1CFF1C0A94DE
:1008B000D2F7C0948F85C822CF86CE0197DF8BE90F
:1008C00090E00197F1F7DF91CF91FF90EF90DF90EB
:1008D000CF9008958F929F92AF92BF92CF92DF9266
:1008E000EF92FF920F931F93CF93DF93EC018889D0
:1008F000062F10E081111FC05E0187E0A80EB11C19
:10090000E12CF12C650161E0F50181915F0195DE3B
:10091000B8010E2C02C0759567950A94E2F76170D4
:10092000F60180815BDEFFEFEF1AFF0A84E0E81634
:10093000F10441F732C084E090E0812C912C540105
:1009400083949C0124503109A80102C05595479514
:100950002A95E2F72F8540FF0DC075016401082E2E
:1009600004C0CC0CDD1CEE1CFF1C0A94D2F7C22A7A
:10097000CF860DC0B501A401082E04C0440F551F39
:10098000661F771F0A94D2F7409542234F8701963E
:1009900088309105B1F6CE0129DFCE01DF91CF91EC
:1009A0001F910F91FF90EF90DF90CF90BF90AF908D
:1009B0009F908F903DCFAF92BF92CF92DF92EF92F8
:1009C000FF920F931F93CF93DF93EC01F62E642FCA
:1009D0008C8104DE8D818F3F11F060E0FFDD8D8919
:1009E0000F2D10E084FF2AC05E0187E0A80EB11C25
:1009F000E12CF12C650161E0F50181915F011DDEC3
:100A0000B8010E2C02C0759567950A94E2F76170E3
:100A1000F6018081E3DDFFEFEF1AFF0A88E0E816B8
:100A2000F10441F7CE01DF91CF911F910F91FF901B
:100A3000EF90DF90CF90BF90AF90FACEB80184E0F6
:100A4000759567958A95E1F7CE0144DF6F2DCE014C
:100A5000DF91CF911F910F91FF90EF90DF90CF909A
:100A6000BF90AF9037CF1F93CF93DF93FC012089C6
:100A7000211105C040E0DF91CF911F919CCF162F2F
:100A8000EC0181E090E0A0E0B0E0048004C0880FB9
:100A9000991FAA1FBB1F0A94D2F7809597858923B7
:100AA0008787CF01A3DE612F70E084E0759567959D
:100AB0008A95E1F7CE010EDF612FCE01DF91CF9154
:100AC0001F9108CF1F93CF93DF93EC01162F8889D6
:100AD000811104C041E0CE016EDF1DC081E090E0D5
:100AE000A0E0B0E00C8004C0880F991FAA1FBB1FB4
:100AF0000A94D2F72F85822B8F87CE0177DE612F64
:100B000070E084E0759567958A95E1F7CE01E2DEA5
:100B1000612FCE01DFDE81E090E0DF91CF911F9168
:100B20000895CF93CFB7F89480916502811123C0C7
:100B3000EDE0F2E08491E3E5F2E09491E82FF0E05B
:100B4000EE0FFF1FE657FE4FA591B491EC91E923FC
:100B500019F461E085E342DD61E085E36EDD8CB58B
:100B600080618CBD8CB580648CBD61E084E365DD03
:100B700061E083E362DD809165028F5F80936502AF
:100B8000CFBFCF9108951F920F920FB60F921124ED
:100B90000BB60F922F933F934F935F936F937F9377
:100BA0008F939F93AF93BF93EF93FF938091B9007F
:100BB000887F803609F49CC068F5883209F45BC0F0
:100BC00090F4803109F454C038F4882309F4F6C055
:100BD000883009F44DC0F5C0883109F44CC080322A
:100BE00009F45DC0EEC0803409F468C048F4803375
:100BF00009F455C0883309F0E4C08093B602D8C028
:100C0000803509F44FC0883509F45DC0883409F097
:100C1000D8C0D6C0883909F4C7C0A8F4883709F409
:100C200067C038F4883609F463C0803709F460C0BF
:100C3000C8C0883809F4B8C0803909F45FC080386A
:100C400009F0BFC05BC0803B09F486C038F4803A2D
:100C500009F466C0883A09F47FC0B3C0803C09F447
:100C6000A7C0883C09F4A4C0883B09F48AC0A9C085
:100C70008091930210C09091B5028091B4029817B0
:100C800070F5E091B50281E08E0F8093B502F0E03F
:100C9000EC56FD4F80818093BB0085EC86C080932D
:100CA000B6028EC0E091B50281E08E0F8093B5024E
:100CB0008091BB00F0E0EC56FD4F80839091B5022F
:100CC0008091B4026EC0E091B50281E08E0F8093F6
:100CD000B5028091BB00F0E0EC56FD4F808380911F
:100CE000B70281116DC081E08093920284EA61C0F5
:100CF00083E08093B80210926402CFCF80916402A7
:100D0000803208F051C0E091640281E08E0F809340
:100D100064028091BB00F0E0EC5BFD4F8083BDCFAF
:100D200085EC8093BC001092B802809164028032FE
:100D300030F4E0916402F0E0EC5BFD4F10826091D2
:100D4000640270E0E0914202F091430284E492E098
:100D500019951092640235C084E08093B802109215
:100D6000410210924002E0913E02F0913F0219953B
:100D700080914002811105C081E080934002109271
:100D80001E02E091410281E08E0F80934102F0E06B
:100D9000E25EFD4F80818093BB0090914102809183
:100DA0004002981708F479CF85E88093BC0009C009
:100DB00085EC8093BC001092B80203C01092B6027A
:100DC0004CDBFF91EF91BF91AF919F918F917F91FC
:100DD0006F915F914F913F912F910F900BBE0F90AC
:100DE0000FBE0F901F9018951092B80281E080936B
:100DF000B7021092920261E084E1F0DB61E085E1EC
:100E0000EDDBE9EBF0E080818E7F808380818D7F58
:100E1000808388E48093B80085E48093BC000895C3
:100E2000FF920F931F93CF93DF931F92CDB7DEB73F
:100E30008C01F62E60E0FC0182814983CFDBF80152
:100E4000908181819CBD8DBD8F2D8F7180688EBDFD
:100E5000000049810DB407FEFDCF8EB54EBD0000E8
:100E60000DB407FEFDCF8EB561E0F8018281B6DBDF
:100E700087E090E00197F1F70F90DF91CF911F91FC
:100E80000F91FF900895FC01418161E00596C8CF64
:100E90000F931F93CF93DF93EC018C010B5F1F4FD8
:100EA0004B8163E0C801BCDF488160E0C801B8DF66
:100EB000CE01E9DF4A8162E0C801B2DF4C8169E01E
:100EC000C801DF91CF911F910F91AACF382F2091A8
:100ED000DB0290911804213208F049C08091B802D9
:100EE0008111FCCF42E04093B8023093B7023FEF4C
:100EF0003093B6021092B5022093B402ABEBB2E08D
:100F000044E952E0FA013E2F341B321718F43D91A8
:100F10003193F9CF1092930220919302990F922B63
:100F20009093930290919202913061F41092920208
:100F3000909193029093BB009091BC0093FDF8CFE9
:100F400095EC01C095EE9093BC009091B802923060
:100F5000E1F39091B6029F3F79F08091B602803222
:100F600041F08091B602803331F084E005C081E029
:100F700003C082E001C083E01092BA021092DB024B
:100F80001092B9020895CF93DF931F92CDB7DEB7C9
:100F900091E09093B90299E2909318041092BA02EA
:100FA0001092DB02682F60688CED92E04983E2DAF0
:100FB0004981642F8CED92E0DDDA81E00F90DF91C2
:100FC000CF9184CF0F931F93CF93DF931092910211
:100FD000109290021092BA021092DB0205DF81E0BB
:100FE0008093B90289E28093180462E98CED92E063
:100FF000C1DA81E06BDF8091B8028111FCCF81E022
:101000008093B8028093B7029FEF9093B60210923C
:10101000B5021092B402809393028091930282658C
:101020008093930280919202813061F41092920237
:10103000809193028093BB008091BC0083FDF8CF28
:1010400085EC01C085EE8093BC008091B8028130B0
:10105000E1F38091B502811103C08091B50201C016
:1010600081E0A4E9B2E020E732E0F9019E2F921B73
:10107000981718F49D919193F9CF10929102809353
:1010800090028CED92E02BDA843419F0803109F073
:1010900056C081E08093F803C091FB03D091FC031C
:1010A000AE0160E070E06FDFD093FC03C093FB0300
:1010B000C091F903D091FA038091F803811101C026
:1010C00081DFAE0160E070E08FE05DDFD093FA0376
:1010D000C093F90341E050E060E070E080E053DF4E
:1010E00063E070E080E090E0E4DA43E050E060E04C
:1010F00070E080E048DF08EF12E0C0E0D0E0BE0121
:101100000D2E000C880B990BB1D320E030E04FE797
:1011100053E416D320E030E040E250E4BAD420E0BB
:1011200030E04FE753E452D473D3F80161938F0159
:101130002196C115F1E0DF0711F781E001C080E0E1
:10114000DF91CF911F910F910895CF93DF93EC0121
:1011500089818F71806489838C81887F8C83CE01A3
:1011600092DE4C8169E0CE010596DF91CF9158CE99
:10117000FC019181907E92619183CF0184CE0F9387
:101180001F93CF93DF93EC01623018F08D89886054
:101190008D8B698F1A8E8BE39DE00197F1F760E0EC
:1011A0008C811CDA60E08E8119DA8D818F3F11F01D
:1011B00060E014DA6D8964FD19C063E0CE018ADB5A
:1011C0000BE416E4C8010197F1F763E0CE0182DB7E
:1011D000C8010197F1F763E0CE017CDB83E592E083
:1011E0000197F1F762E0CE0175DB13C06062CE01BA
:1011F0003ADC8BE496E40197F1F76D896062CE01E9
:1012000032DC83E592E00197F1F76D896062CE01EF
:101210002ADC6D896062CE0126DC84E08E8B6CE076
:10122000CE0121DC61E0CE011EDC8BE39FE1019762
:10123000F1F782E08F8B66E0CE01DF91CF911F91B5
:101240000F9111CC789484B5826084BD84B581609F
:1012500084BD85B5826085BD85B5816085BD809181
:101260006E00816080936E001092810080918100F9
:1012700082608093810080918100816080938100F1
:10128000809180008160809380008091B1008460B3
:101290008093B1008091B00081608093B000809114
:1012A0009100826080939100809191008160809391
:1012B0009100809190008160809390008091A100C6
:1012C00082608093A1008091A10081608093A10041
:1012D0008091A00081608093A000809121018260B4
:1012E000809321018091210181608093210180916F
:1012F000200181608093200180917A008460809336
:101300007A0080917A00826080937A0080917A00DE
:10131000816080937A0080917A00806880937A005F
:101320001092C10062E08DEF93E029DF10929102EC
:10133000109290021092BA021092DB0255DDF1DB9E
:1013400084E08093F70261E049D961E08091F7027F
:1013500074D987E08093EF0261E040D961E0809129
:10136000EF026BD960E083E039D961E083E065D9B1
:1013700060E082E033D961E082E05FD960E086E03E
:101380002DD961E086E059D960E085E027D961E098
:1013900085E053D961E070E080E090E08AD9109256
:1013A000F4021092F3021092F2021092F1021092E3
:1013B000F00280EF92E06CDD1092EC021092EB02F2
:1013C0001092EA021092E9021092E80288EE92E08E
:1013D0005FDD80EF92E0CCDE88EE92E0C9DE80EF48
:1013E00092E0B3DE88EE92E0B0DE8091F302806896
:1013F0008093F30280EF92E04BDD8091EB028068F6
:101400008093EB0288EE92E043DDDCDD60E083E276
:1014100014D960E084E211D961E085E20ED960E080
:1014200085E2DCD861E086E108D961E087E105D991
:1014300061E088E102D960E086E1D0D860E087E130
:10144000CDD860E088E1CAD807E812E091E4E92E3F
:1014500092E0F92E2BEFC22E21E0D22E30E0A32E07
:1014600030E0B32E80916F02811154C05AD92B0104
:101470003C0157D9DC01CB0184199509A609B709AC
:1014800084349641A105B10520F461E087E1A6D836
:10149000F0CF60E087E1A2D861E088E19FD860EDFD
:1014A00077E080E090E005D961E086E197D839D90E
:1014B000DBD12B013C01C0E0D0E033D9D5D1A30171
:1014C0009201D5D020E030E048EC51E435D187FFDF
:1014D00017C0F8018491F7019490F6018490882058
:1014E00001F181110E94B201E82DF0E0EE0FFF1F23
:1014F000E254FE4FA591B4918C91982291F0DDCFEA
:10150000CF37D4400CF4D0CF60E086E167D881E0DB
:1015100080936F02A114B10409F4A4CF0E940000CB
:10152000A1CF2196CACFCF93DF931092DF02109202
:10153000DE0288EE93E0A0E0B0E08093E0029093BA
:10154000E102A093E202B093E30284E092E0909380
:10155000DD028093DC0282E58093F502C1E0C09356
:10156000F6021092F4021092F3021092F20210921C
:10157000F1021092F0028093ED02C093EE021092FD
:10158000EC021092EB021092EA021092E902109221
:10159000E8021092F8038BEE90E09093FC038093A6
:1015A000FB031092FA031092F903109200041092B8
:1015B000FF0386E192E09093FE038093FD03C093C6
:1015C0000D0489E080930E0461E037D8AADAD4E0F4
:1015D000D0930F0484E0FBD8109210048CB5837F65
:1015E0008CBDC09311048CB58F7D8CBDC09301045C
:1015F0008FEF8093020483E080930304109204042D
:10160000109205041092060410920704D093080467
:1016100085E08093090486E080930A0487E0809344
:101620000B0461E081E009D8809102048F3F11F042
:1016300061E003D861E0809103040E941D031092D1
:10164000120461E08DEF93E09ADD80910D04811129
:1016500002C010920D0465D86093190470931A04A7
:1016600080931B0490931C04DF91CF9108955058F0
:10167000BB27AA270ED070C161D130F066D120F00F
:1016800031F49F3F11F41EF456C10EF4E095E7FBD0
:101690004CC1E92F72D180F3BA1762077307840730
:1016A000950718F071F49EF58AC10EF4E0950B2EA3
:1016B000BA2FA02D0B01B90190010C01CA01A001A4
:1016C0001124FF27591B99F0593F50F4503E68F1FF
:1016D0001A16F040A22F232F342F4427585FF3CF40
:1016E000469537952795A795F0405395C9F77EF411
:1016F0001F16BA0B620B730B840BBAF09150A1F05A
:10170000FF0FBB1F661F771F881FC2F70EC0BA0FDF
:10171000621F731F841F48F4879577956795B79567
:10172000F7959E3F08F0B3CF9395880F08F099275F
:10173000EE0F979587950895D4D008F481E0089529
:101740000CD00AC102D140F0F9D030F021F45F3F53
:1017500019F0EBC0511134C1EEC00FD198F39923A9
:10176000C9F35523B1F3951B550BBB27AA27621765
:101770007307840738F09F5F5F4F220F331F441FAA
:10178000AA1FA9F333D00E2E3AF0E0E830D09150E2
:101790005040E695001CCAF729D0FE2F27D0660FCF
:1017A000771F881FBB1F261737074807AB07B0E80E
:1017B00009F0BB0B802DBF01FF2793585F4F2AF024
:1017C0009E3F510568F0B1C0FBC05F3FECF3983E0F
:1017D000DCF3869577956795B795F7959F5FC9F781
:1017E000880F911D9695879597F90895E1E0660F0A
:1017F000771F881FBB1F621773078407BA0720F083
:10180000621B730B840BBA0BEE1F88F7E0950895EB
:10181000BCD088F09F5790F0B92F9927B751A0F00E
:10182000D1F0660F771F881F991F1AF0BA95C9F774
:1018300012C0B13081F0C3D0B1E00895C0C0672FAD
:10184000782F8827B85F39F0B93FCCF38695779524
:101850006795B395D9F73EF490958095709561950D
:101860007F4F8F4F9F4F0895E89409C097FB3EF438
:1018700090958095709561957F4F8F4F9F4F9923DD
:10188000A9F0F92F96E9BB279395F695879577955B
:101890006795B795F111F8CFFAF4BB0F11F460FF1B
:1018A0001BC06F5F7F4F8F4F9F4F16C0882311F073
:1018B00096E911C0772321F09EE8872F762F05C087
:1018C000662371F096E8862F70E060E02AF09A9522
:1018D000660F771F881FDAF7880F9695879597F917
:1018E0000895990F0008550FAA0BE0E8FEEF1616B1
:1018F0001706E807F907C0F012161306E407F50704
:1019000098F0621B730B840B950B39F40A2661F077
:10191000232B242B252B21F408950A2609F4A1401A
:10192000A6958FEF811D811D089597F99F6780E827
:1019300070E060E008959FEF80EC089500240A9421
:101940001616170618060906089500240A9412169A
:101950001306140605060895092E0394000C11F4CD
:10196000882352F0BB0F40F4BF2B11F460FF04C07A
:101970006F5F7F4F8F4F9F4F089557FD9058440FD3
:10198000551F59F05F3F71F04795880F97FB991FDE
:1019900061F09F3F79F0879508951216130614069B
:1019A000551FF2CF4695F1DF08C016161706180628
:1019B000991FF1CF86957105610508940895E89403
:1019C000BB2766277727CB0197F908950BD0C4CFA3
:1019D000B5DF28F0BADF18F0952309F0A6CFABCF1A
:1019E0001124EECFCADFA0F3959FD1F3950F50E0FD
:1019F000551F629FF001729FBB27F00DB11D639FC1
:101A0000AA27F00DB11DAA1F649F6627B00DA11D66
:101A1000661F829F2227B00DA11D621F739FB00D0C
:101A2000A11D621F839FA00D611D221F749F33277C
:101A3000A00D611D231F849F600D211D822F762F15
:101A40006A2F11249F5750408AF0E1F088234AF012
:101A5000EE0FFF1FBB1F661F771F881F915050405E
:101A6000A9F79E3F510570F060CFAACF5F3FECF31E
:101A7000983EDCF3869577956795B795F795E7954A
:101A80009F5FC1F7FE2B880F911D9695879597F95B
:101A90000895FA01EE0FFF1F30962105310599F1E7
:101AA0006115710561F48038BFE39B0749F16894C3
:101AB0009038810561F08038BFEF9B0741F0992392
:101AC00042F5FF3FE1053105210511F1E894089445
:101AD000E795D901AA2329F4AB2FBE2FF85FD0F3E5
:101AE00010C0FF5F70F4A695E0F7F73950F019F0D9
:101AF000FF3A38F49F779F930CD00F9007FC9058D3
:101B000008953EF018CF60E070E080E89FE308950C
:101B10004FE79F775F934F933F932F939ED02F91E3
:101B20003F914F915F9152DF05C019F40EF0FDCE49
:101B300046CF01CF2ADFC8F39638C0F707F80F92D7
:101B4000E8942BE33AEA48EB5FE74EDF0F920F92FF
:101B50000F924DB75EB70F92C0D0E8E0F1E016D01B
:101B60004F915F91EF91FF91E595EE1FFF1F49F0B7
:101B7000FE57E0684427EE0F441FFA95E1F74195C0
:101B8000550B32D00F9007FE26C00895DF93CF93F8
:101B90001F930F93FF92EF92DF927B018C01689469
:101BA00005C0DA2EEF011EDFFE01E894A591259114
:101BB000359145915591AEF3EF016BDDFE01970133
:101BC000A801DA9479F7DF90EF90FF900F911F91C1
:101BD000CF91DF9108959B01AC0160E070E080E857
:101BE0009FE3AECDA2CEACC0D0DEE8F39923D9F30B
:101BF000940F511DBBF39150504094F059F088233D
:101C000032F0660F771F881F91505040C1F79E3FFA
:101C1000510544F7880F911D9695879597F908957A
:101C20005F3FACF0983E9CF0BB2786957795679513
:101C3000B79508F4B1609395C1F7BB0F58F711F44D
:101C400060FFE8CF6F5F7F4F8F4F9F4FE3CFB8CEDE
:101C50000EF076C070CE689468CE97DEC8F39923F4
:101C6000D1F3C6F3DF93CF931F930F93FF92C92F46
:101C7000DD2788232AF02197660F771F881FDAF760
:101C800020E030E040E85FEB9FE3883920F0803EC1
:101C900030F021968F77ECDCE0E3F1E003C0E8DC84
:101CA000EDE5F1E073DF8B01BE01EC01FB2E6F5718
:101CB00071097595771F880B990BD8DD28E132E7FC
:101CC00041E35FE38FDEAF2D9801AE01FF900F91EE
:101CD0001F91CF91DF91DDDC3FCEFA01DC01AA0F2D
:101CE000BB1F9B01AC01BF5728F422273327442791
:101CF00050781FC0B75188F4AB2F00244695379514
:101D00002795011CA395D2F3002069F0220F331F01
:101D1000441FB395DAF30DD0AACC61307105A0E869
:101D20008A07B94630F49B01AC01662777278827DC
:101D30009078309621F02083318342835383089535
:101D40009F3F31F0915020F4879577956795B7952F
:101D5000880F911D9695879597F90895EE0FFF1FAF
:101D6000881F8BBF0790F691E02D199481E090E0D9
:081D7000F89400C0F894FFCFC5
:101D780000000000BA028B02E9025F0283026F02D0
:0E1D880060020000000062058701E902E80227
:00000001FF
