:100000005AC1000042C5000015C50000E8C4000048
:10001000BBC400008EC4000061C4000034C40000F2
:1000200007C4000079C1000077C1000075C100005D
:1000300073C1000071C100006FC100006DC10000FC
:100040006BC1000069C1000067C1000065C100000C
:1000500063C1000061C100005FC100009FC30000D8
:100060005BC1000059C1000057C1000055C100002C
:1000700053C1000051C100004FC100004DC100003C
:100080004BC1000049C1000047C1000045C100004C
:1000900043C1000041C100003FC1000004C700008F
:1000A0003BC1000039C1000037C1000035C100006C
:1000B00033C1000031C100002FC100002DC100007C
:1000C0002BC1000029C1000027C1000025C100008C
:1000D00023C1000021C100001FC100001DC100009C
:1000E0001BC100001A021D020C021002140254026D
:1000F000210225022B022F02330239023D02410266
:10010000540247024B024F02CB02D002D502DF025B
:10011000E9026203F302FB0203030D031703210349
:1001200030033A03620344034E0358030763423625
:10013000B79BD8A71A39685618AEBAAB558C1D3C78
:10014000B7CC5763BD6DEDFD753EF6177231BF003C
:100150000000803F08000000BE922449123EABAA76
:10016000AA2ABECDCCCC4C3E00000080BEABAAAAD1
:10017000AA3E00000000BF000000803F0000000019
:1001800000084178D3BB4387D1133D190E3CC3BD52
:100190004282AD2B3E68EC8276BED98FE1A93E4CFF
:1001A00080EFFFBE01C4FF7F3F00000000000000A1
:1001B0002100240027002A002D0030003300010117
:1001C0000000040107010A010000220025002800A8
:1001D0002B002E003100340002010000050108014F
:1001E0000B010505050507050808080802020202BB
:1001F0000A0A0808040404040101010101010101C3
:100200000303030303030303040707070C0C0C0C8D
:100210000C0C0C0C02020202060606060606060676
:100220000B0B0B0B0B0B0B0B010210202008081003
:100230002040102040800201020108040201010256
:10024000040810204080804020100804020180042F
:10025000020180402010080402010804020101028A
:100260000408102040800102040810204080000093
:100270000A0B02090C0D0E08070304010000000020
:10028000000000000000000000000000000000006E
:10029000000000000000000000001211100000002B
:1002A000000000000000000000000000000000004E
:1002B00000000000A31511241FBECFEFD1E2DEBF66
:1002C000CDBF00E00CBF14E0A0E0B2E0ECEDF3E342
:1002D00000E00BBF02C007900D92AC36B107D9F712
:1002E00026E0ACE6B4E001C01D92A63DB207E1F7FE
:1002F00011E0CBE5D1E000E006C021970109802F95
:10030000FE010E94CC19CA35D10780E00807A9F781
:100310000E94DC0F0C94EC1973CE3FB7F8948091D7
:10032000000590910105A0910205B091030526B545
:10033000A89B05C02F3F19F00196A11DB11D3FBF1D
:10034000BA2FA92F982F8827820F911DA11DB11DAB
:10035000BC01CD0142E0660F771F881F991F4A95A7
:10036000D1F70895089585ED8093BC008091BC007D
:1003700084FDFCCF1092750508950895E0912E0537
:1003800080912D05E81730F4F0E0E15DFA4F8081AF
:1003900090E008958FEF9FEF089590912E05809142
:1003A0002D05981750F4E92FF0E0E15DFA4F208118
:1003B00030E09F5F90932E0502C02FEF3FEFC90101
:1003C000089580912D0590E020912E05821B9109C2
:1003D00008950E94E819362F90E0FC01E259FD4F84
:1003E0004491FC01E85DFD4F2491FC01EE51FE4F6C
:1003F0009491992309F46BC0442309F455C050E04B
:10040000FA013197E231F10508F04EC08827EE5825
:10041000FF4F8F4F0C94CC19809180008F7707C0CD
:10042000809180008F7D03C080918000877F8093C2
:1004300080003AC084B58F7702C084B58F7D84BDBB
:1004400033C08091B0008F7703C08091B0008F7D62
:100450008093B00029C0809190008F7707C0809171
:1004600090008F7D03C080919000877F80939000E3
:100470001BC08091A0008F7707C08091A0008F7D66
:1004800003C08091A000877F8093A0000DC0809161
:1004900020018F7707C0809120018F7D03C080915C
:1004A0002001877F80932001E92FF0E0EE0FFF1FEE
:1004B000E853FE4FA591B4918FB7F894EC913111A8
:1004C00003C020952E2301C02E2B2C938FBF08959F
:1004D000CF93DF9390E0FC01E85DFD4F2491FC0198
:1004E000EE51FE4F8491882361F190E0880F991FAF
:1004F000FC01E255FE4FC591D491FC01E853FE4F3B
:10050000A591B491611109C09FB7F8948881209595
:1005100082238883EC912E230BC0623061F49FB755
:10052000F8943881822F809583238883EC912E2B39
:100530002C939FBF06C08FB7F894E8812E2B288399
:100540008FBFDF91CF9108951F93CF93DF93182F23
:10055000EB0161E0BDDF209711F460E004C0CF3F04
:10056000D10531F461E0812FDF91CF911F9133CF1D
:10057000E12FF0E0E259FD4FE4914E2F50E0FA01F7
:100580003197E231F10508F09DC08827EC57FF4F05
:100590008F4F0C94CC1984B5806884BDC7BD97C0BB
:1005A00084B5806284BDC8BD92C08091800080689F
:1005B00080938000D0938900C093880088C0809188
:1005C0008000806280938000D0938B00C0938A006B
:1005D0007EC080918000886080938000D0938D00E1
:1005E000C0938C0074C08091B00080688093B0008C
:1005F000C093B3006CC08091B00080628093B00063
:10060000C093B40064C08091900080688093900093
:10061000D0939900C09398005AC080919000806256
:1006200080939000D0939B00C0939A0050C080911B
:100630009000886080939000D0939D00C0939C00B0
:1006400046C08091A00080688093A0008091A000A7
:100650008F7B8093A000D093A900C093A80037C0DF
:100660008091A00080628093A000D093AB00C093E3
:10067000AA002DC08091A00088608093A000D09334
:10068000AD00C093AC0023C08091200180688093AE
:100690002001D0932901C093280119C08091200125
:1006A000806280932001D0932B01C0932A010FC058
:1006B00080912001886080932001D0932D01C09308
:1006C0002C0105C0C038D1050CF04CCF46CFDF91CE
:1006D000CF911F910895863308F0865390917B0047
:1006E000282F2870977F922B90937B0087708064CF
:1006F00080937C0080917A00806480937A0080915E
:100700007A0086FDFCCF809178002091790090E0FE
:10071000922B08958F929F92AF92BF92CF92DF92C9
:10072000EF92FF926B017C01F8DD4B015C01C1147B
:10073000D104E104F104E9F0F0DDDC01CB0188191A
:100740009909AA09BB09883E9340A105B10578F330
:1007500021E0C21AD108E108F10888EE880E83E092
:10076000981EA11CB11CC114D104E104F10421F7AD
:10077000DECFFF90EF90DF90CF90BF90AF909F9033
:100780008F9008952FB7F8946091FC047091FD0448
:100790008091FE049091FF042FBF08951F920F9245
:1007A0000FB60F9211242F933F938F939F93AF9384
:1007B000BF938091FC049091FD04A091FE04B09140
:1007C000FF043091FB0423E0230F2D3720F4019622
:1007D000A11DB11D05C026E8230F0296A11DB11D64
:1007E0002093FB048093FC049093FD04A093FE04EB
:1007F000B093FF048091000590910105A09102053E
:10080000B09103050196A11DB11D80930005909341
:100810000105A0930205B0930305BF91AF919F918D
:100820008F913F912F910F900FBE0F901F901895B1
:100830001F920F920FB60F9211240BB60F922F93A7
:100840003F934F935F936F937F938F939F93AF9358
:10085000BF93EF93FF93E0910E02F0910F02199571
:10086000FF91EF91BF91AF919F918F917F916F9188
:100870005F914F913F912F910F900BBE0F900FBE44
:100880000F901F9018951F920F920FB60F92112480
:100890000BB60F922F933F934F935F936F937F937A
:1008A0008F939F93AF93BF93EF93FF93E0910C02CD
:1008B000F0910D021995FF91EF91BF91AF919F912A
:1008C0008F917F916F915F914F913F912F910F90F9
:1008D0000BBE0F900FBE0F901F9018951F920F9296
:1008E0000FB60F9211240BB60F922F933F934F9395
:1008F0005F936F937F938F939F93AF93BF93EF9388
:10090000FF93E0910202F09103021995FF91EF919C
:10091000BF91AF919F918F917F916F915F914F9117
:100920003F912F910F900BBE0F900FBE0F901F9015
:1009300018951F920F920FB60F9211240BB60F92BB
:100940002F933F934F935F936F937F938F939F93D7
:10095000AF93BF93EF93FF93E0910002F0910102F8
:100960001995FF91EF91BF91AF919F918F917F91D9
:100970006F915F914F913F912F910F900BBE0F9010
:100980000FBE0F901F9018951F920F920FB60F92E7
:1009900011240BB60F922F933F934F935F936F9356
:1009A0007F938F939F93AF93BF93EF93FF93E091C8
:1009B0000A02F0910B021995FF91EF91BF91AF914F
:1009C0009F918F917F916F915F914F913F912F9167
:1009D0000F900BBE0F900FBE0F901F9018951F9297
:1009E0000F920FB60F9211240BB60F922F933F93D5
:1009F0004F935F936F937F938F939F93AF93BF9327
:100A0000EF93FF93E0910802F09109021995FF918D
:100A1000EF91BF91AF919F918F917F916F915F9176
:100A20004F913F912F910F900BBE0F900FBE0F90E3
:100A30001F9018951F920F920FB60F9211240BB6AC
:100A40000F922F933F934F935F936F937F938F9367
:100A50009F93AF93BF93EF93FF93E0910602F091C2
:100A600007021995FF91EF91BF91AF919F918F91DF
:100A70007F916F915F914F913F912F910F900BBE9E
:100A80000F900FBE0F901F9018951F920F920FB6E8
:100A90000F9211240BB60F922F933F934F935F93B6
:100AA0006F937F938F939F93AF93BF93EF93FF9336
:100AB000E0910402F09105021995FF91EF91BF9129
:100AC000AF919F918F917F916F915F914F913F91E6
:100AD0002F910F900BBE0F900FBE0F901F90189587
:100AE0009CB5282F23709C7F922B9CBD2DB582FB3B
:100AF000992790F9822F8E7F892B8DBD0895CF93F2
:100B0000DF93EC018A89ECDF8C89811103C08CB5FD
:100B1000806202C08CB58F7D8CBD8CB5837F9B8934
:100B2000892B8CBD60E0898956DC8F858EBD0000E5
:100B30000DB407FEFDCF8EB561E08989DF91CF91BD
:100B40004ACCCF92DF92EF92FF92CF93DF93EC01EA
:100B5000888981110CC060E08E813DDC61E08E816E
:100B60003ADC60E08E8137DC8BE891E033C0C12C49
:100B7000D12C7601C394D701C6010E8004C0880F22
:100B8000991FAA1FBB1F0A94D2F780959F858923BE
:100B90008F87CE01B4DFD701C6010E8004C0880F55
:100BA000991FAA1FBB1F0A94D2F72F85822B8F870C
:100BB000CE01A5DF0E8004C0CC0CDD1CEE1CFF1C9A
:100BC0000A94D2F7C0948F85C822CF86CE0197DFD2
:100BD0008BE990E00197F1F7DF91CF91FF90EF90D3
:100BE000DF90CF9008958F929F92AF92BF92CF9255
:100BF000DF92EF92FF920F931F93CF93DF93EC015D
:100C00008889062F10E081111FC05E0187E0A80EC1
:100C1000B11CE12CF12C650161E0F50181915F01CE
:100C200057DCB8010E2C02C0759567950A94E2F75F
:100C30006170F6018081CFDBFFEFEF1AFF0A84E0DD
:100C4000E816F10441F732C084E090E0812C912C49
:100C5000540183949C0124503109A80102C0559588
:100C600047952A95E2F72F8540FF0DC07501640175
:100C7000082E04C0CC0CDD1CEE1CFF1C0A94D2F71D
:100C8000C22ACF860DC0B501A401082E04C0440FAE
:100C9000551F661F771F0A94D2F7409542234F874E
:100CA000019688309105B1F6CE0129DFCE01DF91A2
:100CB000CF911F910F91FF90EF90DF90CF90BF9059
:100CC000AF909F908F903DCFAF92BF92CF92DF9227
:100CD000EF92FF920F931F93CF93DF93EC01F62EC9
:100CE000642F8C8178DB8D818F3F11F060E073DBA6
:100CF0008D890F2D10E084FF2AC05E0187E0A80EC9
:100D0000B11CE12CF12C650161E0F50181915F01DD
:100D1000DFDBB8010E2C02C0759567950A94E2F7E7
:100D20006170F601808157DBFFEFEF1AFF0A88E060
:100D3000E816F10441F7CE01DF91CF911F910F9199
:100D4000FF90EF90DF90CF90BF90AF90FACEB801B8
:100D500084E0759567958A95E1F7CE0144DF6F2DA4
:100D6000CE01DF91CF911F910F91FF90EF90DF9017
:100D7000CF90BF90AF9037CF1F93CF93DF93FC01FD
:100D80002089211105C040E0DF91CF911F919CCFB8
:100D9000162FEC0181E090E0A0E0B0E0048004C0F8
:100DA000880F991FAA1FBB1F0A94D2F780959785B9
:100DB00089238787CF01A3DE612F70E084E07595DA
:100DC00067958A95E1F7CE010EDF612FCE01DF91A5
:100DD000CF911F9108CF61E0CFDF8BE39FE10197B7
:100DE000F1F708951F93CF93DF93EC01162F8889B5
:100DF000811104C041E0CE0167DF1DC081E090E0B9
:100E0000A0E0B0E00C8004C0880F991FAA1FBB1F90
:100E10000A94D2F72F85822B8F87CE0170DE612F47
:100E200070E084E0759567958A95E1F7CE01DBDE89
:100E3000612FCE01D8DE81E090E0DF91CF911F914C
:100E40000895CF93CFB7F8948091FA04811123C00D
:100E5000E7E1F2E08491EDE5F2E09491E82FF0E033
:100E6000EE0FFF1FE255FE4FA591B491EC91E923DF
:100E700019F461E085E3AFDA61E085E329DB8CB545
:100E800080618CBD8CB580648CBD61E084E320DB27
:100E900061E083E31DDB8091FA048F5F8093FA04A5
:100EA000CFBFCF9108951F920F920FB60F921124CA
:100EB0000BB60F922F933F934F935F936F937F9354
:100EC0008F939F93AF93BF93EF93FF938091B9005C
:100ED000887F803609F49CC068F5883209F45BC0CD
:100EE00090F4803109F454C038F4882309F4F6C032
:100EF000883009F44DC0F5C0883109F44CC0803207
:100F000009F45DC0EEC0803409F468C048F4803351
:100F100009F455C0883309F0E4C080937305D8C044
:100F2000803509F44FC0883509F45DC0883409F074
:100F3000D8C0D6C0883909F4C7C0A8F4883709F4E6
:100F400067C038F4883609F463C0803709F460C09C
:100F5000C8C0883809F4B8C0803909F45FC0803847
:100F600009F0BFC05BC0803B09F486C038F4803A0A
:100F700009F466C0883A09F47FC0B3C0803C09F424
:100F8000A7C0883C09F4A4C0883B09F48AC0A9C062
:100F90008091500510C0909172058091710598174D
:100FA00070F5E091720581E08E0F80937205F0E09C
:100FB000EF5AFA4F80818093BB0085EC86C0809306
:100FC00073058EC0E091720581E08E0F80937205EB
:100FD0008091BB00F0E0EF5AFA4F80839091720548
:100FE000809171056EC0E091720581E08E0F809353
:100FF00072058091BB00F0E0EF5AFA4F8083809138
:10100000740581116DC081E080934F0584EA61C051
:1010100083E0809375051092F904CFCF8091F90495
:10102000803208F051C0E091F90481E08E0F809386
:10103000F9048091BB00F0E0E752FB4F8083BDCF05
:1010400085EC8093BC00109275058091F904803284
:1010500030F4E091F904F0E0E752FB4F1082609128
:10106000F90470E0E091D704F091D80489ED94E0A0
:1010700019951092F90435C084E08093750510929B
:10108000D6041092D504E091D304F091D4041995BC
:101090008091D504811105C081E08093D504109220
:1010A000B304E091D60481E08E0F8093D604F0E083
:1010B000ED54FB4F80818093BB009091D6048091CA
:1010C000D504981708F479CF85E88093BC0009C04F
:1010D00085EC8093BC001092750503C010927305D7
:1010E00042D9FF91EF91BF91AF919F918F917F91E5
:1010F0006F915F914F913F912F910F900BBE0F9089
:101100000FBE0F901F9018954091D504262F30E008
:10111000240F311D21323105DCF420917505243076
:10112000C9F4FC0180E090E0861758F43091D504B2
:101130002191DC01AD54BB4FA30FB11D2C9301963F
:10114000F3CF8091D504680F6093D50480E00895B3
:1011500081E0089582E00895CF92DF92EF92FF92AE
:101160000F931F93CF93DF937C01262F972F8A0134
:1011700080917605882391F0C62FD72F6E01C40E7B
:10118000D51ECC15DD0569F06991D701ED91FC9173
:101190000190F081E02DC7011995F3CF642F822FC4
:1011A000B3DFC801DF91CF911F910F91FF90EF90B6
:1011B000DF90CF9008951092750581E080937405BB
:1011C00010924F0561E084E106D961E085E103D921
:1011D000E9EBF0E080818E7F808380818D7F80834A
:1011E00088E48093B80085E48093BC000895089556
:1011F00080E090E008951092A8040895CF93DF93C3
:101200001F92CDB7DEB76983209176052223D1F0F6
:1012100020919805203240F021E030E0FC0133833A
:10122000228380E090E014C080917705E82FF0E001
:10123000E858FA4F998190838F5F80937705809368
:10124000980504C061E0CE0101965EDF81E090E088
:101250000F90DF91CF910895FF920F931F93CF933B
:10126000DF931F92CDB7DEB78C01F62E60E0FC0154
:1012700082814983B0D8F801908181819CBD8DBD68
:101280008F2D8F7180688EBD000049810DB407FEDF
:10129000FDCF8EB54EBD00000DB407FEFDCF8EB55F
:1012A00061E0F801828197D887E090E00197F1F73B
:1012B0000F90DF91CF911F910F91FF900895CF93E1
:1012C000DF93EC01BC0183E03FD9BE0186E0DF91F2
:1012D000CF913AC9FC01418161E00596BDCFCF9322
:1012E000DF93EC016031F9F070F4623001F128F421
:1012F000613039F520E093E026C06430B1F0683009
:1013000001F522E01FC0683CC9F038F4603499F060
:101310006038B9F420E091E016C0693C51F06A3CB5
:1013200081F426E00FC021E00DC023E00BC024E0D3
:1013300009C025E007C020E092E005C020E094E06D
:1013400002C020E090E080E2289F90011124898172
:101350008F71282B29838C81887F982B9C83CE01C9
:10136000B9DF4C8169E0CE010596DF91CF9174CF52
:10137000CF93DF93EB01833019F0863081F01DC0ED
:10138000809114029091150268177907B1F08DEAE7
:1013900095E0A5DFD0931502C09314020EC0809192
:1013A0001202909113026817790739F085EA95E0E7
:1013B00096DFD0931302C0931202DF91CF9108956C
:1013C0008AEF90E07CDF60E170E083E0D1DF61E0F4
:1013D00082E001D861E070E080E090E09BD960E1BC
:1013E00070E086E0C5DF61E085E00E94EB0161E02E
:1013F00070E080E090E08EC98AEF90E060DF60E20C
:1014000070E083E0B5DF60E082E00E94EB0161E024
:1014100070E080E090E07ED960E270E086E0A8DFD6
:1014200061E085E00E94EB0161E070E080E090E027
:1014300071C98AEF90E043DF64E070E083E098DFF9
:1014400060E082E00E94EB0161E070E080E090E00B
:1014500061D968E070E086E08BDF61E085E00E94A2
:10146000EB0161E070E080E090E054C98AEF90E029
:1014700026DF60E170E083E07BDF60E082E00E94D5
:10148000EB0161E070E080E090E044D964E070E05E
:1014900086E06EDF61E085E00E94EB0161E070E0D4
:1014A00080E090E037C90F931F93CF93DF93EC0157
:1014B0008C010B5F1F4F4B8163E0C801CDDE48817B
:1014C00060E0C801C9DECE0105DF4A8162E0C801E3
:1014D000C3DE4C8169E0C801DF91CF911F910F916C
:1014E000BBCEEF92FF920F931F93CF93DF930097A2
:1014F00021F0019709F448C0E4C0C0912905D091BA
:101500002A058E01000F111FF801EC56FB4FE090E9
:101510002B05F0902C0520813181E21AF30A88E333
:10152000DAD8BC01990F880B990B0E9400172EE99D
:101530003FEE47EB5FEB0E94EF1726E63EE340E10C
:1015400055E40E948C170E94CD166B30710510F087
:1015500060E070E0F801EC56FB4F71836083C701D7
:10156000860F971F90932C0580932B052196CA30E8
:10157000D1052CF4D0932A05C09329059AC0109266
:101580002A051092290595C06115710529F0613071
:10159000710509F448C095C0C0912305D091240578
:1015A0008E01000F111FF801E058FB4FE090250558
:1015B000F090260520813181E21AF30A87E38BD867
:1015C000BC01990F880B990B0E9400172AEA31EF92
:1015D00042E85FEB0E94EF1726E632EC42EA55E460
:1015E0000E948C170E94CD166739710510F060E0DB
:1015F00070E0F801E058FB4F71836083C701860FEC
:10160000971F90932605809325052196CA30D10512
:101610002CF4D0932405C09323054BC010922405CD
:101620001092230546C0C0911F05D09120058E0160
:10163000000F111FF801E459FB4FE0902105F090D5
:10164000220520813181E21AF30A86E344D8BC01E5
:10165000990F880B990B0E94001726EB33EF4DE78B
:101660005FEB0E94EF1723E333EE4FEA55E40E944D
:101670008C170E94CD166739710510F060E070E09C
:10168000F801E459FB4F71836083C701860F971FF0
:1016900090932205809321052196CA30D1052CF420
:1016A000D0932005C0931F0504C01092200510920E
:1016B0001F056AE070E00E94B919709328056093D5
:1016C00027058091270590912805DF91CF911F91E3
:1016D0000F91FF90EF9008950F931F93CF93DF9397
:1016E000CDB7DEB728970FB6F894DEBF0FBECDBFDB
:1016F00060E170E089E090E037D290912D05809113
:101700002E059817B1F000911E0510E089E995E0CB
:101710000E94CD01F801E25FFA4F808380911E059F
:101720008F3020F48F5F80931E05E7CF10921E0547
:10173000E4CF91E080910E05893C08F090E081E0D3
:1017400020911005293C08F080E071E020911205FD
:10175000293C08F070E061E020911405293C08F074
:1017600060E051E020911605293C08F050E041E08E
:1017700020911805293C08F040E031E020911A053D
:10178000293C08F030E021E0E0911C05E93C08F03C
:1017900020E028960FB6F894DEBF0FBECDBFDF91D4
:1017A000CF911F910F9108950F931F93CF93DF93C4
:1017B0008C01EB018AEB96E00EDB60E080E02BD33E
:1017C000C80118D361E080E026D3CE01DF91CF912C
:1017D0001F910F910FC3EF92FF920F931F93CF931F
:1017E000DF937C018B01EA018AEB96E0F4DA60E09A
:1017F00080E011D3C701FED260E08AE00CD3C801BB
:1018000064D361E080E007D3CE01DF91CF911F91D7
:101810000F91FF90EF90EEC2CF92DF92EF92FF9286
:101820000F931F93CF93DF936C017B018A01E90132
:101830008AEB96E0D0DA60E080E0EDD2C601DAD241
:1018400060E08AE0E8D2C70140D360E08EE0E3D2F6
:10185000C8013BD361E080E0DED2CE01DF91CF91C1
:101860001F910F91FF90EF90DF90CF90C3C2CF9365
:10187000DF93CDB7DEB728970FB6F894DEBF0FBE63
:10188000CDBF2ADF211111C0311112C0711113C057
:10189000611111C051110FC041110DC081110EC055
:1018A00091110FC085E090E00EC080E090E00BC089
:1018B00081E090E008C082E090E005C083E090E025
:1018C00002C084E090E028960FB6F894DEBF0FBE09
:1018D000CDBFDF91CF9108950F931F938E32910565
:1018E000DCF546974397C0F18091080581110AC045
:1018F0000E94C2036093040570930505809306055A
:10190000909307050E94C2030091040510910505FC
:101910002091060530910705DC01CB01801B910B5E
:10192000A20BB30B853F9140A105B10560F49FDF89
:101930008630910558F4880F991FFC01EA5EFD4F2F
:101940008081918105C080E194E002C080E090E058
:1019500021E0209308054DC06E327105C4F58091D9
:101960000D0581110AC00E94C2036093090570939E
:101970000A0580930B0590930C050E94C203009109
:10198000090510910A0520910B0530910C05DC0129
:10199000CB01801B910BA20BB30B853F9140A1059E
:1019A000B10560F464DF8630910558F4880F991F03
:1019B000FC01EA5EFD4F8081918105C08AE194E0DF
:1019C00002C080E090E021E020930D0512C04FDFBF
:1019D0008630910540F4880F991FFC01EA5EFD4FA7
:1019E0008081918102C080E090E010920805109201
:1019F0000D051F910F910895CF93DF93CDB7DEB7FB
:101A000028970FB6F894DEBF0FBECDBF65DE98876E
:101A1000772331F0662321F0552311F0411114C0D2
:101A20009885911114C0811112C0711110C041111B
:101A300011C031110FC021110DC061110EC0511123
:101A40000CC083E090E00BC084E090E008C082E02E
:101A500090E005C080E090E002C081E090E0289630
:101A60000FB6F894DEBF0FBECDBFDF91CF910895C2
:101A7000382F209198059091D506213208F049C061
:101A8000809175058111FCCF42E04093750530933C
:101A900074053FEF30937305109272052093710522
:101AA000A8E7B5E041E555E0FA013E2F341B3217B7
:101AB00018F43D913193F9CF1092500520915005C3
:101AC000990F922B9093500590914F05913061F4AE
:101AD00010924F05909150059093BB009091BC00DF
:101AE00093FDF8CF95EC01C095EE9093BC009091DA
:101AF00075059230E1F3909173059F3F79F08091E5
:101B00007305803241F080917305803331F084E0B9
:101B100005C081E003C082E001C083E01092770538
:101B200010929805109276050895CF93DF931F9237
:101B3000CDB7DEB791E09093760599E29093D50604
:101B40001092770510929805682F606889E995E0F2
:101B5000498354DB4981642F89E995E04FDB81E0BB
:101B60000F90DF91CF9184CF909175059111FCCFAB
:101B7000613208F060E291E09093750590937405EE
:101B80002FEF2093730510927205260F2093710595
:101B90009093500590915005880F892B80935005A4
:101BA00080914F05813061F410924F05809150056E
:101BB0008093BB008091BC0083FDF8CF85EC01C011
:101BC00085EE8093BC00809175058130E1F38091B2
:101BD0007205861710F460917205A1E5B5E02FE259
:101BE00035E0F9018E2F821B861718F48D918193B1
:101BF000F9CF10922E0560932D05862F08950F932F
:101C00001F93CF93DF9310922E0510922D05109203
:101C1000770510929805CFDA81E08093760589E206
:101C20008093D50662E989E995E0E8DA81E020DF72
:101C300061E070E089E290E097DF89E995E00E9439
:101C4000CD01843419F0803109F05BC081E08093CC
:101C5000B506C091B806D091B906AE0160E070E05B
:101C600064DFD093B906C093B806C091B606D09190
:101C7000B7068091B506811101C0C1DFAE0160E0F9
:101C800070E08FE052DFD093B706C093B60641E014
:101C900050E060E070E080E048DF63E070E080E00A
:101CA00090E00E948A0343E050E060E070E080E052
:101CB0003CDF05EB15E0C0E0D0E0BE010D2E000CCE
:101CC000880B990B0E94001720E030E04FE753E4A7
:101CD000FCD720E030E040E250E40E94EF1720E023
:101CE00030E04FE753E40E948C170E94D216F801AF
:101CF00061938F012196C115F1E0DF07F1F681E0D4
:101D000001C080E0DF91CF911F910F910895FC01F8
:101D10009181907E92619183CF01DCCA0F931F93D2
:101D2000CF93DF93EC01623018F08D8988608D8B42
:101D3000698F1A8E8BE39DE00197F1F760E08C814B
:101D40000E94EB0160E08E810E94EB018D818F3F4C
:101D500019F060E00E94EB016D8964FD1DC063E035
:101D6000CE010E94F3050BE416E4C8010197F1F7D8
:101D700063E0CE010E94F305C8010197F1F763E02B
:101D8000CE010E94F30583E592E00197F1F762E04E
:101D9000CE010E94F30516C06062CE010E94BC060F
:101DA0008BE496E40197F1F76D896062CE010E94A1
:101DB000BC0683E592E00197F1F76D896062CE0180
:101DC0000E94BC066D896062CE010E94BC0684E060
:101DD0008E8B6CE0CE010E94BC06CE010E94EB0609
:101DE00082E08F8B66E0CE01DF91CF911F910F9142
:101DF0000C94BC06009761F0FC0101900020E9F70B
:101E00003197AF01481B590BBC018AEB96E032C0F9
:101E100080E090E00895CF93DF93CDB7DEB72897A9
:101E20000FB6F894DEBF0FBECDBF28E0ECE2F2E0C3
:101E3000DE01119601900D922A95E1F72091D306CB
:101E4000261710F46FEF620FFE013196E60FF11DB9
:101E5000E60FF11D9081682F690F60688AEB96E0AC
:101E600028960FB6F894DEBF0FBECDBFDF91CF919D
:101E70000C94BC06CF92DF92EF92FF920F931F93C8
:101E8000CF93DF936C017A018B01C0E0D0E0CE15D7
:101E9000DF0589F0D8016D918D01D601ED91FC919E
:101EA0000190F081E02DC6011995892B11F47E0176
:101EB00002C02196ECCFC701DF91CF911F910F9106
:101EC000FF90EF90DF90CF9008958F929F92AF9206
:101ED000BF92CF92DF92EF92FF920F931F93CF9317
:101EE000DF93CDB7DEB7A1970FB6F894DEBF0FBE74
:101EF000CDBF6C01990FEE08FF08F7FE2FC0E091EF
:101F0000BA06F091BB060190F081E02D6DE28AEBFC
:101F100096E019958C0122273327A9012C193D0938
:101F20004E095F0919A2CE0181967C019AE0892EA3
:101F3000912CA12CB12CCA01B901A5019401A3D601
:101F4000605DF70162937F0121153105410551055F
:101F500091F7CF014FDF800F911F1BC0A7019601A2
:101F600019A28E010F5D1F4F8AE0C82ED12CE12CE3
:101F7000F12CCA01B901A701960185D6605DF8016F
:101F800062938F01211531054105510591F7CF016C
:101F900031DFA1960FB6F894DEBF0FBECDBFDF9143
:101FA000CF911F910F91FF90EF90DF90CF90BF9056
:101FB000AF909F908F900895CF93DF93CDB7DEB70A
:101FC00028970FB6F894DEBF0FBECDBF789484B5C6
:101FD000826084BD84B5816084BD85B5826085BD25
:101FE00085B5816085BD80916E00816080936E00B3
:101FF00010928100809181008260809381008091A5
:102000008100816080938100809180008160809355
:1020100080008091B10084608093B1008091B00015
:1020200081608093B00080919100826080939100E4
:1020300080919100816080939100809190008160F7
:10204000809390008091A10082608093A100809194
:10205000A10081608093A1008091A00081608093A5
:10206000A000809121018260809321018091210153
:102070008160809321018091200181608093200103
:1020800080917A00846080937A0080917A008260E7
:1020900080937A0080917A00816080937A008091A9
:1020A0007A00806880937A001092C10062E08AEB27
:1020B00096E034DE10922E0510922D0510927705D1
:1020C0001092980578D80E94210784E08093B40587
:1020D00061E00E94EB0161E08091B4050E9468021A
:1020E00087E08093AC0561E00E94EB0161E08091A4
:1020F000AC050E94680260E083E00E94EB0161E0B1
:1021000083E00E94680260E082E00E94EB0161E0EF
:1021100082E00E94680260E086E00E94EB0161E0DC
:1021200086E00E94680260E085E00E94EB0161E0C9
:1021300085E00E94680261E070E080E090E00E942B
:102140008A031092B1051092B0051092AF0510925B
:10215000AE051092AD058DEA95E0A5D91092A905BE
:102160001092A8051092A7051092A6051092A50539
:1021700085EA95E098D98DEA95E0C9DD85EA95E094
:10218000C6DD68E08DEA95E0AAD868E085EA95E0CA
:10219000A6D88091B00580688093B0058DEA95E05F
:1021A00082D98091A80580688093A80585EA95E08A
:1021B0007AD925DD60E084E20E94680261E085E270
:1021C0000E94680260E085E20E94EB01E4E9F4E02D
:1021D00080E894E04CE654E011921192DC011D92EB
:1021E0001D92CD01DA011D921D92AD01B4E0E83AD5
:1021F000FB0791F761E086E10E94680261E087E1F8
:102200000E94680261E088E10E94680260E082E169
:102210000E94680260E083E10E9468022BEF38E0D0
:1022200030930B0220930A02809169008F738064BF
:1022300080936900EB9A3093090220930802809101
:1022400069008F7C806180936900EA9A60E086E192
:102250000E94EB0160E087E10E94EB0160E088E111
:102260000E94EB015EE2252E54E0352E6CE4462EF2
:1022700064E0562E76E5672E74E0772EE2E4AE2E0B
:10228000E4E0BE2EFAE18F2EF4E09F2E8091100242
:10229000909111028B3024E0920709F456C20CF0A1
:1022A0009CC0873FB3E09B0709F4B5C10CF03FC069
:1022B000843FA3E09A0709F44FC17CF5883E23E0F0
:1022C000920709F4E3C0833F934009F0BBC36BE678
:1022D00072E08CE792E068DA8AEF90E00E945F0992
:1022E00068E070E083E044D860E082E00E94EB01A7
:1022F00061E070E080E090E00E948A0368E070E0B6
:1023000086E036D861E085E00E94EB0161E070E094
:1023100080E090E00E948A0337C1853FB3E09B07CD
:1023200009F422C1863F934009F43DC18BC3883034
:10233000A4E09A0709F4B6C194F58C3F23E0920714
:1023400009F46EC18730944009F07CC360E070E00E
:1023500081E090E0C6D88C0161E070E081E090E01F
:10236000C0D87C012AEF32E0AC01B80188E093E0EC
:1023700053DA8AEF90E00E945F0964E070E083E046
:102380000E94B80960E082E00E94EB0161E070E029
:1023900080E090E00E948A0360E170E0C8C189306B
:1023A000B4E09B0709F499C18A30944009F04AC30C
:1023B00060E070E081E090E094D88C0161E070E032
:1023C00081E090E08ED87C012CE333E0AC01B801D1
:1023D00087E493E021DA4AD87CC18632A4E09A07E8
:1023E00009F475C23CF5803124E0920709F408C273
:1023F00074F48C30B4E09B0709F4C3C18D30944071
:1024000009F020C360E873E08FE893E0F2C18A31FD
:10241000A4E09A0709F40DC28532944009F012C372
:102420006AEC73E08AED93E0BFD90E94C2036B01AE
:102430007C0116C2823424E0920709F49DC2BCF4E8
:102440008E32B4E09B0709F45EC28833944009F0F1
:10245000F9C262E174E082E294E0A6D980E090E003
:102460000E945F090E94C2036B017C016AC28C3426
:10247000A4E09A0709F4B5C28635944009F0E2C297
:1024800069E574E082E694E08FD9DCC262E572E02F
:1024900083E692E089D98AEF90E00E945F0960E1CB
:1024A00070E083E00E94B80960E082E00E94EB01E6
:1024B00061E070E080E090E00E948A0360E170E0FB
:1024C00086E00E94B80961E085E00E94EB0168ECBB
:1024D00070E080E090E00E948A0368E070E083E0B2
:1024E0000E94B80960E082E00E94EB0161E070E0C8
:1024F00080E090E00E948A0368E070E086E00E943D
:10250000B80961E085E00E94EB0168EC70E080E0D2
:1025100090E00E948A0364E070E083E00E94B809C2
:1025200060E082E00E94EB0161E070E080E090E01A
:102530000E948A0364E070E086E00E94B80961E0CE
:1025400085E00E94EB0160E476E080E090E00E948C
:102550008A0383EF93E0B6C165E872E083E992E015
:1025600023D90E94360A07C06CE972E089EA92E03A
:102570001BD90E94190AB0D829833A834B835C8304
:102580006D837E838F83988737DA8530910540F499
:10259000880F991FFC01EE5DFD4F808191817BC00A
:1025A00083EF93E078C062EB72E082EC92E0FCD8BB
:1025B0008091B20481110AC00E94C2036093AE04EC
:1025C0007093AF048093B0049093B1040E94C2034F
:1025D000C090AE04D090AF04E090B004F090B1048D
:1025E000DC01CB018C199D09AE09BF098B389240E3
:1025F000A105B10508F410C20E94C203DC01CB01A1
:102600008C199D09AE09BF09843C9940A105B1050B
:1026100008F426C201C26BEC72E08BED92E0E9C0D7
:1026200064EE72E082EF92E0BFD80E94C2036B01B9
:102630007C010E94C203DC01CB018C199D09AE090B
:10264000BF09803D9740A105B10518F58AEF90E0DC
:102650000E945F0968E070E083E00E94B80960E0D2
:1026600082E00E94EB0161E070E080E090E00E9477
:102670008A0368E070E086E00E94B80960E085E0C7
:102680000E94EB0161E070E080E090E00E948A032C
:10269000D0CF89E094E090931102809310021092C1
:1026A000B204D0C160E070E081E090E00E94710A65
:1026B0008C0161E070E081E090E00E94710A7C0191
:1026C00021E133E0AC01B8018BE193E0A5D80E9491
:1026D000190AB701C80100D9DECF60E070E081E0DF
:1026E00090E00E94710A8C0161E070E081E090E06E
:1026F0000E94710A7C0124E233E0AC01B80183E35B
:1027000093E08AD88AEF90E00E945F0968E070E069
:1027100083E00E94B80960E082E00E94EB0161E082
:1027200070E080E090E00E948A0364E070E086E060
:102730000E94B80961E085E00E94EB0161E070E071
:1027400080E090E00E948A03C4CF60E070E081E006
:1027500090E00E94710A8C0161E070E081E090E0FD
:102760000E94710A7C0120E533E0AC01B8018FE5DD
:1027700093E052D88AEF90E00E945F0960E270E037
:10278000C7CF68E673E087E793E00ED88091B20484
:1027900081110AC00E94C2036093AE047093AF041B
:1027A0008093B0049093B1040E94C203C090AE0421
:1027B000D090AF04E090B004F090B104DC01CB0104
:1027C0008C199D09AE09BF098B389240A105B1054E
:1027D00008F4A5C10E94C203DC01CB018C199D093C
:1027E000AE09BF09843C9940A105B10508F465C153
:1027F00096C10E94D40B80E090E00E945F0922C144
:102800000E94E00961E070E081E090E00E94710ABE
:102810008C0148E953E0BC0189EA93E00E94EB0B8C
:10282000003111050CF00EC190921102809210023D
:1028300009C10E94FC0961E070E081E090E00E9423
:10284000710A8C0141EB53E0BC0182EC93E00E94E1
:10285000EB0B0B3011050CF0F5C0A5E2B4E06CC039
:102860000E94C203DC01CB018C199D09AE09BF098E
:10287000803D9740A105B10518F58AEF90E00E94D0
:102880005F0960E270E083E00E94B80960E082E0E6
:102890000E94EB0161E070E080E090E00E948A031A
:1028A00060E270E086E00E94B80961E085E00E9485
:1028B000EB0161E070E080E090E00E948A03D0CFFD
:1028C00086E294E09093110280931002BBC00E94B4
:1028D000E00960E070E080E090E00E94710A8C0105
:1028E00043EE53E0BC0184EF93E00E94EB0B003118
:1028F00011050CF0A7C0012B09F4A4C030921102FD
:10290000209210029FC00E94FC0960E070E080E00D
:1029100090E00E94710A8C014DEF53E0BC018AE007
:1029200094E00E94EB0B043011050CF08BC0012BDE
:1029300009F488C0A8E3B4E0B0931102A093100298
:1029400081C00E94C203DC01CB018C199D09AE0934
:10295000BF098E359A41A105B10528F461E087E1F0
:102960000E94EB01EECF60E087E10E94EB01B092A4
:102970001102A092100266C06AE274E089E394E05A
:102980000E94D40B8091AD0481110EC061E088E1FA
:102990000E94EB010E94C2036093A9047093AA04F1
:1029A0008093AB049093AC040E94C2030091A904ED
:1029B0001091AA042091AB043091AC04DC01CB014E
:1029C000801B910BA20BB30B853F9140A105B10574
:1029D00020F0509211024092100281E08093AD04E9
:1029E00031C061E474E080E594E00E94D40B81E0A2
:1029F0008093A8048091A804882329F061E086E1EF
:102A00000E94EB01F7CF60E086E10E94EB0170923B
:102A100011026092100216C00E94C203DC01CB01B9
:102A20008C199D09AE09BF09853C9940A105B105E6
:102A300030F087EF93E0909311028093100281E0D1
:102A40008093B2046FE070E080E090E00E948A031F
:102A500080E090E0892B09F419CC0E94000016CC8C
:102A60008AEF90E00E945F0960E170E083E00E94DD
:102A7000B80960E082E00E94EB0161E070E080E074
:102A800090E00E948A0360E170E086E00E94B8094D
:102A900061E085E00E94EB0161E070E080E090E0A1
:102AA0000E948A030E94FC0C85309105A8F5880FCE
:102AB000991FFC01EE5DFD4F2CC08AEF90E00E9453
:102AC0005F0968E070E083E00E94B80960E082E09E
:102AD0000E94EB0161E070E080E090E00E948A03D8
:102AE00068E070E086E00E94B80961E085E00E943D
:102AF000EB0161E070E080E090E00E948A030E94B8
:102B0000370C86309105E0F4880F991FFC01EA5ECE
:102B1000FD4F808191818FCF83EF93E08CCF0E9416
:102B2000C203DC01CB018C199D09AE09BF09853CAC
:102B30009940A105B10508F482CF8DE094E07BCFE8
:102B400080E090E078CFCF93DF9310929C051092B5
:102B50009B0588EE93E0A0E0B0E080939D05909304
:102B60009E05A0939F05B093A00588E392E0909303
:102B70009A058093990582E58093B205C1E0C093E0
:102B8000B3051092B1051092B0051092AF051092E6
:102B9000AE051092AD058093AA05C093AB051092C7
:102BA000A9051092A8051092A7051092A6051092EB
:102BB000A5051092B5068BEE90E09093B906809330
:102BC000B8061092B7061092B6061092BD06109283
:102BD000BC068AE492E09093BB068093BA06C09349
:102BE000CA0689E08093CB0661E00E9468020E94D9
:102BF0002107D4E0D093CC0684E00E9470051092A7
:102C0000CD068CB5837F8CBDC093CE068CB58F7DF1
:102C10008CBDC093BE068FEF8093BF0683E0809388
:102C2000C0061092C1061092C2061092C3061092FE
:102C3000C406D093C50685E08093C60686E08093DF
:102C4000C70687E08093C80661E081E00E946802C1
:102C50008091BF068F3F19F061E00E94680261E039
:102C60008091C0060E9468021092CF0661E08AEB54
:102C700096E054D88091CA06811102C01092CA060B
:102C8000DF91CF910895A1E21A2EAA1BBB1BFD0173
:102C90000DC0AA1FBB1FEE1FFF1FA217B307E4073B
:102CA000F50720F0A21BB30BE40BF50B661F771F93
:102CB000881F991F1A9469F7609570958095909573
:102CC0009B01AC01BD01CF0108950CD0EBC0E3D056
:102CD00040F0DAD030F021F45F3F19F0CCC0511150
:102CE00015C1CFC0F0D098F39923C9F35523B1F3A0
:102CF000951B550BBB27AA2762177307840738F06B
:102D00009F5F5F4F220F331F441FAA1FA9F333D0C9
:102D10000E2E3AF0E0E830D091505040E695001C7D
:102D2000CAF729D0FE2F27D0660F771F881FBB1F39
:102D3000261737074807AB07B0E809F0BB0B802D13
:102D4000BF01FF2793585F4F2AF09E3F510568F05F
:102D500092C0DCC05F3FECF3983EDCF3869577953C
:102D60006795B795F7959F5FC9F7880F911D969561
:102D7000879597F90895E1E0660F771F881FBB1FBD
:102D8000621773078407BA0720F0621B730B840B6A
:102D9000BA0BEE1F88F7E095089504D06894B1113E
:102DA000B5C0089598D088F09F5790F0B92F992713
:102DB000B751A0F0D1F0660F771F881F991F1AF046
:102DC000BA95C9F712C0B13081F09FD0B1E0089533
:102DD0009CC0672F782F8827B85F39F0B93FCCF3B4
:102DE000869577956795B395D9F73EF4909580953C
:102DF000709561957F4F8F4F9F4F0895E89409C05C
:102E000097FB3EF490958095709561957F4F8F4F1D
:102E10009F4F9923A9F0F92F96E9BB279395F69533
:102E2000879577956795B795F111F8CFFAF4BB0FB1
:102E300011F460FF1BC06F5F7F4F8F4F9F4F16C015
:102E4000882311F096E911C0772321F09EE8872F9F
:102E5000762F05C0662371F096E8862F70E060E05B
:102E60002AF09A95660F771F881FDAF7880F9695D4
:102E7000879597F9089597F99F6780E870E060E07B
:102E800008959FEF80EC089500240A941616170603
:102E900018060906089500240A941216130614064B
:102EA00005060895092E0394000C11F4882352F0AE
:102EB000BB0F40F4BF2B11F460FF04C06F5F7F4F66
:102EC0008F4F9F4F089557FD9058440F551F59F04D
:102ED0005F3F71F04795880F97FB991F61F09F3F07
:102EE00079F087950895121613061406551FF2CF30
:102EF0004695F1DF08C0161617061806991FF1CF80
:102F000086957105610508940895E894BB276627A6
:102F10007727CB0197F908950BD0C4CFB5DF28F000
:102F2000BADF18F0952309F0A6CFABCF1124EECF6E
:102F3000CADFA0F3959FD1F3950F50E0551F629F14
:102F4000F001729FBB27F00DB11D639FAA27F00D02
:102F5000B11DAA1F649F6627B00DA11D661F829F29
:102F60002227B00DA11D621F739FB00DA11D621F0E
:102F7000839FA00D611D221F749F3327A00D611D2B
:102F8000231F849F600D211D822F762F6A2F11240D
:102F90009F5750408AF0E1F088234AF0EE0FFF1F60
:102FA000BB1F661F771F881F91505040A9F79E3F97
:102FB000510570F060CFAACF5F3FECF3983EDCF391
:102FC000869577956795B795F795E7959F5FC1F7D4
:102FD000FE2B880F911D9695879597F90895FA0114
:102FE000EE0FFF1F30962105310599F1611571052E
:102FF00061F48038BFE39B0749F1689490388105FC
:1030000061F08038BFEF9B0741F0992342F5FF3F05
:10301000E1053105210511F1E8940894E795D901FE
:10302000AA2329F4AB2FBE2FF85FD0F310C0FF5FA7
:1030300070F4A695E0F7F73950F019F0FF3A38F43C
:103040009F779F930CD00F9007FC905808953EF007
:1030500018CF60E070E080E89FE308954FE79F7726
:103060005F934F933F932F939ED02F913F914F911A
:103070005F9152DF05C019F40EF0FDCE46CF01CFAF
:103080002ADFC8F39638C0F707F80F92E8942BE3CD
:103090003AEA48EB5FE74EDF0F920F920F924DB77F
:1030A0005EB70F92C0D0ECE2F1E016D04F915F9185
:1030B000EF91FF91E595EE1FFF1F49F0FE57E06885
:1030C0004427EE0F441FFA95E1F74195550B32D096
:1030D0000F9007FE26C00895DF93CF931F930F93A1
:1030E000FF92EF92DF927B018C01689405C0DA2E8B
:1030F000EF011EDFFE01E894A591259135914591E0
:103100005591AEF3EF01D4D0FE019701A801DA94F6
:1031100079F7DF90EF90FF900F911F91CF91DF91A2
:1031200008959B01AC0160E070E080E89FE3CDCDA5
:10313000A2CE11C1D0DEE8F39923D9F3940F511D2B
:10314000BBF39150504094F059F0882332F0660F51
:10315000771F881F91505040C1F79E3F510544F79B
:10316000880F911D9695879597F908955F3FACF06C
:10317000983E9CF0BB27869577956795B79508F4A0
:10318000B1609395C1F7BB0F58F711F460FFE8CF1A
:103190006F5F7F4F8F4F9F4FE3CFB8CE0EF0DBC0F6
:1031A00070CE689468CE97DEC8F39923D1F3C6F346
:1031B000DF93CF931F930F93FF92C92FDD278823AF
:1031C0002AF02197660F771F881FDAF720E030E09A
:1031D00040E85FEB9FE3883920F0803E30F0219695
:1031E0008F7755D0E4E5F1E003C051D0E1E8F1E09C
:1031F00073DF8B01BE01EC01FB2E6F5771097595D2
:10320000771F880B990BFCDD28E132E741E35FE390
:103210008FDEAF2D9801AE01FF900F911F91CF91DE
:10322000DF9146D03FCEFA01DC01AA0FBB1F9B0104
:10323000AC01BF5728F422273327442750781FC0FA
:10324000B75188F4AB2F0024469537952795011C7C
:10325000A395D2F3002069F0220F331F441FB395CA
:10326000DAF30DD013C061307105A0E88A07B946C2
:1032700030F49B01AC016627772788279078309639
:1032800021F0208331834283538308955058BB2714
:10329000AA270ED007CEF8DD30F0FDDD20F031F4A6
:1032A0009F3F11F41EF4EDCD0EF4E095E7FBE3CD66
:1032B000E92F09DE80F3BA176207730784079507C1
:1032C00018F071F49EF521CE0EF4E0950B2EBA2F76
:1032D000A02D0B01B90190010C01CA01A00111241C
:1032E000FF27591B99F0593F50F4503E68F11A16C8
:1032F000F040A22F232F342F4427585FF3CF469559
:1033000037952795A795F0405395C9F77EF41F167A
:10331000BA0B620B730B840BBAF09150A1F0FF0F44
:10332000BB1F661F771F881FC2F70EC0BA0F621F30
:10333000731F841F48F4879577956795B795F79520
:103340009E3F08F0B3CF9395880F08F09927EE0FB2
:103350009795879508959F3F31F0915020F4879578
:1033600077956795B795880F911D9695879597F9ED
:10337000089597FB072E16F4009406D077FD08D029
:1033800013D007FC05D03EF4909581959F4F08958A
:10339000709561957F4F0895EE0FFF1F881F8BBFBB
:1033A0000790F691E02D1994AA1BBB1B51E107C0B1
:1033B000AA1FBB1FA617B70710F0A61BB70B881FC5
:1033C000991F5A95A9F780959095BC01CD01089554
:0C33D00081E090E0F89400C0F894FFCF7A
:1033DC00B201B201B201B201B201B201B201B20149
:1033EC00E803080008000704080409040A040B0495
:1033FC000C04F503F303F403F603FC030000400094
:10340C001400540000000000FE08AC08F808BD01D0
:10341C00E101CD01BE0100000000F2063A0FF808F0
:10342C00F7084D4F5645544F2053544152544C4974
:10343C004E450053544154455F300053544152544F
:10344C004C4E205354524149474854005354415414
:10345C00455F31410053544152544C4E2052494720
:10346C0048540053544154455F3142005354415227
:10347C00544C4E204C4546540053544154455F31F6
:10348C0043005354415254204C4F535420534C4FEF
:10349C00570053544154455F3144005354415254E6
:1034AC00204C4F53542053544F50005354415445C7
:1034BC005F314500524F544154452039302043432D
:1034CC00570053544154455F32004D4F56452046EA
:1034DC004152204C4546540053544154455F3341AE
:1034EC00004D4F5645204C454654005354415445CD
:1034FC005F3342004D4F5645204E4F524D414C20AC
:10350C0043570053544154455F3343004D4F564588
:10351C002052494748540053544154455F334400AA
:10352C004D4F56452046415220524947485400536E
:10353C00544154455F3345004C4F535420534C4F2A
:10354C0057204D4F56450053544154455F33460068
:10355C004C4F53542053544F50204D4F564500530D
:10356C00544154455F33470042414C4C2044455430
:10357C0045435420494E20580053544154455F3420
:10358C000042414C4C2044455445435420494E2064
:10359C00590053544154455F350041444A555354E6
:1035AC0020544F20434C4F53450053544154455FD6
:1035BC0036410042414C4C20415420434C4F534522
:1035CC002049520053544154455F36420042414C0D
:1035DC004C20414C49474E45440053544154455F9F
:1035EC0037004C4F574552494E472050554C4C458F
:1035FC00590053544154455F38005455524E494E6E
:10360C0047204F4E204D41470053544154455F399C
:10361C000052414953494E472050554C4C45590096
:10362C0053544154455F31300046494E4953484547
:0C363C00440053544154455F31310000FC
:00000001FF
