:100000005AC1000089C1000087C1000085C10000FD
:1000100083C1000081C100007FC100007DC10000DC
:100020007BC1000079C1000077C1000075C10000EC
:1000300073C1000071C100006FC100006DC10000FC
:100040006BC1000069C1000067C1000065C100000C
:1000500063C1000061C100005FC1000058C400001E
:100060005BC1000059C1000057C1000055C100002C
:1000700053C1000051C100004FC100004DC100003C
:100080004BC1000049C1000047C1000045C100004C
:1000900043C1000041C100003FC100005EC6000036
:1000A0003BC1000039C1000037C1000035C100006C
:1000B00033C1000031C100002FC100002DC100007C
:1000C0002BC1000029C1000027C1000025C100008C
:1000D00023C1000021C100001FC100001DC100009C
:1000E0001BC10000A002A302920296029A02DA0249
:1000F000A702AB02B102B502B902BF02C302C70236
:10010000DA02CD02D102D502840389038E0398035B
:10011000A2031B04AC03B403BC03C603D003DA037D
:10012000E903F3031B04FD030704110407634236CC
:10013000B79BD8A71A39685618AEBAAB558C1D3C78
:10014000B7CC5763BD6DEDFD753EF6177231BF003C
:100150000000803F08000000BE922449123EABAA76
:10016000AA2ABECDCCCC4C3E00000080BEABAAAAD1
:10017000AA3E00000000BF000000803F0000000019
:1001800000084178D3BB4387D1133D190E3CC3BD52
:100190004282AD2B3E68EC8276BED98FE1A93E4CFF
:1001A00080EFFFBE01C4FF7F3F00000000000000A1
:1001B0002100240027002A002D0030003300010117
:1001C0000000040107010A010000220025002800A8
:1001D0002B002E003100340002010000050108014F
:1001E0000B010505050507050808080802020202BB
:1001F0000A0A0808040404040101010101010101C3
:100200000303030303030303040707070C0C0C0C8D
:100210000C0C0C0C02020202060606060606060676
:100220000B0B0B0B0B0B0B0B010210202008081003
:100230002040102040800201020108040201010256
:10024000040810204080804020100804020180042F
:10025000020180402010080402010804020101028A
:100260000408102040800102040810204080000093
:100270000A0B02090C0D0E08070304010000000020
:10028000000000000000000000000000000000006E
:10029000000000000000000000001211100000002B
:1002A000000000000000000000000000000000004E
:1002B00000000000C20F11241FBECFEFD1E2DEBF4D
:1002C000CDBF00E00CBF13E0A0E0B2E0E4E9F7E24C
:1002D00000E00BBF02C007900D92AC36B107D9F712
:1002E00025E0ACE6B3E001C01D92A038B207E1F70B
:1002F00011E0CBE5D1E000E006C021970109802F95
:10030000FE010E94C013CA35D10780E00807A9F793
:100310000E94460C0C94C81373CE3FB7F89480919A
:10032000CA039091CB03A091CC03B091CD0326B525
:10033000A89B05C02F3F19F00196A11DB11D3FBF1D
:10034000BA2FA92F982F8827820F911DA11DB11DAB
:10035000BC01CD0142E0660F771F881F991F4A95A7
:10036000D1F7089585ED8093BC008091BC0084FD99
:10037000FCCF10921B04089540919F03262F30E07C
:10038000240F311D21323105DCF420911B0424306F
:10039000C9F4FC0180E090E0861758F430919F0387
:1003A0002191DC01A358BC4FA30FB11D2C930196E2
:1003B000F3CF80919F03680F60939F0380E00895BF
:1003C00081E0089582E008950895E091D40380913A
:1003D000D303E81730F4F0E0EB52FC4F808190E05B
:1003E00008958FEF9FEF08959091D4038091D303E8
:1003F000981750F4E92FF0E0EB52FC4F208130E0E9
:100400009F5F9093D40302C02FEF3FEFC90108957F
:100410008091D30390E02091D403821B9109089529
:10042000CF92DF92EF92FF920F931F93CF93DF93C0
:100430007C01262F972F8A0180911C04882391F03C
:10044000C62FD72F6E01C40ED51ECC15DD0569F061
:100450006991D701ED91FC910190F081E02DC701E8
:100460001995F3CF642F822F87DFC801DF91CF91D9
:100470001F910F91FF90EF90DF90CF900895CF9351
:10048000DF931F92CDB7DEB7698320911C0422232E
:10049000D1F020913E04203240F021E030E0FC0118
:1004A0003383228380E090E014C080911D04E82F04
:1004B000F0E0E25EFB4F998190838F5F80931D0493
:1004C00080933E0404C061E0CE01019655DF81E0D7
:1004D00090E00F90DF91CF910895089580E090E033
:1004E0000895362F90E0FC01E259FD4F4491FC0144
:1004F000E85DFD4F2491FC01EE51FE4F949199234C
:1005000009F46BC0442309F455C050E0FA01319757
:10051000E231F10508F04EC08827EE58FF4F8F4FAB
:100520000C94C013809180008F7707C08091800069
:100530008F7D03C080918000877F809380003AC0C8
:1005400084B58F7702C084B58F7D84BD33C0809120
:10055000B0008F7703C08091B0008F7D8093B00092
:1005600029C0809190008F7707C0809190008F7D87
:1005700003C080919000877F809390001BC0809182
:10058000A0008F7707C08091A0008F7D03C080916D
:10059000A000877F8093A0000DC0809120018F77FD
:1005A00007C0809120018F7D03C080912001877F4B
:1005B00080932001E92FF0E0EE0FFF1FE853FE4F7C
:1005C000A591B4918FB7F894EC91311103C02095A7
:1005D0002E2301C02E2B2C938FBF0895FF920F93D3
:1005E0001F93CF93DF931F92CDB7DEB78C01F62E0A
:1005F00060E0FC018281498374DFF8019081818190
:100600009CBD8DBD8F2D8F7180688EBD000049818E
:100610000DB407FEFDCF8EB54EBD00000DB407FE34
:10062000FDCF8EB561E0F80182815BDF87E090E06D
:100630000197F1F70F90DF91CF911F910F91FF90EC
:100640000895CF93DF9390E0FC01E85DFD4F249186
:10065000FC01EE51FE4F8491882361F190E0880FF8
:10066000991FFC01E255FE4FC591D491FC01E8535E
:10067000FE4FA591B491611109C09FB7F89488818C
:10068000209582238883EC912E230BC0623061F485
:100690009FB7F8943881822F809583238883EC91CB
:1006A0002E2B2C939FBF06C08FB7F894E8812E2B7A
:1006B00028838FBFDF91CF9108951F93CF93DF934E
:1006C000182FEB0161E0BDDF209711F460E004C05A
:1006D000CF3FD10531F461E0812FDF91CF911F91A0
:1006E00000CFE12FF0E0E259FD4FE4914E2F50E0B2
:1006F000FA013197E231F10508F09DC08827EC57E7
:10070000FF4F8F4F0C94C01384B5806884BDC7BD64
:1007100097C084B5806284BDC8BD92C080918000BE
:10072000806880938000D0938900C093880088C03F
:1007300080918000806280938000D0938B00C09372
:100740008A007EC080918000886080938000D09372
:100750008D00C0938C0074C08091B000806880933D
:10076000B000C093B3006CC08091B00080628093F1
:10077000B000C093B40064C0809190008068809302
:100780009000D0939900C09398005AC08091900037
:10079000806280939000D0939B00C0939A0050C0D9
:1007A00080919000886080939000D0939D00C093CA
:1007B0009C0046C08091A00080688093A00080913A
:1007C000A0008F7B8093A000D093A900C093A800C5
:1007D00037C08091A00080628093A000D093AB00CE
:1007E000C093AA002DC08091A00088608093A000D3
:1007F000D093AD00C093AC0023C0809120018068ED
:1008000080932001D0932901C093280119C08091C1
:100810002001806280932001D0932B01C0932A0194
:100820000FC080912001886080932001D0932D011A
:10083000C0932C0105C0C038D1050CF04CCF46CF79
:10084000DF91CF911F910895863308F086539091E0
:100850007B00282F2870977F922B90937B008770C6
:10086000806480937C0080917A00806480937A0019
:1008700080917A0086FDFCCF8091780020917900EC
:1008800090E0922B08958F929F92AF92BF92CF9259
:10089000DF92EF92FF926B017C013FDD4B015C0127
:1008A000C114D104E104F104E9F037DDDC01CB012E
:1008B00088199909AA09BB09883E9340A105B10589
:1008C00078F321E0C21AD108E108F10888EE880E19
:1008D00083E0981EA11CB11CC114D104E104F104F1
:1008E00021F7DECFFF90EF90DF90CF90BF90AF90D9
:1008F0009F908F9008952FB7F8946091C6037091E0
:10090000C7038091C8039091C9032FBF08951F9218
:100910000F920FB60F9211242F933F938F939F93B3
:10092000AF93BF938091C6039091C703A091C80372
:10093000B091C9033091C50323E0230F2D3720F474
:100940000196A11DB11D05C026E8230F0296A11D29
:10095000B11D2093C5038093C6039093C703A09352
:10096000C803B093C9038091CA039091CB03A091AF
:10097000CC03B091CD030196A11DB11D8093CA0394
:100980009093CB03A093CC03B093CD03BF91AF91D1
:100990009F918F913F912F910F900FBE0F901F90BD
:1009A00018959CB5282F23709C7F922B9CBD2DB54C
:1009B00082FB992790F9822F8E7F892B8DBD089518
:1009C000CF93DF93EC018A89ECDF8C89811103C01E
:1009D0008CB5806202C08CB58F7D8CBD8CB5837F59
:1009E0009B89892B8CBD60E089897BDD8F858EBDDD
:1009F00000000DB407FEFDCF8EB561E08989DF915F
:100A0000CF916FCDCF92DF92EF92FF92CF93DF9392
:100A1000EC01888981110CC060E08E8162DD61E0AB
:100A20008E815FDD60E08E815CDD8BE891E033C01C
:100A3000C12CD12C7601C394D701C6010E8004C00D
:100A4000880F991FAA1FBB1F0A94D2F780959F8514
:100A500089238F87CE01B4DFD701C6010E8004C081
:100A6000880F991FAA1FBB1F0A94D2F72F85822BCC
:100A70008F87CE01A5DF0E8004C0CC0CDD1CEE1CE0
:100A8000FF1C0A94D2F7C0948F85C822CF86CE016E
:100A900097DF8BE990E00197F1F7DF91CF91FF901D
:100AA000EF90DF90CF9008958F929F92AF92BF9278
:100AB000CF92DF92EF92FF920F931F93CF93DF932A
:100AC000EC018889062F10E081111FC05E0187E0CC
:100AD000A80EB11CE12CF12C650161E0F5018191BA
:100AE0005F01AFDDB8010E2C02C0759567950A94C1
:100AF000E2F76170F6018081F4DCFFEFEF1AFF0A84
:100B000084E0E816F10441F732C084E090E0812CE3
:100B1000912C540183949C0124503109A80102C0F6
:100B2000559547952A95E2F72F8540FF0DC0750131
:100B30006401082E04C0CC0CDD1CEE1CFF1C0A94C2
:100B4000D2F7C22ACF860DC0B501A401082E04C079
:100B5000440F551F661F771F0A94D2F74095422312
:100B60004F87019688309105B1F6CE0129DFCE017D
:100B7000DF91CF911F910F91FF90EF90DF90CF9079
:100B8000BF90AF909F908F903DCFAF92BF92CF928A
:100B9000DF92EF92FF920F931F93CF93DF93EC01BD
:100BA000F62E642F8C819DDC8D818F3F11F060E0EB
:100BB00098DC8D890F2D10E084FF2AC05E0187E04C
:100BC000A80EB11CE12CF12C650161E0F5018191C9
:100BD0005F0137DDB8010E2C02C0759567950A9448
:100BE000E2F76170F60180817CDCFFEFEF1AFF0A0B
:100BF00088E0E816F10441F7CE01DF91CF911F9113
:100C00000F91FF90EF90DF90CF90BF90AF90FACE12
:100C1000B80184E0759567958A95E1F7CE0144DFC8
:100C20006F2DCE01DF91CF911F910F91FF90EF902B
:100C3000DF90CF90BF90AF9037CF1F93CF93DF93CC
:100C4000FC012089211105C040E0DF91CF911F9167
:100C50009CCF162FEC0181E090E0A0E0B0E0048092
:100C600004C0880F991FAA1FBB1F0A94D2F7809552
:100C7000978589238787CF01A3DE612F70E084E009
:100C8000759567958A95E1F7CE010EDF612FCE014C
:100C9000DF91CF911F9108CF1F93CF93DF93EC018A
:100CA000162F8889811104C041E0CE016EDF1DC07E
:100CB00081E090E0A0E0B0E00C8004C0880F991FB4
:100CC000AA1FBB1F0A94D2F72F85822B8F87CE01D4
:100CD00077DE612F70E084E0759567958A95E1F77E
:100CE000CE01E2DE612FCE01DFDE81E090E0DF9118
:100CF000CF911F910895CF93CFB7F8948091C403FB
:100D0000811123C0E7E1F2E08491EDE5F2E09491F6
:100D1000E82FF0E0EE0FFF1FE255FE4FA591B491D2
:100D2000EC91E92319F461E085E3DBDB61E085E325
:100D300088DC8CB580618CBD8CB580648CBD61E035
:100D400084E37FDC61E083E37CDC8091C4038F5F1C
:100D50008093C403CFBFCF9108951F920F920FB617
:100D60000F9211240BB60F922F933F934F935F93E3
:100D70006F937F938F939F93AF93BF93EF93FF9363
:100D80008091B900887F803609F49CC068F588326C
:100D900009F45BC090F4803109F454C038F488231E
:100DA00009F4F6C0883009F44DC0F5C0883109F463
:100DB0004CC0803209F45DC0EEC0803409F468C0D4
:100DC00048F4803309F455C0883309F0E4C08093B7
:100DD0001904D8C0803509F44FC0883509F45DC0C6
:100DE000883409F0D8C0D6C0883909F4C7C0A8F43F
:100DF000883709F467C038F4883609F463C080374F
:100E000009F460C0C8C0883809F4B8C0803909F452
:100E10005FC0803809F0BFC05BC0803B09F486C06A
:100E200038F4803A09F466C0883A09F47FC0B3C048
:100E3000803C09F4A7C0883C09F4A4C0883B09F4AD
:100E40008AC0A9C08091F60310C0909118048091C7
:100E50001704981770F5E091180481E08E0F8093C5
:100E60001804F0E0E950FC4F80818093BB0085ECD2
:100E700086C0809319048EC0E091180481E08E0F23
:100E8000809318048091BB00F0E0E950FC4F808310
:100E900090911804809117046EC0E091180481E0CD
:100EA0008E0F809318048091BB00F0E0E950FC4F56
:100EB000808380911A0481116DC081E08093F503D5
:100EC00084EA61C083E080931B041092C303CFCFF8
:100ED0008091C303803208F051C0E091C30381E0E8
:100EE0008E0F8093C3038091BB00F0E0ED55FC4F63
:100EF0008083BDCF85EC8093BC0010921B04809151
:100F0000C303803230F4E091C303F0E0ED55FC4FB1
:100F100010826091C30370E0E091A103F091A203FD
:100F200083EA93E019951092C30335C084E080935F
:100F30001B041092A00310929F03E0919D03F09177
:100F40009E03199580919F03811105C081E08093D4
:100F50009F0310927D03E091A00381E08E0F8093A8
:100F6000A003F0E0E358FC4F80818093BB00909198
:100F7000A00380919F03981708F479CF85E88093A8
:100F8000BC0009C085EC8093BC0010921B0403C018
:100F900010921904E7D9FF91EF91BF91AF919F9102
:100FA0008F917F916F915F914F913F912F910F9012
:100FB0000BBE0F900FBE0F901F90189510921B0440
:100FC00081E080931A041092F50361E084E189DAEC
:100FD00061E085E186DAE9EBF0E080818E7F808355
:100FE00080818D7F808388E48093B80085E480933E
:100FF000BC000895CF93DF93EC01BC0183E05DDB7F
:10100000BE0186E0DF91CF9158CBFC01418161E0C8
:101010000596E4CACF93DF93EC016031F9F070F4E8
:10102000623001F128F4613039F520E093E026C008
:101030006430B1F0683001F522E01FC0683CC9F0AF
:1010400038F4603499F06038B9F420E091E016C0CB
:10105000693C51F06A3C81F426E00FC021E00DC0EC
:1010600023E00BC024E009C025E007C020E092E0A7
:1010700005C020E094E002C020E090E080E2289FDC
:101080009001112489818F71282B29838C81887F7D
:10109000982B9C83CE01B9DF4C8169E0CE01059687
:1010A000DF91CF919BCACF93DF93EB01833019F08F
:1010B000863081F01DC08091020290910302681772
:1010C0007907B1F083E594E0A5DFD0930302C093E4
:1010D00002020EC080910002909101026817790708
:1010E00039F08BE494E096DFD0930102C0930002C4
:1010F000DF91CF9108958AEF90E07CDF64E070E0AB
:1011000083E0D1DF60E082E0ECD961E070E080E074
:1011100090E0B9DB68E070E086E0C5DF61E085E083
:10112000E0D961E070E080E090E0ADCB8AEF90E044
:1011300061DF68E070E083E0B6DF60E082E0D1D993
:1011400061E070E080E090E09EDB64E070E086E0CB
:10115000AADF61E085E0C5D961E070E080E090E061
:1011600092CB0F931F93CF93DF93EC018C010B5F16
:101170001F4F4B8163E0C80131DA488160E0C8014C
:101180002DDACE0142DF4A8162E0C80127DA4C81C4
:1011900069E0C801DF91CF911F910F911FCA0F9392
:1011A0001F93CF93DF93CDB7DEB728970FB6F89490
:1011B000DEBF0FBECDBF60E170E089E090E0A3D15B
:1011C0009091D3038091D4039817A9F000917C03E8
:1011D00010E08FE394E008D9F801E459FC4F8083D4
:1011E00080917C038F3020F48F5F80937C03E8CF65
:1011F00010927C03E5CF91E080916C038B3A08F06C
:1012000090E081E020916E032B3A08F080E071E0DD
:10121000209170032B3A08F070E061E02091720396
:101220002B3A08F060E051E0209174032B3A08F06B
:1012300050E041E0209176032B3A08F040E031E0A5
:10124000209178032B3A08F030E021E0E0917A0316
:10125000EB3A08F020E028960FB6F894DEBF0FBEF8
:10126000CDBFDF91CF911F910F9108950F931F93E1
:10127000CF93DF938C01EB0161E080E695E0DDDC4C
:10128000EBE3FFE13197F1F780E08AD2C80177D232
:1012900081E086D2CE01DF91CF911F910F916FC275
:1012A00082309105A1F03CF4009771F00197B9F4F8
:1012B00028E034E014C08430910579F05CF00597A3
:1012C00071F42CE034E00BC027E034E008C029E0E2
:1012D00034E005C02AE034E002C02BE034E0C9016C
:1012E0000895CF93DF93CDB7DEB728970FB6F89464
:1012F000DEBF0FBECDBF53DF211111C0311112C0AF
:10130000711113C0611111C051110FC041110DC0F5
:1013100081110EC091110FC085E090E00EC080E0F9
:1013200090E00BC081E090E008C082E090E005C052
:1013300083E090E002C084E090E028960FB6F89435
:10134000DEBF0FBECDBFDF91CF91089584972CF003
:10135000643271052CF0C5DFA3CF80E194E00895DD
:101360008AE194E008958130910571F02CF4892B85
:1013700081F425EF33E00DC08230910541F00397F1
:1013800041F42CEF33E005C023EF33E002C024EF3B
:1013900033E0C9010895CF93DF93CDB7DEB7289727
:1013A0000FB6F894DEBF0FBECDBFF9DE29833A83B6
:1013B0008F839887772331F0662321F0552311F02E
:1013C000411112C08885811112C08F8181110FC017
:1013D00071110DC041110EC08A8181110BC099811C
:1013E00081E0892790E008C083E090E005C082E0BA
:1013F00090E002C080E090E028960FB6F894DEBF3F
:101400000FBECDBFDF91CF910895382F20913E04BC
:1014100090917B05213208F049C080911B04811115
:10142000FCCF42E040931B0430931A043FEF30930B
:1014300019041092180420931704AEE1B4E047EFAA
:1014400053E0FA013E2F341B321718F43D913193CB
:10145000F9CF1092F6032091F603990F922B9093F7
:10146000F6039091F503913061F41092F503909199
:10147000F6039093BB009091BC0093FDF8CF95ECE0
:1014800001C095EE9093BC0090911B049230E1F363
:10149000909119049F3F79F080911904803241F0B6
:1014A00080911904803331F084E005C081E003C0ED
:1014B00082E001C083E010921D0410923E0410925D
:1014C0001C040895CF93DF931F92CDB7DEB791E050
:1014D00090931C0499E290937B0510921D04109246
:1014E0003E04682F60688FE394E049830E943F02C6
:1014F0004981642F8FE394E00E943F0281E00F90C6
:10150000DF91CF9182CF90911B049111FCCF61327A
:1015100008F060E291E090931B0490931A042FEF7F
:101520002093190410921804260F20931704909307
:10153000F6039091F603880F892B8093F603809130
:10154000F503813061F41092F5038091F6038093E6
:10155000BB008091BC0083FDF8CF85EC01C085EE17
:101560008093BC0080911B048130E1F380911804CA
:10157000861710F460911804A7EFB3E025ED33E06F
:10158000F9018E2F821B861718F48D918193F9CF64
:101590001092D4036093D303862F08950F931F9363
:1015A000CF93DF931092D4031092D30310921D04B3
:1015B00010923E0403DD81E080931C0489E2809355
:1015C0007B0562E98FE394E00E943F0281E01DDF2A
:1015D00061E070E089E290E096DF8FE394E00E94A2
:1015E000F401843419F0803109F056C081E0809311
:1015F0005B05C0915E05D0915F05AE0160E070E0D3
:1016000061DFD0935F05C0935E05C0915C05D0910A
:101610005D0580915B05811101C0C0DFAE0160E016
:1016200070E08FE04FDFD0935D05C0935C0541E033
:1016300050E060E070E080E045DF63E070E080E073
:1016400090E021D943E050E060E070E080E03ADFD4
:101650000BE514E0C0E0D0E0BE010D2E000C880BBD
:10166000990BD5D520E030E04FE753E435D520E0A5
:1016700030E040E250E4BAD620E030E04FE753E4F7
:1016800052D697D5F80161938F012196C115F1E0EB
:10169000DF0711F781E001C080E0DF91CF911F915A
:1016A0000F910895FC019181907E92619183CF0109
:1016B000ACCC0F931F93CF93DF93EC01623018F003
:1016C0008D8988608D8B698F1A8E8BE39DE00197E1
:1016D000F1F760E08C810E94710260E08E810E94CF
:1016E00071028D818F3F19F060E00E9471026D8957
:1016F00064FD19C063E0CE01D7D90BE416E4C8013C
:101700000197F1F763E0CE01CFD9C8010197F1F756
:1017100063E0CE01C9D983E592E00197F1F762E079
:10172000CE01C2D913C06062CE0187DA8BE496E4A1
:101730000197F1F76D896062CE017FDA83E592E06F
:101740000197F1F76D896062CE0177DA6D89606289
:10175000CE0173DA84E08E8B6CE0CE016EDA61E04C
:10176000CE016BDA8BE39FE10197F1F782E08F8B7B
:1017700066E0CE01DF91CF911F910F915ECA009775
:1017800061F0FC0101900020E9F73197AF01481B9F
:10179000590BBC0180E695E04EC080E090E00895D2
:1017A000CF93DF93CDB7DEB728970FB6F894DEBF9F
:1017B0000FBECDBF98E0E6E0F2E0DE0111960190A9
:1017C0000D929A95E1F790917905981710F48FEFA3
:1017D000890FFE013196E80FF11DE80FF11D6081C0
:1017E000606880E695E028960FB6F894DEBF0FBEDD
:1017F000CDBFDF91CF9121CA009721F00197C9F4A5
:1018000086E301C087E320D8BC01990F880B990BB0
:10181000FED42BE038E240EA5BE385D52EE432E6E5
:1018200040EB5FEBE3D529E134E84BE552E47BD5AF
:10183000BBD4CB010895CF92DF92EF92FF920F932A
:101840001F93CF93DF936C017A018B01C0E0D0E04E
:10185000CE15DF0589F0D8016D918D01D601ED918E
:10186000FC910190F081E02DC6011995892B11F4AE
:101870007E0102C02196ECCFC701DF91CF911F916D
:101880000F91FF90EF90DF90CF900895CF93DF936B
:10189000CDB7DEB728970FB6F894DEBF0FBECDBF29
:1018A000789484B5826084BD84B5816084BD85B53B
:1018B000826085BD85B5816085BD80916E00816047
:1018C00080936E00109281008091810082608093ED
:1018D00081008091810081608093810080918000EF
:1018E0008160809380008091B10084608093B1001A
:1018F0008091B00081608093B000809191008260FF
:1019000080939100809191008160809391008091FB
:1019100090008160809390008091A100826080930C
:10192000A1008091A10081608093A1008091A0001E
:1019300081608093A00080912101826080932101C9
:10194000809121018160809321018091200181603B
:101950008093200180917A00846080937A00809146
:101960007A00826080937A0080917A00816080930F
:101970007A0080917A00806880937A001092C1008A
:1019800062E080E695E095DE1092D4031092D303D6
:1019900010921D0410923E0411DBADD984E08093B7
:1019A0005A0461E00E94710261E080915A040E9431
:1019B000210387E08093520461E00E94710261E09C
:1019C000809152040E94210360E083E00E94710232
:1019D00061E083E00E94210360E082E00E947102E6
:1019E00061E082E00E94210360E086E00E947102D3
:1019F00061E086E00E94210360E085E00E947102C0
:101A000061E085E00E94210361E070E080E090E009
:101A10000E944304109257041092560410925504E9
:101A2000109254041092530483E594E09ADB1092D0
:101A30004F0410924E0410924D0410924C041092D8
:101A40004B048BE494E08DDB83E594E02BDE8BE4A8
:101A500094E028DE68E083E594E0DCDA68E08BE47B
:101A600094E0D8DA8091560480688093560483E528
:101A700094E077DB80914E04806880934E048BE481
:101A800094E06FDB8BDD60E083E20E94210360E085
:101A900084E20E94210361E085E20E94210360E06C
:101AA00085E20E94710261E086E10E94210361E00B
:101AB00087E10E94210361E088E10E94210360E048
:101AC00086E10E94710260E087E10E94710260E09D
:101AD00088E10E94710280E0482E80E0582E0DE0DF
:101AE00014E0332433949AE1E92E94E0F92E29E0AE
:101AF000C22E24E0D22E33EFA32E33E0B32E8091FA
:101B0000040290910502883024E0920709F415C17F
:101B10000CF049C0843F23E0920709F4A4C074F597
:101B2000883E23E0920709F475C0833F934009F093
:101B300009C265E472E086E592E098DB8AEF90E006
:101B400059DA68E070E083E0AEDA60E082E00E949B
:101B5000710261E070E080E090E00E94430468E080
:101B600070E086E0A0DA61E085E00E94710261E049
:101B700070E080E090E00E9443047CC08C3F23E052
:101B8000920709F47EC0873024E0920709F4B4C0BC
:101B9000853F934009F0D6C169E772E08AE892E098
:101BA00065DBA9DA66C08C3024E0920709F419C11C
:101BB000D4F48A3024E0920709F404C10CF0D5C0B3
:101BC00063ED72E082EE92E051DB80E090E014DEA3
:101BD0004C0181E090E010DE3C018AEF90E00ADAEF
:101BE00068E070E0D4C0803124E0920709F458C165
:101BF0008A3124E0920709F481C18D30944009F0C4
:101C0000A1C16FE273E08EE393E030DB80E090E00F
:101C1000F1D946C16CE272E08DE392E027DB8AEFF6
:101C200090E0E8D964E070E083E03DDA60E082E0D3
:101C30000E94710261E070E080E090E00E94430445
:101C400064E070E086E02FDA61E085E00E947102D6
:101C500060ED77E080E090E00E944304B0920502DE
:101C6000A09204026FC16FE572E080E792E0FEDAB5
:101C70005DDA95DA90DB77DB9093050280930402BE
:101C800061C163E972E081EA92E0F0DA0E947B04CC
:101C90003B014C010E947B04DC01CB0186199709B2
:101CA000A809B909803D9740A105B10500F58AEF63
:101CB00090E0A0D968E070E083E0F5D960E082E0D0
:101CC0000E94710261E070E080E090E00E944304B5
:101CD00068E070E086E0E7D960E085E00E9471028C
:101CE00061E070E080E090E00E944304D3CFD092A6
:101CF0000502C092040226C169EA72E087EB92E015
:101D0000B5DA80E090E078DD4C0181E090E074DDB0
:101D10003C018AEF90E06ED964E070E083E0C3D9C3
:101D200060E082E00E94710261E070E080E090E09B
:101D30000E94430460E170E038C060EC72E08AEC1D
:101D400092E094DA80E090E057DD4C0181E090E091
:101D500053DD3C01D0D9B301C401F8DA90930502F8
:101D6000809304021092D203EDC06FEF72E08EE018
:101D700093E07CDA80E090E03FDD4C0181E090E090
:101D80003BDD3C018AEF90E035D960E170E083E013
:101D90008AD960E082E00E94710261E070E080E038
:101DA00090E00E94430464E070E086E07CD961E04A
:101DB00085E00E94710261E070E080E090E00E94A6
:101DC0004304C9CF6BEE72E086EF92E04FDA80E019
:101DD00090E012DD4C0181E090E00EDD3C01A6D9DF
:101DE000BACF67E173E086E293E040DA8091D203F4
:101DF00081110AC00E947B046093CE037093CF03CD
:101E00008093D0039093D1030E947B046090CE0313
:101E10007090CF038090D0039090D103DC01CB0170
:101E200086199709A809B909853F9140A105B1050F
:101E300008F495C00E947B04DC01CB018619970948
:101E4000A809B909843C9940A105B10508F087C0EB
:101E50008AEF90E0CFD864E070E083E024D960E0BE
:101E600082E00E94710261E070E080E090E00E94F8
:101E7000430464E070E086E016D961E085E00E94EA
:101E8000710261E070E080E090E00E94430429DA92
:101E900007DA90930502809304023092D20352C075
:101EA00067E473E085E593E0E1D98AEF90E0A2D89A
:101EB00060E170E083E0F7D861E082E00E947102A7
:101EC00061E070E080E090E00E94430460E170E037
:101ED00086E0E9D861E085E00E94710261E070E08F
:101EE00080E090E00E94430481E090E085DC8497EC
:101EF0004CF5F0920502E092040224C06DE573E017
:101F000085E593E0B3D98AEF90E074D860E170E0A2
:101F100083E0C9D860E082E00E94710261E070E075
:101F200080E090E00E94430460E170E086E0BBD86E
:101F300061E085E00E94710261E070E080E090E085
:101F40000E9443046FE070E080E090E00E94430450
:101F50004114510409F4D3CD0E940000D0CD0E9459
:101F60007B04DC01CB0186199709A809B909853CD6
:101F70009940A105B10508F490CF10930502009394
:101F800004028BCFCF93DF9310924204109241044E
:101F900088EE93E0A0E0B0E0809343049093440483
:101FA000A0934504B093460482E192E090934004EC
:101FB00080933F0482E580935804C1E0C0935904A4
:101FC0001092570410925604109255041092540423
:101FD0001092530480935004C093510410924F0404
:101FE00010924E0410924D0410924C0410924B0427
:101FF00010925B058BEE90E090935F0580935E05F9
:1020000010925D0510925C051092630510926205B6
:1020100084E292E09093610580936005C09370051F
:1020200089E08093710561E00E9421030E947B0694
:10203000D4E0D093720584E00E94D104109273051D
:102040008CB5837F8CBDC09374058CB58F7D8CBDA2
:10205000C09364058FEF8093650583E080936605E8
:1020600010926705109268051092690510926A0532
:10207000D0936B0585E080936C0586E080936D05B9
:1020800087E080936E0561E081E00E9421038091EA
:1020900065058F3F19F061E00E94210361E08091A6
:1020A00066050E9421031092750561E080E695E0C7
:1020B00000DB80917005811102C0109270050E94B2
:1020C0007B0460937C0570937D0580937E059093DF
:1020D0007F05DF91CF9108950CD0EBC0E3D040F0A5
:1020E000DAD030F021F45F3F19F0CCC0511115C1A6
:1020F000CFC0F0D098F39923C9F35523B1F3951BC2
:10210000550BBB27AA2762177307840738F09F5F18
:102110005F4F220F331F441FAA1FA9F333D00E2E87
:102120003AF0E0E830D091505040E695001CCAF7F4
:1021300029D0FE2F27D0660F771F881FBB1F2617B9
:1021400037074807AB07B0E809F0BB0B802DBF018C
:10215000FF2793585F4F2AF09E3F510568F092C0C9
:10216000DCC05F3FECF3983EDCF38695779567958E
:10217000B795F7959F5FC9F7880F911D969587953D
:1021800097F90895E1E0660F771F881FBB1F62175C
:1021900073078407BA0720F0621B730B840BBA0B1A
:1021A000EE1F88F7E095089504D06894B111B5C08A
:1021B000089598D088F09F5790F0B92F9927B7517C
:1021C000A0F0D1F0660F771F881F991F1AF0BA95FB
:1021D000C9F712C0B13081F09FD0B1E008959CC022
:1021E000672F782F8827B85F39F0B93FCCF38695F1
:1021F00077956795B395D9F73EF49095809570954E
:1022000061957F4F8F4F9F4F0895E89409C097FBCA
:102210003EF490958095709561957F4F8F4F9F4FBD
:102220009923A9F0F92F96E9BB279395F695879501
:1022300077956795B795F111F8CFFAF4BB0F11F4C4
:1022400060FF1BC06F5F7F4F8F4F9F4F16C088236B
:1022500011F096E911C0772321F09EE8872F762FA1
:1022600005C0662371F096E8862F70E060E02AF0E2
:102270009A95660F771F881FDAF7880F96958795CE
:1022800097F9089597F99F6780E870E060E00895F6
:102290009FEF80EC089500240A941616170618067E
:1022A0000906089500240A9412161306140605065A
:1022B0000895092E0394000C11F4882352F0BB0FEB
:1022C00040F4BF2B11F460FF04C06F5F7F4F8F4F4E
:1022D0009F4F089557FD9058440F551F59F05F3F89
:1022E00071F04795880F97FB991F61F09F3F79F038
:1022F00087950895121613061406551FF2CF4695BA
:10230000F1DF08C0161617061806991FF1CF86953B
:102310007105610508940895E894BB27662777271F
:10232000CB0197F908950BD0C4CFB5DF28F0BADF01
:1023300018F0952309F0A6CFABCF1124EECFCADF5A
:10234000A0F3959FD1F3950F50E0551F629FF001C8
:10235000729FBB27F00DB11D639FAA27F00DB11D21
:10236000AA1F649F6627B00DA11D661F829F2227AA
:10237000B00DA11D621F739FB00DA11D621F839F31
:10238000A00D611D221F749F3327A00D611D231F07
:10239000849F600D211D822F762F6A2F11249F5755
:1023A00050408AF0E1F088234AF0EE0FFF1FBB1F78
:1023B000661F771F881F91505040A9F79E3F510517
:1023C00070F060CFAACF5F3FECF3983EDCF38695C8
:1023D00077956795B795F795E7959F5FC1F7FE2BC2
:1023E000880F911D9695879597F90895FA01EE0F3C
:1023F000FF1F30962105310599F16115710561F4D2
:102400008038BFE39B0749F168949038810561F0FB
:102410008038BFEF9B0741F0992342F5FF3FE1056C
:102420003105210511F1E8940894E795D901AA2313
:1024300029F4AB2FBE2FF85FD0F310C0FF5F70F40C
:10244000A695E0F7F73950F019F0FF3A38F49F7786
:102450009F930CD00F9007FC905808953EF018CF32
:1024600060E070E080E89FE308954FE79F775F9317
:102470004F933F932F939ED02F913F914F915F9118
:1024800052DF05C019F40EF0FDCE46CF01CF2ADF92
:10249000C8F39638C0F707F80F92E8942BE33AEAAE
:1024A00048EB5FE74EDF0F920F920F924DB75EB78A
:1024B0000F92C0D0ECE2F1E016D04F915F91EF9116
:1024C000FF91E595EE1FFF1F49F0FE57E068442796
:1024D000EE0F441FFA95E1F74195550B32D00F905E
:1024E00007FE26C00895DF93CF931F930F93FF92AB
:1024F000EF92DF927B018C01689405C0DA2EEF0128
:102500001EDFFE01E894A5912591359145915591E5
:10251000AEF3EF01D4D0FE019701A801DA9479F768
:10252000DF90EF90FF900F911F91CF91DF91089571
:102530009B01AC0160E070E080E89FE3CDCDA2CECE
:1025400011C1D0DEE8F39923D9F3940F511DBBF3E9
:102550009150504094F059F0882332F0660F771F65
:10256000881F91505040C1F79E3F510544F7880F96
:10257000911D9695879597F908955F3FACF0983E29
:102580009CF0BB27869577956795B79508F4B16061
:102590009395C1F7BB0F58F711F460FFE8CF6F5F59
:1025A0007F4F8F4F9F4FE3CFB8CE0EF0DBC070CE82
:1025B000689468CE97DEC8F39923D1F3C6F3DF930E
:1025C000CF931F930F93FF92C92FDD2788232AF003
:1025D0002197660F771F881FDAF720E030E040E888
:1025E0005FEB9FE3883920F0803E30F021968F77B3
:1025F00055D0E4E5F1E003C051D0E1E8F1E073DF4C
:102600008B01BE01EC01FB2E6F5771097595771F89
:10261000880B990BFCDD28E132E741E35FE38FDEB5
:10262000AF2D9801AE01FF900F911F91CF91DF91D7
:1026300046D03FCEFA01DC01AA0FBB1F9B01AC01C3
:10264000BF5728F422273327442750781FC0B7519B
:1026500088F4AB2F0024469537952795011CA39548
:10266000D2F3002069F0220F331F441FB395DAF331
:102670000DD013C061307105A0E88A07B94630F467
:102680009B01AC016627772788279078309621F048
:10269000208331834283538308955058BB27AA2750
:1026A0000ED007CEF8DD30F0FDDD20F031F49F3F95
:1026B00011F41EF4EDCD0EF4E095E7FBE3CDE92F28
:1026C00009DE80F3BA17620773078407950718F0CD
:1026D00071F49EF521CE0EF4E0950B2EBA2FA02DAD
:1026E0000B01B90190010C01CA01A0011124FF27BF
:1026F000591B99F0593F50F4503E68F11A16F040BA
:10270000A22F232F342F4427585FF3CF46953795B8
:102710002795A795F0405395C9F77EF41F16BA0B7D
:10272000620B730B840BBAF09150A1F0FF0FBB1F2B
:10273000661F771F881FC2F70EC0BA0F621F731F74
:10274000841F48F4879577956795B795F7959E3FD1
:1027500008F0B3CF9395880F08F09927EE0F97955F
:10276000879508959F3F31F0915020F48795779594
:102770006795B795880F911D9695879597F9089558
:10278000EE0FFF1F881F8BBF0790F691E02D199465
:04279000F894FFCFEB
:1027940008000800E8030000400014005400000092
:1027A40000003F0210026E02E4010802F401E50198
:1027B400000000004C061B0C6E026D024D4F564586
:1027C400544F2053544152544C494E4500535441A4
:1027D40054455F300053544152544C494E45204DAA
:1027E4004F564553540053544154455F31410053AF
:1027F400544152544C494E45204D4F564552540075
:1028040053544154455F31420053544152544C494E
:102814004E45204D4F56454C540053544154455F4A
:10282400314300524F5441544520393020434357DB
:102834000053544154455F32004D4F5645204641A4
:1028440052204C4546540053544154455F33410093
:102854004D4F5645204C4546540053544154455F12
:102864003342004D4F5645204E4F524D414C20436C
:10287400570053544154455F3343004D4F56452050
:1028840052494748540053544154455F3344004D22
:102894004F5645204641522052494748540053540C
:1028A4004154455F3345004C4F535420534C4F57CC
:1028B400204D4F56450053544154455F3346004C18
:1028C4004F53542053544F50204D4F5645005354AA
:1028D4004154455F33470042414C4C2044455445E4
:1028E400435420580053544154455F340042414CF2
:0C28F4004C20444554454354205900003A
:020000023000CC
:10E000000D9489F10D94B2F10D94B2F10D94B2F129
:10E010000D94B2F10D94B2F10D94B2F10D94B2F1F0
:10E020000D94B2F10D94B2F10D94B2F10D94B2F1E0
:10E030000D94B2F10D94B2F10D94B2F10D94B2F1D0
:10E040000D94B2F10D94B2F10D94B2F10D94B2F1C0
:10E050000D94B2F10D94B2F10D94B2F10D94B2F1B0
:10E060000D94B2F10D94B2F10D94B2F10D94B2F1A0
:10E070000D94B2F10D94B2F10D94B2F10D94B2F190
:10E080000D94B2F10D94B2F10D94B2F10D94B2F180
:10E090000D94B2F10D94B2F10D94B2F10D94B2F170
:10E0A0000D94B2F10D94B2F10D94B2F10D94B2F160
:10E0B0000D94B2F10D94B2F10D94B2F10D94B2F150
:10E0C0000D94B2F10D94B2F10D94B2F10D94B2F140
:10E0D0000D94B2F10D94B2F10D94B2F10D94B2F130
:10E0E0000D94B2F141546D656761323536300041AF
:10E0F000726475696E6F206578706C6F72657220DE
:10E1000073746B3530305632206279204D4C530099
:10E11000426F6F746C6F616465723E004875683F52
:10E1200000436F6D70696C6564206F6E203D200048
:10E130004350552054797065202020203D20005FF9
:10E140005F4156525F415243485F5F3D2000415658
:10E1500052204C696243205665723D20004743437C
:10E160002056657273696F6E203D20004350552024
:10E1700049442020202020203D20004C6F7720663D
:10E18000757365202020203D20004869676820665F
:10E190007573652020203D200045787420667573D6
:10E1A00065202020203D20004C6F636B2066757336
:10E1B000652020203D20004D617220203720323024
:10E1C000313300312E362E3800342E332E350056A2
:10E1D00023202020414444522020206F7020636F70
:10E1E00064652020202020696E73747275637469E1
:10E1F0006F6E2061646472202020496E74657272B3
:10E20000757074006E6F20766563746F7200726A49
:10E210006D702020006A6D70200057686174207056
:10E220006F72743A00506F7274206E6F7420737541
:10E2300070706F72746564004D7573742062652030
:10E2400061206C6574746572002000577269747483
:10E25000696E672045450052656164696E672045B7
:10E26000450045452065727220636E743D00504F35
:10E27000525400303D5A65726F2061646472003FF1
:10E280003D43505520737461747300403D454550C3
:10E29000524F4D207465737400423D426C696E6B41
:10E2A000204C454400453D44756D70204545505215
:10E2B0004F4D00463D44756D7020464C415348001B
:10E2C000483D48656C70004C3D4C69737420492F83
:10E2D0004F20506F72747300513D51756974005234
:10E2E0003D44756D702052414D00563D73686F7707
:10E2F00020696E7465727275707420566563746FF0
:10E30000727300593D506F727420626C696E6B00BD
:10E310002A0011241FBECFEFD1E2DEBFCDBF01E046
:10E320000CBF12E0A0E0B2E0EEE1FDEF03E00BBFB6
:10E3300002C007900D92A030B107D9F712E0A0E01B
:10E34000B2E001C01D92AE30B107E1F70F9460F367
:10E350000D948DFE01E20EBF0FEF0DBF11241FBE05
:10E360000D9460F30D9400F020E030E040ED57E0B4
:10E3700005C0FA013197F1F72F5F3F4F2817390792
:10E38000C0F308959C01260F311DC901A0E0B0E043
:10E390002F5F3F4FABBFFC018791882361F08093D3
:10E3A000C6008091C00086FFFCCF8091C0008064D1
:10E3B0008093C000EACF08958DE08093C6008091DD
:10E3C000C00086FFFCCF8091C00080648093C000B5
:10E3D0008AE08093C6008091C00086FFFCCF8091C8
:10E3E000C00080648093C00008950F94C2F10F9420
:10E3F000DCF10895FC019081992359F09093C600B7
:10E400008091C00086FFFCCF8091C0008064809323
:10E41000C0003196992379F70895282F982F929567
:10E420009F70892F805D8A3308F0895F8093C600D2
:10E430008091C00086FFFCCF8091C00080648093F3
:10E44000C000822F8F70982F905D9A3308F0995FEB
:10E450009093C6008091C00086FFFCCF8091C000E1
:10E4600080648093C00008959C01FB01853691056E
:10E470001CF46330710594F0C90164E670E00F94F8
:10E480002EFE605D7F4F6093C6008091C00086FFC6
:10E49000FCCF8091C00080648093C0002B30310598
:10E4A00014F43297B4F0C90164E670E00F942EFEC4
:10E4B0006AE070E00F942EFE605D7F4F6093C600AF
:10E4C0008091C00086FFFCCF8091C0008064809363
:10E4D000C000C9016AE070E00F942EFEC0968093E0
:10E4E000C6008091C00086FFFCCF8091C000806490
:10E4F0008093C00008951F93182F8EE692EE60E07F
:10E500000F94C2F11093C6008091C00086FFFCCF2B
:10E510008091C00080648093C0000F94DCF11F9153
:10E5200008952F923F924F925F926F927F928F92B7
:10E530009F92AF92BF92CF92DF92EF92FF920F9392
:10E540001F93DF93CF93CDB7DEB762970FB6F894E2
:10E55000DEBF0FBECDBF382E622ECA01DB015C01CB
:10E560006D01772420E2222E2E010894411C511CBB
:10E570008BC081E0A81680E0B80681E0C80680E084
:10E58000D80628F0C601AA27BB270F940DF2BB2797
:10E59000AD2D9C2D8B2D0F940DF28A2D0F940DF225
:10E5A0002092C6008091C00086FFFCCF8091C00001
:10E5B00080648093C0009DE29093C6008091C0006B
:10E5C00086FFFCCF8091C00080648093C0002092C1
:10E5D000C6008091C00086FFFCCF8091C00080649F
:10E5E0008093C00019828601750188249924A1E0D6
:10E5F0003A1651F03A1620F0B2E03B1661F409C029
:10E600000BBFF701779007C0C7010F9477FE782EF4
:10E6100002C0F7017080872D0F940DF22092C60082
:10E620008091C00086FFFCCF8091C0008064809301
:10E63000C000872D8052F401EF70F0708F3520F408
:10E64000E40DF51D708204C0E40DF51D8EE280839B
:10E650000894E11CF11C011D111D0894811C911CE2
:10E6600090E18916910409F0C2CF80E190E0A0E02A
:10E67000B0E0A80EB91ECA1EDB1E198AC2010F9493
:10E68000FAF10F94DCF16A94662009F072CF629679
:10E690000FB6F894DEBF0FBECDBFCF91DF911F91B3
:10E6A0000F91FF90EF90DF90CF90BF90AF909F9031
:10E6B0008F907F906F905F904F903F902F90089534
:10E6C0002F923F924F925F926F927F928F929F9282
:10E6D000AF92BF92CF92DF92EF92FF920F931F9370
:10E6E000DF93CF93CDB7DEB7CD53D1400FB6F894BB
:10E6F000DEBF0FBECDBF01E20EBF0FEF0DBF94B75F
:10E70000F894A89514BE80916000886180936000A1
:10E7100010926000789493FF05C0E0910002F091A0
:10E7200001021995279A2F9A8091C00082608093E8
:10E73000C00080E18093C40088E18093C1000000A4
:10E74000EE24FF24870144E0A42EB12CCC24DD2448
:10E7500024C0C5010197F1F70894E11CF11C011DCB
:10E76000111D21E2E2162EE4F20620E0020720E06D
:10E77000120718F031E0C32ED12CC801B70127ECE5
:10E780003BE140E050E00F9441FE611571058105C9
:10E79000910519F485B1805885B98091C00087FD35
:10E7A00003C0C114D104A9F2A6014F5F5F4FC25E3E
:10E7B000DE4F59834883CE51D140C25EDE4F8881FF
:10E7C0009981CE51D140019711F00D9410FEC05D9A
:10E7D000DE4F19821882C053D14060E0C15DDE4F28
:10E7E0001882CF52D14088249924C35DDE4F19820C
:10E7F0001882CD52D140C05EDE4F188219821A8233
:10E800001B82C052D140CE5CDE4F188219821A8220
:10E810001B82C253D140EE24FF2487010BBFF701B6
:10E8200007911691C45CDE4F19830883CC53D14005
:10E830000D940BFEC25EDE4F28813981CE51D1404E
:10E840002130310509F52091C600C25EDE4F1982E4
:10E850001882CE51D14022C02F5F3F4F4F4F5F4FA4
:10E86000213082E138078AE7480780E0580780F0C6
:10E87000C45CDE4FE881F981CC53D140EF5FFF4F9C
:10E8800019F0EE27FF27099420E030E040E050E047
:10E890008091C00087FFE0CF2091C600C35DDE4FAE
:10E8A00048815981CD52D1404F5F5F4FC35DDE4FEC
:10E8B00059834883CD52D140213209F063C64A3092
:10E8C000510508F05FC60894811C911C53E0851621
:10E8D000910409F059C600E010E018C081E280936D
:10E8E000C6008091C00086FFFCCF8091C00080648C
:10E8F0008093C0002F5F3F4F2931310579F70F9486
:10E90000DCF10F5F1F4F0530110519F020E030E0FA
:10E91000E5CF10920A0210920B0210920C02109294
:10E920000D02109206021092070210920802109235
:10E930000902109202021092030210920402109235
:10E9400005028FEE90EE60E00F94F5F180E191EE1C
:10E9500060E00F94C2F18091C00087FFFCCF9091DE
:10E96000C600903608F09F759032B8F09093C600BC
:10E970008091C00086FFFCCF8091C00080648093AE
:10E98000C000A0E2A093C6008091C00086FFFCCF2B
:10E990008091C00080648093C000983409F4D7C18E
:10E9A0009934B8F4923409F459C1933458F490333B
:10E9B00019F1903308F4E3C59F33A1F1903409F0C5
:10E9C000DEC5BDC0953409F470C1963409F0D7C5D1
:10E9D00098C1923509F42BC2933538F49C3409F46C
:10E9E000F5C1913509F0CBC518C2963509F445C279
:10E9F000993509F0C4C567C483E792EE62E00F94CD
:10EA0000F5F110920602109207021092080210927D
:10EA1000090210920A0210920B0210920C0210923C
:10EA20000D0213C18FE792EE62E00F94F5F18FEEC5
:10EA300090EE60E00F94F5F181E291EE60E00F94CA
:10EA4000C2F187EB91EE60E00F94F5F180E391EE77
:10EA500060E00F94C2F184EE90EE60E00F94F5F167
:10EA60008FE391EE60E00F94C2F186E090E061E008
:10EA700070E00F9434F20F94DCF18DE591EE60E0DC
:10EA80000F94C2F189EC91EE60E00F94F5F18EE401
:10EA900091EE60E00F94C2F183EC91EE60E00F9490
:10EAA000F5F18CE691EE60E00F94C2F18EE10F94E7
:10EAB0000DF288E90F940DF281E00F940DF20F949E
:10EAC000DCF18BE791EE60E00F94C2F119E0E0E039
:10EAD000F0E010935700E4918E2F0F940DF20F94F5
:10EAE000DCF18AE891EE60E00F94C2F1E3E0F0E03F
:10EAF00010935700E4918E2F0F940DF20F94DCF1D8
:10EB000089E991EE60E00F94C2F1E2E0F0E0109349
:10EB10005700E4918E2F0F940DF20F94DCF188EAE8
:10EB200091EE60E00F94C2F1E1E0F0E01093570045
:10EB30001491812F0F940DF20F94DCF107CF8BE825
:10EB400092EE62E00F94F5F18BE492EE60E00F94A8
:10EB5000F5F10F94DCF100E010E019C0C8016F2D51
:10EB60000F947FFEFF2031F489E492EE60E00F9471
:10EB7000C2F10BC0F092C6008091C00086FFFCCFAE
:10EB80008091C00080648093C0000F5F1F4FC80158
:10EB900081519F41A0E0B0E0ABBFFC01F790BAE229
:10EBA000FB1621F0E2E000301E07C1F60F94DCF105
:10EBB0000F94DCF187E592EE60E00F94F5F10F948D
:10EBC000DCF1CC24DD2400E010E01EC0C8010F946D
:10EBD00077FEF82E882331F489E492EE60E00F94FA
:10EBE000C2F10BC08093C6008091C00086FFFCCFAD
:10EBF0008091C00080648093C000FE1419F00894D6
:10EC0000C11CD11C0F5F1F4FC80181519F41A0E063
:10EC1000B0E0ABBFFC01E790FAE2EF1621F022E092
:10EC20000030120799F60F94DCF10F94DCF182E6C4
:10EC300092EE60E00F94C2F1C60161E070E00F94C3
:10EC400034F20F94DCF10F94DCF110920202109276
:10EC50000302109204021092050278CE89E992EE26
:10EC600062E00F94F5F1279A2F9A16C02F9880E052
:10EC700090E0E0EDF7E03197F1F7019684369105E9
:10EC8000C1F72F9A80E090E0E0EDF7E03197F1F7DF
:10EC9000019684369105C1F78091C00087FFE6CFC9
:10ECA0008091C00087FFFCCF64C485EA92EE62E0E9
:10ECB0000F94F5F140910202509103026091040219
:10ECC0007091050281E020E10F9491F2809102029F
:10ECD00090910302A0910402B091050280509F4FD1
:10ECE000AF4FBF4F8093020290930302A0930402A0
:10ECF000B093050280509041A040B04008F426CE69
:10ED0000A4CF83EB92EE62E00F94F5F140910602FE
:10ED100050910702609108027091090280E020E1A1
:10ED20000F9491F28091060290910702A09108023F
:10ED3000B091090280509F4FAF4FBF4F80930602A2
:10ED400090930702A0930802B0930902FFCD80ECD4
:10ED500092EE62E00F94F5F183E792EE60E00F949B
:10ED6000F5F18FE792EE60E00F94F5F18BE892EE0B
:10ED700060E00F94F5F189E992EE60E00F94F5F10F
:10ED800085EA92EE60E00F94F5F183EB92EE60E09D
:10ED90000F94F5F180EC92EE60E00F94F5F187ECC2
:10EDA00092EE60E00F94F5F188ED92EE60E00F9442
:10EDB000F5F18FED92EE60E00F94F5F18AEE92EEB0
:10EDC00060E00F94F5F183E093EEBDCD87EC92EE19
:10EDD00062E00F94F5F181E40F947BF282E40F94EA
:10EDE0007BF283E40F947BF284E40F947BF285E45E
:10EDF0000F947BF286E40F947BF287E40F947BF20E
:10EE000088E40F947BF28AE40F947BF28BE40F94F6
:10EE10007BF28CE40F947BF299CD88ED92EE62E068
:10EE20000F94F5F1772473948824992409C48FED05
:10EE300092EE62E00F94F5F140910A0250910B02BC
:10EE400060910C0270910D0282E020E10F9491F22A
:10EE500080910A0290910B02A0910C02B0910D02D8
:10EE600080509F4FAF4FBF4F80930A0290930B0289
:10EE7000A0930C02B0930D0269CD8AEE92EE62E08F
:10EE80000F94F5F184EE90EE60E00F94F5F18FECC5
:10EE900091EE60E00F94F5F1662477244301CC5D98
:10EEA000DE4F19821882C452D140D401C301B695F5
:10EEB000A79597958795CA5DDE4F88839983AA8326
:10EEC000BB83C652D140CC5DDE4FA881B981C4520C
:10EED000D1401196CC5DDE4FB983A883C452D14096
:10EEE000CD0162E070E00F9434F2B0E2B093C6005E
:10EEF0008091C00086FFFCCF8091C0008064809329
:10EF0000C000EDE2E093C6008091C00086FFFCCF18
:10EF10008091C00080648093C000F0E2F093C6004E
:10EF20008091C00086FFFCCF8091C00080648093F8
:10EF3000C000CA5DDE4FE880F9800A811B81C6529D
:10EF4000D140BB27A12F902F8F2D0F940DF2CA5DBA
:10EF5000DE4F8881C652D1400F940DF2B0E2FB2EF5
:10EF6000F092C6008091C00086FFFCCF8091C00067
:10EF700080648093C0000DE30093C6008091C000C0
:10EF800086FFFCCF8091C00080648093C00010E2B7
:10EF90001093C6008091C00086FFFCCF8091C00016
:10EFA00080648093C0008BBEF3012791C65DDE4F65
:10EFB0002883CA52D140A22EBB24CC24DD2408943D
:10EFC000611C711C811C911C8BBEF3018791282E42
:10EFD0003324442455240894611C711C811C911C09
:10EFE0008BBEF3013791C55DDE4F3883CB52D140E4
:10EFF0000894611C711C811C911C8BBEF30147910C
:10F00000C45DDE4F4883CC52D140ADEFEA2EAFEF66
:10F01000FA2EAFEF0A2FAFEF1A2F6E0C7F1C801E57
:10F02000911E142D032DF22CEE24EA0CFB1C0C1D5A
:10F030001D1D0F940DF220E22093C6008091C000A8
:10F0400086FFFCCF8091C00080648093C000C65DC5
:10F05000DE4F8881CA52D1400F940DF230E23093D6
:10F06000C6008091C00086FFFCCF8091C000806404
:10F070008093C000C45DDE4F8881CC52D1400F9494
:10F080000DF240E24093C6008091C00086FFFCCFA5
:10F090008091C00080648093C000C55DDE4F888190
:10F0A000CB52D1400F940DF250E25093C6008091A4
:10F0B000C00086FFFCCF8091C00080648093C000B8
:10F0C0008FEFE8168FEFF80680E0080780E018075A
:10F0D00031F484E092EE60E00F94C2F1DFC0D80119
:10F0E000C7018070907CA070B0708050904CA040A0
:10F0F000B040D1F52FEF3FE340E050E0E222F322B1
:10F1000004231523CA5DDE4FA880B980CA80DB8046
:10F11000C652D140AE0CBF1CC01ED11EAA0CBB1CD7
:10F12000CC1CDD1C8EE092EE60E00F94C2F1BB2798
:10F13000A12F902F8F2D0F940DF28E2D0F940DF285
:10F1400030E23093C6008091C00086FFFCCF8091F2
:10F15000C00080648093C0004EE34093C60080915D
:10F16000C00086FFFCCF87C08EE09EEFA0E0B0E03D
:10F17000E822F9220A231B239CE0E91694E9F90608
:10F1800090E0090790E0190709F088C0C45DDE4FE0
:10F19000A881CC52D140EA2EFF2400E010E0102FCD
:10F1A0000F2DFE2CEE24C55DDE4FB881CB52D14031
:10F1B000EB0EF11C011D111DD601C501817090706F
:10F1C000A070B070DC0199278827E80EF91E0A1F8D
:10F1D0001B1F20EF30E040E050E0A222B322C42207
:10F1E000D52241E1AA0CBB1CCC1CDD1C4A95D1F7F1
:10F1F000EA0CFB1C0C1D1D1D81E090E0A0E0B0E0BE
:10F20000282239224A225B2235E1220C331C441C7D
:10F21000551C3A95D1F7E20CF31C041D151D57013E
:10F220006801AA0CBB1CCC1CDD1C85E192EE60E0E1
:10F230000F94C2F1C801AA27BB270F940DF2BB2778
:10F24000A12F902F8F2D0F940DF28E2D0F940DF274
:10F2500090E29093C6008091C00086FFFCCF809121
:10F26000C00080648093C000AEE3A093C60080918C
:10F27000C00086FFFCCF8091C00080648093C000F6
:10F28000C601AA27BB270F940DF2BB27AD2D9C2DDD
:10F290008B2D0F940DF28A2D0F940DF20F94DCF14B
:10F2A000CC5DDE4FE881F981C452D140F99709F471
:10F2B0004DCBF4E0EF2EF12C012D112D6E0C7F1CA7
:10F2C000801E911EF2CD83E093EE62E00F94F5F183
:10F2D0008AE192EE60E00F94C2F18091C00087FF56
:10F2E000FCCF1091C6001F751093C6008091C0001E
:10F2F00086FFFCCF8091C00080648093C0000F9493
:10F30000DCF1812F81548A3108F036C1163409F4BA
:10F3100095C0173490F4133409F44EC0143430F40B
:10F320001134F1F0123409F01DC130C0143409F465
:10F3300059C0153409F016C16BC01A3409F4C4C0A1
:10F340001B3438F4173409F48FC0183409F00AC19B
:10F35000A1C01B3409F4D2C01C3409F003C1E8C0B9
:10F360008FEF81B90DC082B1809582B980E090E0C5
:10F37000E0EDF7E03197F1F70196883C9105C1F790
:10F380008091C00087FFEFCF12B8EFC08FEF84B934
:10F390000DC085B1809585B980E090E0E0EDF7E0A3
:10F3A0003197F1F70196883C9105C1F78091C00033
:10F3B00087FFEFCF15B8D9C08FEF87B90DC088B1DF
:10F3C000809588B980E090E0E0EDF7E03197F1F7C3
:10F3D0000196883C9105C1F78091C00087FFEFCF6F
:10F3E00018B8C3C08FEF8AB90DC08BB180958BB9A7
:10F3F00080E090E0E0EDF7E03197F1F70196883C8E
:10F400009105C1F78091C00087FFEFCF1BB8ADC059
:10F410008FEF8DB90DC08EB180958EB980E090E0F0
:10F42000E0EDF7E03197F1F70196883C9105C1F7DF
:10F430008091C00087FFEFCF1EB897C08FEF80BBD1
:10F440000DC081B3809581BB80E090E0E0EDF7E0F6
:10F450003197F1F70196883C9105C1F78091C00082
:10F4600087FFEFCF11BA81C08FEF83BB0DC084B38C
:10F47000809584BB80E090E0E0EDF7E03197F1F714
:10F480000196883C9105C1F78091C00087FFEFCFBE
:10F4900014BA6BC08FEF809301010FC080910201FD
:10F4A00080958093020180E090E0E0EDF7E03197F5
:10F4B000F1F70196883C9105C1F78091C00087FF64
:10F4C000EDCF1092020151C08FEF809304010FC065
:10F4D0008091050180958093050180E090E0E0ED4A
:10F4E000F7E03197F1F70196883C9105C1F78091DB
:10F4F000C00087FFEDCF1092050137C08FEF8093DA
:10F5000007010FC08091080180958093080180E079
:10F5100090E0E0EDF7E03197F1F70196883C910536
:10F52000C1F78091C00087FFEDCF109208011DC088
:10F530008FEF80930A010FC080910B01809580931B
:10F540000B0180E090E0E0EDF7E03197F1F70196F4
:10F55000883C9105C1F78091C00087FFEDCF1092E4
:10F560000B0103C085E292EEEEC98091C00087FFD7
:10F57000FCCF8091C600EAC988E392EEE4C98CE131
:10F5800091EEE1C988249924933011F1943028F444
:10F59000913089F09230B8F408C0953061F195301F
:10F5A000F0F0963009F048C043C02B3109F042C951
:10F5B00091E06BE13FC96227C15DDE4F2883CF52E6
:10F5C000D14092E037C9B22FA0E0622793E032C960
:10F5D000822F90E0A82BB92B622794E02BC92E3004
:10F5E00009F039C3622795E0C05DDE4F19821882A9
:10F5F000C053D1401FC9E1E0F0E0EC0FFD1FC05D3A
:10F60000DE4F08811981C053D140E00FF11F2083E4
:10F610000F5F1F4FC05DDE4F19830883C053D14079
:10F6200062270A171B0709F005C9D80196E002C92D
:10F63000261709F010C303C0973009F0FBC87724E0
:10F640009981933109F412C19431C8F4963009F4C8
:10F65000D8C0973050F4923009F406C1933009F4C1
:10F660006DC0913009F059C253C0913109F477C08F
:10F67000923108F0BBC0903109F04FC2F5C098310B
:10F6800009F487C0993150F4953109F4EFC09531F0
:10F6900008F4C6C1963109F040C2C2C19A3109F4DA
:10F6A0006CC09A3108F491C09B3109F45BC09D3164
:10F6B00009F033C29D81903359F48F81882311F46E
:10F6C0009EE11CC0813011F091E018C098E916C08D
:10F6D000892F807591F0903539F4E0E0F0E089E011
:10F6E0008093570094910AC0983539F4E3E0F0E034
:10F6F00089E080935700949101C090E01A821B82A8
:10F700008D818C831D829E831F8227E030E009C299
:10F710001A8288E08B8381E48C8386E58D8382E581
:10F720008E8389E48F8383E5888780E589878FE5E9
:10F730008A8782E38B872BE030E0F3C18A818139AD
:10F7400041F0823941F0803911F48FE005C080E04A
:10F7500003C082E001C08AE01A828B8344C0772410
:10F76000739482C08D81882311F48EE12CC0813086
:10F7700011F081E028C088E926C01A82E1E0F0E0BB
:10F7800089E08093570084918B831C8224E030E0D1
:10F79000C8C18B81803589F48C81883039F4E2E0EE
:10F7A000F0E089E08093570084910DC0E0E0F0E044
:10F7B00089E080935700849106C0E3E0F0E089E09F
:10F7C0008093570084911A82DFCF8D81836C99E0FA
:10F7D000E1E0F0E0082E90935700E89507B600FCB2
:10F7E000FDCF1A821B8223E030E09BC180EC8A832C
:10F7F000CE5CDE4F188219821A821B82C253D1401E
:10F800008EC18A8190E0A0E0B0E0582F44273327D2
:10F8100022278B8190E0A0E0B0E0DC0199278827C7
:10F82000282B392B4A2B5B2B8D8190E0A0E0B0E098
:10F83000282B392B4A2B5B2B8C8190E0A0E0B0E089
:10F84000BA2FA92F982F8827282B392B4A2B5B2BCF
:10F85000220F331F441F551FC05EDE4F288339839C
:10F860004A835B83C052D1401A8259C13A81C95C34
:10F87000DE4F3883C753D140CA5CDE4F1882C6536F
:10F88000D1408B81C82EDD24CA5CDE4F488159816E
:10F89000C653D140C42AD52A933109F082C0CE5C28
:10F8A000DE4F88819981AA81BB81C253D1408050AB
:10F8B000904CA340B04030F583E0CE5CDE4FE88052
:10F8C000F9800A811B81C253D140F70100935B008C
:10F8D00080935700E89507B600FCFDCFCE5CDE4F65
:10F8E000088119812A813B81C253D14000501F4FAA
:10F8F0002F4F3F4FCE5CDE4F088319832A833B8313
:10F90000C253D140C05EDE4F488159816A817B81FC
:10F91000C052D140DE011B9631E08C9111962C91A2
:10F9200011971296C75CDE4F2883C953D140C85C3B
:10F93000DE4F1882C853D14090E0C85CDE4FE881AA
:10F94000F981C853D1408E2B9F2B0C01FA01609393
:10F950005B0030935700E89511244E5F5F4F6F4F67
:10F960007F4F0EEFE02E0FEFF02ECE0CDF1CC114F8
:10F97000D10499F685E0C05EDE4F088119812A81A5
:10F980003B81C052D140F80120935B008093570027
:10F99000E89507B600FCFDCF81E180935700E8951C
:10F9A00035C0C05EDE4F88819981AA81BB81C0527B
:10F9B000D140B695A795979587957C018601ABE0D8
:10F9C000AA2EB12CAC0EBD1E0BC0D5016D915D01F0
:10F9D000C7010F947FFE0894E11CF11C01501040F8
:10F9E0000115110591F7A60160E070E0440F551F65
:10F9F000661F771FC05EDE4FE880F9800A811B8199
:10FA0000C052D1404E0D5F1D601F711F1A82C05E33
:10FA1000DE4F488359836A837B83C052D1407FC0C5
:10FA2000FA80C55CDE4FF882CB53D140C65CDE4F16
:10FA30001882CA53D1408B81C82EDD24C65CDE4FAC
:10FA400008811981CA53D140C02AD12A1A828981DA
:10FA5000BE016D5F7F4F843121F59601C05EDE4FA0
:10FA6000E880F9800A811B81C052D1400BBFF701A9
:10FA700087919691DB018C9311969C936E5F7F4FDB
:10FA8000D801C7010296A11DB11DC05EDE4F88835B
:10FA90009983AA83BB83C052D14022503040F1F6F3
:10FAA00036C0C05EDE4F288139814A815B81C052F9
:10FAB000D1400894C108D108760100E010E0089414
:10FAC000C11CD11C0894E11CF11C011D111DE20E8A
:10FAD000F31E041F151F21BDBB27A52F942F832FB5
:10FAE00082BD2F5F3F4F4F4F5F4FF89A80B5DB01CC
:10FAF0008D93BD012E153F054007510761F7C05E8C
:10FB0000DE4F288339834A835B83C052D1409601FC
:10FB10002D5F3F4FFB01108204C080EC8A8322E0FE
:10FB200030E08BE18093C6008091C00086FFFCCF5F
:10FB30008091C00080648093C000C15DDE4FF88179
:10FB4000CF52D140F093C6008091C00086FFFCCF19
:10FB50008091C00080648093C000432F3093C60022
:10FB60008091C00086FFFCCF8091C00080648093AC
:10FB7000C000922F2093C6008091C00086FFFCCF6A
:10FB80008091C00080648093C0008EE08093C600A6
:10FB90008091C00086FFFCCF8091C000806480937C
:10FBA000C00065E1C15DDE4FE880CF52D1406E25D7
:10FBB00069276427FE01319610C090819093C6009A
:10FBC0008091C00086FFFCCF31968091C000806498
:10FBD0008093C0006927215030402115310569F715
:10FBE0006093C6008091C00086FFFCCF8091C0006A
:10FBF00080648093C00085B1805885B9772081F4F6
:10FC0000C15DDE4F0881CF52D1400F5FC15DDE4F35
:10FC10000883CF52D14090E0A0E0B0E00D941AF4F8
:10FC200027982F9880E090E020ED37E0F901319798
:10FC3000F1F7019684369105C9F700008091C00064
:10FC40008D7F8093C00081E180935700E895EE2777
:10FC5000FF270994FFCF90E00D941AF497FB092E2B
:10FC600007260AD077FD04D02ED006D000201AF443
:10FC7000709561957F4F0895F6F7909581959F4F08
:10FC80000895A1E21A2EAA1BBB1BFD010DC0AA1FDD
:10FC9000BB1FEE1FFF1FA217B307E407F50720F0F5
:10FCA000A21BB30BE40BF50B661F771F881F991F70
:10FCB0001A9469F760957095809590959B01AC01B9
:10FCC000BD01CF010895AA1BBB1B51E107C0AA1FAC
:10FCD000BB1FA617B70710F0A61BB70B881F991FED
:10FCE0005A95A9F780959095BC01CD010895F99991
:10FCF000FECF92BD81BDF89A992780B50895262F31
:10FD0000F999FECF1FBA92BD81BD20BD0FB6F89400
:0EFD1000FA9AF99A0FBE01960895F894FFCF63
:040000033000E000E9
:00000001FF