:1000000067C100000C94E0130C94B5130C948A1390
:100010000C945F130C9434130C9409130C94DE129B
:100020000C94B31286C1000084C1000082C100009C
:1000300080C100007EC100007CC100007AC10000C8
:1000400078C1000076C1000074C1000072C10000D8
:1000500070C100006EC100006CC100000C946912F8
:1000600068C1000066C1000064C1000062C10000F8
:1000700060C100005EC100005CC100005AC1000008
:1000800058C1000056C1000054C1000052C1000018
:1000900050C100004EC100004CC100000C94090B7F
:1000A00048C1000046C1000044C1000042C1000038
:1000B00040C100003EC100003CC100003AC1000048
:1000C00038C1000036C1000034C1000032C1000058
:1000D00030C100002EC100002CC100002AC1000068
:1000E00028C1000049104C103B103F1045108310F0
:1000F000501054105A105E10621068106C1070107E
:10010000831076107A107E1066116B1170117A11BF
:100110008411FD118E1196119E11A811B211BC11FE
:10012000CB11D511FD11DF11E911F311076342362F
:10013000B79BD8A71A39685618AEBAAB558C1D3C78
:10014000B7CC5763BD6DEDFD753EF6177231BF003C
:100150000000803F08000000BE922449123EABAA76
:10016000AA2ABECDCCCC4C3E00000080BEABAAAAD1
:10017000AA3E00000000BF000000803F0000000019
:1001800000084178D3BB4387D1133D190E3CC3BD52
:100190004282AD2B3E68EC8276BED98FE1A93E4CFF
:1001A00080EFFFBE01C4FF7F3F00000000000000A1
:1001B00020002300260029002C002F00320000011F
:1001C00000000301060109010505050507050808EA
:1001D0000808020202020A0A0808040404040101D1
:1001E00001010101010103030303030303030407E6
:1001F00007070C0C0C0C0C0C0C0C0202020206067D
:100200000606060606060B0B0B0B0B0B0B0B01026F
:100210001020200808102040102040800201020118
:1002200008040201010204081020408080402010D0
:100230000804020180040201804020100804020129
:100240000804020101020408102040800102040891
:100250001020408000002100240027002A002D00EB
:100260003000330001010000040107010A01000011
:100270002200250028002B002E003100340002014E
:100280000000050108010B0100000A0B02090C0D1A
:100290000E08070304010000000000000000000039
:1002A000000000000000000000000000000000004E
:1002B000000000001211100000000000000000000B
:1002C00000000000000000000000000000002E1FE1
:1002D00011241FBECFEFD1E2DEBFCDBF00E00CBFC7
:1002E00016E0A0E0B2E0E4E4F7E400E00BBF02C0F7
:1002F00007900D92AC34B107D9F729E0ACE4B6E031
:1003000001C01D92A430B207E1F711E0C8E6D1E0C8
:1003100000E006C021970109802FFE010E94802382
:10032000C736D10780E00807A9F70E94B9150C94D9
:10033000A02366CE1092B0060895FF920F931F93EC
:10034000CF93DF931F92CDB7DEB78C01F62E60E01E
:10035000FC01828149830E94D410F801908181813F
:100360009CBD8DBD8F2D8F7180688EBD0000498131
:100370000DB407FEFDCF8EB54EBD00000DB407FED7
:10038000FDCF8EB561E0F80182810E94D41087E034
:1003900090E00197F1F70F90DF91CF911F910F91AE
:1003A000FF9008958AEF90E00E94560C64E070E0A0
:1003B00083E00E94610C60E082E00E94D41061E062
:1003C00070E080E090E00E94251268E070E086E036
:1003D0000E94610C61E085E00E94D41061E070E051
:1003E00080E090E00C9425128AEF90E00E94560C79
:1003F00060E270E083E00E94610C60E082E00E94B5
:10040000D41061E070E080E090E00E94251264E08A
:1004100070E086E00E94610C61E085E00E94D410EB
:1004200061E070E080E090E00C9425128AEF90E0AB
:100430000E94560C60E170E083E00E94610C60E075
:1004400082E00E94D41061E070E080E090E00E94C1
:10045000251264E070E086E00E94610C61E085E0B6
:100460000E94D41061E070E080E090E00C942512CE
:100470008AEF90E00E94560C68E070E083E00E94F2
:10048000610C60E082E00E94D41061E070E080E0E6
:1004900090E00E94251264E070E086E00E94610C0A
:1004A00061E085E00E94D41061E070E080E090E0BF
:1004B0000C9425128AEF90E00E94560C60E170E0E7
:1004C00083E00E94610C60E082E00E94D41061E051
:1004D00070E080E090E00E94251260E170E086E02C
:1004E0000E94610C61E085E00E94D41061E070E040
:1004F00080E090E00C9425128AEF90E00E94560C68
:1005000064E070E083E00E94610C60E082E00E94A1
:10051000D41061E070E080E090E00E94251264E079
:1005200070E086E00E94610C61E085E00E94D410DA
:1005300061E070E080E090E00C942512FC014181C4
:1005400061E00596FACECF93DF93EC016031F9F0CC
:1005500070F4623001F128F4613039F520E093E065
:1005600026C06430B1F0683001F522E01FC0683C5D
:10057000C9F038F4603499F06038B9F420E091E0C3
:1005800016C0693C51F06A3C81F426E00FC021E0BE
:100590000DC023E00BC024E009C025E007C020E027
:1005A00092E005C020E094E002C020E090E080E20C
:1005B000289F9001112489818F71282B29838C8198
:1005C000887F982B9C83CE01B9DF4C8169E0CE01F6
:1005D0000596DF91CF91B1CE0F931F93CF93DF9309
:1005E000EC018C010B5F1F4F4B8163E0C801A5DE5E
:1005F000488160E0C801A1DECE01A0DF4A8162E04F
:10060000C8019BDE4C8169E0C801DF91CF911F9149
:100610000F9193CE0097C9F0019709F03FC060E0B9
:100620008BE10E94D41083E090E00197F1F761E044
:100630008BE10E94D41083E290E00197F1F760E033
:100640008BE10E94D4108AE115C060E08DE10E9428
:10065000D41083E090E00197F1F761E08DE10E9412
:10066000D41083E290E00197F1F760E08DE10E9401
:10067000D4108CE10E9402100E948C2026E933E401
:100680004BE05DE30E941C2120E030E040E05FE3AE
:100690000E941C210E945920CB01089580E090E027
:1006A00008952F923F924F925F926F927F928F9216
:1006B0009F92AF92BF92CF92DF92EF92FF920F93F1
:1006C0001F93CF93DF93CDB7DEB72B970FB6F89478
:1006D000DEBF0FBECDBF0E945D121B012C011B8629
:1006E0001A8619861886612C712C00E010E0E12C26
:1006F000F12CC12CD12CA12CB12C812C912C0E943D
:100700005D12DC01CB0182199309A409B50949974F
:10071000A105B10508F040C086E20E94AC10892B0B
:1007200019F42FEFA21AB20A85E20E94AC10892BAD
:1007300019F43FEFC31AD30A84E20E94AC10892B4C
:1007400019F48FEFE81AF80A83E20E94AC10892BA3
:1007500011F40F5F1F4F82E20E94AC10892B19F435
:100760009FEF691A790A81E20E94AC10892B31F45B
:10077000288539852F5F3F4F3987288780E20E947F
:10078000AC10892B29F48A859B8501969B878A87E3
:100790009FEF891A990AB3CFB401990C880B990B72
:1007A0000E948C201B012C01B501BB0C880B990BFE
:1007B0000E948C20A20191010E94F11FBB24B394DE
:1007C0002DEC3CEC4CE45FE30E94182118160CF071
:1007D000B12CB982B601DD0C880B990B0E948C20DC
:1007E000A20191010E94F11FDD24D3942DEC3CEC79
:1007F0004CE45FE30E94182118160CF0D12CDA8229
:10080000B701FF0C880B990B0E948C20A20191016B
:100810000E94F11FFF24F3942DEC3CEC4CE45FE3C9
:100820000E94182118160CF0F12CFB82B801110F50
:10083000880B990B0E948C20A20191010E94F11F4C
:1008400011E02DEC3CEC4CE45FE30E9418211816FB
:100850000CF010E01C83B301770C880B990B0E94FD
:100860008C20A20191010E94F11F11E02DEC3CECC3
:100870004CE45FE30E94182118160CF010E01D8371
:1008800028853985B901330F880B990B0E948C207C
:10089000A20191010E94F11F11E02DEC3CEC4CE40F
:1008A0005FE30E94182118160CF010E01E832A85C1
:1008B0003B85B901330F880B990B0E948C20A20154
:1008C00091010E94F11F11E02DEC3CEC4CE45FE340
:1008D0000E94182118160CF010E029813A814B81F2
:1008E0005C816D817E81812F90E02B960FB6F8940C
:1008F000DEBF0FBECDBFDF91CF911F910F91FF9053
:10090000EF90DF90CF90BF90AF909F908F907F90AF
:100910006F905F904F903F902F900895EF92FF92CD
:100920000F931F93CF93DF93C0910607D0910707D2
:100930008E01000F111FF801E45BF94FE0900807EA
:10094000F090090720813181E21AF30A8AE30E94BC
:100950000612BC01990F880B990B0E948C2028E687
:1009600031E94DEA5FEB0E947F212AE939E347ED47
:1009700054E40E941C210E9459206B30710510F034
:1009800060E070E0F801E45BF94F71836083C701B8
:10099000860F971F90930907809308072196CA3006
:1009A000D1052CF4D0930707C093060704C010921A
:1009B0000707109206076AE070E00E946D23CB01E2
:1009C000DF91CF911F910F91FF90EF900895EF92DB
:1009D000FF920F931F93CF93DF938130910509F41A
:1009E0005AC01CF4892B49F044C18230910509F4A6
:1009F000A0C0039709F4EBC03CC1C0910207D0919D
:100A000003078E01000F111FF801E456F94FE09023
:100A10000407F090050720813181E21AF30A86E38A
:100A20000E940612BC01990F880B990B0E948C2022
:100A30002AEF3EE74AE05FEB0E947F2126E636E69A
:100A40004DE255E40E941C210E9459206734710533
:100A500034F46A3071052CF460E070E002C066E4A2
:100A600070E0F801E456F94F71836083C701860F87
:100A7000971F90930507809304072196CA30D105EC
:100A80002CF4D0930307C0930207EEC01092030723
:100A900010920207E9C0C091FE06D091FF068E01B8
:100AA000000F111FF801E857F94FE0900007F09090
:100AB000010720813181E21AF30A87E30E940612BE
:100AC000BC01990F880B990B0E948C202FE23DED01
:100AD00044E65FEB0E947F212DEC38E942EF55E4BC
:100AE0000E941C210E9459206734710534F46A3039
:100AF00071052CF460E070E002C066E470E0F8017B
:100B0000E857F94F71836083C701860F971F909351
:100B10000107809300072196CA30D1052CF4D093A9
:100B2000FF06C093FE06A0C01092FF061092FE06BC
:100B30009BC0C091FA06D091FB068E01000F111FD9
:100B4000F801EC58F94FE090FC06F090FD0620818A
:100B50003181E21AF30A88E30E940612BC01990F60
:100B6000880B990B0E948C2021EC3AEC41E45FEB5E
:100B70000E947F212DEC30E947EA55E40E941C21B8
:100B80000E9459206734710534F46A3071052CF4E1
:100B900060E070E002C066E470E0F801EC58F94FE4
:100BA00071836083C701860F971F9093FD06809322
:100BB000FC062196CA30D1052CF4D093FB06C093D5
:100BC000FA0652C01092FB061092FA064DC0C09170
:100BD000F606D091F7068E01000F111FF801E05ABA
:100BE000F94FE090F806F090F90620813181E21A81
:100BF000F30A89E30E940612BC01990F880B990B36
:100C00000E948C202EEA37E441E45FEB0E947F21B2
:100C100023E33BE644EA55E40E941C210E9459204C
:100C20006734710534F46A3071052CF460E070E0CB
:100C300002C066E470E0F801E05AF94F7183608306
:100C4000C701860F971F9093F9068093F8062196A7
:100C5000CA30D1052CF4D093F706C093F60604C031
:100C60001092F7061092F6066AE070E00E946D237B
:100C700002C060E070E0CB01DF91CF911F910F9136
:100C8000FF90EF9008950F931F93CF93DF93CDB70D
:100C9000DEB728970FB6F894DEBF0FBECDBF60E178
:100CA00070E089E090E0BED79091520780915307A1
:100CB0009817A9F00091F50610E08EEB97E07ED32F
:100CC000F801EB51F94F80838091F5068F3020F4C5
:100CD0008F5F8093F506E8CF1092F506E5CF91E09F
:100CE0008091E506893C08F090E081E02091E706DC
:100CF000293C08F080E071E02091E906293C08F0E9
:100D000070E061E02091EB06293C08F060E051E0E2
:100D10002091ED06293C08F050E041E02091EF06DB
:100D2000293C08F040E031E02091F106293C08F030
:100D300030E021E0E091F306E93C08F020E028965D
:100D40000FB6F894DEBF0FBECDBFDF91CF911F91DC
:100D50000F9108950F931F93CF93DF938C01EB01B5
:100D60008FED98E00ED460E080E00E945B0FC80138
:100D70000E944A0F61E080E00E945B0FCE01DF918C
:100D8000CF911F910F910C944A0FEF92FF920F9306
:100D90001F93CF93DF937C018B01EA018FED98E0E5
:100DA000F0D360E080E00E945B0FC7010E944A0F11
:100DB00061E080E00E945B0FC8010E944A0F61E081
:100DC0008EE00E945B0FCE01DF91CF911F910F91BA
:100DD000FF90EF900C94890F8F929F92AF92BF92E9
:100DE000CF92DF92EF92FF920F931F93CF93DF93F7
:100DF0006C015B01EA0149018FED98E0C2D360E02C
:100E000080E00E945B0FC6010E944A0F60E089E00B
:100E10000E945B0FC5010E944A0F61E080E00E94C2
:100E20005B0FCE010E94890F61E084E00E945B0F9E
:100E3000C4010E94890F61E088E00E945B0FC80135
:100E40000E94890F61E08CE00E945B0FC701DF9177
:100E5000CF911F910F91FF90EF90DF90CF90BF90B7
:100E6000AF909F908F900C94890F81E090E0AFDD60
:100E70009093B4068093B30683E090E0A8DD90934E
:100E8000B8068093B706089582309105B9F02CF426
:100E9000009751F0019769F025C084309105C1F0A9
:100EA00094F00597D1F01EC061111FC087E094E057
:100EB000089561111DC088E094E0089561111BC080
:100EC00089E094E00895611119C08AE094E00895E2
:100ED000611117C08BE094E00895611115C08CE09A
:100EE00094E0089580E090E0089585E794E0089507
:100EF00086E794E0089587E794E0089588E794E012
:100F0000089589E794E008958AE794E00895CF93DF
:100F1000DF93CDB7DEB728970FB6F894DEBF0FBECC
:100F2000CDBFB1DE211111C0311112C0711113C03A
:100F3000611111C051110FC041110DC081110EC0BE
:100F400091110FC085E090E00EC080E090E00BC0F2
:100F500081E090E008C082E090E005C083E090E08E
:100F600002C084E090E028960FB6F894DEBF0FBE72
:100F7000CDBFDF91CF910895CF92DF92EF92FF9294
:100F80000F931F93CF93C82F811103C00BE410E080
:100F900002C00CE211E08091B1069091B2060A976E
:100FA0004F9708F047C08091B9069091BA068C34EB
:100FB00091050CF43FC08091E40681110DC00E94A0
:100FC0005D126093E0067093E1068093E2069093D1
:100FD000E30681E08093E4060E945D12C090E00683
:100FE000D090E106E090E206F090E306DC01CB0150
:100FF0008C199D09AE09BF09012E000C220B330B81
:10100000081719072A073B0790F4C11103C081E1B3
:1010100094E002C08BE194E02091B1063091B206D9
:101020003093DF062093DE061092E4060EC1C11154
:1010300001C1EAC08091B3069091B4060A974F9718
:1010400008F047C08091B9069091BA068C3491059A
:101050000CF43FC08091DD0681110DC00E945D122D
:101060006093D9067093DA068093DB069093DC06D2
:1010700081E08093DD060E945D12C090D906D09079
:10108000DA06E090DB06F090DC06DC01CB018C197F
:101090009D09AE09BF09012E000C220B330B081766
:1010A00019072A073B0790F4C11103C082E194E0BD
:1010B00002C08CE194E02091B3063091B4063093E5
:1010C000DF062093DE061092DD06BFC0C111B5C059
:1010D0009BC08091B5069091B6060A974F9708F08D
:1010E00047C08091B9069091BA068C3491050CF4F2
:1010F0003FC08091D80681110DC00E945D1260939F
:10110000D4067093D5068093D6069093D70681E0D7
:101110008093D8060E945D12C090D406D090D50668
:10112000E090D606F090D706DC01CB018C199D0922
:10113000AE09BF09012E000C220B330B081719074B
:101140002A073B0790F4C11103C083E194E002C079
:101150008DE194E02091B5063091B6063093DF061C
:101160002093DE061092D80670C0C11169C04CC031
:101170008091B7069091B8060A974F9708F04EC035
:101180008091B9069091BA068C3491050CF446C052
:101190008091D30681110DC00E945D126093CF062D
:1011A0007093D0068093D1069093D20681E080930D
:1011B000D3060E945D12C090CF06D090D006E0907A
:1011C000D106F090D206AB01BC014C195D096E0945
:1011D0007F09C801110FAA0BBB0B84179507A6073F
:1011E000B70780F4C11103C084E194E002C08EE12E
:1011F00094E02091B7063091B8063093DF06209333
:10120000DE0615C0C1111FC082DE60E0CF911F91C4
:101210000F91FF90EF90DF90CF9036CE78DE60E0B8
:1012200033DE1092E4061092DD061092D80610927A
:10123000D3060BC081E194E008C082E194E005C0D0
:1012400083E194E002C084E194E0CF911F910F917B
:10125000FF90EF90DF90CF9008958230910551F08C
:101260001CF4892BD9F40BC08330910569F00497E5
:1012700081F014C0611115C084EF93E008956111ED
:1012800013C085EF93E00895611111C086EF93E0DC
:10129000089561110FC08CEF93E00895662369F003
:1012A00009C08AE894E008958BE894E008958CE8FA
:1012B00094E0089589E894E0089583EF93E0089519
:1012C000CF93DF93CDB7DEB728970FB6F894DEBF84
:1012D0000FBECDBFD8DC9887772331F0662321F08D
:1012E000552311F0411114C09885911114C081113A
:1012F00012C0711110C0411111C031110FC0211164
:101300000DC061110EC051110CC083E090E00BC004
:1013100084E090E008C082E090E005C080E090E0CA
:1013200002C081E090E028960FB6F894DEBF0FBEB1
:10133000CDBFDF91CF91089585ED8093BC00809162
:10134000BC0084FDFCCF10929A07089540912C07B1
:10135000262F30E0240F311D21323105DCF420919D
:101360009A072430C9F4FC0180E090E0861758F415
:1013700030912C072191DC01A65FB84FA30FB11D5E
:101380002C930196F3CF80912C07680F60932C0764
:1013900080E0089581E0089582E008950895E09145
:1013A000530780915207E81730F4F0E0EC5AF84FF9
:1013B000808190E008958FEF9FEF089590915307FB
:1013C00080915207981750F4E92FF0E0EC5AF84F4B
:1013D000208130E09F5F9093530702C02FEF3FEFD3
:1013E000C90108958091520790E020915307821B14
:1013F00091090895CF92DF92EF92FF920F931F937E
:10140000CF93DF937C01262F972F8A0180919B0732
:10141000882391F0C62FD72F6E01C40ED51ECC1590
:10142000DD0569F06991D701ED91FC910190F081A2
:10143000E02DC7011995F3CF642F822F87DFC801F4
:10144000DF91CF911F910F91FF90EF90DF90CF90A0
:101450000895CF93DF931F92CDB7DEB769832091B4
:101460009B072223D1F02091BD07203240F021E0DC
:1014700030E0FC013383228380E090E014C080914F
:101480009C07E82FF0E0E356F84F998190838F5F37
:1014900080939C078093BD0704C061E0CE01019654
:1014A00055DF81E090E00F90DF91CF91089508958E
:1014B00080E090E008951F93CF93DF93EC01162F07
:1014C0008889811105C041E0CE010E94F11420C03D
:1014D00081E090E0A0E0B0E00C8004C0880F991F8C
:1014E000AA1FBB1F0A94D2F72F85822B8F87CE01AC
:1014F0000E940B14612F70E084E0759567958A95C2
:10150000E1F7CE010E948014612FCE010E94801469
:1015100081E090E0DF91CF911F9108951F93CF93C9
:10152000DF93FC012089211106C040E0DF91CF91BB
:101530001F910C94F114162FEC0181E090E0A0E0D3
:10154000B0E0048004C0880F991FAA1FBB1F0A9433
:10155000D2F78095978589238787CF010E940B1446
:10156000612F70E084E0759567958A95E1F7CE016B
:101570000E948014612FCE01DF91CF911F910C94B6
:10158000801461E0CBDF8BE39FE10197F1F70895D1
:101590009CB5282F23709C7F922B9CBD2DB582FB80
:1015A000992790F9822F8E7F892B8DBD0895CF9337
:1015B000CFB7F89480915107811123C0EDEFF1E08E
:1015C0008491E3E4F2E09491E82FF0E0EE0FFF1F46
:1015D000EC5AFD4FA591B491EC91E92319F461E027
:1015E00085E3E2D561E085E30ED68CB580618CBDE4
:1015F0008CB580648CBD61E084E305D661E083E353
:1016000002D6809151078F5F80935107CFBFCF9152
:1016100008951F920F920FB60F9211240BB60F92DE
:101620002F933F934F935F936F937F938F939F93EA
:10163000AF93BF93EF93FF938091B900887F80367B
:1016400009F49CC068F5883209F45BC090F48031DD
:1016500009F454C038F4882309F4F6C0883009F43A
:101660004DC0F5C0883109F44CC0803209F45DC02A
:10167000EEC0803409F468C048F4803309F455C0E2
:10168000883309F0E4C080939807D8C0803509F406
:101690004FC0883509F45DC0883409F0D8C0D6C081
:1016A000883909F4C7C0A8F4883709F467C038F44A
:1016B000883609F463C0803709F460C0C8C0883830
:1016C00009F4B8C0803909F45FC0803809F0BFC0A0
:1016D0005BC0803B09F486C038F4803A09F466C0E8
:1016E000883A09F47FC0B3C0803C09F4A7C0883CA5
:1016F00009F4A4C0883B09F48AC0A9C08091750789
:1017000010C09091970780919607981770F5E09117
:10171000970781E08E0F80939707F0E0EA58F84F23
:1017200080818093BB0085EC86C0809398078EC033
:10173000E091970781E08E0F809397078091BB001F
:10174000F0E0EA58F84F80839091970780919607D0
:101750006EC0E091970781E08E0F8093970780918C
:10176000BB00F0E0EA58F84F80838091990781111F
:101770006DC081E08093740784EA61C083E0809348
:101780009A0710925007CFCF80915007803208F00F
:1017900051C0E091500781E08E0F809350078091F7
:1017A000BB00F0E0E05DF84F8083BDCF85EC809317
:1017B000BC0010929A0780915007803230F4E0917B
:1017C0005007F0E0E05DF84F10826091500770E044
:1017D000E0912E07F0912F0780E397E01995109282
:1017E000500735C084E080939A0710922D0710921D
:1017F0002C07E0912A07F0912B07199580912C076F
:10180000811105C081E080932C0710920A07E091B6
:101810002D0781E08E0F80932D07F0E0E65FF84FF3
:1018200080818093BB0090912D0780912C079817A1
:1018300008F479CF85E88093BC0009C085EC8093DB
:10184000BC0010929A0703C01092980775DDFF91B3
:10185000EF91BF91AF919F918F917F916F915F9128
:101860004F913F912F910F900BBE0F900FBE0F9095
:101870001F90189510929A0781E080939907109213
:10188000740761E084E190D461E085E18DD4E9EBF7
:10189000F0E080818E7F808380818D7F808388E4EB
:1018A0008093B80085E48093BC000895CF93DF93C4
:1018B000EC01BC0183E0E3D4BE0186E0DF91CF916F
:1018C000DEC4CF93DF93EB01833019F0863089F0CB
:1018D0001FC0809114029091150268177907C1F01A
:1018E00082ED97E00E94A302D0931502C0931402E8
:1018F0000FC080911202909113026817790741F08E
:101900008AEC97E00E94A302D0931302C0931202C4
:10191000DF91CF91089580E090E0C8CF8AEF90E00A
:10192000C5DF68E070E083E0CCDF61E082E03CD4BA
:1019300061E070E080E090E088D568E070E086E0EB
:10194000C0DF60E085E030D461E070E080E090E0EE
:101950007CC5CF92DF92EF92FF92AFD56B017C01F5
:10196000ACD5DC01CB018C199D09AE09BF09803DC6
:101970009740A105B105E0F48AEF90E097DF68E0B9
:1019800070E083E09EDF60E082E00ED461E070E012
:1019900080E090E05AD568E070E086E092DF60E099
:1019A00085E002D461E070E080E090E04ED5D8CFD1
:1019B000FF90EF90DF90CF900895CF92DF92EF925B
:1019C000FF927BD56B017C0178D5DC01CB018C19B2
:1019D0009D09AE09BF0986329240A105B105E0F428
:1019E0008AEF90E063DF68E070E083E06ADF60E048
:1019F00082E0DAD361E070E080E090E026D568E034
:101A000070E086E05EDF60E085E0CED361E070E00C
:101A100080E090E01AD5D8CFFF90EF90DF90CF9084
:101A20000895CF92DF92EF92FF9247D56B017C0130
:101A300044D5DC01CB018C199D09AE09BF098A3858
:101A40009240A105B105E0F48AEF90E02FDF68E055
:101A500070E083E036DF61E082E0A6D361E070E011
:101A600080E090E0F2D468E070E086E02ADF61E098
:101A700085E09AD361E070E080E090E0E6D4D8CFD2
:101A8000FF90EF90DF90CF9008958AEF90E00EDF07
:101A900060E470E083E015DF60E082E085D361E020
:101AA00070E080E090E0D1D460E470E086E009DF8F
:101AB00061E085E079D361E070E080E090E0C5C44A
:101AC0008AEF90E0F3DE68E070E083E0FADE60E049
:101AD00082E06AD361E070E080E090E0B6D468E034
:101AE00070E086E0EEDE61E085E05ED361E070E00C
:101AF00080E090E0AAC48AEF90E0D8DE64E070E075
:101B000083E0DFDE60E082E04FD361E070E080E000
:101B100090E09BD460E170E086E0D3DE61E085E098
:101B200043D361E070E080E090E08FC4382F2091D3
:101B3000BD079091FA08213208F049C080919A07B8
:101B40008111FCCF42E040939A07309399073FEF11
:101B5000309398071092970720939607ADE9B7E066
:101B600046E757E0FA013E2F341B321718F43D9137
:101B70003193F9CF1092750720917507990F922B29
:101B80009093750790917407913061F410927407E7
:101B9000909175079093BB009091BC0093FDF8CF96
:101BA00095EC01C095EE9093BC0090919A0792300D
:101BB000E1F3909198079F3F79F0809198078032E8
:101BC00041F080919807803331F084E005C081E0D6
:101BD00003C082E001C083E010929C071092BD0711
:101BE00010929B070895CF93DF931F92CDB7DEB776
:101BF00091E090939B0799E29093FA0810929C07CA
:101C00001092BD07682F60688EEB97E0498321DC56
:101C10004981642F8EEB97E01CDC81E00F90DF910F
:101C2000CF9184CF90919A079111FCCF613208F047
:101C300060E291E090939A07909399072FEF209399
:101C4000980710929707260F209396079093750791
:101C500090917507880F892B809375078091740781
:101C6000813061F410927407809175078093BB00F6
:101C70008091BC0083FDF8CF85EC01C085EE809398
:101C8000BC0080919A078130E1F380919707861715
:101C900010F460919707A6E7B7E024E537E0F90173
:101CA0008E2F821B861718F48D918193F9CF109295
:101CB000530760935207862F08950F931F93CF9376
:101CC000DF93109253071092520710929C071092C4
:101CD000BD07D0DD81E080939B0789E28093FA08FD
:101CE00062E98EEB97E0B5DB81E020DF61E070E038
:101CF00089E290E097DF8EEB97E060DB843419F0A7
:101D0000803109F05BC081E08093DA08C091DD0882
:101D1000D091DE08AE0160E070E065DFD093DE08B0
:101D2000C093DD08C091DB08D091DC088091DA080F
:101D3000811101C0C2DFAE0160E070E08FE053DFCF
:101D4000D093DC08C093DB0841E050E060E070E035
:101D500080E049DF63E070E080E090E076D343E02C
:101D600050E060E070E080E03EDF0AED17E0C0E0A8
:101D7000D0E0BE010D2E000C880B990B0E948C2028
:101D800020E030E04FE753E40E94F11F20E030E014
:101D900040E250E40E947F2120E030E04FE753E42E
:101DA0000E941C210E945E20F80161938F01219600
:101DB000C115F1E0DF07E9F681E001C080E0DF91C5
:101DC000CF911F910F910895FC019181907E9261B6
:101DD0009183CF010C949E020F931F93CF93DF93B7
:101DE000EC01623018F08D8988608D8B698F1A8EB6
:101DF0008BE39DE00197F1F760E08C81D5D160E045
:101E00008E81D2D18D818F3F11F060E0CDD16D896F
:101E100064FD19C063E0CE0173D50BE416E4C8017C
:101E20000197F1F763E0CE016BD5C8010197F1F797
:101E300063E0CE0165D583E592E00197F1F762E0BA
:101E4000CE015ED513C06062CE0168DB8BE496E400
:101E50000197F1F76D896062CE0160DB83E592E066
:101E60000197F1F76D896062CE0158DB6D89606280
:101E7000CE0154DB84E08E8B6CE0CE014FDBCE01D3
:101E800080DB82E08F8B66E0CE01DF91CF911F91E6
:101E90000F9144CB009761F0FC0101900020E9F71D
:101EA0003197AF01481B590BBC018FED98E0F1C58C
:101EB00080E090E00895CF93DF93CDB7DEB7289709
:101EC0000FB6F894DEBF0FBECDBF28E0E6E1F2E02A
:101ED000DE01119601900D922A95E1F72091F80804
:101EE000261710F46FEF620FFE013196E60FF11D19
:101EF000E60FF11D9081682F690F60688FED98E003
:101F000028960FB6F894DEBF0FBECDBFDF91CF91FC
:101F100005CB8F929F92AF92BF92CF92DF92EF92BA
:101F2000FF920F931F93CF93DF93CDB7DEB7A197A7
:101F30000FB6F894DEBF0FBECDBF6C01990FEE084F
:101F4000FF08F7FE30C0E091DF08F091E008019053
:101F5000F081E02D6DE28FED98E019958C0122273C
:101F60003327A9012C193D094E095F0919A2CE0199
:101F700081967C019AE0892E912CA12CB12CCA016A
:101F8000B901A50194010E94CF1F605DF701629322
:101F90007F01211531054105510589F7CF017ADF10
:101FA000800F911F1CC0A701960119A28E010F5D21
:101FB0001F4F8AE0C82ED12CE12CF12CCA01B901A7
:101FC000A70196010E94CF1F605DF80162938F0107
:101FD000211531054105510589F7CF015BDFA19638
:101FE0000FB6F894DEBF0FBECDBFDF91CF911F912A
:101FF0000F91FF90EF90DF90CF90BF90AF909F90A8
:102000008F9008950F931F9390E0FC01E25FFD4FC6
:102010006491FC01E853FE4FE491F0E0EE0FFF1FE6
:10202000E255FE4F8591949100E412E42FE030E0F8
:10203000462F5AD5611571058105910549F0DC01DE
:10204000CB010196A11DB11DBC01CD019F7003C044
:1020500060E070E0CB011F910F91089590E0FC01CA
:102060003197E231F10508F04EC08827EE58FF4F56
:102070008F4F0C948023809180008F7703C08091D4
:1020800080008F7D80938000089580918000877FFD
:10209000F9CF84B58F7702C084B58F7D84BD089554
:1020A0008091B0008F7703C08091B0008F7D8093C6
:1020B000B0000895809190008F7707C080919000C4
:1020C0008F7D03C080919000877F8093900008955A
:1020D0008091A0008F7707C08091A0008F7D03C002
:1020E0008091A000877F8093A000089580912001B7
:1020F0008F7707C0809120018F7D03C080912001E0
:10210000877F8093200108953FB7F894809100095C
:1021100090910109A0910209B091030926B5A89BED
:1021200005C02F3F19F00196A11DB11D3FBFBA2F69
:10213000A92F982F8827820F911DA11DB11DBC01C9
:10214000CD0142E0660F771F881F991F4A95D1F78E
:10215000089508950E949C23CF93DF93282F30E0A9
:10216000F901E857FD4F8491F901E25FFD4FD491E9
:10217000F901E853FE4FC491CC2389F081116EDF41
:10218000EC2FF0E0EE0FFF1FE255FE4FA591B4914A
:10219000EC91ED2381E090E021F480E002C080E04A
:1021A00090E0DF91CF9108951F93CF93DF93282F75
:1021B00030E0F901E857FD4F8491F901E25FFD4FEE
:1021C000D491F901E853FE4FC491CC23C1F0162FEE
:1021D000811144DFEC2FF0E0EE0FFF1FE259FD4FBD
:1021E000A591B4918FB7F894111105C09C91ED2F72
:1021F000E095E92302C0EC91ED2BEC938FBFDF91CA
:10220000CF911F910895CF93DF9390E0FC01E25F9F
:10221000FD4F2491FC01E853FE4F8491882361F126
:1022200090E0880F991FFC01EC5AFD4FC591D491A5
:10223000FC01E259FD4FA591B491611109C09FB70E
:10224000F8948881209582238883EC912E230BC0FB
:10225000623061F49FB7F8943881822F8095832390
:102260008883EC912E2B2C939FBF06C08FB7F894D8
:10227000E8812E2B28838FBFDF91CF9108951F9384
:10228000CF93DF93182FEB0161E0BDDF209711F4AE
:1022900060E004C0CF3FD10531F461E0812FDF91D0
:1022A000CF911F9181CFE12FF0E0E857FD4FE491EE
:1022B0004E2F50E0FA013197E231F10508F09DC050
:1022C0008827EC57FF4F8F4F0C94802384B580688C
:1022D00084BDC7BD97C084B5806284BDC8BD92C0AF
:1022E00080918000806880938000D0938900C093A3
:1022F000880088C080918000806280938000D093A5
:102300008B00C0938A007EC080918000886080939B
:102310008000D0938D00C0938C0074C08091B00079
:1023200080688093B000C093B3006CC08091B0000F
:1023300080628093B000C093B40064C0809190002C
:10234000806880939000D0939900C09398005AC001
:1023500080919000806280939000D0939B00C09306
:102360009A0050C080919000886080939000D09334
:102370009D00C0939C0046C08091A000806880931F
:10238000A0008091A0008F7B8093A000D093A90033
:10239000C093A80037C08091A00080628093A00005
:1023A000D093AB00C093AA002DC08091A00088609C
:1023B0008093A000D093AD00C093AC0023C0809167
:1023C0002001806880932001D0932901C0932801C7
:1023D00019C080912001806280932001D0932B014D
:1023E000C0932A010FC08091200188608093200152
:1023F000D0932D01C0932C0105C0C038D1050CF03D
:102400004CCF46CFDF91CF911F910895863308F0CE
:10241000865390917B00282F2870977F922B909362
:102420007B008770806480937C0080917A00806458
:1024300080937A0080917A0086FDFCCF80917800AD
:102440002091790090E0922B08958F929F92AF9205
:10245000BF92CF92DF92EF92FF926B017C0154DE2C
:102460004B015C01C114D104E104F104E9F04CDE3C
:10247000DC01CB0188199909AA09BB09883E934060
:10248000A105B10578F321E0C21AD108E108F108ED
:1024900088EE880E83E0981EA11CB11CC114D104E3
:1024A000E104F10421F7DECFFF90EF90DF90CF90B1
:1024B000BF90AF909F908F9008952FB7F894609140
:1024C000FC087091FD088091FE089091FF082FBFD5
:1024D00008951F920F920FB60F9211242F933F93DE
:1024E0008F939F93AF93BF938091FC089091FD08C9
:1024F000A091FE08B091FF083091FB0823E0230F64
:102500002D3720F40196A11DB11D05C026E8230F2B
:102510000296A11DB11D2093FB088093FC089093A7
:10252000FD08A093FE08B093FF08809100099091E8
:102530000109A0910209B09103090196A11DB11DE5
:102540008093000990930109A0930209B0930309B5
:10255000BF91AF919F918F913F912F910F900FBE9F
:102560000F901F9018951F920F920FB60F92112483
:102570000BB60F922F933F934F935F936F937F937D
:102580008F939F93AF93BF93EF93FF93E0910E02CE
:10259000F0910F021995FF91EF91BF91AF919F912B
:1025A0008F917F916F915F914F913F912F910F90FC
:1025B0000BBE0F900FBE0F901F9018951F920F9299
:1025C0000FB60F9211240BB60F922F933F934F9398
:1025D0005F936F937F938F939F93AF93BF93EF938B
:1025E000FF93E0910C02F0910D021995FF91EF918C
:1025F000BF91AF919F918F917F916F915F914F911B
:102600003F912F910F900BBE0F900FBE0F901F9018
:1026100018951F920F920FB60F9211240BB60F92BE
:102620002F933F934F935F936F937F938F939F93DA
:10263000AF93BF93EF93FF93E0910202F0910302F7
:102640001995FF91EF91BF91AF919F918F917F91DC
:102650006F915F914F913F912F910F900BBE0F9013
:102660000FBE0F901F9018951F920F920FB60F92EA
:1026700011240BB60F922F933F934F935F936F9359
:102680007F938F939F93AF93BF93EF93FF93E091CB
:102690000002F09101021995FF91EF91BF91AF9166
:1026A0009F918F917F916F915F914F913F912F916A
:1026B0000F900BBE0F900FBE0F901F9018951F929A
:1026C0000F920FB60F9211240BB60F922F933F93D8
:1026D0004F935F936F937F938F939F93AF93BF932A
:1026E000EF93FF93E0910A02F0910B021995FF918D
:1026F000EF91BF91AF919F918F917F916F915F917A
:102700004F913F912F910F900BBE0F900FBE0F90E6
:102710001F9018951F920F920FB60F9211240BB6AF
:102720000F922F933F934F935F936F937F938F936A
:102730009F93AF93BF93EF93FF93E0910802F091C3
:1027400009021995FF91EF91BF91AF919F918F91E0
:102750007F916F915F914F913F912F910F900BBEA1
:102760000F900FBE0F901F9018951F920F920FB6EB
:102770000F9211240BB60F922F933F934F935F93B9
:102780006F937F938F939F93AF93BF93EF93FF9339
:10279000E0910602F09107021995FF91EF91BF9128
:1027A000AF919F918F917F916F915F914F913F91E9
:1027B0002F910F900BBE0F900FBE0F901F9018958A
:1027C0001F920F920FB60F9211240BB60F922F93F8
:1027D0003F934F935F936F937F938F939F93AF93A9
:1027E000BF93EF93FF93E0910402F09105021995D6
:1027F000FF91EF91BF91AF919F918F917F916F91D9
:102800005F914F913F912F910F900BBE0F900FBE94
:102810000F901F901895CF93DF93EC018A890E9447
:10282000C80A8C89811103C08CB5806202C08CB546
:102830008F7D8CBD8CB5837F9B89892B8CBD60E09F
:102840008989B2DC8F858EBD00000DB407FEFDCFF7
:102850008EB561E08989DF91CF91A6CCCF92DF92CE
:10286000EF92FF92CF93DF93EC01888981110CC026
:1028700060E08E8199DC61E08E8196DC60E08E8183
:1028800093DC8BE891E033C0C12CD12C7601C3944A
:10289000D701C6010E8004C0880F991FAA1FBB1F55
:1028A0000A94D2F780959F8589238F87CE01B3DF65
:1028B000D701C6010E8004C0880F991FAA1FBB1F35
:1028C0000A94D2F72F85822B8F87CE01A4DF0E804A
:1028D00004C0CC0CDD1CEE1CFF1C0A94D2F7C09483
:1028E0008F85C822CF86CE0196DF8BE990E00197D5
:1028F000F1F7DF91CF91FF90EF90DF90CF900895A7
:102900008F929F92AF92BF92CF92DF92EF92FF92FF
:102910000F931F93CF93DF93EC018889062F10E06C
:1029200081111FC05E0187E0A80EB11CE12CF12CC3
:10293000650161E0F50181915F0165DCB8010E2C54
:1029400002C0759567950A94E2F76170F60180817F
:102950002BDCFFEFEF1AFF0A84E0E816F10441F7E1
:1029600032C084E090E0812C912C540183949C012E
:1029700024503109A80102C0559547952A95E2F7E0
:102980002F8540FF0DC075016401082E04C0CC0CDA
:10299000DD1CEE1CFF1C0A94D2F7C22ACF860DC0A4
:1029A000B501A401082E04C0440F551F661F771FF0
:1029B0000A94D2F7409542234F87019688309105BB
:1029C000B1F6CE0128DFCE01DF91CF911F910F919B
:1029D000FF90EF90DF90CF90BF90AF909F908F903F
:1029E0003DCFAF92BF92CF92DF92EF92FF920F93C3
:1029F0001F93CF93DF93EC01F62E642F8C81D4DBF1
:102A00008D818F3F11F060E0CFDB8D890F2D10E0BD
:102A100084FF2AC05E0187E0A80EB11CE12CF12CD6
:102A2000650161E0F50181915F01EDDBB8010E2CDC
:102A300002C0759567950A94E2F76170F60180818E
:102A4000B3DBFFEFEF1AFF0A88E0E816F10441F765
:102A5000CE01DF91CF911F910F91FF90EF90DF900A
:102A6000CF90BF90AF90FACEB80184E0759567958E
:102A70008A95E1F7CE0144DF6F2DCE01DF91CF9132
:102A80001F910F91FF90EF90DF90CF90BF90AF908C
:102A900037CFCF92DF92EF92FF920F931F93CF9396
:102AA000DF936C017A018B01C0E0D0E0CE15DF0529
:102AB00089F0D8016D918D01D601ED91FC910190C5
:102AC000F081E02DC6011995892B11F47E0102C019
:102AD0002196ECCFC701DF91CF911F910F91FF900D
:102AE000EF90DF90CF900895CF92DF92EF92FF9218
:102AF0000F931F93E82FF92F05C0015011092109E9
:102B0000310961F1908196239417B9F305C0015002
:102B100011092109310911F1908196239413F7CFFE
:102B2000C12CD12CE12CF12C0AC08FEFC81AD80A85
:102B3000E80AF80A0C151D052E053F0579F080817D
:102B40008623841791F36C2D7D2D8E2D9F2D1F9143
:102B50000F91FF90EF90DF90CF90089560E070E0CC
:102B600080E090E01F910F91FF90EF90DF90CF9069
:102B70000895CF93DF93CDB7DEB72F970FB6F894B4
:102B8000DEBF0FBECDBF789484B5826084BD84B5AE
:102B9000816084BD85B5826085BD85B5816085BD58
:102BA00080916E00816080936E0010928100809110
:102BB0008100826080938100809181008160809398
:102BC0008100809180008160809380008091B100BD
:102BD00084608093B1008091B00081608093B000E8
:102BE000809191008260809391008091910081603A
:102BF00080939100809190008160809390008091FB
:102C0000A10082608093A1008091A10081608093E7
:102C1000A1008091A00081608093A000809121019B
:102C20008260809321018091210181608093210144
:102C30008091200181608093200180917A008460DE
:102C400080937A0080917A00826080937A008091EC
:102C50007A00816080937A0080917A008068809306
:102C60007A001092C10062E08FED98E0B5D8109222
:102C700053071092520710929C071092BD070E94B2
:102C80003A0C0E94D70A84E08093D90761E08CDA7D
:102C900061E08091D907B7DA87E08093D10761E0DE
:102CA00083DA61E08091D107AEDA60E083E07CDA1C
:102CB00061E083E0A8DA60E082E076DA61E082E059
:102CC000A2DA60E086E070DA61E086E09CDA60E03B
:102CD00085E06ADA61E085E096DA61E070E080E044
:102CE00090E0B3DB1092D6071092D5071092D4076C
:102CF0001092D3071092D20782ED97E00E94EC0267
:102D00001092CE071092CD071092CC071092CB07ED
:102D10001092CA078AEC97E00E94EC0282ED97E0DD
:102D200053D88AEC97E050D868E082ED97E00E9493
:102D3000A30268E08AEC97E00E94A3028091D50785
:102D400080688093D50782ED97E00E94EC02809125
:102D5000CD0780688093CD078AEC97E00E94EC0253
:102D60000E945D0E60E08CE14EDA61E08DE14BDAAD
:102D700060E08AE148DA61E08BE145DA60E086E212
:102D800042DA60E085E23FDA60E084E23CDA60E06B
:102D900083E239DA60E082E236DA60E081E233DA57
:102DA00060E080E230DA60E08DE1FED960E08BE146
:102DB000FBD9ECE9F6E048E856E024E736E080E6A7
:102DC00096E00CE416E011921192DA011D921D9228
:102DD000AD01D9011D921D929D01DC011D921D9234
:102DE000CD01D8011D921D928D01B6E0E03BFB079D
:102DF00051F761E086E107DA61E087E104DA61E03A
:102E000088E101DA60E082E1FED960E083E1FBD98C
:102E10002AE931E030930B0220930A028091690085
:102E20008F73806480936900EB9A3093090220933A
:102E30000802809169008F7C806180936900EA9A22
:102E400060E086E1B1D960E087E1AED960E088E179
:102E5000ABD983E3C82E84E0D82E92E3A92E94E068
:102E6000B92E21E3822E24E0922E3EE7232E34E079
:102E7000332E80911002909111028F3224E092073C
:102E800009F461C40CF0EDC08B30A4E09A0709F49A
:102E900086C20CF086C0873F23E0920709F426C261
:102EA00014F5843FA3E09A0709F4C6C194F4883E60
:102EB00023E0920709F4B0C1833F934009F07FC734
:102EC00065E572E086E692E00E94AA060E947C0216
:102ED000C5C1853FA3E09A0709F4C4C1863F93406A
:102EE00009F4C9C16CC7883024E0920709F40EC206
:102EF00064F58C3FA3E09A0709F4FDC18730944044
:102F000009F05DC70E94350780E090E00E940A0347
:102F10009093BA068093B906E090B706F090B80691
:102F20000091B5061091B6062091B3063091B40613
:102F30004091B1065091B20663E275E084EE92E0F2
:102F40000E94EC060E947B0D03C2893024E09207A8
:102F500009F402C28A30944009F031C70E94350753
:102F600080E090E00E940A039093BA068093B9062D
:102F7000E090B706F090B8060091B5061091B6063D
:102F80002091B3063091B4064091B1065091B2063B
:102F900067E772E08DEE92E00E94EC060E94160256
:102FA000D7C18431A4E09A0709F479C25CF5813174
:102FB00024E0920709F44CC274F48C30A4E09A0720
:102FC00009F410C28D30944009F0F9C66FE173E046
:102FD0008EE293E0D9C6823124E0920709F451C20F
:102FE0008331944009F0EBC682E090E00E94E70450
:102FF0009093B6068093B506AC016FE573E08BE65F
:1030000093E033C28D31A4E09A0709F495C294F499
:103010008B3124E0920709F450C28C31944009F0BE
:10302000CEC661EA73E08FEA93E00E94AA060E948E
:10303000DD0C7DC28532A4E09A0709F4BBC286325A
:10304000B4E09B0709F44EC38E31944009F0B7C633
:103050006FEC73E08CED93E00E94AA060E94110DC4
:10306000A5C2863764E0960709F496C50CF06CC0DB
:103070008234B4E09B0709F4DBC45CF5823364E07E
:10308000960709F418C484F48033B4E09B0709F46C
:10309000AEC38133944009F092C66BE374E085E4DB
:1030A00094E00E94AA06D8C3833364E0960709F42B
:1030B0005AC48833944009F082C66DE774E08DE805
:1030C00094E00E94AA060E948B0CF7D92B013C01C8
:1030D00096C48036B4E09B0709F4FEC4F4F48C3443
:1030E00064E0960709F4DBC48635944009F067C6AE
:1030F00062E08FED98E00E94EC0E69E170E080E004
:1031000090E0A3D964EC74E081ED94E00E94AA06FB
:103110000E948E0C80E694E0AFC18C36B4E09B0731
:1031200009F403C5853724E0920709F40CC58B36F2
:10313000944009F044C663EF74E08FEF94E00E947E
:10314000AA060E94110DF9C48E37A4E09A0709F46B
:1031500092C57CF5893724E0920709F441C5DCF477
:103160008737A4E09A0709F429C58837944009F005
:1031700026C680E090E00E940A039093BA068093EE
:10318000B906AC016FE575E088E695E00E94C506DA
:103190000E941602E9C48A3724E0920709F432C576
:1031A0008B37944009F00BC660EA75E08DEA95E034
:1031B000EBC58B38A4E09A0709F482C5DCF48938A2
:1031C00024E0920709F462C58A38944009F0F7C5F3
:1031D00081E090E00E940A039093BC068093BB06B6
:1031E000AC0167EE75E087EF95E00E94C5060E948E
:1031F000160277C58D38A4E09A0709F4C1C50CF40E
:1032000086C58239944009F0DAC50E948B0C60E0D3
:1032100088E10E94D410D3C56CE372E08DE492E0A3
:103220000E94AA060E947C0268EE73E080E090E0B3
:103230000CD983EF93E020C16FE672E08DE792E056
:103240000E94AA060E9416020E94430629833A831E
:103250004B835C836D837E838F8398870E94600994
:1032600060E052C566E872E083E992E00E94AA0637
:103270000E94D201E9CF6CE972E08CEA92E00E94F0
:10328000AA068091CE06811109C017D96093CA069B
:103290007093CB068093CC069093CD060ED94090C8
:1032A000CA065090CB066090CC067090CD06DC012B
:1032B000CB0184199509A609B7098B389240A1055D
:1032C000B10508F466C5F9D8DC01CB01841995096C
:1032D000A609B709843C9940A105B10508F059C574
:1032E0000E945A020E94600960E0B5C565EB72E079
:1032F00085EC92E049C56EEC72E08CED92E00E94A4
:10330000AA060E94A90C89E094E03FC40E943507F8
:1033100080E090E00E940A039093BA068093B90679
:10332000E090B706F090B8060091B5061091B60689
:103330002091B3063091B4064091B1065091B20687
:103340006EE872E08DEE92E00E94EC060E94D201DF
:1033500080E00E94BC0719C40E94350780E090E01D
:103360000E940A039093BA068093B906E090B706CC
:10337000F090B8060091B5061091B6062091B306FC
:103380003091B4064091B1065091B20666EF72E0FA
:103390008EEF92E00E94EC060E943802D9CF0E9484
:1033A000350780E090E00E940A039093BA0680936C
:1033B000B906E090B706F090B8060091B5061091F6
:1033C000B6062091B3063091B4064091B1065091F3
:1033D000B20665E775E08DEE92E00E94EC060E9471
:1033E000F401B6CF67E073E086E193E00E94AA069D
:1033F0008091CE06811109C060D86093CA0670938F
:10340000CB068093CC069093CD0657D84090CA0641
:103410005090CB066090CC067090CD06DC01CB01BD
:1034200084199509A609B7098B389240A105B10501
:1034300008F4D3C442D8DC01CB0184199509A6094C
:10344000B709843C9940A105B10508F4D6C4C5C4A8
:1034500080E090E00E94E7049093B2068093B1066A
:10346000AC0167E373E082E493E00E94C5060E942A
:10347000450D81E00E94BC079093110280931002D9
:103480009EC481E090E00E94E7049093B40680938C
:10349000B306AC016BE473E086E593E0E6CF83E02E
:1034A00090E00E94E7049093B8068093B706AC01C1
:1034B00064E773E080E893E0D8CF69E873E088E9D7
:1034C00093E00E94AA060E945D122B013C010E941B
:1034D0005D12DC01CB0184199509A609B709863470
:1034E0009540A105B10518F58AEF90E00E94560CB1
:1034F00068E070E083E00E94610C60E082E00E947E
:10350000D41061E070E080E090E00E94251268E055
:1035100070E086E00E94610C60E085E00E94D410BB
:1035200061E070E080E090E00E942512D0CF109220
:10353000C90685E294E0A0CF68EB73E086EC93E0E7
:103540000E94AA060E945D122B013C010E945D129E
:10355000DC01CB0184199509A609B7098A3A95407F
:10356000A105B10518F58AEF90E00E94560C68E0BD
:1035700070E083E00E94610C61E082E00E94D41060
:1035800061E070E080E090E00E94251268E070E069
:1035900086E00E94610C61E085E00E94D41061E049
:1035A00070E080E090E00E942512D0CF81E080930F
:1035B000C906BFCF8091C80681110DC00E945D125F
:1035C0006093C4067093C5068093C6069093C706A1
:1035D00081E08093C8060E945D120091C40610919C
:1035E000C5062091C6063091C706DC01CB01801BC1
:1035F000910BA20BB30B893B9B40A105B10518F0C1
:1036000086E294E039CF0E948E048C019093C30629
:103610008093C2060E94510329833A834B835C83C3
:103620006D837E838F83A80165EE73E082EF93E064
:103630000E94C5068091C2069091C30603970A971F
:1036400008F447C08981811144C08A81811141C039
:103650008B8181113EC08C8181113BC08D81811194
:1036600038C08E81811135C08F81811132C08AEFBF
:1036700090E00E94560C68E070E083E00E94610CCC
:1036800060E082E00E94D41061E070E080E090E0B1
:103690000E94251268E070E086E00E94610C61E003
:1036A00085E00E94D41061E070E080E090E00E942C
:1036B00025120E948E049093C3068093C2060E9436
:1036C000510329833A834B835C836D837E838F838D
:1036D00076C38FE294E090931102809310021092CF
:1036E000C8066DC36BEF73E084E094E00E94AA0605
:1036F0008091C806882361F00E945D126093C40621
:103700007093C5068093C6069093C7061092C806AC
:103710000E945D120091C4061091C5062091C60654
:103720003091C706DC01CB01801B910BA20BB30BC0
:103730008E389241A105B10518F40E948E0CE8CF95
:1037400089E094E099CE6DE074E08EE194E00E940F
:10375000AA068AEF90E00E94560C60E870E083E0D1
:103760000E94610C60E082E00E94D41061E070E091
:1037700080E090E00E94251260E870E086E00E9400
:10378000610C61E085E00E94D41061E070E080E0AF
:1037900090E00E9425120E94510329873A874B87A7
:1037A0005C876D877E878F87211104C0311102C02D
:1037B000442329F0511103C080E394E05DCE8111D0
:1037C00004C0711102C0662349F0552309F4BAC040
:1037D0008111BFC07111BDC06111BBC05111B9C011
:1037E0004111B7C03111B5C02111B3C0B7C067E2F4
:1037F00074E082E394E00E94AA060E9451032983A8
:103800003A834B835C836D837E838F838C818111AC
:10381000A0C08AEF90E00E94560C60E270E083E066
:103820000E94610C60E082E00E94D41061E070E0D0
:1038300080E090E00E94251260E270E086E00E9445
:10384000610C60E085E00E94D41061E070E080E0EF
:1038500090E00E942512D1CF0E94510329833A8320
:103860004B835C836D837E838F838C81811171C0D8
:103870008AEF90E00E94560C60E270E083E00E94C4
:10388000610C61E082E00E94D41061E070E080E0B1
:1038900090E00E94251260E270E086E00E94610CD8
:1038A00061E085E00E94D41061E070E080E090E08B
:1038B0000E942512D1CF6EE474E08BE594E00E9463
:1038C000AA068AEF90E00E94560C60E470E083E064
:1038D0000E94610C60E082E00E94D41061E070E020
:1038E00080E090E00E94251260E470E086E00E9493
:1038F000610C61E085E00E94D41061E070E080E03E
:1039000090E00E9425120E94510329833A834B8341
:103910005C836D837E838F83211104C0311102C0CB
:10392000442329F0511103C0A0E3B4E0D0C08F813B
:10393000811106C08E81811103C08D81882339F0E9
:10394000511105C0909211028092100238C2552385
:1039500029F0D0921102C092100231C2B09211022D
:10396000A09210022CC20E94510329833A834B83F8
:103970005C836D837E838F8364E674E084E794E0E8
:103980000E94AA0660ED77E080E090E00E94251298
:103990000E945D122B013C010E945D12DC01CB01F3
:1039A00084199509A609B709803D9740A105B1057D
:1039B00018F58AEF90E00E94560C60E270E083E018
:1039C0000E94610C61E082E00E94D41061E070E02E
:1039D00080E090E00E94251260E270E086E00E94A4
:1039E000610C60E085E00E94D41061E070E080E04E
:1039F00090E00E942512D0CF88E394E03DCD0E9454
:103A00005D12DC01CB0184199509A609B7098C3731
:103A10009541A105B10528F461E087E10E94D41029
:103A2000EECF60E087E10E94D41082E494E024CDE0
:103A300065E974E084EA94E00E94AA068091C106D8
:103A400081110EC061E088E10E94D4100E945D12D5
:103A50006093BD067093BE068093BF069093C00628
:103A60000E945D120091BD061091BE062091BF0616
:103A70003091C006DC01CB01801B910BA20BB30B74
:103A8000853F9140A105B10530F08CE494E090931E
:103A900011028093100281E08093C10690C16CEA0C
:103AA00074E08BEB94E00E94AA0681E08093B0065C
:103AB0008091B006882329F061E086E10E94D4104D
:103AC000F7CF60E086E10E94D410A6E5B4E0B093A1
:103AD0001102A093100273C16AED74E08AEE94E0C3
:103AE0000E94AA060E94430629833A834B835C8383
:103AF0006D837E838F8398878E8181110CC08D8129
:103B0000811109C08C81811106C08B81811103C094
:103B10000E948E0CE7CF8091C906882319F08CE6AD
:103B200094E0AACCABE6B4E0D2CF69E075E086E1E0
:103B300095E00E94AA060E94DD0C0E94870761E0C2
:103B40000E94440799CC80E090E00E940A03909381
:103B5000BA068093B906AC0160E275E08CE295E0AC
:103B60000E94C5060E947B0D8091B9069091BA060D
:103B70008B3491052CF4309211022092100209C06E
:103B80000E94870761E00E9444079093110280938E
:103B900010021092CE0613C180E090E00E940A034A
:103BA0009093BA068093B906AC0166E375E08EE3A4
:103BB00095E00E94C5060E94D201D6CF80E090E039
:103BC0000E940A039093BA068093B906AC0168E498
:103BD00075E085E595E00E94C5060E943802C4CFD5
:103BE00080E090E00E940A039093BA068093B906A1
:103BF000AC0162E775E08FE795E00E94C5060E9480
:103C0000F401B2CF69E875E086E995E00E94AA0662
:103C10008091CE0681110AC00E945D126093CA068F
:103C20007093CB068093CC069093CD060E945D12D4
:103C30004090CA065090CB066090CC067090CD069E
:103C4000DC01CB0184199509A609B7098B3892408C
:103C5000A105B10508F4D9C00E945D12DC01CB01B9
:103C600084199509A609B709843C9940A105B105B5
:103C700008F4C3C0CAC067EB75E087EC95E00E940A
:103C8000AA060E94A90CA9E8B4E021CF81E090E047
:103C90000E940A039093BC068093BB06AC0160EDC2
:103CA00075E08DED95E00E94C5060E947C02809132
:103CB000BB069091BC060A9724F582E994E065CF93
:103CC00081E090E00E940A039093BC068093BB06BB
:103CD000AC0161E076E080E196E00E94C5060E94BA
:103CE000D2018091BB069091BC060A9734F30E94E2
:103CF000430629833A834B835C836D837E838F8362
:103D000098870E94600961E00E942D093ECF6AE118
:103D100076E089E296E00E94AA068091CE068111A3
:103D20000AC00E945D126093CA067093CB0680930E
:103D3000CC069093CD060E945D124090CA0650902A
:103D4000CB066090CC067090CD06DC01CB018419C7
:103D50009509A609B7098B389240A105B10508F469
:103D600064C00E945D12DC01CB0184199509A6098B
:103D7000B709843C9940A105B10508F467C055C056
:103D800063E376E082E496E00E94AA060E948B0C30
:103D900016C00E945D12DC01CB0184199509A609A9
:103DA000B709853C9940A105B10530F087EF93E054
:103DB000909311028093100281E08093CE0669E116
:103DC00070E080E090E00E94251280E090E0892B76
:103DD00009F44FC80E9400004CC80E945D12DC012B
:103DE000CB0184199509A609B709853C9940A1051D
:103DF000B10510F38DE094E0DBCF0E94600D0E94CE
:103E0000870760E00E944407D3CF0E945D12DC0167
:103E1000CB0184199509A609B709853C9940A105EC
:103E2000B10550F28BE794E0C3CF0E945D12DC0134
:103E3000CB0184199509A609B709853C9940A105CC
:103E4000B10508F4B9CF8DE894E0B2CF0E945A02D0
:103E50000E94600961E00E942D09AACFCF93DF93F1
:103E60001092C1071092C00788EE93E0A0E0B0E086
:103E70008093C2079093C307A093C407B093C5076C
:103E800082E292E09093BF078093BE0782E5809321
:103E9000D707C1E0C093D8071092D6071092D50774
:103EA0001092D4071092D3071092D2078093CF07B5
:103EB000C093D0071092CE071092CD071092CC0776
:103EC0001092CB071092CA071092DA088BEE90E09E
:103ED0009093DE088093DD081092DC081092DB08D6
:103EE0001092E2081092E10884E392E09093E008D7
:103EF0008093DF08C093EF0889E08093F00861E0C9
:103F00000E9403110E94D70AD4E0D093F10884E004
:103F10000E94C80A1092F2088CB5837F8CBDC093B2
:103F2000F3088CB58F7D8CBDC093E3088FEF809331
:103F3000E40883E08093E5081092E6081092E70811
:103F40001092E8081092E908D093EA0885E080937F
:103F5000EB0886E08093EC0887E08093ED0861E051
:103F600081E00E9403118091E4088F3F19F061E025
:103F70000E94031161E08091E5080E9403111092F4
:103F8000F40861E08FED98E00E94EC0E8091EF085C
:103F9000811102C01092EF08DF91CF910895A1E244
:103FA0001A2EAA1BBB1BFD010DC0AA1FBB1FEE1FB3
:103FB000FF1FA217B307E407F50720F0A21BB30BFE
:103FC000E40BF50B661F771F881F991F1A9469F77A
:103FD00060957095809590959B01AC01BD01CF01D6
:103FE00008950CD0EBC0E3D040F0DAD030F021F4EB
:103FF0005F3F19F0CCC0511115C1CFC0F0D098F37C
:104000009923C9F35523B1F3951B550BBB27AA2759
:1040100062177307840738F09F5F5F4F220F331FCB
:10402000441FAA1FA9F333D00E2E3AF0E0E830D097
:1040300091505040E695001CCAF729D0FE2F27D09A
:10404000660F771F881FBB1F261737074807AB0768
:10405000B0E809F0BB0B802DBF01FF2793585F4FDD
:104060002AF09E3F510568F092C0DCC05F3FECF340
:10407000983EDCF3869577956795B795F7959F5FA2
:10408000C9F7880F911D9695879597F90895E1E0F6
:10409000660F771F881FBB1F621773078407BA0755
:1040A00020F0621B730B840BBA0BEE1F88F7E095B0
:1040B000089504D06894B111B5C0089598D088F0DF
:1040C0009F5790F0B92F9927B751A0F0D1F0660F04
:1040D000771F881F991F1AF0BA95C9F712C0B1301F
:1040E00081F09FD0B1E008959CC0672F782F88277A
:1040F000B85F39F0B93FCCF3869577956795B3955E
:10410000D9F73EF490958095709561957F4F8F4FCC
:104110009F4F0895E89409C097FB3EF490958095D1
:10412000709561957F4F8F4F9F4F9923A9F0F92F7D
:1041300096E9BB279395F695879577956795B795FB
:10414000F111F8CFFAF4BB0F11F460FF1BC06F5FE1
:104150007F4F8F4F9F4F16C0882311F096E911C0F3
:10416000772321F09EE8872F762F05C0662371F014
:1041700096E8862F70E060E02AF09A95660F771F28
:10418000881FDAF7880F9695879597F9089597F91C
:104190009F6780E870E060E008959FEF80EC0895ED
:1041A00000240A9416161706180609060895002416
:1041B0000A9412161306140605060895092E039490
:1041C000000C11F4882352F0BB0F40F4BF2B11F404
:1041D00060FF04C06F5F7F4F8F4F9F4F089557FD63
:1041E0009058440F551F59F05F3F71F04795880F65
:1041F00097FB991F61F09F3F79F0879508951216FC
:1042000013061406551FF2CF4695F1DF08C01616A7
:1042100017061806991FF1CF869571056105089458
:104220000895E894BB2766277727CB0197F908956F
:10423000E3D008F48FEF08950BD0C0CFB1DF28F0A2
:10424000B6DF18F0952309F0A2CFA7CF1124EACF4B
:10425000C6DFA0F3959FD1F3950F50E0551F629FE5
:10426000F001729FBB27F00DB11D639FAA27F00DCF
:10427000B11DAA1F649F6627B00DA11D661F829FF6
:104280002227B00DA11D621F739FB00DA11D621FDB
:10429000839FA00D611D221F749F3327A00D611DF8
:1042A000231F849F600D211D822F762F6A2F1124DA
:1042B0009F5750408AF0E1F088234AF0EE0FFF1F2D
:1042C000BB1F661F771F881F91505040A9F79E3F64
:1042D000510570F05CCFA6CF5F3FECF3983EDCF366
:1042E000869577956795B795F795E7959F5FC1F7A1
:1042F000FE2B880F911D9695879597F90895FA01E1
:10430000EE0FFF1F30962105310599F161157105FA
:1043100061F48038BFE39B0749F1689490388105C8
:1043200061F08038BFEF9B0741F0992342F5FF3FD2
:10433000E1053105210511F1E8940894E795D901CB
:10434000AA2329F4AB2FBE2FF85FD0F310C0FF5F74
:1043500070F4A695E0F7F73950F019F0FF3A38F409
:104360009F779F930CD00F9007FC905808953EF0D4
:1043700014CF60E070E080E89FE308954FE79F77F7
:104380005F934F933F932F93C2D02F913F914F91C3
:104390005F9152DF05C019F40EF0F9CE42CFFDCE89
:1043A00026DFC8F39638C0F707F80F92E8942BE39E
:1043B0003AEA48EB5FE74EDF0F920F920F924DB74C
:1043C0005EB70F92E4D0ECE2F1E03AD04F915F910A
:1043D000EF91FF91E595EE1FFF1F49F0FE57E06852
:1043E0004427EE0F441FFA95E1F74195550B56D03F
:1043F0000F9007FE4AC00895990F0008550FAA0BA9
:10440000E0E8FEEF16161706E807F907C0F01216E7
:104410001306E407F50798F0621B730B840B950BEA
:1044200039F40A2661F0232B242B252B21F408953F
:104430000A2609F4A140A6958FEF811D811D0895DC
:10444000DF93CF931F930F93FF92EF92DF927B0145
:104450008C01689405C0DA2EEF01FADEFE01E894C3
:10446000A5912591359145915591AEF3EF01D4D0A9
:10447000FE019701A801DA9479F7DF90EF90FF90A1
:104480000F911F91CF91DF9108959B01AC0160E0E6
:1044900070E080E89FE3A5CD7ACE11C1A8DEE8F3F5
:1044A0009923D9F3940F511DBBF39150504094F0D0
:1044B00059F0882332F0660F771F881F91505040C3
:1044C000C1F79E3F510544F7880F911D969587953A
:1044D00097F908955F3FACF0983E9CF0BB27869516
:1044E00077956795B79508F4B1609395C1F7BB0FC1
:1044F00058F711F460FFE8CF6F5F7F4F8F4F9F4FEA
:10450000E3CF90CE0EF0DBC048CE689440CE6FDE95
:10451000C8F39923D1F3C6F3DF93CF931F930F937F
:10452000FF92C92FDD2788232AF02197660F771F76
:10453000881FDAF720E030E040E85FEB9FE388393E
:1045400020F0803E30F021968F7755D0E4E5F1E001
:1045500003C051D0E1E8F1E073DF8B01BE01EC0153
:10456000FB2E6F5771097595771F880B990BD4DD5A
:1045700028E132E741E35FE36BDEAF2D9801AE0146
:10458000FF900F911F91CF91DF9146D017CEFA0186
:10459000DC01AA0FBB1F9B01AC01BF5728F42227E7
:1045A0003327442750781FC0B75188F4AB2F00241D
:1045B000469537952795011CA395D2F3002069F005
:1045C000220F331F441FB395DAF30DD013C06130AF
:1045D0007105A0E88A07B94630F49B01AC01662753
:1045E000772788279078309621F020833183428383
:1045F000538308955058BB27AA270ED0DFCDD0DDB6
:1046000030F0D5DD20F031F49F3F11F41EF4C5CD1C
:104610000EF4E095E7FBBBCDE92FE1DD80F3BA179F
:10462000620773078407950718F071F49EF5F9CDBA
:104630000EF4E0950B2EBA2FA02D0B01B9019001BD
:104640000C01CA01A0011124FF27591B99F0593F01
:1046500050F4503E68F11A16F040A22F232F342F49
:104660004427585FF3CF469537952795A795F04097
:104670005395C9F77EF41F16BA0B620B730B840BAC
:10468000BAF09150A1F0FF0FBB1F661F771F881F64
:10469000C2F70EC0BA0F621F731F841F48F48795BC
:1046A00077956795B795F7959E3F08F0B3CF9395AB
:1046B000880F08F09927EE0F9795879508959F3FEB
:1046C00031F0915020F4879577956795B795880FCD
:1046D000911D9695879597F9089597FB072E16F4E7
:1046E000009406D077FD08D013D007FC05D03EF427
:1046F000909581959F4F0895709561957F4F08958E
:10470000EE0FFF1F881F8BBF0790F691E02D1994C5
:10471000AA1BBB1B51E107C0AA1FBB1FA617B707E7
:1047200010F0A61BB70B881F991F5A95A9F7809503
:104730009095BC01CD01089581E090E0F89400C00F
:04474000F894FFCF1B
:10474400A910A910A910A910A910A910A910A9109D
:10475400E8030800080000004000140054000000B2
:104764000000290AFA09580ACE09F209DE09CF091C
:10477400000000005B0A4915580A570A4D4F564578
:10478400544F2053544152544C494E4500535441C4
:1047940054455F300053544152544C4E20535452AC
:1047A40041494748540053544154455F31410053F3
:1047B400544152544C4E205249474854005354419A
:1047C40054455F31420053544152544C4E204C45A1
:1047D40046540053544154455F31430053544152AD
:1047E40054204C4F535420534C4F5700535441546E
:1047F400455F3144005354415254204C4F5354208C
:1048040053544F500053544154455F314500524F67
:1048140054415445203930204343570053544154A4
:10482400455F320053544154455F33410053544172
:1048340054455F3342004E4F524D2043570053546A
:104844004154455F3343004C4F535420534C4F570E
:10485400204D4F56450053544154455F3346004C58
:104864004F53542053544F50204D4F5645005354EA
:104874004154455F334700504F535320584C4546ED
:10488400540053544154455F344100504F53532016
:10489400594C4546540053544154455F34420050EA
:1048A4004F53532058524947485400535441544598
:1048B4005F344300504F53532059524947485400E2
:1048C40053544154455F344400524F54415445209D
:1048D400313335204343570053544154455F3541E8
:1048E40000524F544154452034352043435700531C
:1048F400544154455F354200524F54415445203190
:1049040033352043570053544154455F35430052D7
:104914004F54415445203435204357005354415497
:10492400455F35440057414954205348525420525E
:10493400470053544154455F364100524556455251
:104944005345210053544154455F3642005245417A
:1049540044204449474954414C2041525200535445
:104964004154455F374100524F544154452043431D
:10497400570053544154455F374200524F544154F9
:10498400452043570053544154455F3743004D4F2E
:10499400564520464F5257415244005354415445C2
:1049A4005F3744004D454449554D204445544543E3
:1049B4005445440053544154455F3745004C4F57C8
:1049C4004552494E472050554C4C4559005354418B
:1049D40054455F38005455524E494E47204F4E209F
:1049E4004D41470053544154455F390052414953A6
:1049F400494E472050554C4C455900535441544559
:104A04005F313000434C4541522053435245454E9B
:104A14000053544154455F31310052455645525379
:104A24004520544F204C494E450053544154455F52
:104A3400313200524F5441544520343543570053CA
:104A4400544154455F31334100524F544154452041
:104A540039304343570053544154455F3133420086
:104A64005A532D464152204C454654005354415408
:104A7400455F313441005A532D4C4546540053543C
:104A84004154455F313442005A532D4E4F524D41EB
:104A94004C2043570053544154455F313443005A2A
:104AA400532D52494748540053544154455F3134BF
:104AB40044005A532D46415220524947485400530A
:104AC400544154455F313445005A532D4C4F53548F
:104AD40020534C4F570053544154455F31344600E2
:104AE4005A532D4C4F53542053544F500053544158
:104AF40054455F313447005A464F554E4420524F77
:104B04005439304343570053544154455F313500C1
:104B14004D4F564520535420544F205A005354416E
:104B240054455F313641004D4F5645205249474860
:104B34005420544F205A0053544154455F31364257
:104B4400004D4F5645204C45465420544F205A00A2
:104B540053544154455F313643004C4F5354205411
:104B64004F205A20534C4F570053544154455F3102
:104B74003644004C4F534520544F205A2053544F31
:0C4B8400500053544154455F3136450049
:00000001FF
