:100000005AC1000089C1000087C1000085C10000FD
:1000100083C1000081C100007FC100007DC10000DC
:100020007BC1000079C1000077C1000075C10000EC
:1000300073C1000071C100006FC100006DC10000FC
:100040006BC1000069C1000067C1000065C100000C
:1000500063C1000061C100005FC10000BCC30000BB
:100060005BC1000059C1000057C1000055C100002C
:1000700053C1000051C100004FC100004DC100003C
:100080004BC1000049C1000047C1000045C100004C
:1000900043C1000041C100003FC10000C2C50000D3
:1000A0003BC1000039C1000037C1000035C100006C
:1000B00033C1000031C100002FC100002DC100007C
:1000C0002BC1000029C1000027C1000025C100008C
:1000D00023C1000021C100001FC100001DC100009C
:1000E0001BC1000007030C0311031B0325039E0320
:1000F0002F0337033F03490353035D036C03760368
:100100009E0380038A0394038D0990097F09830964
:100110008709C709940998099E09A209A609AC098B
:10012000B009B409C709BA09BE09C2090763423652
:10013000B79BD8A71A39685618AEBAAB558C1D3C78
:10014000B7CC5763BD6DEDFD753EF6177231BF003C
:100150000000803F08000000BE922449123EABAA76
:10016000AA2ABECDCCCC4C3E00000080BEABAAAAD1
:10017000AA3E00000000BF000000803F0000000019
:1001800000084178D3BB4387D1133D190E3CC3BD52
:100190004282AD2B3E68EC8276BED98FE1A93E4CFF
:1001A00080EFFFBE01C4FF7F3F00000000000000A1
:1001B0002100240027002A002D0030003300010117
:1001C0000000040107010A010000220025002800A8
:1001D0002B002E003100340002010000050108014F
:1001E0000B010505050507050808080802020202BB
:1001F0000A0A0808040404040101010101010101C3
:100200000303030303030303040707070C0C0C0C8D
:100210000C0C0C0C02020202060606060606060676
:100220000B0B0B0B0B0B0B0B010210202008081003
:100230002040102040800201020108040201010256
:10024000040810204080804020100804020180042F
:10025000020180402010080402010804020101028A
:100260000408102040800102040810204080000093
:100270000A0B02090C0D0E08070304010000000020
:10028000000000000000000000000000000000006E
:10029000000000000000000000001211100000002B
:1002A000000000000000000000000000000000004E
:1002B00000000000DD0E11241FBECFEFD1E2DEBF33
:1002C000CDBF00E00CBF13E0A0E0B2E0E8ECF5E247
:1002D00000E00BBF02C007900D92A834B107D9F718
:1002E00025E0A8E4B3E001C01D92AC35B207E1F708
:1002F00011E0CBE5D1E000E006C021970109802F95
:10030000FE010E94D612CA35D10780E00807A9F77E
:100310000E94FE0B0C94E21273CE3FB7F8948091CA
:10032000A6039091A703A091A803B091A90326B5B5
:10033000A89B05C02F3F19F00196A11DB11D3FBF1D
:10034000BA2FA92F982F8827820F911DA11DB11DAB
:10035000BC01CD0142E0660F771F881F991F4A95A7
:10036000D1F7089585ED8093BC008091BC0084FD99
:10037000FCCF1092F703089540917B03262F30E0C5
:10038000240F311D21323105DCF42091F703243094
:10039000C9F4FC0180E090E0861758F430917B03AB
:1003A0002191DC01A75ABC4FA30FB11D2C930196DC
:1003B000F3CF80917B03680F60937B0380E0089507
:1003C00081E0089582E008950895E091B00380915E
:1003D000AF03E81730F4F0E0EF54FC4F808190E079
:1003E00008958FEF9FEF08959091B0038091AF0330
:1003F000981750F4E92FF0E0EF54FC4F208130E0E3
:100400009F5F9093B00302C02FEF3FEFC9010895A3
:100410008091AF0390E02091B003821B9109089571
:10042000CF92DF92EF92FF920F931F93CF93DF93C0
:100430007C01262F972F8A018091F803882391F061
:10044000C62FD72F6E01C40ED51ECC15DD0569F061
:100450006991D701ED91FC910190F081E02DC701E8
:100460001995F3CF642F822F87DFC801DF91CF91D9
:100470001F910F91FF90EF90DF90CF900895CF9351
:10048000DF931F92CDB7DEB769832091F803222353
:10049000D1F020911B04203240F021E030E0FC013B
:1004A0003383228380E090E014C08091F903E82F29
:1004B000F0E0E650FC4F998190838F5F8093F903C1
:1004C00080931B0404C061E0CE01019655DF81E0FA
:1004D00090E00F90DF91CF910895089580E090E033
:1004E0000895FF920F931F93CF93DF931F92CDB781
:1004F000DEB78C01F62E60E0FC0182814983DED6F6
:10050000F801908181819CBD8DBD8F2D8F71806898
:100510008EBD000049810DB407FEFDCF8EB54EBDE6
:1005200000000DB407FEFDCF8EB561E0F8018281B9
:10053000C5D687E090E00197F1F70F90DF91CF915A
:100540001F910F91FF900895CF93DF9390E0FC01EE
:10055000E85DFD4F2491FC01EE51FE4F849188230C
:1005600061F190E0880F991FFC01E255FE4FC591A3
:10057000D491FC01E853FE4FA591B491611109C0DB
:100580009FB7F8948881209582238883EC912E234D
:100590000BC0623061F49FB7F8943881822F809548
:1005A00083238883EC912E2B2C939FBF06C08FB79B
:1005B000F894E8812E2B28838FBFDF91CF91089587
:1005C0001F93CF93DF93182FEB0161E0BDDF2097DE
:1005D00011F460E004C0CF3FD10531F461E0812F18
:1005E000DF91CF911F916AC6E12FF0E0E259FD4FF4
:1005F000E4914E2F50E0FA013197E231F10508F015
:100600009DC08827EE58FF4F8F4F0C94D61284B5AB
:10061000806884BDC7BD97C084B5806284BDC8BDF5
:1006200092C080918000806880938000D093890080
:10063000C093880088C08091800080628093800091
:10064000D0938B00C0938A007EC080918000886028
:1006500080938000D0938D00C0938C0074C08091F3
:10066000B00080688093B000C093B3006CC08091EC
:10067000B00080628093B000C093B40064C08091E9
:100680009000806880939000D0939900C093980068
:100690005AC080919000806280939000D0939B001C
:1006A000C0939A0050C08091900088608093900021
:1006B000D0939D00C0939C0046C08091A0008068AC
:1006C0008093A0008091A0008F7B8093A000D093A6
:1006D000A900C093A80037C08091A00080628093D9
:1006E000A000D093AB00C093AA002DC08091A000C1
:1006F00088608093A000D093AD00C093AC0023C06D
:1007000080912001806880932001D0932901C093BB
:10071000280119C080912001806280932001D0932C
:100720002B01C0932A010FC0809120018860809323
:100730002001D0932D01C0932C0105C0C038D105F4
:100740000CF04CCF46CFDF91CF911F9108958F923F
:100750009F92AF92BF92CF92DF92EF92FF926B0186
:100760007C01DBDD4B015C01C114D104E104F10427
:10077000E9F0D3DDDC01CB0188199909AA09BB098D
:10078000883E9340A105B10578F321E0C21AD10853
:10079000E108F10888EE880E83E0981EA11CB11CC8
:1007A000C114D104E104F10421F7DECFFF90EF90F2
:1007B000DF90CF90BF90AF909F908F9008952FB70C
:1007C000F8946091A2037091A3038091A403909187
:1007D000A5032FBF08951F920F920FB60F921124F9
:1007E0002F933F938F939F93AF93BF938091A203D7
:1007F0009091A303A091A403B091A5033091A1030C
:1008000023E0230F2D3720F40196A11DB11D05C053
:1008100026E8230F0296A11DB11D2093A10380930A
:10082000A2039093A303A093A403B093A503809184
:10083000A6039091A703A091A803B091A9030196E4
:10084000A11DB11D8093A6039093A703A093A803B5
:10085000B093A903BF91AF919F918F913F912F9139
:100860000F900FBE0F901F9018959CB5282F2370E6
:100870009C7F922B9CBD2DB582FB992790F9822FEE
:100880008E7F892B8DBD0895CF93DF93EC018A89EC
:10089000ECDF8C89811103C08CB5806202C08CB5FD
:1008A0008F7D8CBD8CB5837F9B89892B8CBD60E04F
:1008B000898904D58F858EBD00000DB407FEFDCF5C
:1008C0008EB561E08989DF91CF91F8C4CF92DF9234
:1008D000EF92FF92CF93DF93EC01888981110CC0D6
:1008E00060E08E81EBD461E08E81E8D460E08E819F
:1008F000E5D48BE891E033C0C12CD12C7601C394B0
:10090000D701C6010E8004C0880F991FAA1FBB1F04
:100910000A94D2F780959F8589238F87CE01B4DF13
:10092000D701C6010E8004C0880F991FAA1FBB1FE4
:100930000A94D2F72F85822B8F87CE01A5DF0E80F8
:1009400004C0CC0CDD1CEE1CFF1C0A94D2F7C09432
:100950008F85C822CF86CE0197DF8BE990E0019783
:10096000F1F7DF91CF91FF90EF90DF90CF90089556
:100970008F929F92AF92BF92CF92DF92EF92FF92AF
:100980000F931F93CF93DF93EC018889062F10E01C
:1009900081111FC05E0187E0A80EB11CE12CF12C73
:1009A000650161E0F50181915F01CEDDB8010E2C9A
:1009B00002C0759567950A94E2F76170F60180812F
:1009C0007DD4FFEFEF1AFF0A84E0E816F10441F747
:1009D00032C084E090E0812C912C540183949C01DE
:1009E00024503109A80102C0559547952A95E2F790
:1009F0002F8540FF0DC075016401082E04C0CC0C8A
:100A0000DD1CEE1CFF1C0A94D2F7C22ACF860DC053
:100A1000B501A401082E04C0440F551F661F771F9F
:100A20000A94D2F7409542234F870196883091056A
:100A3000B1F6CE0129DFCE01DF91CF911F910F9149
:100A4000FF90EF90DF90CF90BF90AF909F908F90EE
:100A50003DCFAF92BF92CF92DF92EF92FF920F9372
:100A60001F93CF93DF93EC01F62E642F8C8126D455
:100A70008D818F3F11F060E021D48D890F2D10E022
:100A800084FF2AC05E0187E0A80EB11CE12CF12C86
:100A9000650161E0F50181915F0156DDB8010E2C21
:100AA00002C0759567950A94E2F76170F60180813E
:100AB00005D4FFEFEF1AFF0A88E0E816F10441F7CA
:100AC000CE01DF91CF911F910F91FF90EF90DF90BA
:100AD000CF90BF90AF90FACEB80184E0759567953E
:100AE0008A95E1F7CE0144DF6F2DCE01DF91CF91E2
:100AF0001F910F91FF90EF90DF90CF90BF90AF903C
:100B000037CF1F93CF93DF93FC012089211105C0BC
:100B100040E0DF91CF911F919CCF162FEC0181E037
:100B200090E0A0E0B0E0048004C0880F991FAA1FE5
:100B3000BB1F0A94D2F78095978589238787CF01B9
:100B4000A3DE612F70E084E0759567958A95E1F7E3
:100B5000CE010EDF612FCE01DF91CF911F9108CF23
:100B60001F93CF93DF93EC01162F8889811104C066
:100B700041E0CE016EDF1DC081E090E0A0E0B0E07A
:100B80000C8004C0880F991FAA1FBB1F0A94D2F7BC
:100B90002F85822B8F87CE0177DE612F70E084E076
:100BA000759567958A95E1F7CE01E2DE612FCE015A
:100BB000DFDE81E090E0DF91CF911F910895CF9328
:100BC000CFB7F8948091A003811123C0E7E1F2E050
:100BD0008491EDE5F2E09491E82FF0E0EE0FFF1F35
:100BE000E255FE4FA591B491EC91E92319F461E02F
:100BF00085E364D361E085E3A7DC8CB580618CBDBF
:100C00008CB580648CBD61E084E39EDC61E083E3AD
:100C10009BDC8091A0038F5F8093A003CFBFCF9117
:100C200008951F920F920FB60F9211240BB60F92D8
:100C30002F933F934F935F936F937F938F939F93E4
:100C4000AF93BF93EF93FF938091B900887F803675
:100C500009F49CC068F5883209F45BC090F48031D7
:100C600009F454C038F4882309F4F6C0883009F434
:100C70004DC0F5C0883109F44CC0803209F45DC024
:100C8000EEC0803409F468C048F4803309F455C0DC
:100C9000883309F0E4C08093F503D8C0803509F4A7
:100CA0004FC0883509F45DC0883409F0D8C0D6C07B
:100CB000883909F4C7C0A8F4883709F467C038F444
:100CC000883609F463C0803709F460C0C8C088382A
:100CD00009F4B8C0803909F45FC0803809F0BFC09A
:100CE0005BC0803B09F486C038F4803A09F466C0E2
:100CF000883A09F47FC0B3C0803C09F4A7C0883C9F
:100D000009F4A4C0883B09F48AC0A9C08091D20329
:100D100010C09091F4038091F303981770F5E0915F
:100D2000F40381E08E0F8093F403F0E0ED52FC4F6A
:100D300080818093BB0085EC86C08093F5038EC0D4
:100D4000E091F40381E08E0F8093F4038091BB0067
:100D5000F0E0ED52FC4F80839091F4038091F30317
:100D60006EC0E091F40381E08E0F8093F4038091D4
:100D7000BB00F0E0ED52FC4F80838091F6038111BF
:100D80006DC081E08093D10384EA61C083E08093E9
:100D9000F70310929F03CFCF80919F03803208F01A
:100DA00051C0E0919F0381E08E0F80939F0380915B
:100DB000BB00F0E0E158FC4F8083BDCF85EC809311
:100DC000BC001092F70380919F03803230F4E091D1
:100DD0009F03F0E0E158FC4F108260919F0370E0A8
:100DE000E0917D03F0917E038FE793E019951092D7
:100DF0009F0335C084E08093F70310927C03109228
:100E00007B03E0917903F0917A03199580917B033C
:100E1000811105C081E080937B0310925903E0911A
:100E20007C0381E08E0F80937C03F0E0E75AFC4F57
:100E300080818093BB0090917C0380917B03981705
:100E400008F479CF85E88093BC0009C085EC8093D5
:100E5000BC001092F70303C01092F50383DAFF91F0
:100E6000EF91BF91AF919F918F917F916F915F9122
:100E70004F913F912F910F900BBE0F900FBE0F908F
:100E80001F9018951092F70381E08093F60310925B
:100E9000D10361E084E112D261E085E10FD2E9EB98
:100EA000F0E080818E7F808380818D7F808388E4E5
:100EB0008093B80085E48093BC000895CF93DF93BE
:100EC000EC01BC0183E07CDBBE0186E0DF91CF91C9
:100ED00077CBFC01418161E0059603CBCF93DF9393
:100EE000EC016031F9F070F4623001F128F4613006
:100EF00039F520E093E026C06430B1F0683001F5A8
:100F000022E01FC0683CC9F038F4603499F06038C2
:100F1000B9F420E091E016C0693C51F06A3C81F4DC
:100F200026E00FC021E00DC023E00BC024E009C083
:100F300025E007C020E092E005C020E094E002C078
:100F400020E090E080E2289F9001112489818F7138
:100F5000282B29838C81887F982B9C83CE01B9DF35
:100F60004C8169E0CE010596DF91CF91BACACF934B
:100F7000DF93EB01833019F0863081F01DC0809142
:100F800002029091030268177907B1F080E394E0C0
:100F9000A5DFD0930302C09302020EC0809100022D
:100FA000909101026817790739F088E294E096DFA2
:100FB000D0930102C0930002DF91CF9108958AEF90
:100FC00090E07CDF64E070E083E0D1DF60E082E00D
:100FD00075D161E070E080E090E0B9DB68E070E03E
:100FE00086E0C5DF61E085E069D161E070E080E026
:100FF00090E0ADCB8AEF90E061DF68E070E083E0E5
:10100000B6DF60E082E05AD161E070E080E090E01D
:101010009EDB64E070E086E0AADF61E085E04ED10F
:1010200061E070E080E090E092CB0F931F93CF934C
:10103000DF93EC018C010B5F1F4F4B8163E0C80114
:1010400050DA488160E0C8014CDACE0142DF4A81C3
:1010500062E0C80146DA4C8169E0C801DF91CF91B6
:101060001F910F913ECA0F931F93CF93DF93CDB77C
:10107000DEB728970FB6F894DEBF0FBECDBF60E194
:1010800070E089E090E015D29091AF038091B003B9
:101090009817A9F00091580310E08CE194E0A4D9CE
:1010A000F801E85BFC4F8083809158038F3020F477
:1010B0008F5F80935803E8CF10925803E5CF91E0FB
:1010C000809148038B3A08F090E081E020914A0338
:1010D0002B3A08F080E071E020914C032B3A08F0A5
:1010E00070E061E020914E032B3A08F060E051E09F
:1010F000209150032B3A08F050E041E02091520338
:101100002B3A08F040E031E0209154032B3A08F0EC
:1011100030E021E0E0915603EB3A08F020E0289619
:101120000FB6F894DEBF0FBECDBFDF91CF911F91F8
:101130000F9108950F931F93CF93DF938C01EB01D1
:1011400061E08DE395E0DDDCEBE3FFE13197F1F762
:1011500080E028D3C80115D381E024D3CE01DF91EC
:10116000CF911F910F910DC382309105A1F03CF4F6
:10117000009771F00197B9F428E034E014C084308E
:10118000910579F05CF0059771F42CE034E00BC028
:1011900027E034E008C029E034E005C02AE034E06C
:1011A00002C02BE034E0C9010895CF93DF93CDB79F
:1011B000DEB728970FB6F894DEBF0FBECDBF53DF62
:1011C000211111C0311112C0711113C0611111C070
:1011D00051110FC041110DC081110EC091110FC0EE
:1011E00085E090E00EC080E090E00BC081E090E0F0
:1011F00008C082E090E005C083E090E002C084E097
:1012000090E028960FB6F894DEBF0FBECDBFDF91F9
:10121000CF9108958130910571F02CF4892B81F4E0
:1012200025EF33E00DC08230910541F0039741F482
:101230002CEF33E005C023EF33E002C024EF33E0AE
:10124000C9010895CF93DF93CDB7DEB728970FB6C6
:10125000F894DEBF0FBECDBF06DF29833A838F83AC
:101260009887772331F0662321F0552311F041113F
:1012700012C08885811112C08F8181110FC0711138
:101280000DC041110EC08A8181110BC0998181E08E
:10129000892790E008C083E090E005C082E090E0FC
:1012A00002C080E090E028960FB6F894DEBF0FBE33
:1012B000CDBFDF91CF9108950E94DE12362F90E0CE
:1012C000FC01E259FD4F4491FC01E85DFD4F249182
:1012D000FC01EE51FE4F9491992309F46BC0442315
:1012E00009F455C050E0FA013197E231F10508F0F8
:1012F0004EC08827EC57FF4F8F4F0C94D612809129
:1013000080008F7707C0809180008F7D03C080911F
:101310008000877F809380003AC084B58F7702C0B9
:1013200084B58F7D84BD33C08091B0008F7703C0BA
:101330008091B0008F7D8093B00029C08091900093
:101340008F7707C0809190008F7D03C080919000BF
:10135000877F809390001BC08091A0008F7707C08B
:101360008091A0008F7D03C08091A000877F809333
:10137000A0000DC0809120018F7707C080912001CF
:101380008F7D03C080912001877F80932001E92F0A
:10139000F0E0EE0FFF1FE853FE4FA591B4918FB719
:1013A000F894EC91311103C020952E2301C02E2B0F
:1013B0002C938FBF0895382F20911B0490911A040D
:1013C000213208F049C08091F7038111FCCF42E03F
:1013D0004093F7033093F6033FEF3093F5031092F9
:1013E000F4032093F303AAEFB3E043ED53E0FA01D3
:1013F0003E2F341B321718F43D913193F9CF1092E0
:10140000D2032091D203990F922B9093D203909103
:10141000D103913061F41092D1039091D203909353
:10142000BB009091BC0093FDF8CF95EC01C095EE08
:101430009093BC009091F7039230E1F39091F50303
:101440009F3F79F08091F503803241F08091F50360
:10145000803331F084E005C081E003C082E001C048
:1014600083E01092F90310921B041092F803089580
:10147000CF93DF931F92CDB7DEB791E09093F8033F
:1014800099E290931A041092F90310921B04682FAA
:1014900060688CE194E049830E943F024981642F97
:1014A0008CE194E00E943F0281E00F90DF91CF91A8
:1014B00082CF9091F7039111FCCF613208F060E286
:1014C00091E09093F7039093F6032FEF2093F503A9
:1014D0001092F403260F2093F3039093D20390917C
:1014E000D203880F892B8093D2038091D10381305E
:1014F00061F41092D1038091D2038093BB0080915C
:10150000BC0083FDF8CF85EC01C085EE8093BC0064
:101510008091F7038130E1F38091F403861710F492
:101520006091F403A3EDB3E021EB33E0F9018E2FDA
:10153000821B861718F48D918193F9CF1092B00316
:101540006093AF03862F0895CF92DF92EF92FF92C0
:101550000F931F93CF93DF936C017A018B01C0E04F
:10156000D0E0CE15DF0589F0D8016D918D01D6014F
:10157000ED91FC910190F081E02DC6011995892B28
:1015800011F47E0102C02196ECCFC701DF91CF910B
:101590001F910F91FF90EF90DF90CF9008950F93E0
:1015A0001F93CF93DF931092B0031092AF0310926A
:1015B000F90310921B0466DC81E08093F80389E252
:1015C00080931A041092F90310921B0462E98CE1D3
:1015D00094E00E943F0281E0EEDE61E070E089E28B
:1015E00090E067DF8CE194E00E94F401843419F00C
:1015F000803109F056C081E080933805C0913B05E9
:10160000D0913C05AE0160E070E032DFD0933C0544
:10161000C0933B05C0913905D0913A0580913805BA
:10162000811101C0BCDFAE0160E070E08FE020DF1F
:10163000D0933A05C093390541E050E060E070E096
:1016400080E016DF63E070E080E090E080D843E067
:1016500050E060E070E080E00BDF08E314E0C0E001
:10166000D0E0BE010D2E000C880B990BE6D420E0D3
:1016700030E04FE753E44BD420E030E040E250E468
:10168000CBD520E030E04FE753E463D5A8D4F80190
:1016900061938F012196C115F1E0DF0711F781E019
:1016A00001C080E0DF91CF911F910F910895FC015F
:1016B0009181907E92619183CF010BCC0F931F9308
:1016C000CF93DF93EC01623018F08D8988608D8BA9
:1016D000698F1A8E8BE39DE00197F1F760E08C81B2
:1016E000EDDD60E08E81EADD8D818F3F11F060E0FD
:1016F000E5DD6D8964FD19C063E0CE0139D90BE4E5
:1017000016E4C8010197F1F763E0CE0131D9C801B1
:101710000197F1F763E0CE012BD983E592E00197C1
:10172000F1F762E0CE0124D913C06062CE01E9D99D
:101730008BE496E40197F1F76D896062CE01E1D9FF
:1017400083E592E00197F1F76D896062CE01D9D906
:101750006D896062CE01D5D984E08E8B6CE0CE01BC
:10176000D0D961E0CE01CDD98BE39FE10197F1F7AC
:1017700082E08F8B66E0CE01DF91CF911F910F91B8
:10178000C0C9009761F0FC0101900020E9F7319792
:10179000AF01481B590BBC018DE395E0D5CE80E02D
:1017A00090E00895CF93DF93CDB7DEB728970FB6BB
:1017B000F894DEBF0FBECDBF98E0E4E2F2E0DE01B8
:1017C000119601900D929A95E1F790915605981710
:1017D00010F48FEF890FFE013196E80FF11DE80F2D
:1017E000F11D608160688DE395E028960FB6F8944E
:1017F000DEBF0FBECDBFDF91CF9183C9CF93DF9303
:10180000CDB7DEB728970FB6F894DEBF0FBECDBFB9
:10181000789484B5826084BD84B5816084BD85B5CB
:10182000826085BD85B5816085BD80916E008160D7
:1018300080936E001092810080918100826080937D
:10184000810080918100816080938100809180007F
:101850008160809380008091B10084608093B100AA
:101860008091B00081608093B0008091910082608F
:10187000809391008091910081608093910080918C
:1018800090008160809390008091A100826080939D
:10189000A1008091A10081608093A1008091A000AF
:1018A00081608093A000809121018260809321015A
:1018B00080912101816080932101809120018160CC
:1018C0008093200180917A00846080937A008091D7
:1018D0007A00826080937A0080917A0081608093A0
:1018E0007A0080917A00806880937A001092C1001B
:1018F00062E08DE395E0E2DE1092B0031092AF0358
:101900001092F90310921B04BDDA59D984E0809338
:10191000370461E0D3DC61E0809137040E94A402C7
:1019200087E080932F0461E0C9DC61E080912F049F
:101930000E94A40260E083E0C1DC61E083E00E94D9
:10194000A40260E082E0BADC61E082E00E94A402CE
:1019500060E086E0B3DC61E086E00E94A40260E023
:1019600085E0ACDC61E085E00E94A40261E070E00B
:1019700080E090E00E94A703109234041092330498
:1019800010923204109231041092300480E394E0FB
:101990004CDB10922C0410922B0410922A0410920B
:1019A00029041092280488E294E03FDB80E394E06D
:1019B0007EDE88E294E07BDE68E080E394E08EDA0D
:1019C00068E088E294E08ADA80913304806880934A
:1019D000330480E394E029DB80912B0480688093BA
:1019E0002B0488E294E021DBDADD60E083E20E94F0
:1019F000A40260E084E20E94A40261E085E20E9409
:101A0000A40260E085E25ADC61E086E10E94A40263
:101A100061E087E10E94A40261E088E10E94A402E3
:101A200060E086E14BDC60E087E148DC60E088E173
:101A300045DC00E010E08DE0E82E84E0F82E99E02F
:101A4000C92E94E0D92E23EFA22E23E0B22E80914E
:101A5000040290910502873024E0920709F4E1C066
:101A60000CF045C0843F23E0920709F495C064F56B
:101A7000883E23E0920709F468C0833F934009F051
:101A80007DC165E472E086E592E054DB8AEF90E088
:101A900015DA68E070E083E06ADA60E082E00EDC8C
:101AA00061E070E080E090E00E94A70368E070E0F1
:101AB00086E05DDA61E085E001DC61E070E080E015
:101AC00090E00E94A7036FC0853F23E0920709F4CE
:101AD00071C08C3F934009F051C163E972E081EA23
:101AE00092E028DB0E94DF032B013C016AC08A30B0
:101AF00024E0920709F4DFC0A4F4883024E09207C0
:101B000009F4A7C08930944009F038C163ED72E050
:101B100082EE92E00FDB8AEF90E0D0D968E070E0CF
:101B2000B1C08C3024E0920709F4CCC00CF4A0C002
:101B30008D30944009F022C16FE273E08EE393E0B0
:101B4000F9DA80E090E0BAD919C16CE272E08DE375
:101B500092E0F0DA8AEF90E0B1D964E070E083E0DF
:101B600006DA60E082E0AADB61E070E080E090E00D
:101B70000E94A70364E070E086E0F9D961E085E0A7
:101B80009DDB60ED77E080E090E00E94A703B092DB
:101B90000502A0920402F2C06FE572E080E792E0D5
:101BA000C9DA28DA60DA4EDB35DB909305028093E0
:101BB0000402E4C069E772E08AE892E0BBDAFFD988
:101BC000F1CF0E94DF03DC01CB0184199509A6093E
:101BD000B709803D9740A105B105F0F48AEF90E088
:101BE0006DD968E070E083E0C2D960E082E066DB36
:101BF00061E070E080E090E00E94A70368E070E0A0
:101C000086E0B5D960E085E059DB61E070E080E016
:101C100090E00E94A703D5CFD0920502C0920402A3
:101C2000ADC069EA72E087EB92E084DA8AEF90E077
:101C300045D964E070E083E09AD960E082E03EDB61
:101C400061E070E080E090E00E94A70360E170E056
:101C500026C060EC72E08AEC92E06CDAB0D9A5DACA
:101C600083DA90930502809304021092AE0386C03B
:101C70006FEF72E08EE093E05DDA8AEF90E01ED9BC
:101C800060E170E083E073D960E082E017DB61E03F
:101C900070E080E090E00E94A70364E070E086E0DE
:101CA00066D961E085E00ADB61E070E080E090E009
:101CB0000E94A703D4CF6BEE72E086EF92E03ADA8F
:101CC00099D9CDCF67E173E086E293E033DA809172
:101CD000AE0381110AC00E94DF036093AA037093D0
:101CE000AB038093AC039093AD030E94DF0340905D
:101CF000AA035090AB036090AC037090AD03DC017D
:101D0000CB0184199509A609B709853F9140A10522
:101D1000B10508F440C00E94DF03DC01CB01841947
:101D20009509A609B709843C9940A105B10598F524
:101D30008AEF90E0C3D864E070E083E018D960E0F7
:101D400082E0BCDA61E070E080E090E00E94A703EE
:101D500064E070E086E00BD961E085E0AFDA61E035
:101D600070E080E090E00E94A7031FDAFDD9909315
:101D700005028093040281E08093AE036FE070E07F
:101D800080E090E00E94A7030115110509F45FCEE1
:101D90000E9400005CCE0E94DF03DC01CB018419AD
:101DA0009509A609B709853C9940A105B10518F325
:101DB000F0920502E0920402DECFCF93DF931092FF
:101DC0001F0410921E0488EE93E0A0E0B0E0809320
:101DD000200490932104A0932204B09323048AE06A
:101DE00092E090931D0480931C0482E58093350457
:101DF000C1E0C09336041092340410923304109260
:101E00003204109231041092300480932D04C09358
:101E10002E0410922C0410922B0410922A0410927B
:101E2000290410922804109238058BEE90E09093CC
:101E30003C0580933B0510923A05109239051092AB
:101E4000400510923F058CE192E090933E0580930F
:101E50003D05C0934D0589E080934E0561E00E94E9
:101E6000A4020E94DF05D4E0D0934F0584E00E94D5
:101E70003504109250058CB5837F8CBDC0935105FD
:101E80008CB58F7D8CBDC09341058FEF809342054B
:101E900083E080934305109244051092450510920B
:101EA000460510924705D093480585E08093490583
:101EB00086E080934A0587E080934B0561E081E0EE
:101EC0000E94A402809142058F3F19F061E00E94B8
:101ED000A40261E0809143050E94A4021092520581
:101EE00061E08DE395E0EADB80914D05811102C050
:101EF00010924D050E94DF036093580570935905B9
:101F000080935A0590935B05DF91CF9108950CD093
:101F1000E6C0DED040F0D5D030F021F45F3F19F0BC
:101F2000C7C0511110C1CAC0EBD098F39923C9F3AF
:101F30005523B1F3951B550BBB27AA2762177307CF
:101F4000840738F09F5F5F4F220F331F441FAA1F83
:101F5000A9F333D00E2E3AF0E0E830D09150504043
:101F6000E695001CCAF729D0FE2F27D0660F771FF1
:101F7000881FBB1F261737074807AB07B0E809F0D3
:101F8000BB0B802DBF01FF2793585F4F2AF09E3F68
:101F9000510568F08DC0D7C05F3FECF3983EDCF38D
:101FA000869577956795B795F7959F5FC9F7880FE1
:101FB000911D9695879597F90895E1E0660F771F33
:101FC000881FBB1F621773078407BA0720F0621BC4
:101FD000730B840BBA0BEE1F88F7E095089598D029
:101FE00088F09F5790F0B92F9927B751A0F0D1F002
:101FF000660F771F881F991F1AF0BA95C9F712C08C
:10200000B13081F09FD0B1E008959CC0672F782F48
:102010008827B85F39F0B93FCCF3869577956795F7
:10202000B395D9F73EF490958095709561957F4F63
:102030008F4F9F4F0895E89409C097FB3EF4909509
:102040008095709561957F4F8F4F9F4F9923A9F091
:10205000F92F96E9BB279395F69587957795679520
:10206000B795F111F8CFFAF4BB0F11F460FF1BC064
:102070006F5F7F4F8F4F9F4F16C0882311F096E9F7
:1020800011C0772321F09EE8872F762F05C06623A5
:1020900071F096E8862F70E060E02AF09A95660F5E
:1020A000771F881FDAF7880F9695879597F9089517
:1020B00097F99F6780E870E060E008959FEF80ECFB
:1020C000089500240A94161617061806090608959E
:1020D00000240A9412161306140605060895092E04
:1020E0000394000C11F4882352F0BB0F40F4BF2B73
:1020F00011F460FF04C06F5F7F4F8F4F9F4F0895B3
:1021000057FD9058440F551F59F05F3F71F04795A8
:10211000880F97FB991F61F09F3F79F0879508958D
:10212000121613061406551FF2CF4695F1DF08C0AC
:10213000161617061806991FF1CF869571056105C9
:1021400008940895E894BB2766277727CB0197F971
:1021500008950BD0C4CFB5DF28F0BADF18F095236F
:1021600009F0A6CFABCF1124EECFCADFA0F3959F25
:10217000D1F3950F50E0551F629FF001729FBB276E
:10218000F00DB11D639FAA27F00DB11DAA1F649F1A
:102190006627B00DA11D661F829F2227B00DA11DCD
:1021A000621F739FB00DA11D621F839FA00D611D53
:1021B000221F749F3327A00D611D231F849F600D74
:1021C000211D822F762F6A2F11249F5750408AF0AD
:1021D000E1F088234AF0EE0FFF1FBB1F661F771F39
:1021E000881F91505040A9F79E3F510570F060CF75
:1021F000AACF5F3FECF3983EDCF386957795679521
:10220000B795F795E7959F5FC1F7FE2B880F911D56
:102210009695879597F90895FA01EE0FFF1F30966E
:102220002105310599F16115710561F48038BFE32D
:102230009B0749F168949038810561F08038BFEFC1
:102240009B0741F0992342F5FF3FE1053105210548
:1022500011F1E8940894E795D901AA2329F4AB2F4A
:10226000BE2FF85FD0F310C0FF5F70F4A695E0F7C3
:10227000F73950F019F0FF3A38F49F779F930CD05C
:102280000F9007FC905808953EF018CF60E070E082
:1022900080E89FE308954FE79F775F934F933F93C5
:1022A0002F939ED02F913F914F915F9152DF05C0A8
:1022B00019F40EF0FDCE46CF01CF2ADFC8F39638D1
:1022C000C0F707F80F92E8942BE33AEA48EB5FE790
:1022D0004EDF0F920F920F924DB75EB70F92C0D0A4
:1022E000ECE2F1E016D04F915F91EF91FF91E5950F
:1022F000EE1FFF1F49F0FE57E0684427EE0F441F12
:10230000FA95E1F74195550B32D00F9007FE26C0A4
:102310000895DF93CF931F930F93FF92EF92DF9275
:102320007B018C01689405C0DA2EEF011EDFFE01EF
:10233000E894A5912591359145915591AEF3EF0122
:10234000D4D0FE019701A801DA9479F7DF90EF90DD
:10235000FF900F911F91CF91DF9108959B01AC01E8
:1023600060E070E080E89FE3D2CDA2CE11C1D0DE64
:10237000E8F39923D9F3940F511DBBF391505040CA
:1023800094F059F0882332F0660F771F881F915020
:102390005040C1F79E3F510544F7880F911D969517
:1023A000879597F908955F3FACF0983E9CF0BB2766
:1023B000869577956795B79508F4B1609395C1F7C1
:1023C000BB0F58F711F460FFE8CF6F5F7F4F8F4F5F
:1023D0009F4FE3CFB8CE0EF0DBC070CE689468CECE
:1023E00097DEC8F39923D1F3C6F3DF93CF931F93FE
:1023F0000F93FF92C92FDD2788232AF02197660FBC
:10240000771F881FDAF720E030E040E85FEB9FE3BA
:10241000883920F0803E30F021968F7755D0E4E562
:10242000F1E003C051D0E1E8F1E073DF8B01BE01C0
:10243000EC01FB2E6F5771097595771F880B990B6F
:10244000FCDD28E132E741E35FE38FDEAF2D980149
:10245000AE01FF900F911F91CF91DF9146D03FCEFB
:10246000FA01DC01AA0FBB1F9B01AC01BF5728F486
:1024700022273327442750781FC0B75188F4AB2F49
:102480000024469537952795011CA395D2F300208B
:1024900069F0220F331F441FB395DAF30DD013C038
:1024A00061307105A0E88A07B94630F49B01AC01A0
:1024B0006627772788279078309621F0208331830C
:1024C0004283538308955058BB27AA270ED007CEC6
:1024D000F8DD30F0FDDD20F031F49F3F11F41EF403
:1024E000EDCD0EF4E095E7FBE3CDE92F09DE80F3B7
:1024F000BA17620773078407950718F071F49EF501
:1025000021CE0EF4E0950B2EBA2FA02D0B01B901B0
:1025100090010C01CA01A0011124FF27591B99F059
:10252000593F50F4503E68F11A16F040A22F232F65
:10253000342F4427585FF3CF469537952795A795B5
:10254000F0405395C9F77EF41F16BA0B620B730B5C
:10255000840BBAF09150A1F0FF0FBB1F661F771FCD
:10256000881FC2F70EC0BA0F621F731F841F48F482
:10257000879577956795B795F7959E3F08F0B3CF08
:102580009395880F08F09927EE0F979587950895F2
:102590009F3F31F0915020F4879577956795B795D7
:1025A000880F911D9695879597F90895EE0FFF1F57
:1025B000881F8BBF0790F691E02D199481E090E081
:0825C000F89400C0F894FFCF6D
:1025C80008000800E803000000003F0210026E0245
:1025D800E4010802F401E50100000000B005A40AC6
:1025E8006E026D0200004000140054004D4F564525
:1025F800544F2053544152544C494E450053544172
:1026080054455F300053544152544C494E45204D77
:102618004F564553540053544154455F314100537C
:10262800544152544C494E45204D4F564552540042
:1026380053544154455F31420053544152544C491C
:102648004E45204D4F56454C540053544154455F18
:10265800314300524F5441544520393020434357A9
:102668000053544154455F32004D4F564520464172
:1026780052204C4546540053544154455F33410061
:102688004D4F5645204C4546540053544154455FE0
:102698003342004D4F5645204E4F524D414C20433A
:1026A800570053544154455F3343004D4F5645201E
:1026B80052494748540053544154455F3344004DF0
:1026C8004F564520464152205249474854005354DA
:1026D8004154455F3345004C4F535420534C4F579A
:1026E800204D4F56450053544154455F3346004CE6
:1026F8004F53542053544F50204D4F564500535478
:082708004154455F3347000016
:00000001FF
