:1000000055C1000084C1000082C1000080C1000011
:100010007EC100007CC100007AC1000078C10000F0
:1000200076C1000074C1000072C1000070C1000000
:100030006EC100006CC100006AC1000068C1000010
:1000400066C1000064C1000062C1000060C1000020
:100050005EC100005CC100005AC100009DC40000E8
:1000600056C10000C0C3000095C3000050C100008D
:100070004EC100004CC100004AC1000048C1000050
:1000800046C1000044C1000042C1000040C1000060
:100090003EC100003CC100003AC10000A3C6000000
:1000A00036C1000034C1000032C1000030C1000080
:1000B0002EC100002CC100002AC1000028C1000090
:1000C00026C1000024C1000022C1000020C10000A0
:1000D0001EC100001CC100001AC1000018C10000B0
:1000E00016C10000A902AC029B029F02A502E30216
:1000F000B002B402BA02BE02C202C802CC02D002EE
:10010000E302D602DA02DE0207634236B79BD8A7C3
:100110001A39685618AEBAAB558C1D3CB7CC57632C
:10012000BD6DEDFD753EF6177231BF000000803FDA
:1001300008000000BE922449123EABAAAA2ABECDF6
:10014000CCCC4C3E00000080BEABAAAAAA3E000068
:100150000000BF000000803F000000000008417860
:10016000D3BB4387D1133D190E3CC3BD4282AD2B97
:100170003E68EC8276BED98FE1A93E4C80EFFFBE8F
:1001800001C4FF7F3F0000000000000021002400A8
:1001900027002A002D003000330001010000040177
:1001A00007010A0100002200250028002B002E0074
:1001B0003100340002010000050108010B010000BC
:1001C00020002300260029002C002F00320000010F
:1001D00000000301060109010505050507050808DA
:1001E0000808020202020A0A0808040404040101C1
:1001F00001010101010103030303030303030407D6
:1002000007070C0C0C0C0C0C0C0C0202020206066C
:100210000606060606060B0B0B0B0B0B0B0B01025F
:100220001020200808102040102040800201020108
:1002300008040201010204081020408080402010C0
:100240000804020180040201804020100804020119
:100250000804020101020408102040800102040881
:100260001020408000000A0B02090C0D0E08070345
:100270000401000000000000000000000000000079
:10028000000000000000000000000000000000006E
:10029000121110000000000000000000000000002B
:1002A00000000000000000000000500C11241FBEE0
:1002B000CFEFD1E2DEBFCDBF00E00CBF12E0A0E087
:1002C000B2E0ECECF1E200E00BBF02C007900D924F
:1002D000A433B107D9F724E0A4E3B2E001C01D9232
:1002E000AF3CB207E1F711E0C6E5D1E000E006C09F
:1002F00021970109802FFE010E94D810C535D10732
:1003000080E00807A9F70E94CB0A0C94E41078CE8D
:10031000FC01538D448D252F30E0842F90E0821B0B
:10032000930B541710F0CF96089501970895FC0190
:10033000918D828D981761F0828DDF01A80FB11D1C
:100340005D968C91928D9F5F9F73928F90E0089540
:100350008FEF9FEF0895FC01918D828D981731F0FA
:10036000828DE80FF11D858D90E008958FEF9FEF4E
:100370000895FC01918D228D892F90E0805C9F4F24
:10038000821B91098F73992708958DEE92E0F1DF1A
:1003900021E0892B09F420E0822F0895FC01848D4F
:1003A000DF01A80FB11DA35ABF4F2C91848D90E09F
:1003B00001968F739927848FA689B7892C93A0897A
:1003C000B1898C9180648C93938D848D981306C031
:1003D0000288F389E02D80818F7D80830895EF92DC
:1003E000FF920F931F93CF93DF93EC0181E0888FEF
:1003F0009B8D8C8D981305C0E889F989808185FDD6
:1004000023C0F62E0B8D10E00F5F1F4F0F731127C7
:10041000E02E8C8DE8120BC00FB607FCFACFE889EE
:10042000F989808185FFF5CFCE01B8DFF2CF8B8DC2
:10043000FE01E80FF11DE35AFF4FF0820B8FEA89AE
:10044000FB898081806207C0EE89FF896083E8892B
:10045000F98980818064808381E090E0DF91CF9191
:100460001F910F91FF90EF900895CF93DF93EC01D0
:10047000888D8823C1F0EA89FB89808185FD05C0CC
:10048000A889B9898C9186FD0EC00FB607FCF5CFFF
:10049000808185FFF2CFA889B9898C9185FFEDCF46
:1004A000CE017CDFE8CFDF91CF91089580E090E02E
:1004B000892B19F06ADF811125C080E090E0892B3B
:1004C00041F080E090E0892B21F00E940000811132
:1004D0001CC080E090E0892B41F080E090E0892B07
:1004E00021F00E940000811113C080E090E0892B70
:1004F000A1F080E090E0892B81F00E940000811142
:100500000AC008950E940000D8CF0E940000E1CFE9
:100510000E940000EACF0C940000089590E0FC01D6
:100520003197E231F10508F04EC08827EE58FF4FB1
:100530008F4F0C94D810809180008F7703C08091EA
:1005400080008F7D80938000089580918000877F58
:10055000F9CF84B58F7702C084B58F7D84BD0895AF
:100560008091B0008F7703C08091B0008F7D809321
:10057000B0000895809190008F7707C0809190001F
:100580008F7D03C080919000877F809390000895B5
:100590008091A0008F7707C08091A0008F7D03C05D
:1005A0008091A000877F8093A00008958091200112
:1005B0008F7707C0809120018F7D03C0809120013B
:1005C000877F8093200108953FB7F89480917D0242
:1005D00090917E02A0917F02B091800226B5A89BE7
:1005E00005C02F3F19F00196A11DB11D3FBFBA2FC5
:1005F000A92F982F8827820F911DA11DB11DBC0125
:10060000CD0142E0660F771F881F991F4A95D1F7E9
:10061000089585ED8093BC008091BC0084FDFCCFE3
:100620001092C902089540915602262F30E0240FFF
:10063000311D21323105DCF42091C9022430C9F486
:10064000FC0180E090E0861758F430915602219129
:10065000DC01AC5CBD4FA30FB11D2C930196F3CF11
:1006600080915602680F6093560280E0089581E001
:10067000089582E008950895E091A2028091A10278
:10068000E81730F4F0E0EF57FD4F808190E00895D7
:100690008FEF9FEF08959091A2028091A102981789
:1006A00050F4E92FF0E0EF57FD4F208130E09F5FDD
:1006B0009093A20202C02FEF3FEFC90108958091ED
:1006C000A10290E02091A202821B91090895CF928D
:1006D000DF92EF92FF920F931F93CF93DF937C01F2
:1006E000262F972F8A018091CA02882391F0C62F66
:1006F000D72F6E01C40ED51ECC15DD0569F06991AA
:10070000D701ED91FC910190F081E02DC701199581
:10071000F3CF642F822F87DFC801DF91CF911F9124
:100720000F91FF90EF90DF90CF900895CF93DF93DC
:100730001F92CDB7DEB769832091CA022223D1F080
:100740002091EC02203240F021E030E0FC013383C4
:10075000228380E090E014C08091CB02E82FF0E08B
:10076000E453FD4F998190838F5F8093CB028093F8
:10077000EC0204C061E0CE01019655DF81E090E01B
:100780000F90DF91CF910895089580E090E0089553
:100790000E94E0101F920F920FB60F9211240BB619
:1007A0000F922F933F934F935F936F937F938F930A
:1007B0009F93AF93BF93EF93FF938DEE92E0EEDDA7
:1007C000FF91EF91BF91AF919F918F917F916F9129
:1007D0005F914F913F912F910F900BBE0F900FBEE5
:1007E0000F901F9018951F920F920FB60F92112421
:1007F0000BB60F922F938F939F93EF93FF93E091FC
:10080000FD02F091FE028081E0910303F091040368
:1008100082FD12C09081809106038F5F8F732091BB
:100820000703821751F0E0910603F0E0E351FD4F1A
:10083000958F8093060301C08081FF91EF919F9176
:100840008F912F910F900BBE0F900FBE0F901F90A6
:1008500018951F93CF93DF93282F30E0F901EC59BF
:10086000FD4F8491F901E25EFD4FD491F901E85208
:10087000FE4FC491CC23C1F0162F81114FDEEC2F17
:10088000F0E0EE0FFF1FEC55FE4FA591B4918FB72E
:10089000F894111105C09C91ED2FE095E92302C059
:1008A000EC91ED2BEC938FBFDF91CF911F910895C9
:1008B000CF93DF9390E0FC01E25EFD4F2491FC01B9
:1008C000E852FE4F8491882361F190E0880F991FD0
:1008D000FC01E657FE4FC591D491FC01EC55FE4F4B
:1008E000A591B491611109C09FB7F89488812095B2
:1008F00082238883EC912E230BC0623061F49FB772
:10090000F8943881822F809583238883EC912E2B55
:100910002C939FBF06C08FB7F894E8812E2B2883B5
:100920008FBFDF91CF9108958F929F92AF92BF9228
:10093000CF92DF92EF92FF926B017C0145DE4B017B
:100940005C01C114D104E104F104E9F03DDEDC01F5
:10095000CB0188199909AA09BB09883E9340A105D2
:10096000B10578F321E0C21AD108E108F10888EE58
:10097000880E83E0981EA11CB11CC114D104E104AF
:10098000F10421F7DECFFF90EF90DF90CF90BF9082
:10099000AF909F908F9008951F920F920FB60F9275
:1009A00011242F933F938F939F93AF93BF93809185
:1009B000C6049091C704A091C804B091C9043091B5
:1009C0007C0223E0230F2D3720F40196A11DB11DD9
:1009D00005C026E8230F0296A11DB11D20937C02BD
:1009E0008093C6049093C704A093C804B093C9042D
:1009F00080917D0290917E02A0917F02B091800251
:100A00000196A11DB11D80937D0290937E02A0935B
:100A10007F02B0938002BF91AF919F918F913F91E0
:100A20002F910F900FBE0F901F9018959CB5282FF7
:100A300023709C7F922B9CBD2DB582FB992790F94A
:100A4000822F8E7F892B8DBD0895CF93DF93EC018C
:100A50008A89ECDF8C89811103C08CB5806202C069
:100A60008CB58F7D8CBD8CB5837F9B89892B8CBD8C
:100A700060E08989EEDE8F858EBD00000DB407FE33
:100A8000FDCF8EB561E08989DF91CF91E2CECF9223
:100A9000DF92EF92FF92CF93DF93EC01888981116F
:100AA0000CC060E08E81D5DE61E08E81D2DE60E038
:100AB0008E81CFDE8BE891E033C0C12CD12C760142
:100AC000C394D701C6010E8004C0880F991FAA1FC6
:100AD000BB1F0A94D2F780959F8589238F87CE010B
:100AE000B4DFD701C6010E8004C0880F991FAA1F6A
:100AF000BB1F0A94D2F72F85822B8F87CE01A5DFEB
:100B00000E8004C0CC0CDD1CEE1CFF1C0A94D2F736
:100B1000C0948F85C822CF86CE0197DF8BE990E005
:100B20000197F1F7DF91CF91FF90EF90DF90CF9099
:100B300008958F929F92AF92BF92CF92DF92EF92E1
:100B4000FF920F931F93CF93DF93EC018889062FB9
:100B500010E081111FC05E0187E0A80EB11CE12CDE
:100B6000F12C650161E0F50181915F01A1DEB80121
:100B70000E2C02C0759567950A94E2F76170F60134
:100B8000808167DEFFEFEF1AFF0A84E0E816F104C8
:100B900041F732C084E090E0812C912C5401839481
:100BA0009C0124503109A80102C0559547952A950A
:100BB000E2F72F8540FF0DC075016401082E04C0C7
:100BC000CC0CDD1CEE1CFF1C0A94D2F7C22ACF8687
:100BD0000DC0B501A401082E04C0440F551F661FA7
:100BE000771F0A94D2F7409542234F8701968830A9
:100BF0009105B1F6CE0129DFCE01DF91CF911F9192
:100C00000F91FF90EF90DF90CF90BF90AF909F90AB
:100C10008F903DCFAF92BF92CF92DF92EF92FF9233
:100C20000F931F93CF93DF93EC01F62E642F8C81EB
:100C300010DE8D818F3F11F060E00BDE8D890F2D6E
:100C400010E084FF2AC05E0187E0A80EB11CE12CF1
:100C5000F12C650161E0F50181915F0129DEB801A8
:100C60000E2C02C0759567950A94E2F76170F60143
:100C70008081EFDDFFEFEF1AFF0A88E0E816F1044C
:100C800041F7CE01DF91CF911F910F91FF90EF902F
:100C9000DF90CF90BF90AF90FACEB80184E0759509
:100CA00067958A95E1F7CE0144DF6F2DCE01DF9184
:100CB000CF911F910F91FF90EF90DF90CF90BF9059
:100CC000AF9037CF1F93CF93DF93FC012089211181
:100CD00005C040E0DF91CF911F919CCF162FEC0112
:100CE00081E090E0A0E0B0E0048004C0880F991F8C
:100CF000AA1FBB1F0A94D2F78095978589238787FF
:100D0000CF01A3DE612F70E084E0759567958A9529
:100D1000E1F7CE010EDF612FCE01DF91CF911F9160
:100D200008CF1F93CF93DF93EC01162F8889811191
:100D300004C041E0CE016EDF1DC081E090E0A0E084
:100D4000B0E00C8004C0880F991FAA1FBB1F0A9433
:100D5000D2F72F85822B8F87CE0177DE612F70E04F
:100D600084E0759567958A95E1F7CE01E2DE612F03
:100D7000CE01DFDE81E090E0DF91CF911F910895F9
:100D8000CF93CFB7F89480917B02811123C0EDE01F
:100D9000F2E08491E3E5F2E09491E82FF0E0EE0FC9
:100DA000FF1FE657FE4FA591B491EC91E92319F48A
:100DB00061E085E34EDD61E085E37ADD8CB580613D
:100DC0008CBD8CB580648CBD61E084E371DD61E035
:100DD00083E36EDD80917B028F5F80937B02CFBFC8
:100DE000CF9108951F920F920FB60F9211240BB658
:100DF0000F922F933F934F935F936F937F938F93B4
:100E00009F93AF93BF93EF93FF938091B900887F37
:100E1000803609F49CC068F5883209F45BC090F410
:100E2000803109F454C038F4882309F4F6C08830BE
:100E300009F44DC0F5C0883109F44CC0803209F482
:100E40005DC0EEC0803409F468C048F4803309F412
:100E500055C0883309F0E4C08093C702D8C08035FC
:100E600009F44FC0883509F45DC0883409F0D8C052
:100E7000D6C0883909F4C7C0A8F4883709F467C018
:100E800038F4883609F463C0803709F460C0C8C0FC
:100E9000883809F4B8C0803909F45FC0803809F097
:100EA000BFC05BC0803B09F486C038F4803A09F4C7
:100EB00066C0883A09F47FC0B3C0803C09F4A7C07B
:100EC000883C09F4A4C0883B09F48AC0A9C0809179
:100ED000A40210C09091C6028091C502981770F5C7
:100EE000E091C60281E08E0F8093C602F0E0EB55E0
:100EF000FD4F80818093BB0085EC86C08093C70244
:100F00008EC0E091C60281E08E0F8093C602809170
:100F1000BB00F0E0EB55FD4F80839091C6028091BD
:100F2000C5026EC0E091C60281E08E0F8093C602BA
:100F30008091BB00F0E0EB55FD4F80838091C802AB
:100F400081116DC081E08093A30284EA61C083E0D7
:100F50008093C90210927A02CFCF80917A028032B8
:100F600008F051C0E0917A0281E08E0F80937A02FE
:100F70008091BB00F0E0E65AFD4F8083BDCF85EC49
:100F80008093BC001092C90280917A02803230F4C2
:100F9000E0917A02F0E0E65AFD4F108260917A0209
:100FA00070E0E0915802F09159028AE592E01995BB
:100FB00010927A0235C084E08093C90210925702E1
:100FC00010925602E0915402F091550219958091C9
:100FD0005602811105C081E08093560210923402BE
:100FE000E091570281E08E0F80935702F0E0EC5CB5
:100FF000FD4F80818093BB009091570280915602F3
:10100000981708F479CF85E88093BC0009C085EC77
:101010008093BC001092C90203C01092C702F9DA93
:10102000FF91EF91BF91AF919F918F917F916F91C0
:101030005F914F913F912F910F900BBE0F900FBE7C
:101040000F901F9018951092C90281E08093C802FA
:101050001092A30261E084E1FCDB61E085E1F9DB51
:10106000E9EBF0E080818E7F808380818D7F8083BB
:1010700088E48093B80085E48093BC000895FF92D3
:101080000F931F93CF93DF931F92CDB7DEB78C01E1
:10109000F62E60E0FC0182814983DBDBF801908160
:1010A00081819CBD8DBD8F2D8F7180688EBD0000AC
:1010B00049810DB407FEFDCF8EB54EBD00000DB4C5
:1010C00007FEFDCF8EB561E0F8018281C2DB87E0CB
:1010D00090E00197F1F70F90DF91CF911F910F9161
:1010E000FF900895FC01418161E00596C8CF0F9300
:1010F0001F93CF93DF93EC018C010B5F1F4F4B814C
:1011000063E0C801BCDF488160E0C801B8DFCE0100
:10111000E9DF4A8162E0C801B2DF4C8169E0C801C1
:10112000DF91CF911F910F91AACF382F2091EC0220
:101130009091CA04213208F049C08091C9028111FE
:10114000FCCF42E04093C9023093C8023FEF309396
:10115000C7021092C6022093C502ACECB2E045EA89
:1011600052E0FA013E2F341B321718F43D913193AF
:10117000F9CF1092A4022091A402990F922B909380
:10118000A4029091A302913061F41092A302909175
:10119000A4029093BB009091BC0093FDF8CF95EC16
:1011A00001C095EE9093BC009091C9029230E1F39A
:1011B0009091C7029F3F79F08091C702803241F041
:1011C0008091C702803331F084E005C081E003C024
:1011D00082E001C083E01092CB021092EC021092E8
:1011E000CA020895CF92DF92EF92FF920F931F935E
:1011F000CF93DF936C017A018B01C0E0D0E0CE1574
:10120000DF0589F0D8016D918D01D601ED91FC913A
:101210000190F081E02DC6011995892B11F47E0112
:1012200002C02196ECCFC701DF91CF911F910F91A2
:10123000FF90EF90DF90CF900895CF93DF931F92B0
:10124000CDB7DEB791E09093CA0299E29093CA04B9
:101250001092CB021092EC02682F60688AE893E04B
:10126000498364DA4981642F8AE893E05FDA81E098
:101270000F90DF91CF9159CF0F931F93CF93DF93AF
:101280001092A2021092A1021092CB021092EC02D4
:10129000DADE81E08093CA0289E28093CA0462E9BF
:1012A0008AE893E043DA81E040DF8091C90281114E
:1012B000FCCF81E08093C9028093C8029FEF909396
:1012C000C7021092C6021092C5028093A4028091B8
:1012D000A40282658093A4028091A302813061F40C
:1012E0001092A3028091A4028093BB008091BC0065
:1012F00083FDF8CF85EC01C085EE8093BC00809122
:10130000C9028130E1F38091C602811103C080914E
:10131000C60201C081E0A5EAB2E021E832E0F901AD
:101320009E2F921B981718F49D919193F9CF1092CC
:10133000A2028093A1028AE893E0ADD9843419F027
:10134000803109F056C081E08093A604C091A904C1
:10135000D091AA04AE0160E070E06FDFD093AA04E0
:10136000C093A904C091A704D091A8048091A604B9
:10137000811101C081DFAE0160E070E08FE05DDFD0
:10138000D093A804C093A70441E050E060E070E06F
:1013900080E053DF63E070E080E090E0C5DA43E096
:1013A00050E060E070E080E048DF06EA13E0C0E073
:1013B000D0E0BE010D2E000C880B990B81D420E0EB
:1013C00030E04FE753E4E6D320E030E040E250E481
:1013D0008AD520E030E04FE753E422D543D4F8012A
:1013E00061938F012196C115F1E0DF0711F781E0CC
:1013F00001C080E0DF91CF911F910F910895CF93AD
:10140000DF93EC0189818F71806489838C81887F6F
:101410008C83CE0167DE4C8169E0CE010596DF91B9
:10142000CF912DCEFC019181907E92619183CF016D
:1014300059CE0F931F93CF93DF93EC01623018F0D6
:101440008D8988608D8B698F1A8E8BE39DE0019763
:10145000F1F760E08C81FDD960E08E81FAD98D8151
:101460008F3F11F060E0F5D96D8964FD19C063E02C
:10147000CE015FDB0BE416E4C8010197F1F763E0EE
:10148000CE0157DBC8010197F1F763E0CE0151DBD4
:1014900083E592E00197F1F762E0CE014ADB13C0E9
:1014A0006062CE010FDC8BE496E40197F1F76D8961
:1014B0006062CE0107DC83E592E00197F1F76D8968
:1014C0006062CE01FFDB6D896062CE01FBDB84E0F0
:1014D0008E8B6CE0CE01F6DB61E0CE01F3DB8BE3BB
:1014E0009FE10197F1F782E08F8B66E0CE01DF91FB
:1014F000CF911F910F91E6CB8F929F92AF92BF92A7
:101500000F931F93CF93DF93CDB7DEB7A1970FB69D
:10151000F894DEBF0FBECDBF19A2423008F44AE0F6
:101520008E010F5D1F4F842E912CA12CB12CA50193
:101530009401A5D2E62FB901CA0101501109EA3080
:1015400014F4E05D01C0E95CD801EC93232B242B5B
:10155000252B69F70115110569F0F80101900020AC
:10156000E9F73197AF01401B510BB8018DEE92E0C6
:1015700039DE02C080E090E0A1960FB6F894DEBF9D
:101580000FBECDBFDF91CF911F910F91BF90AF9054
:101590009F908F900895789484B5826084BD84B5BF
:1015A000816084BD85B5826085BD85B5816085BD5E
:1015B00080916E00816080936E0010928100809116
:1015C000810082608093810080918100816080939E
:1015D0008100809180008160809380008091B100C3
:1015E00084608093B1008091B00081608093B000EE
:1015F0008091910082608093910080919100816040
:101600008093910080919000816080939000809100
:10161000A10082608093A1008091A10081608093ED
:10162000A1008091A00081608093A00080912101A1
:10163000826080932101809121018160809321014A
:101640008091200181608093200180917A008460E4
:1016500080937A0080917A00826080937A008091F2
:101660007A00816080937A0080917A00806880930C
:101670007A001092C10062E08BEA94E0DADE109208
:10168000A2021092A1021092CB021092EC02DBDCBB
:1016900077DB84E08093A50361E0DBD861E0809193
:1016A000A50306D987E080939D0361E0D2D861E06D
:1016B00080919D03FDD860E083E0CBD861E083E0BA
:1016C000F7D860E082E0C5D861E082E0F1D860E060
:1016D00086E0BFD861E086E0EBD860E085E0B9D86D
:1016E00061E085E0E5D861E070E080E090E01CD941
:1016F0001092A2031092A1031092A00310929F03D4
:1017000010929E038EE993E0F2DC10929A031092FD
:10171000990310929803109297031092960386E90A
:1017200093E0E5DC8EE993E07DDE86E993E07ADE06
:101730008EE993E064DE86E993E061DE8091A103A7
:1017400080688093A1038EE993E0D1DC80919903B6
:1017500080688093990386E993E0C9DC8DDD60E0C1
:1017600083E2A6D860E084E2A3D861E085E2A0D855
:1017700060E085E26ED8E091FD02F091FE0282E029
:101780008083E091F902F091FA021082E091FB026D
:10179000F091FC028FEC808310920503E09101032D
:1017A000F091020386E08083E091FF02F091000354
:1017B000808180618083E091FF02F091000380814D
:1017C00088608083E091FF02F0910003808180684F
:1017D0008083E091FF02F091000380818F7D808300
:1017E00007E812E031E4E32E32E0F32E4BEFC42E93
:1017F00041E0D42E2FB7F8946091C6047091C704CD
:101800008091C8049091C9042FBF58D24B015C014C
:10181000C0E0D0E02FB7F8946091C6047091C7047F
:101820008091C8049091C9042FBF48D2A5019401AA
:1018300048D120E030E048EC51E4A8D187FF18C03F
:10184000F8018491F7016490F6017490772031F1EA
:1018500081110E948E02872D90E0880F991F82547B
:101860009E4FFC01A591B4918C916822B9F0D2CF22
:1018700061E070E080E090E0C93ED3401CF460E09D
:1018800070E0CB014AE038DE42E050E060E372E015
:101890008DEE92E0A7DC0E945602ACCF2196BACF23
:1018A000CF93DF931092F0021092EF0288EE93E054
:1018B000A0E0B0E08093F1029093F202A093F302D3
:1018C000B093F40224E032E03093EE022093ED0274
:1018D00025EC30E03093FA022093F90224EC30E05A
:1018E0003093FC022093FB0220EC30E03093FE02A8
:1018F0002093FD0221EC30E0309300032093FF029F
:1019000022EC30E0309302032093010326EC30E018
:1019100030930403209303031092060310920703ED
:10192000109208031092090310928D0310928C03F9
:1019300080938E0390938F03A0939003B0939103B1
:1019400086E192E090938B0380938A0382E58093F3
:10195000A303C1E0C093A4031092A2031092A103B9
:101960001092A00310929F0310929E0380939B03FA
:10197000C0939C0310929A031092990310929803BB
:1019800010929703109296031092A6048BEE90E0AB
:101990009093AA048093A9041092A8041092A7041B
:1019A0001092AE041092AD0488E292E09093AC04E1
:1019B0008093AB04C093BB0489E08093BC0461E0D6
:1019C0000E945804DDD9D4E0D093BD0484E02ED821
:1019D0001092BE048CB5837F8CBDC093BF048CB5C0
:1019E0008F7D8CBDC093AF048FEF8093B00483E0F4
:1019F0008093B1041092B2041092B3041092B40414
:101A00001092B504D093B60485E08093B70486E0C5
:101A10008093B80487E08093B90461E081E00E947C
:101A200058048091B0048F3F19F061E00E9458047F
:101A300061E08091B1040E9458041092C00461E0FA
:101A40008BEA94E0F6DC8091BB04811102C0109215
:101A5000BB042FB7F8948091C6049091C704A0915D
:101A6000C804B091C9042FBF8093CB049093CC04D9
:101A7000A093CD04B093CE04DF91CF910895A1E25D
:101A80001A2EAA1BBB1BFD010DC0AA1FBB1FEE1FF8
:101A9000FF1FA217B307E407F50720F0A21BB30B43
:101AA000E40BF50B661F771F881F991F1A9469F7BF
:101AB00060957095809590959B01AC01BD01CF011B
:101AC00008955058BB27AA270ED070C161D130F0BD
:101AD00066D120F031F49F3F11F41EF456C10EF48C
:101AE000E095E7FB4CC1E92F72D180F3BA1762078A
:101AF00073078407950718F071F49EF58AC10EF4F8
:101B0000E0950B2EBA2FA02D0B01B90190010C010D
:101B1000CA01A0011124FF27591B99F0593F50F425
:101B2000503E68F11A16F040A22F232F342F44277D
:101B3000585FF3CF469537952795A795F040539575
:101B4000C9F77EF41F16BA0B620B730B840BBAF045
:101B50009150A1F0FF0FBB1F661F771F881FC2F7B0
:101B60000EC0BA0F621F731F841F48F487957795C4
:101B70006795B795F7959E3F08F0B3CF9395880F7B
:101B800008F09927EE0F979587950895D4D008F41B
:101B900081E008950CD00AC102D140F0F9D030F0B4
:101BA00021F45F3F19F0EBC0511134C1EEC00FD1E9
:101BB00098F39923C9F35523B1F3951B550BBB2714
:101BC000AA2762177307840738F09F5F5F4F220FC1
:101BD000331F441FAA1FA9F333D00E2E3AF0E0E8BA
:101BE00030D091505040E695001CCAF729D0FE2F06
:101BF00027D0660F771F881FBB1F26173707480798
:101C0000AB07B0E809F0BB0B802DBF01FF2793584D
:101C10005F4F2AF09E3F510568F0B1C0FBC05F3FA7
:101C2000ECF3983EDCF3869577956795B795F79535
:101C30009F5FC9F7880F911D9695879597F908952D
:101C4000E1E0660F771F881FBB1F621773078407C9
:101C5000BA0720F0621B730B840BBA0BEE1F88F7D8
:101C6000E0950895BCD088F09F5790F0B92F992740
:101C7000B751A0F0D1F0660F771F881F991F1AF097
:101C8000BA95C9F712C0B13081F0C3D0B1E0089560
:101C9000C0C0672F782F8827B85F39F0B93FCCF3E1
:101CA000869577956795B395D9F73EF4909580958D
:101CB000709561957F4F8F4F9F4F0895E89409C0AD
:101CC00097FB3EF490958095709561957F4F8F4F6F
:101CD0009F4F9923A9F0F92F96E9BB279395F69585
:101CE000879577956795B795F111F8CFFAF4BB0F03
:101CF00011F460FF1BC06F5F7F4F8F4F9F4F16C067
:101D0000882311F096E911C0772321F09EE8872FF0
:101D1000762F05C0662371F096E8862F70E060E0AC
:101D20002AF09A95660F771F881FDAF7880F969525
:101D3000879597F90895990F0008550FAA0BE0E8C9
:101D4000FEEF16161706E807F907C0F0121613067D
:101D5000E407F50798F0621B730B840B950B39F4BD
:101D60000A2661F0232B242B252B21F408950A2623
:101D700009F4A140A6958FEF811D811D089597F963
:101D80009F6780E870E060E008959FEF80EC089521
:101D900000240A941616170618060906089500244A
:101DA0000A9412161306140605060895092E0394C4
:101DB000000C11F4882352F0BB0F40F4BF2B11F438
:101DC00060FF04C06F5F7F4F8F4F9F4F089557FD97
:101DD0009058440F551F59F05F3F71F04795880F99
:101DE00097FB991F61F09F3F79F087950895121630
:101DF00013061406551FF2CF4695F1DF08C01616DC
:101E000017061806991FF1CF86957105610508948C
:101E10000895E894BB2766277727CB0197F90895A3
:101E20000BD0C4CFB5DF28F0BADF18F0952309F046
:101E3000A6CFABCF1124EECFCADFA0F3959FD1F38D
:101E4000950F50E0551F629FF001729FBB27F00D68
:101E5000B11D639FAA27F00DB11DAA1F649F6627BD
:101E6000B00DA11D661F829F2227B00DA11D621F0C
:101E7000739FB00DA11D621F839FA00D611D221FC6
:101E8000749F3327A00D611D231F849F600D211DAA
:101E9000822F762F6A2F11249F5750408AF0E1F04D
:101EA00088234AF0EE0FFF1FBB1F661F771F881F96
:101EB00091505040A9F79E3F510570F060CFAACFD6
:101EC0005F3FECF3983EDCF3869577956795B79581
:101ED000F795E7959F5FC1F7FE2B880F911D9695AB
:101EE000879597F90895FA01EE0FFF1F30962105A7
:101EF000310599F16115710561F48038BFE39B07E5
:101F000049F168949038810561F08038BFEF9B07F4
:101F100041F0992342F5FF3FE1053105210511F11B
:101F2000E8940894E795D901AA2329F4AB2FBE2F92
:101F3000F85FD0F310C0FF5F70F4A695E0F7F739B3
:101F400050F019F0FF3A38F49F779F930CD00F9020
:101F500007FC905808953EF018CF60E070E080E8EC
:101F60009FE308954FE79F775F934F933F932F939E
:101F70009ED02F913F914F915F9152DF05C019F490
:101F80000EF0FDCE46CF01CF2ADFC8F39638C0F75A
:101F900007F80F92E8942BE33AEA48EB5FE74EDF4D
:101FA0000F920F920F924DB75EB70F92C0D0E8E03C
:101FB000F1E016D04F915F91EF91FF91E595EE1F03
:101FC000FF1F49F0FE57E0684427EE0F441FFA95C3
:101FD000E1F74195550B32D00F9007FE26C00895CA
:101FE000DF93CF931F930F93FF92EF92DF927B01CA
:101FF0008C01689405C0DA2EEF011EDFFE01E89423
:10200000A5912591359145915591AEF3EF016BDD89
:10201000FE019701A801DA9479F7DF90EF90FF9025
:102020000F911F91CF91DF9108959B01AC0160E06A
:1020300070E080E89FE3AECDA2CEACC0D0DEE8F386
:102040009923D9F3940F511DBBF39150504094F054
:1020500059F0882332F0660F771F881F9150504047
:10206000C1F79E3F510544F7880F911D96958795BE
:1020700097F908955F3FACF0983E9CF0BB2786959A
:1020800077956795B79508F4B1609395C1F7BB0F45
:1020900058F711F460FFE8CF6F5F7F4F8F4F9F4F6E
:1020A000E3CFB8CE0EF076C070CE689468CE97DEDF
:1020B000C8F39923D1F3C6F3DF93CF931F930F9304
:1020C000FF92C92FDD2788232AF02197660F771FFB
:1020D000881FDAF720E030E040E85FEB9FE38839C3
:1020E00020F0803E30F021968F77ECDCE0E3F1E0E9
:1020F00003C0E8DCEDE5F1E073DF8B01BE01EC012C
:10210000FB2E6F5771097595771F880B990BD8DDDA
:1021100028E132E741E35FE38FDEAF2D9801AE01A6
:10212000FF900F911F91CF91DF91DDDC3FCEFA013F
:10213000DC01AA0FBB1F9B01AC01BF5728F422276B
:102140003327442750781FC0B75188F4AB2F0024A1
:10215000469537952795011CA395D2F3002069F089
:10216000220F331F441FB395DAF30DD0AACC613090
:102170007105A0E88A07B94630F49B01AC016627D7
:10218000772788279078309621F020833183428307
:10219000538308959F3F31F0915020F487957795B0
:1021A0006795B795880F911D9695879597F908952E
:1021B000EE0FFF1F881F8BBF0790F691E02D19943B
:0C21C00081E090E0F89400C0F894FFCF9C
:1021CC0000000000EF01F20888013502B901970107
:1021DC00AB010000000096036703C5033B035F03DC
:1021EC004B033C03000000009106F208C503C40336
:0421FC000D0A0000C8
:00000001FF
