:1000000055C100000AC50000DDC40000B0C40000F6
:1000100083C4000056C4000029C40000FCC30000D3
:10002000CFC3000074C1000072C1000070C10000A5
:100030006EC100006CC100006AC1000068C1000010
:1000400066C1000064C1000062C1000060C1000020
:100050005EC100005CC100005AC1000067C300001F
:1000600056C1000054C1000052C1000050C1000040
:100070004EC100004CC100004AC1000048C1000050
:1000800046C1000044C1000042C1000040C1000060
:100090003EC100003CC100003AC10000C5C60000DE
:1000A00036C1000034C1000032C1000030C1000080
:1000B0002EC100002CC100002AC1000028C1000090
:1000C00026C1000024C1000022C1000020C10000A0
:1000D0001EC100001CC100001AC1000018C10000B0
:1000E00016C10000D101D401C301C701CD010B022B
:1000F000D801DC01E201E601EA01F001F401F801B6
:100100000B02FE010202060207634236B79BD8A724
:100110001A39685618AEBAAB558C1D3CB7CC57632C
:10012000BD6DEDFD753EF6177231BF000000803FDA
:1001300008000000BE922449123EABAAAA2ABECDF6
:10014000CCCC4C3E00000080BEABAAAAAA3E000068
:100150000000BF000000803F000000000008417860
:10016000D3BB4387D1133D190E3CC3BD4282AD2B97
:100170003E68EC8276BED98FE1A93E4C80EFFFBE8F
:1001800001C4FF7F3F0000000000000021002400A8
:1001900027002A002D003000330001010000040177
:1001A00007010A0100002200250028002B002E0074
:1001B0003100340002010000050108010B010000BC
:1001C00020002300260029002C002F00320000010F
:1001D00000000301060109010505050507050808DA
:1001E0000808020202020A0A0808040404040101C1
:1001F00001010101010103030303030303030407D6
:1002000007070C0C0C0C0C0C0C0C0202020206066C
:100210000606060606060B0B0B0B0B0B0B0B01025F
:100220001020200808102040102040800201020108
:1002300008040201010204081020408080402010C0
:100240000804020180040201804020100804020119
:100250000804020101020408102040800102040881
:100260001020408000000A0B02090C0D0E08070345
:100270000401000000000000000000000000000079
:10028000000000000000000000000000000000006E
:10029000121110000000000000000000000000002B
:1002A00000000000000000000000FB0C11241FBE35
:1002B000CFEFD1E2DEBFCDBF00E00CBF12E0A0E087
:1002C000B2E0E2E9F2E200E00BBF02C007900D925B
:1002D000AA33B107D9F724E0AAE3B2E001C01D9226
:1002E000A939B207E1F711E0C6E5D1E000E006C0A8
:1002F00021970109802FFE010E943B11C535D107CE
:1003000080E00807A9F70E94C40A0C94471178CE30
:10031000CF92DF92EF92FF920F931F93CF93DF93D1
:100320006C017A018B01C0E0D0E0CE15DF0589F0C9
:10033000D8016D918D01D601ED91FC910190F08174
:10034000E02DC6011995892B11F47E0102C021967A
:10035000ECCFC701DF91CF911F910F91FF90EF90EC
:10036000DF90CF90089510923A02089590E0FC013A
:100370003197E231F10508F04EC08827EE58FF4F63
:100380008F4F0C943B11809180008F7703C0809138
:1003900080008F7D80938000089580918000877F0A
:1003A000F9CF84B58F7702C084B58F7D84BD089561
:1003B0008091B0008F7703C08091B0008F7D8093D3
:1003C000B0000895809190008F7707C080919000D1
:1003D0008F7D03C080919000877F80939000089567
:1003E0008091A0008F7707C08091A0008F7D03C00F
:1003F0008091A000877F8093A000089580912001C4
:100400008F7707C0809120018F7D03C080912001EC
:10041000877F8093200108953FB7F89480918802E8
:1004200090918902A0918A02B0918B0226B5A89B77
:1004300005C02F3F19F00196A11DB11D3FBFBA2F76
:10044000A92F982F8827820F911DA11DB11DBC01D6
:10045000CD0142E0660F771F881F991F4A95D1F79B
:100460000895089585ED8093BC008091BC0084FDC3
:10047000FCCF10923803089540915D02262F30E0A2
:10048000240F311D21323105DCF420913803243052
:10049000C9F4FC0180E090E0861758F430915D02C9
:1004A0002191DC01A55CBD4FA30FB11D2C930196DA
:1004B000F3CF80915D02680F60935D0280E0089544
:1004C00081E0089582E008950895E09111038091FC
:1004D0001003E81730F4F0E0E051FD4F808190E028
:1004E00008958FEF9FEF089590911103809110036D
:1004F000981750F4E92FF0E0E051FD4F208130E0F3
:100500009F5F9093110302C02FEF3FEFC901089541
:100510008091100390E020911103821B91090895AE
:10052000CF92DF92EF92FF920F931F93CF93DF93BF
:100530007C01262F972F8A0180913903882391F01F
:10054000C62FD72F6E01C40ED51ECC15DD0569F060
:100550006991D701ED91FC910190F081E02DC701E7
:100560001995F3CF642F822F87DFC801DF91CF91D8
:100570001F910F91FF90EF90DF90CF900895CF9350
:10058000DF931F92CDB7DEB7698320913903222311
:10059000D1F020915B03203240F021E030E0FC01FB
:1005A0003383228380E090E014C080913A03E82FE7
:1005B000F0E0E55CFC4F998190838F5F80933A0374
:1005C00080935B0304C061E0CE01019655DF81E0BA
:1005D00090E00F90DF91CF910895089580E090E032
:1005E00008950E9443111F93CF93DF93282F30E08B
:1005F000F901EC59FD4F8491F901E25EFD4FD49170
:10060000F901E852FE4FC491CC23C1F0162F81119D
:10061000ADDEEC2FF0E0EE0FFF1FEC55FE4FA59185
:10062000B4918FB7F894111105C09C91ED2FE0950E
:10063000E92302C0EC91ED2BEC938FBFDF91CF91BA
:100640001F910895CF93DF9390E0FC01E25EFD4F90
:100650002491FC01E852FE4F8491882361F190E0DF
:10066000880F991FFC01E657FE4FC591D491FC01FC
:10067000EC55FE4FA591B491611109C09FB7F89454
:100680008881209582238883EC912E230BC06230D1
:1006900061F49FB7F8943881822F809583238883F3
:1006A000EC912E2B2C939FBF06C08FB7F894E88156
:1006B0002E2B28838FBFDF91CF9108958F929F9229
:1006C000AF92BF92CF92DF92EF92FF926B017C01CB
:1006D000A3DE4B015C01C114D104E104F104E9F093
:1006E0009BDEDC01CB0188199909AA09BB09883E68
:1006F0009340A105B10578F321E0C21AD108E108C1
:10070000F10888EE880E83E0981EA11CB11CC1146C
:10071000D104E104F10421F7DECFFF90EF90DF90E8
:10072000CF90BF90AF909F908F9008951F920F929F
:100730000FB60F9211242F933F938F939F93AF93F4
:10074000BF938091840290918502A0918602B0911E
:1007500087023091830223E0230F2D3720F4019686
:10076000A11DB11D05C026E8230F0296A11DB11DD4
:10077000209383028093840290938502A093860243
:10078000B09387028091880290918902A0918A0299
:10079000B0918B020196A11DB11D809388029093A8
:1007A0008902A0938A02B0938B02BF91AF919F916F
:1007B0008F913F912F910F900FBE0F901F90189522
:1007C0001F920F920FB60F9211240BB60F922F9318
:1007D0003F934F935F936F937F938F939F93AF93C9
:1007E000BF93EF93FF93E0910E02F0910F021995E2
:1007F000FF91EF91BF91AF919F918F917F916F91F9
:100800005F914F913F912F910F900BBE0F900FBEB4
:100810000F901F9018951F920F920FB60F921124F0
:100820000BB60F922F933F934F935F936F937F93EA
:100830008F939F93AF93BF93EF93FF93E0910C023D
:10084000F0910D021995FF91EF91BF91AF919F919A
:100850008F917F916F915F914F913F912F910F9069
:100860000BBE0F900FBE0F901F9018951F920F9206
:100870000FB60F9211240BB60F922F933F934F9305
:100880005F936F937F938F939F93AF93BF93EF93F8
:10089000FF93E0910202F09103021995FF91EF910D
:1008A000BF91AF919F918F917F916F915F914F9188
:1008B0003F912F910F900BBE0F900FBE0F901F9086
:1008C00018951F920F920FB60F9211240BB60F922C
:1008D0002F933F934F935F936F937F938F939F9348
:1008E000AF93BF93EF93FF93E0910002F091010269
:1008F0001995FF91EF91BF91AF919F918F917F914A
:100900006F915F914F913F912F910F900BBE0F9080
:100910000FBE0F901F9018951F920F920FB60F9257
:1009200011240BB60F922F933F934F935F936F93C6
:100930007F938F939F93AF93BF93EF93FF93E09138
:100940000A02F0910B021995FF91EF91BF91AF91BF
:100950009F918F917F916F915F914F913F912F91D7
:100960000F900BBE0F900FBE0F901F9018951F9207
:100970000F920FB60F9211240BB60F922F933F9345
:100980004F935F936F937F938F939F93AF93BF9397
:10099000EF93FF93E0910802F09109021995FF91FE
:1009A000EF91BF91AF919F918F917F916F915F91E7
:1009B0004F913F912F910F900BBE0F900FBE0F9054
:1009C0001F9018951F920F920FB60F9211240BB61D
:1009D0000F922F933F934F935F936F937F938F93D8
:1009E0009F93AF93BF93EF93FF93E0910602F09133
:1009F00007021995FF91EF91BF91AF919F918F9150
:100A00007F916F915F914F913F912F910F900BBE0E
:100A10000F900FBE0F901F9018951F920F920FB658
:100A20000F9211240BB60F922F933F934F935F9326
:100A30006F937F938F939F93AF93BF93EF93FF93A6
:100A4000E0910402F09105021995FF91EF91BF9199
:100A5000AF919F918F917F916F915F914F913F9156
:100A60002F910F900BBE0F900FBE0F901F901895F7
:100A70009CB5282F23709C7F922B9CBD2DB582FBAB
:100A8000992790F9822F8E7F892B8DBD0895CF9362
:100A9000DF93EC018A89ECDF8C89811103C08CB56E
:100AA000806202C08CB58F7D8CBD8CB5837F9B89A5
:100AB000892B8CBD60E0898996DD8F858EBD000015
:100AC0000DB407FEFDCF8EB561E08989DF91CF912E
:100AD0008ACDCF92DF92EF92FF92CF93DF93EC011A
:100AE000888981110CC060E08E817DDD61E08E819E
:100AF0007ADD60E08E8177DD8BE891E033C0C12C38
:100B0000D12C7601C394D701C6010E8004C0880F92
:100B1000991FAA1FBB1F0A94D2F780959F8589232E
:100B20008F87CE01B4DFD701C6010E8004C0880FC5
:100B3000991FAA1FBB1F0A94D2F72F85822B8F877C
:100B4000CE01A5DF0E8004C0CC0CDD1CEE1CFF1C0A
:100B50000A94D2F7C0948F85C822CF86CE0197DF42
:100B60008BE990E00197F1F7DF91CF91FF90EF9043
:100B7000DF90CF9008958F929F92AF92BF92CF92C5
:100B8000DF92EF92FF920F931F93CF93DF93EC01CD
:100B90008889062F10E081111FC05E0187E0A80E32
:100BA000B11CE12CF12C650161E0F50181915F013F
:100BB00049DDB8010E2C02C0759567950A94E2F7DD
:100BC0006170F60180810FDDFFEFEF1AFF0A84E00C
:100BD000E816F10441F732C084E090E0812C912CBA
:100BE000540183949C0124503109A80102C05595F9
:100BF00047952A95E2F72F8540FF0DC075016401E6
:100C0000082E04C0CC0CDD1CEE1CFF1C0A94D2F78D
:100C1000C22ACF860DC0B501A401082E04C0440F1E
:100C2000551F661F771F0A94D2F7409542234F87BE
:100C3000019688309105B1F6CE0129DFCE01DF9112
:100C4000CF911F910F91FF90EF90DF90CF90BF90C9
:100C5000AF909F908F903DCFAF92BF92CF92DF9297
:100C6000EF92FF920F931F93CF93DF93EC01F62E39
:100C7000642F8C81B8DC8D818F3F11F060E0B3DC94
:100C80008D890F2D10E084FF2AC05E0187E0A80E39
:100C9000B11CE12CF12C650161E0F50181915F014E
:100CA000D1DCB8010E2C02C0759567950A94E2F765
:100CB0006170F601808197DCFFEFEF1AFF0A88E090
:100CC000E816F10441F7CE01DF91CF911F910F910A
:100CD000FF90EF90DF90CF90BF90AF90FACEB80129
:100CE00084E0759567958A95E1F7CE0144DF6F2D15
:100CF000CE01DF91CF911F910F91FF90EF90DF9088
:100D0000CF90BF90AF9037CF1F93CF93DF93FC016D
:100D10002089211105C040E0DF91CF911F919CCF28
:100D2000162FEC0181E090E0A0E0B0E0048004C068
:100D3000880F991FAA1FBB1F0A94D2F78095978529
:100D400089238787CF01A3DE612F70E084E075954A
:100D500067958A95E1F7CE010EDF612FCE01DF9115
:100D6000CF911F9108CF1F93CF93DF93EC01162FE4
:100D70008889811104C041E0CE016EDF1DC081E091
:100D800090E0A0E0B0E00C8004C0880F991FAA1F7B
:100D9000BB1F0A94D2F72F85822B8F87CE0177DE77
:100DA000612F70E084E0759567958A95E1F7CE0133
:100DB000E2DE612FCE01DFDE81E090E0DF91CF91B6
:100DC0001F910895CF93CFB7F8948091820281113B
:100DD00023C0EDE0F2E08491E3E5F2E09491E82FA6
:100DE000F0E0EE0FFF1FE657FE4FA591B491EC9196
:100DF000E92319F461E085E3F6DB61E085E322DCB9
:100E00008CB580618CBD8CB580648CBD61E084E361
:100E100019DC61E083E316DC809182028F5F8093AE
:100E20008202CFBFCF9108951F920F920FB60F92FB
:100E300011240BB60F922F933F934F935F936F93B1
:100E40007F938F939F93AF93BF93EF93FF93809183
:100E5000B900887F803609F49CC068F5883209F4AF
:100E60005BC090F4803109F454C038F4882309F44D
:100E7000F6C0883009F44DC0F5C0883109F44CC083
:100E8000803209F45DC0EEC0803409F468C048F4D3
:100E9000803309F455C0883309F0E4C080933603E9
:100EA000D8C0803509F44FC0883509F45DC0883456
:100EB00009F0D8C0D6C0883909F4C7C0A8F488376B
:100EC00009F467C038F4883609F463C0803709F440
:100ED00060C0C8C0883809F4B8C0803909F45FC060
:100EE000803809F0BFC05BC0803B09F486C038F48D
:100EF000803A09F466C0883A09F47FC0B3C0803CE8
:100F000009F4A7C0883C09F4A4C0883B09F48AC04E
:100F1000A9C08091130310C09091350380913403D0
:100F2000981770F5E091350381E08E0F80933503BB
:100F3000F0E0EC5EFC4F80818093BB0085EC86C0C6
:100F4000809336038EC0E091350381E08E0F80934D
:100F500035038091BB00F0E0EC5EFC4F8083909104
:100F60003503809134036EC0E091350381E08E0F2C
:100F7000809335038091BB00F0E0EC5EFC4F8083F2
:100F80008091370381116DC081E08093120384EA60
:100F900061C083E08093380310928102CFCF8091AB
:100FA0008102803208F051C0E091810281E08E0F11
:100FB000809381028091BB00F0E0EF59FD4F808368
:100FC000BDCF85EC8093BC001092380380918102E4
:100FD000803230F4E0918102F0E0EF59FD4F108251
:100FE0006091810270E0E0915F02F091600281E621
:100FF00092E019951092810235C084E08093380305
:1010000010925E0210925D02E0915B02F0915C0230
:10101000199580915D02811105C081E080935D0288
:1010200010923B02E0915E0281E08E0F80935E029F
:10103000F0E0E55CFD4F80818093BB0090915E0203
:1010400080915D02981708F479CF85E88093BC0001
:1010500009C085EC8093BC001092380303C0109245
:10106000360300DAFF91EF91BF91AF919F918F917D
:101070007F916F915F914F913F912F910F900BBE98
:101080000F900FBE0F901F9018951092380381E0BB
:10109000809337031092120361E084E1A4DA61E0E7
:1010A00085E1A1DAE9EBF0E080818E7F80838081A9
:1010B0008D7F808388E48093B80085E48093BC00B2
:1010C0000895FF920F931F93CF93DF931F92CDB795
:1010D000DEB78C01F62E60E0FC018281498383DA61
:1010E000F801908181819CBD8DBD8F2D8F718068AD
:1010F0008EBD000049810DB407FEFDCF8EB54EBDFB
:1011000000000DB407FEFDCF8EB561E0F8018281CD
:101110006ADA87E090E00197F1F70F90DF91CF91C5
:101120001F910F91FF900895FC01418161E00596A8
:10113000C8CF0F931F93CF93DF93EC018C010B5F0C
:101140001F4F4B8163E0C801BCDF488160E0C801EC
:10115000B8DFCE01E9DF4A8162E0C801B2DF4C812D
:1011600069E0C801DF91CF911F910F91AACF382F6D
:1011700020915B0390919804213208F049C080913E
:1011800038038111FCCF42E040933803309337039A
:101190003FEF309336031092350320933403ABE3D3
:1011A000B3E044E153E0FA013E2F341B321718F448
:1011B0003D913193F9CF1092130320911303990FAE
:1011C000922B9093130390911203913061F410923B
:1011D0001203909113039093BB009091BC0093FD78
:1011E000F8CF95EC01C095EE9093BC009091380338
:1011F0009230E1F3909136039F3F79F0809136036E
:10120000803241F080913603803331F084E005C0B4
:1012100081E003C082E001C083E010923A031092A3
:101220005B03109239030895CF93DF931F92CDB7DC
:10123000DEB791E09093390399E29093980410926D
:101240003A0310925B03682F60688CE593E0498352
:1012500096D94981642F8CE593E091D981E00F9074
:10126000DF91CF9184CF0F931F93CF93DF93109291
:1012700011031092100310923A0310925B0305DFE2
:1012800081E08093390389E28093980462E98CE5D8
:1012900093E075D981E06BDF809138038111FCCF39
:1012A00081E080933803809337039FEF9093360358
:1012B000109235031092340380931303809113032B
:1012C00082658093130380911203813061F4109240
:1012D0001203809113038093BB008091BC0083FDB7
:1012E000F8CF85EC01C085EE8093BC008091380377
:1012F0008130E1F380913503811103C08091350382
:1013000001C081E0A4E1B3E020EF32E0F9019E2FBB
:10131000921B981718F49D919193F9CF1092110395
:10132000809310038CE593E0DFD8843419F080318A
:1013300009F056C081E080937804C0917B04D0917D
:101340007C04AE0160E070E06FDFD0937C04C0935A
:101350007B04C0917904D0917A0480917804811142
:1013600001C081DFAE0160E070E08FE05DDFD0930F
:101370007A04C093790441E050E060E070E080E0DE
:1013800053DF63E070E080E090E098D943E050E004
:1013900060E070E080E048DF08E713E0C0E0D0E004
:1013A000BE010D2E000C880B990BE5D420E030E037
:1013B0004FE753E44AD420E030E040E250E4F2D575
:1013C00020E030E04FE753E48AD5A7D4F8016193D9
:1013D0008F012196C115F1E0DF0711F781E001C00F
:1013E00080E0DF91CF911F910F910895CF93DF930C
:1013F000EC0189818F71806489838C81887F8C83E3
:10140000CE0192DE4C8169E0CE010596DF91CF914D
:1014100058CEFC019181907E92619183CF0184CE60
:101420000F931F93CF93DF93EC01623018F08D89F7
:1014300088608D8B698F1A8E8BE39DE00197F1F7A1
:1014400060E08C81D0D860E08E81CDD88D818F3FD7
:1014500011F060E0C8D86D8964FD19C063E0CE0169
:101460008ADB0BE416E4C8010197F1F763E0CE01D3
:1014700082DBC8010197F1F763E0CE017CDB83E5F5
:1014800092E00197F1F762E0CE0175DB13C0606274
:10149000CE013ADC8BE496E40197F1F76D89606246
:1014A000CE0132DC83E592E00197F1F76D8960624D
:1014B000CE012ADC6D896062CE0126DC84E08E8B51
:1014C0006CE0CE0121DC61E0CE011EDC8BE39FE10C
:1014D0000197F1F782E08F8B66E0CE01DF91CF912B
:1014E0001F910F9111CC009769F0FC010190002031
:1014F000E9F73197AF01481B590BBC018DE794E028
:101500000C94880180E090E008958F929F92AF92B2
:10151000BF920F931F93CF93DF93CDB7DEB7A19701
:101520000FB6F894DEBF0FBECDBF19A2423008F44B
:101530004AE08E010F5D1F4F842E912CA12CB12CFF
:10154000A5019401F7D2E62FB901CA010150110992
:10155000EA3014F4E05D01C0E95CD801EC93232B80
:10156000242B252B69F7C801BEDFA1960FB6F8948E
:10157000DEBF0FBECDBFDF91CF911F910F91BF9006
:10158000AF909F908F900895789484B5826084BDC9
:1015900084B5816084BD85B5826085BD85B5816077
:1015A00085BD80916E00816080936E0010928100F5
:1015B00080918100826080938100809181008160B0
:1015C0008093810080918000816080938000809171
:1015D000B10084608093B1008091B00081608093FD
:1015E000B000809191008260809391008091910081
:1015F0008160809391008091900081608093900041
:101600008091A10082608093A1008091A1008160FF
:101610008093A1008091A00081608093A0008091C0
:10162000210182608093210180912101816080935A
:1016300021018091200181608093200180917A00B6
:10164000846080937A0080917A00826080937A002F
:1016500080917A00816080937A0080917A0080681E
:1016600080937A001092C10062E08DE794E0D8DEAA
:10167000109211031092100310923A0310925B0320
:1016800004DDA0DB84E08093770361E00E94F30235
:1016900061E0809177030E94220387E080936F03CB
:1016A00061E00E94F30261E080916F030E942203D7
:1016B00060E083E00E94F30261E083E00E94220385
:1016C00060E082E00E94F30261E082E00E94220377
:1016D00060E086E00E94F30261E086E00E9422035F
:1016E00060E085E00E94F30261E085E00E94220351
:1016F00061E070E080E090E00E945E03109274036D
:10170000109273031092720310927103109270037F
:1017100080E793E00EDD10926C0310926B03109241
:101720006A03109269031092680388E693E001DD72
:1017300080E793E06EDE88E693E06BDE80E793E07F
:1017400055DE88E693E052DE8091730380688093D3
:10175000730380E793E0EDDC80916B0380688093F6
:101760006B0388E693E0E5DC7EDD60E084E20E94C6
:10177000220361E085E20E94220360E085E20E948C
:10178000F302ECEDF2E028EC32E084EB92E0C0EA08
:10179000D2E06CE872E011921192D9011D921D9273
:1017A0009D01DC011D921D92CD0119921992DB0160
:1017B0001D921D92BD01B2E0E03FFB0761F761E0C1
:1017C00086E10E94220361E087E10E94220361E03A
:1017D00088E10E94220360E082E10E94220360E02F
:1017E00083E10E94220323EB31E030930B0220932C
:1017F0000A02809169008F73806480936900EB9A7C
:101800003093090220930802809169008F7C8061E7
:1018100080936900EA9A60E086E10E94F30260E04A
:1018200087E10E94F30260E088E10E94F30260E039
:1018300085E20E9422039DEF292E91E0392E0BE3D1
:101840001FE1C0E0D0E0E9E8F2E08491E3E4F2E0F7
:10185000E490F101F490FF20A1F081110E94B60103
:10186000EF2DF0E0EE0FFF1FE254FE4FA591B49173
:101870008C91E82291E080E009F490E0692F782FC4
:1018800002C060E070E0072E000C880B990B73D249
:101890006B017C014B015C0161E08DE794E034DA7F
:1018A000C8010197F1F760E88DE794E02DDAA70110
:1018B0009601C701B601C2D3882319F08EE292E0E7
:1018C00018C026013701E89477F82FEF3FEF4FE774
:1018D0005FE7C301B201B2D381110DC02FEF3FEF1B
:1018E0004FE75FE7C301B201ACD1181624F482E3DD
:1018F00092E0F9DD74C02FEF3FEF4FE75FE4C701DF
:10190000B601E9D218161CF486E392E0F2CF2FEF6D
:101910003FEF4FE75FECC701B60193D187FDF4CFEE
:1019200020E030E0A901C701B6018BD187FF11C0CB
:10193000E0917D04F0917E040190F081E02D6DE254
:101940008DE794E0199546015701B7FAB094B7F8BE
:10195000B0942AE037ED43EA5BE3C501B4010DD151
:101960004B015C01DAD16B017C0103D29B01AC011C
:10197000C501B40101D14B015C014AE0C701B601C8
:10198000C4DDE0917D04F0917E040190F081E02DB2
:101990006EE28DE794E0199520E030E040E251E4FA
:1019A000C501B4019CD26B017C01B7D14B01A12CC4
:1019B000B12C4AE0C501B401A8DDC501B401D9D1FB
:1019C0009B01AC01C701B601D7D020E030E040E276
:1019D00051E485D2A2D180E090E04AE096DD62E356
:1019E00070E080E090E00E945E03209709F42BCF26
:1019F0000E94000028CFCF93DF9310925F031092D4
:101A00005E0388EE93E0A0E0B0E0809360039093E3
:101A10006103A0936203B093630384E192E0909327
:101A20005D0380935C0382E580937503C1E0C093FE
:101A30007603109274031092730310927203109243
:101A400071031092700380936D03C0936E03109224
:101A50006C0310926B0310926A0310926903109248
:101A60006803109278048BEE90E090937C0480934E
:101A70007B0410927A0410927904109280041092E0
:101A80007F0486E292E090937E0480937D04C0936D
:101A90008D0489E080938E0461E00E94220392D934
:101AA000D4E0D0938F0484E00E9438051092900413
:101AB0008CB5837F8CBDC09391048CB58F7D8CBD1C
:101AC000C09381048FEF8093820483E0809383042A
:101AD0001092840410928504109286041092870458
:101AE000D093880485E08093890486E080938A04FB
:101AF00087E080938B0461E081E00E942203809163
:101B000082048F3F19F061E00E94220361E080911E
:101B100083040E9422031092920461E08DE794E016
:101B20007FDC80918D04811102C010928D04DF91C1
:101B3000CF910895A1E21A2EAA1BBB1BFD010DC077
:101B4000AA1FBB1FEE1FFF1FA217B307E407F5076D
:101B500020F0A21BB30BE40BF50B661F771F881F49
:101B6000991F1A9469F760957095809590959B01DF
:101B7000AC01BD01CF0108955058BB27AA270ED054
:101B800070C161D130F066D120F031F49F3F11F483
:101B90001EF456C10EF4E095E7FB4CC1E92F72D15B
:101BA00080F3BA17620773078407950718F071F47A
:101BB0009EF58AC10EF4E0950B2EBA2FA02D0B01D5
:101BC000B90190010C01CA01A0011124FF27591B82
:101BD00099F0593F50F4503E68F11A16F040A22F88
:101BE000232F342F4427585FF3CF469537952795F9
:101BF000A795F0405395C9F77EF41F16BA0B620BF8
:101C0000730B840BBAF09150A1F0FF0FBB1F661F3E
:101C1000771F881FC2F70EC0BA0F621F731F841F81
:101C200048F4879577956795B795F7959E3F08F0A7
:101C3000B3CF9395880F08F09927EE0F9795879566
:101C40000895D4D008F481E008950CD00AC102D1DF
:101C500040F0F9D030F021F45F3F19F0EBC05111A2
:101C600034C1EEC00FD198F39923C9F35523B1F3D2
:101C7000951B550BBB27AA2762177307840738F0FB
:101C80009F5F5F4F220F331F441FAA1FA9F333D05A
:101C90000E2E3AF0E0E830D091505040E695001C0E
:101CA000CAF729D0FE2F27D0660F771F881FBB1FCA
:101CB000261737074807AB07B0E809F0BB0B802DA4
:101CC000BF01FF2793585F4F2AF09E3F510568F0F0
:101CD000B1C0FBC05F3FECF3983EDCF3869577958F
:101CE0006795B795F7959F5FC9F7880F911D9695F2
:101CF000879597F90895E1E0660F771F881FBB1F4E
:101D0000621773078407BA0720F0621B730B840BFA
:101D1000BA0BEE1F88F7E0950895BCD088F09F5766
:101D200090F0B92F9927B751A0F0D1F0660F771F27
:101D3000881F991F1AF0BA95C9F712C0B13081F007
:101D4000C3D0B1E00895C0C0672F782F8827B85F4F
:101D500039F0B93FCCF3869577956795B395D9F768
:101D60003EF490958095709561957F4F8F4F9F4F72
:101D70000895E89409C097FB3EF49095809570957E
:101D800061957F4F8F4F9F4F9923A9F0F92F96E9C7
:101D9000BB279395F695879577956795B795F1113C
:101DA000F8CFFAF4BB0F11F460FF1BC06F5F7F4FD9
:101DB0008F4F9F4F16C0882311F096E911C07723EB
:101DC00021F09EE8872F762F05C0662371F096E8F4
:101DD000862F70E060E02AF09A95660F771F881FC3
:101DE000DAF7880F9695879597F90895990F000867
:101DF000550FAA0BE0E8FEEF16161706E807F907DD
:101E0000C0F012161306E407F50798F0621B730B77
:101E1000840B950B39F40A2661F0232B242B252BF8
:101E200021F408950A2609F4A140A6958FEF811D9B
:101E3000811D089597F99F6780E870E060E008953C
:101E40009FEF80EC089500240A94161617061806D2
:101E50000906089500240A941216130614060506AE
:101E60000895092E0394000C11F4882352F0BB0F3F
:101E700040F4BF2B11F460FF04C06F5F7F4F8F4FA2
:101E80009F4F089557FD9058440F551F59F05F3FDD
:101E900071F04795880F97FB991F61F09F3F79F08C
:101EA00087950895121613061406551FF2CF46950E
:101EB000F1DF08C0161617061806991FF1CF869590
:101EC0007105610508940895E894BB276627772774
:101ED000CB0197F908958ADF08F48FEF08950BD0AE
:101EE000C0CFB1DF28F0B6DF18F0952309F0A2CFFC
:101EF000A7CF1124EACFC6DFA0F3959FD1F3950FAA
:101F000050E0551F629FF001729FBB27F00DB11D7D
:101F1000639FAA27F00DB11DAA1F649F6627B00D0D
:101F2000A11D661F829F2227B00DA11D621F739FF6
:101F3000B00DA11D621F839FA00D611D221F749F04
:101F40003327A00D611D231F849F600D211D822F4B
:101F5000762F6A2F11249F5750408AF0E1F0882392
:101F60004AF0EE0FFF1FBB1F661F771F881F91509F
:101F70005040A9F79E3F510570F05CCFA6CF5F3F60
:101F8000ECF3983EDCF3869577956795B795F795D2
:101F9000E7959F5FC1F7FE2B880F911D969587955A
:101FA00097F90895FA01EE0FFF1F309621053105CC
:101FB00099F16115710561F48038BFE39B0749F120
:101FC00068949038810561F08038BFEF9B0741F03D
:101FD000992342F5FF3FE1053105210511F1E89410
:101FE0000894E795D901AA2329F4AB2FBE2FF85FF7
:101FF000D0F310C0FF5F70F4A695E0F7F73950F00A
:1020000019F0FF3A38F49F779F930CD00F9007FC9C
:10201000905808953EF014CF60E070E080E89FE3B0
:1020200008954FE79F775F934F933F932F93A2D0ED
:102030002F913F914F915F9152DF09C0D7DE880BFE
:10204000990B089519F40EF0F5CE3ECFF9CE22DFAC
:10205000C8F39638C0F707F80F92E8942BE33AEAF2
:1020600048EB5FE74ADF0F920F920F924DB75EB7D2
:102070000F92C0D0E8E0F1E016D04F915F91EF9160
:10208000FF91E595EE1FFF1F49F0FE57E0684427DA
:10209000EE0F441FFA95E1F74195550B32D00F90A2
:1020A00007FE26C00895DF93CF931F930F93FF92EF
:1020B000EF92DF927B018C01689405C0DA2EEF016C
:1020C0001ADFFE01E894A59125913591459155912E
:1020D000AEF3EF0163DDFE019701A801DA9479F711
:1020E000DF90EF90FF900F911F91CF91DF910895B6
:1020F0009B01AC0160E070E080E89FE3A6CD9ACE42
:10210000ACC0C8DEE8F39923D9F3940F511DBBF39B
:102110009150504094F059F0882332F0660F771FA9
:10212000881F91505040C1F79E3F510544F7880FDA
:10213000911D9695879597F908955F3FACF0983E6D
:102140009CF0BB27869577956795B79508F4B160A5
:102150009395C1F7BB0F58F711F460FFE8CF6F5F9D
:102160007F4F8F4F9F4FE3CFB0CE0EF076C068CE3B
:10217000689460CE8FDEC8F39923D1F3C6F3DF9362
:10218000CF931F930F93FF92C92FDD2788232AF047
:102190002197660F771F881FDAF720E030E040E8CC
:1021A0005FEB9FE3883920F0803E30F021968F77F7
:1021B000E4DCE0E3F1E003C0E0DCEDE5F1E073DF57
:1021C0008B01BE01EC01FB2E6F5771097595771FCE
:1021D000880B990BD0DD28E132E741E35FE38BDE2A
:1021E000AF2D9801AE01FF900F911F91CF91DF911C
:1021F000D5DC37CEFA01DC01AA0FBB1F9B01AC0175
:10220000BF5728F422273327442750781FC0B751DF
:1022100088F4AB2F0024469537952795011CA3958C
:10222000D2F3002069F0220F331F441FB395DAF375
:102230000DD0A2CC61307105A0E88A07B94630F410
:102240009B01AC016627772788279078309621F08C
:10225000208331834283538308959F3F31F091500F
:1022600020F4879577956795B795880F911D96957A
:10227000879597F90895EE0FFF1F881F8BBF079072
:10228000F691E02D199481E090E0F89400C0F89464
:02229000FFCF7E
:1022920031023102310231023102310231023102A4
:1022A20000000000BF029002EE0264028802740283
:1022B200650200000000B3068801EE02ED026E61C5
:0A22C2006E00696E66006F7666001C
:020000023000CC
:10E000000D9489F10D94B2F10D94B2F10D94B2F129
:10E010000D94B2F10D94B2F10D94B2F10D94B2F1F0
:10E020000D94B2F10D94B2F10D94B2F10D94B2F1E0
:10E030000D94B2F10D94B2F10D94B2F10D94B2F1D0
:10E040000D94B2F10D94B2F10D94B2F10D94B2F1C0
:10E050000D94B2F10D94B2F10D94B2F10D94B2F1B0
:10E060000D94B2F10D94B2F10D94B2F10D94B2F1A0
:10E070000D94B2F10D94B2F10D94B2F10D94B2F190
:10E080000D94B2F10D94B2F10D94B2F10D94B2F180
:10E090000D94B2F10D94B2F10D94B2F10D94B2F170
:10E0A0000D94B2F10D94B2F10D94B2F10D94B2F160
:10E0B0000D94B2F10D94B2F10D94B2F10D94B2F150
:10E0C0000D94B2F10D94B2F10D94B2F10D94B2F140
:10E0D0000D94B2F10D94B2F10D94B2F10D94B2F130
:10E0E0000D94B2F141546D656761323536300041AF
:10E0F000726475696E6F206578706C6F72657220DE
:10E1000073746B3530305632206279204D4C530099
:10E11000426F6F746C6F616465723E004875683F52
:10E1200000436F6D70696C6564206F6E203D200048
:10E130004350552054797065202020203D20005FF9
:10E140005F4156525F415243485F5F3D2000415658
:10E1500052204C696243205665723D20004743437C
:10E160002056657273696F6E203D20004350552024
:10E1700049442020202020203D20004C6F7720663D
:10E18000757365202020203D20004869676820665F
:10E190007573652020203D200045787420667573D6
:10E1A00065202020203D20004C6F636B2066757336
:10E1B000652020203D20004D617220203720323024
:10E1C000313300312E362E3800342E332E350056A2
:10E1D00023202020414444522020206F7020636F70
:10E1E00064652020202020696E73747275637469E1
:10E1F0006F6E2061646472202020496E74657272B3
:10E20000757074006E6F20766563746F7200726A49
:10E210006D702020006A6D70200057686174207056
:10E220006F72743A00506F7274206E6F7420737541
:10E2300070706F72746564004D7573742062652030
:10E2400061206C6574746572002000577269747483
:10E25000696E672045450052656164696E672045B7
:10E26000450045452065727220636E743D00504F35
:10E27000525400303D5A65726F2061646472003FF1
:10E280003D43505520737461747300403D454550C3
:10E29000524F4D207465737400423D426C696E6B41
:10E2A000204C454400453D44756D70204545505215
:10E2B0004F4D00463D44756D7020464C415348001B
:10E2C000483D48656C70004C3D4C69737420492F83
:10E2D0004F20506F72747300513D51756974005234
:10E2E0003D44756D702052414D00563D73686F7707
:10E2F00020696E7465727275707420566563746FF0
:10E30000727300593D506F727420626C696E6B00BD
:10E310002A0011241FBECFEFD1E2DEBFCDBF01E046
:10E320000CBF12E0A0E0B2E0EEE1FDEF03E00BBFB6
:10E3300002C007900D92A030B107D9F712E0A0E01B
:10E34000B2E001C01D92AE30B107E1F70F9460F367
:10E350000D948DFE01E20EBF0FEF0DBF11241FBE05
:10E360000D9460F30D9400F020E030E040ED57E0B4
:10E3700005C0FA013197F1F72F5F3F4F2817390792
:10E38000C0F308959C01260F311DC901A0E0B0E043
:10E390002F5F3F4FABBFFC018791882361F08093D3
:10E3A000C6008091C00086FFFCCF8091C0008064D1
:10E3B0008093C000EACF08958DE08093C6008091DD
:10E3C000C00086FFFCCF8091C00080648093C000B5
:10E3D0008AE08093C6008091C00086FFFCCF8091C8
:10E3E000C00080648093C00008950F94C2F10F9420
:10E3F000DCF10895FC019081992359F09093C600B7
:10E400008091C00086FFFCCF8091C0008064809323
:10E41000C0003196992379F70895282F982F929567
:10E420009F70892F805D8A3308F0895F8093C600D2
:10E430008091C00086FFFCCF8091C00080648093F3
:10E44000C000822F8F70982F905D9A3308F0995FEB
:10E450009093C6008091C00086FFFCCF8091C000E1
:10E4600080648093C00008959C01FB01853691056E
:10E470001CF46330710594F0C90164E670E00F94F8
:10E480002EFE605D7F4F6093C6008091C00086FFC6
:10E49000FCCF8091C00080648093C0002B30310598
:10E4A00014F43297B4F0C90164E670E00F942EFEC4
:10E4B0006AE070E00F942EFE605D7F4F6093C600AF
:10E4C0008091C00086FFFCCF8091C0008064809363
:10E4D000C000C9016AE070E00F942EFEC0968093E0
:10E4E000C6008091C00086FFFCCF8091C000806490
:10E4F0008093C00008951F93182F8EE692EE60E07F
:10E500000F94C2F11093C6008091C00086FFFCCF2B
:10E510008091C00080648093C0000F94DCF11F9153
:10E5200008952F923F924F925F926F927F928F92B7
:10E530009F92AF92BF92CF92DF92EF92FF920F9392
:10E540001F93DF93CF93CDB7DEB762970FB6F894E2
:10E55000DEBF0FBECDBF382E622ECA01DB015C01CB
:10E560006D01772420E2222E2E010894411C511CBB
:10E570008BC081E0A81680E0B80681E0C80680E084
:10E58000D80628F0C601AA27BB270F940DF2BB2797
:10E59000AD2D9C2D8B2D0F940DF28A2D0F940DF225
:10E5A0002092C6008091C00086FFFCCF8091C00001
:10E5B00080648093C0009DE29093C6008091C0006B
:10E5C00086FFFCCF8091C00080648093C0002092C1
:10E5D000C6008091C00086FFFCCF8091C00080649F
:10E5E0008093C00019828601750188249924A1E0D6
:10E5F0003A1651F03A1620F0B2E03B1661F409C029
:10E600000BBFF701779007C0C7010F9477FE782EF4
:10E6100002C0F7017080872D0F940DF22092C60082
:10E620008091C00086FFFCCF8091C0008064809301
:10E63000C000872D8052F401EF70F0708F3520F408
:10E64000E40DF51D708204C0E40DF51D8EE280839B
:10E650000894E11CF11C011D111D0894811C911CE2
:10E6600090E18916910409F0C2CF80E190E0A0E02A
:10E67000B0E0A80EB91ECA1EDB1E198AC2010F9493
:10E68000FAF10F94DCF16A94662009F072CF629679
:10E690000FB6F894DEBF0FBECDBFCF91DF911F91B3
:10E6A0000F91FF90EF90DF90CF90BF90AF909F9031
:10E6B0008F907F906F905F904F903F902F90089534
:10E6C0002F923F924F925F926F927F928F929F9282
:10E6D000AF92BF92CF92DF92EF92FF920F931F9370
:10E6E000DF93CF93CDB7DEB7CD53D1400FB6F894BB
:10E6F000DEBF0FBECDBF01E20EBF0FEF0DBF94B75F
:10E70000F894A89514BE80916000886180936000A1
:10E7100010926000789493FF05C0E0910002F091A0
:10E7200001021995279A2F9A8091C00082608093E8
:10E73000C00080E18093C40088E18093C1000000A4
:10E74000EE24FF24870144E0A42EB12CCC24DD2448
:10E7500024C0C5010197F1F70894E11CF11C011DCB
:10E76000111D21E2E2162EE4F20620E0020720E06D
:10E77000120718F031E0C32ED12CC801B70127ECE5
:10E780003BE140E050E00F9441FE611571058105C9
:10E79000910519F485B1805885B98091C00087FD35
:10E7A00003C0C114D104A9F2A6014F5F5F4FC25E3E
:10E7B000DE4F59834883CE51D140C25EDE4F8881FF
:10E7C0009981CE51D140019711F00D9410FEC05D9A
:10E7D000DE4F19821882C053D14060E0C15DDE4F28
:10E7E0001882CF52D14088249924C35DDE4F19820C
:10E7F0001882CD52D140C05EDE4F188219821A8233
:10E800001B82C052D140CE5CDE4F188219821A8220
:10E810001B82C253D140EE24FF2487010BBFF701B6
:10E8200007911691C45CDE4F19830883CC53D14005
:10E830000D940BFEC25EDE4F28813981CE51D1404E
:10E840002130310509F52091C600C25EDE4F1982E4
:10E850001882CE51D14022C02F5F3F4F4F4F5F4FA4
:10E86000213082E138078AE7480780E0580780F0C6
:10E87000C45CDE4FE881F981CC53D140EF5FFF4F9C
:10E8800019F0EE27FF27099420E030E040E050E047
:10E890008091C00087FFE0CF2091C600C35DDE4FAE
:10E8A00048815981CD52D1404F5F5F4FC35DDE4FEC
:10E8B00059834883CD52D140213209F063C64A3092
:10E8C000510508F05FC60894811C911C53E0851621
:10E8D000910409F059C600E010E018C081E280936D
:10E8E000C6008091C00086FFFCCF8091C00080648C
:10E8F0008093C0002F5F3F4F2931310579F70F9486
:10E90000DCF10F5F1F4F0530110519F020E030E0FA
:10E91000E5CF10920A0210920B0210920C02109294
:10E920000D02109206021092070210920802109235
:10E930000902109202021092030210920402109235
:10E9400005028FEE90EE60E00F94F5F180E191EE1C
:10E9500060E00F94C2F18091C00087FFFCCF9091DE
:10E96000C600903608F09F759032B8F09093C600BC
:10E970008091C00086FFFCCF8091C00080648093AE
:10E98000C000A0E2A093C6008091C00086FFFCCF2B
:10E990008091C00080648093C000983409F4D7C18E
:10E9A0009934B8F4923409F459C1933458F490333B
:10E9B00019F1903308F4E3C59F33A1F1903409F0C5
:10E9C000DEC5BDC0953409F470C1963409F0D7C5D1
:10E9D00098C1923509F42BC2933538F49C3409F46C
:10E9E000F5C1913509F0CBC518C2963509F445C279
:10E9F000993509F0C4C567C483E792EE62E00F94CD
:10EA0000F5F110920602109207021092080210927D
:10EA1000090210920A0210920B0210920C0210923C
:10EA20000D0213C18FE792EE62E00F94F5F18FEEC5
:10EA300090EE60E00F94F5F181E291EE60E00F94CA
:10EA4000C2F187EB91EE60E00F94F5F180E391EE77
:10EA500060E00F94C2F184EE90EE60E00F94F5F167
:10EA60008FE391EE60E00F94C2F186E090E061E008
:10EA700070E00F9434F20F94DCF18DE591EE60E0DC
:10EA80000F94C2F189EC91EE60E00F94F5F18EE401
:10EA900091EE60E00F94C2F183EC91EE60E00F9490
:10EAA000F5F18CE691EE60E00F94C2F18EE10F94E7
:10EAB0000DF288E90F940DF281E00F940DF20F949E
:10EAC000DCF18BE791EE60E00F94C2F119E0E0E039
:10EAD000F0E010935700E4918E2F0F940DF20F94F5
:10EAE000DCF18AE891EE60E00F94C2F1E3E0F0E03F
:10EAF00010935700E4918E2F0F940DF20F94DCF1D8
:10EB000089E991EE60E00F94C2F1E2E0F0E0109349
:10EB10005700E4918E2F0F940DF20F94DCF188EAE8
:10EB200091EE60E00F94C2F1E1E0F0E01093570045
:10EB30001491812F0F940DF20F94DCF107CF8BE825
:10EB400092EE62E00F94F5F18BE492EE60E00F94A8
:10EB5000F5F10F94DCF100E010E019C0C8016F2D51
:10EB60000F947FFEFF2031F489E492EE60E00F9471
:10EB7000C2F10BC0F092C6008091C00086FFFCCFAE
:10EB80008091C00080648093C0000F5F1F4FC80158
:10EB900081519F41A0E0B0E0ABBFFC01F790BAE229
:10EBA000FB1621F0E2E000301E07C1F60F94DCF105
:10EBB0000F94DCF187E592EE60E00F94F5F10F948D
:10EBC000DCF1CC24DD2400E010E01EC0C8010F946D
:10EBD00077FEF82E882331F489E492EE60E00F94FA
:10EBE000C2F10BC08093C6008091C00086FFFCCFAD
:10EBF0008091C00080648093C000FE1419F00894D6
:10EC0000C11CD11C0F5F1F4FC80181519F41A0E063
:10EC1000B0E0ABBFFC01E790FAE2EF1621F022E092
:10EC20000030120799F60F94DCF10F94DCF182E6C4
:10EC300092EE60E00F94C2F1C60161E070E00F94C3
:10EC400034F20F94DCF10F94DCF110920202109276
:10EC50000302109204021092050278CE89E992EE26
:10EC600062E00F94F5F1279A2F9A16C02F9880E052
:10EC700090E0E0EDF7E03197F1F7019684369105E9
:10EC8000C1F72F9A80E090E0E0EDF7E03197F1F7DF
:10EC9000019684369105C1F78091C00087FFE6CFC9
:10ECA0008091C00087FFFCCF64C485EA92EE62E0E9
:10ECB0000F94F5F140910202509103026091040219
:10ECC0007091050281E020E10F9491F2809102029F
:10ECD00090910302A0910402B091050280509F4FD1
:10ECE000AF4FBF4F8093020290930302A0930402A0
:10ECF000B093050280509041A040B04008F426CE69
:10ED0000A4CF83EB92EE62E00F94F5F140910602FE
:10ED100050910702609108027091090280E020E1A1
:10ED20000F9491F28091060290910702A09108023F
:10ED3000B091090280509F4FAF4FBF4F80930602A2
:10ED400090930702A0930802B0930902FFCD80ECD4
:10ED500092EE62E00F94F5F183E792EE60E00F949B
:10ED6000F5F18FE792EE60E00F94F5F18BE892EE0B
:10ED700060E00F94F5F189E992EE60E00F94F5F10F
:10ED800085EA92EE60E00F94F5F183EB92EE60E09D
:10ED90000F94F5F180EC92EE60E00F94F5F187ECC2
:10EDA00092EE60E00F94F5F188ED92EE60E00F9442
:10EDB000F5F18FED92EE60E00F94F5F18AEE92EEB0
:10EDC00060E00F94F5F183E093EEBDCD87EC92EE19
:10EDD00062E00F94F5F181E40F947BF282E40F94EA
:10EDE0007BF283E40F947BF284E40F947BF285E45E
:10EDF0000F947BF286E40F947BF287E40F947BF20E
:10EE000088E40F947BF28AE40F947BF28BE40F94F6
:10EE10007BF28CE40F947BF299CD88ED92EE62E068
:10EE20000F94F5F1772473948824992409C48FED05
:10EE300092EE62E00F94F5F140910A0250910B02BC
:10EE400060910C0270910D0282E020E10F9491F22A
:10EE500080910A0290910B02A0910C02B0910D02D8
:10EE600080509F4FAF4FBF4F80930A0290930B0289
:10EE7000A0930C02B0930D0269CD8AEE92EE62E08F
:10EE80000F94F5F184EE90EE60E00F94F5F18FECC5
:10EE900091EE60E00F94F5F1662477244301CC5D98
:10EEA000DE4F19821882C452D140D401C301B695F5
:10EEB000A79597958795CA5DDE4F88839983AA8326
:10EEC000BB83C652D140CC5DDE4FA881B981C4520C
:10EED000D1401196CC5DDE4FB983A883C452D14096
:10EEE000CD0162E070E00F9434F2B0E2B093C6005E
:10EEF0008091C00086FFFCCF8091C0008064809329
:10EF0000C000EDE2E093C6008091C00086FFFCCF18
:10EF10008091C00080648093C000F0E2F093C6004E
:10EF20008091C00086FFFCCF8091C00080648093F8
:10EF3000C000CA5DDE4FE880F9800A811B81C6529D
:10EF4000D140BB27A12F902F8F2D0F940DF2CA5DBA
:10EF5000DE4F8881C652D1400F940DF2B0E2FB2EF5
:10EF6000F092C6008091C00086FFFCCF8091C00067
:10EF700080648093C0000DE30093C6008091C000C0
:10EF800086FFFCCF8091C00080648093C00010E2B7
:10EF90001093C6008091C00086FFFCCF8091C00016
:10EFA00080648093C0008BBEF3012791C65DDE4F65
:10EFB0002883CA52D140A22EBB24CC24DD2408943D
:10EFC000611C711C811C911C8BBEF3018791282E42
:10EFD0003324442455240894611C711C811C911C09
:10EFE0008BBEF3013791C55DDE4F3883CB52D140E4
:10EFF0000894611C711C811C911C8BBEF30147910C
:10F00000C45DDE4F4883CC52D140ADEFEA2EAFEF66
:10F01000FA2EAFEF0A2FAFEF1A2F6E0C7F1C801E57
:10F02000911E142D032DF22CEE24EA0CFB1C0C1D5A
:10F030001D1D0F940DF220E22093C6008091C000A8
:10F0400086FFFCCF8091C00080648093C000C65DC5
:10F05000DE4F8881CA52D1400F940DF230E23093D6
:10F06000C6008091C00086FFFCCF8091C000806404
:10F070008093C000C45DDE4F8881CC52D1400F9494
:10F080000DF240E24093C6008091C00086FFFCCFA5
:10F090008091C00080648093C000C55DDE4F888190
:10F0A000CB52D1400F940DF250E25093C6008091A4
:10F0B000C00086FFFCCF8091C00080648093C000B8
:10F0C0008FEFE8168FEFF80680E0080780E018075A
:10F0D00031F484E092EE60E00F94C2F1DFC0D80119
:10F0E000C7018070907CA070B0708050904CA040A0
:10F0F000B040D1F52FEF3FE340E050E0E222F322B1
:10F1000004231523CA5DDE4FA880B980CA80DB8046
:10F11000C652D140AE0CBF1CC01ED11EAA0CBB1CD7
:10F12000CC1CDD1C8EE092EE60E00F94C2F1BB2798
:10F13000A12F902F8F2D0F940DF28E2D0F940DF285
:10F1400030E23093C6008091C00086FFFCCF8091F2
:10F15000C00080648093C0004EE34093C60080915D
:10F16000C00086FFFCCF87C08EE09EEFA0E0B0E03D
:10F17000E822F9220A231B239CE0E91694E9F90608
:10F1800090E0090790E0190709F088C0C45DDE4FE0
:10F19000A881CC52D140EA2EFF2400E010E0102FCD
:10F1A0000F2DFE2CEE24C55DDE4FB881CB52D14031
:10F1B000EB0EF11C011D111DD601C501817090706F
:10F1C000A070B070DC0199278827E80EF91E0A1F8D
:10F1D0001B1F20EF30E040E050E0A222B322C42207
:10F1E000D52241E1AA0CBB1CCC1CDD1C4A95D1F7F1
:10F1F000EA0CFB1C0C1D1D1D81E090E0A0E0B0E0BE
:10F20000282239224A225B2235E1220C331C441C7D
:10F21000551C3A95D1F7E20CF31C041D151D57013E
:10F220006801AA0CBB1CCC1CDD1C85E192EE60E0E1
:10F230000F94C2F1C801AA27BB270F940DF2BB2778
:10F24000A12F902F8F2D0F940DF28E2D0F940DF274
:10F2500090E29093C6008091C00086FFFCCF809121
:10F26000C00080648093C000AEE3A093C60080918C
:10F27000C00086FFFCCF8091C00080648093C000F6
:10F28000C601AA27BB270F940DF2BB27AD2D9C2DDD
:10F290008B2D0F940DF28A2D0F940DF20F94DCF14B
:10F2A000CC5DDE4FE881F981C452D140F99709F471
:10F2B0004DCBF4E0EF2EF12C012D112D6E0C7F1CA7
:10F2C000801E911EF2CD83E093EE62E00F94F5F183
:10F2D0008AE192EE60E00F94C2F18091C00087FF56
:10F2E000FCCF1091C6001F751093C6008091C0001E
:10F2F00086FFFCCF8091C00080648093C0000F9493
:10F30000DCF1812F81548A3108F036C1163409F4BA
:10F3100095C0173490F4133409F44EC0143430F40B
:10F320001134F1F0123409F01DC130C0143409F465
:10F3300059C0153409F016C16BC01A3409F4C4C0A1
:10F340001B3438F4173409F48FC0183409F00AC19B
:10F35000A1C01B3409F4D2C01C3409F003C1E8C0B9
:10F360008FEF81B90DC082B1809582B980E090E0C5
:10F37000E0EDF7E03197F1F70196883C9105C1F790
:10F380008091C00087FFEFCF12B8EFC08FEF84B934
:10F390000DC085B1809585B980E090E0E0EDF7E0A3
:10F3A0003197F1F70196883C9105C1F78091C00033
:10F3B00087FFEFCF15B8D9C08FEF87B90DC088B1DF
:10F3C000809588B980E090E0E0EDF7E03197F1F7C3
:10F3D0000196883C9105C1F78091C00087FFEFCF6F
:10F3E00018B8C3C08FEF8AB90DC08BB180958BB9A7
:10F3F00080E090E0E0EDF7E03197F1F70196883C8E
:10F400009105C1F78091C00087FFEFCF1BB8ADC059
:10F410008FEF8DB90DC08EB180958EB980E090E0F0
:10F42000E0EDF7E03197F1F70196883C9105C1F7DF
:10F430008091C00087FFEFCF1EB897C08FEF80BBD1
:10F440000DC081B3809581BB80E090E0E0EDF7E0F6
:10F450003197F1F70196883C9105C1F78091C00082
:10F4600087FFEFCF11BA81C08FEF83BB0DC084B38C
:10F47000809584BB80E090E0E0EDF7E03197F1F714
:10F480000196883C9105C1F78091C00087FFEFCFBE
:10F4900014BA6BC08FEF809301010FC080910201FD
:10F4A00080958093020180E090E0E0EDF7E03197F5
:10F4B000F1F70196883C9105C1F78091C00087FF64
:10F4C000EDCF1092020151C08FEF809304010FC065
:10F4D0008091050180958093050180E090E0E0ED4A
:10F4E000F7E03197F1F70196883C9105C1F78091DB
:10F4F000C00087FFEDCF1092050137C08FEF8093DA
:10F5000007010FC08091080180958093080180E079
:10F5100090E0E0EDF7E03197F1F70196883C910536
:10F52000C1F78091C00087FFEDCF109208011DC088
:10F530008FEF80930A010FC080910B01809580931B
:10F540000B0180E090E0E0EDF7E03197F1F70196F4
:10F55000883C9105C1F78091C00087FFEDCF1092E4
:10F560000B0103C085E292EEEEC98091C00087FFD7
:10F57000FCCF8091C600EAC988E392EEE4C98CE131
:10F5800091EEE1C988249924933011F1943028F444
:10F59000913089F09230B8F408C0953061F195301F
:10F5A000F0F0963009F048C043C02B3109F042C951
:10F5B00091E06BE13FC96227C15DDE4F2883CF52E6
:10F5C000D14092E037C9B22FA0E0622793E032C960
:10F5D000822F90E0A82BB92B622794E02BC92E3004
:10F5E00009F039C3622795E0C05DDE4F19821882A9
:10F5F000C053D1401FC9E1E0F0E0EC0FFD1FC05D3A
:10F60000DE4F08811981C053D140E00FF11F2083E4
:10F610000F5F1F4FC05DDE4F19830883C053D14079
:10F6200062270A171B0709F005C9D80196E002C92D
:10F63000261709F010C303C0973009F0FBC87724E0
:10F640009981933109F412C19431C8F4963009F4C8
:10F65000D8C0973050F4923009F406C1933009F4C1
:10F660006DC0913009F059C253C0913109F477C08F
:10F67000923108F0BBC0903109F04FC2F5C098310B
:10F6800009F487C0993150F4953109F4EFC09531F0
:10F6900008F4C6C1963109F040C2C2C19A3109F4DA
:10F6A0006CC09A3108F491C09B3109F45BC09D3164
:10F6B00009F033C29D81903359F48F81882311F46E
:10F6C0009EE11CC0813011F091E018C098E916C08D
:10F6D000892F807591F0903539F4E0E0F0E089E011
:10F6E0008093570094910AC0983539F4E3E0F0E034
:10F6F00089E080935700949101C090E01A821B82A8
:10F700008D818C831D829E831F8227E030E009C299
:10F710001A8288E08B8381E48C8386E58D8382E581
:10F720008E8389E48F8383E5888780E589878FE5E9
:10F730008A8782E38B872BE030E0F3C18A818139AD
:10F7400041F0823941F0803911F48FE005C080E04A
:10F7500003C082E001C08AE01A828B8344C0772410
:10F76000739482C08D81882311F48EE12CC0813086
:10F7700011F081E028C088E926C01A82E1E0F0E0BB
:10F7800089E08093570084918B831C8224E030E0D1
:10F79000C8C18B81803589F48C81883039F4E2E0EE
:10F7A000F0E089E08093570084910DC0E0E0F0E044
:10F7B00089E080935700849106C0E3E0F0E089E09F
:10F7C0008093570084911A82DFCF8D81836C99E0FA
:10F7D000E1E0F0E0082E90935700E89507B600FCB2
:10F7E000FDCF1A821B8223E030E09BC180EC8A832C
:10F7F000CE5CDE4F188219821A821B82C253D1401E
:10F800008EC18A8190E0A0E0B0E0582F44273327D2
:10F8100022278B8190E0A0E0B0E0DC0199278827C7
:10F82000282B392B4A2B5B2B8D8190E0A0E0B0E098
:10F83000282B392B4A2B5B2B8C8190E0A0E0B0E089
:10F84000BA2FA92F982F8827282B392B4A2B5B2BCF
:10F85000220F331F441F551FC05EDE4F288339839C
:10F860004A835B83C052D1401A8259C13A81C95C34
:10F87000DE4F3883C753D140CA5CDE4F1882C6536F
:10F88000D1408B81C82EDD24CA5CDE4F488159816E
:10F89000C653D140C42AD52A933109F082C0CE5C28
:10F8A000DE4F88819981AA81BB81C253D1408050AB
:10F8B000904CA340B04030F583E0CE5CDE4FE88052
:10F8C000F9800A811B81C253D140F70100935B008C
:10F8D00080935700E89507B600FCFDCFCE5CDE4F65
:10F8E000088119812A813B81C253D14000501F4FAA
:10F8F0002F4F3F4FCE5CDE4F088319832A833B8313
:10F90000C253D140C05EDE4F488159816A817B81FC
:10F91000C052D140DE011B9631E08C9111962C91A2
:10F9200011971296C75CDE4F2883C953D140C85C3B
:10F93000DE4F1882C853D14090E0C85CDE4FE881AA
:10F94000F981C853D1408E2B9F2B0C01FA01609393
:10F950005B0030935700E89511244E5F5F4F6F4F67
:10F960007F4F0EEFE02E0FEFF02ECE0CDF1CC114F8
:10F97000D10499F685E0C05EDE4F088119812A81A5
:10F980003B81C052D140F80120935B008093570027
:10F99000E89507B600FCFDCF81E180935700E8951C
:10F9A00035C0C05EDE4F88819981AA81BB81C0527B
:10F9B000D140B695A795979587957C018601ABE0D8
:10F9C000AA2EB12CAC0EBD1E0BC0D5016D915D01F0
:10F9D000C7010F947FFE0894E11CF11C01501040F8
:10F9E0000115110591F7A60160E070E0440F551F65
:10F9F000661F771FC05EDE4FE880F9800A811B8199
:10FA0000C052D1404E0D5F1D601F711F1A82C05E33
:10FA1000DE4F488359836A837B83C052D1407FC0C5
:10FA2000FA80C55CDE4FF882CB53D140C65CDE4F16
:10FA30001882CA53D1408B81C82EDD24C65CDE4FAC
:10FA400008811981CA53D140C02AD12A1A828981DA
:10FA5000BE016D5F7F4F843121F59601C05EDE4FA0
:10FA6000E880F9800A811B81C052D1400BBFF701A9
:10FA700087919691DB018C9311969C936E5F7F4FDB
:10FA8000D801C7010296A11DB11DC05EDE4F88835B
:10FA90009983AA83BB83C052D14022503040F1F6F3
:10FAA00036C0C05EDE4F288139814A815B81C052F9
:10FAB000D1400894C108D108760100E010E0089414
:10FAC000C11CD11C0894E11CF11C011D111DE20E8A
:10FAD000F31E041F151F21BDBB27A52F942F832FB5
:10FAE00082BD2F5F3F4F4F4F5F4FF89A80B5DB01CC
:10FAF0008D93BD012E153F054007510761F7C05E8C
:10FB0000DE4F288339834A835B83C052D1409601FC
:10FB10002D5F3F4FFB01108204C080EC8A8322E0FE
:10FB200030E08BE18093C6008091C00086FFFCCF5F
:10FB30008091C00080648093C000C15DDE4FF88179
:10FB4000CF52D140F093C6008091C00086FFFCCF19
:10FB50008091C00080648093C000432F3093C60022
:10FB60008091C00086FFFCCF8091C00080648093AC
:10FB7000C000922F2093C6008091C00086FFFCCF6A
:10FB80008091C00080648093C0008EE08093C600A6
:10FB90008091C00086FFFCCF8091C000806480937C
:10FBA000C00065E1C15DDE4FE880CF52D1406E25D7
:10FBB00069276427FE01319610C090819093C6009A
:10FBC0008091C00086FFFCCF31968091C000806498
:10FBD0008093C0006927215030402115310569F715
:10FBE0006093C6008091C00086FFFCCF8091C0006A
:10FBF00080648093C00085B1805885B9772081F4F6
:10FC0000C15DDE4F0881CF52D1400F5FC15DDE4F35
:10FC10000883CF52D14090E0A0E0B0E00D941AF4F8
:10FC200027982F9880E090E020ED37E0F901319798
:10FC3000F1F7019684369105C9F700008091C00064
:10FC40008D7F8093C00081E180935700E895EE2777
:10FC5000FF270994FFCF90E00D941AF497FB092E2B
:10FC600007260AD077FD04D02ED006D000201AF443
:10FC7000709561957F4F0895F6F7909581959F4F08
:10FC80000895A1E21A2EAA1BBB1BFD010DC0AA1FDD
:10FC9000BB1FEE1FFF1FA217B307E407F50720F0F5
:10FCA000A21BB30BE40BF50B661F771F881F991F70
:10FCB0001A9469F760957095809590959B01AC01B9
:10FCC000BD01CF010895AA1BBB1B51E107C0AA1FAC
:10FCD000BB1FA617B70710F0A61BB70B881F991FED
:10FCE0005A95A9F780959095BC01CD010895F99991
:10FCF000FECF92BD81BDF89A992780B50895262F31
:10FD0000F999FECF1FBA92BD81BD20BD0FB6F89400
:0EFD1000FA9AF99A0FBE01960895F894FFCF63
:040000033000E000E9
:00000001FF