:100000005AC100000C94170A0C94EC090C94C10915
:100010000C9496090C946B090C9440090C941509E6
:100020000C94EA0879C1000077C1000075C1000096
:1000300073C1000071C100006FC100006DC10000FC
:100040006BC1000069C1000067C1000065C100000C
:1000500063C1000061C100005FC100000C94A008F2
:100060005BC1000059C1000057C1000055C100002C
:1000700053C1000051C100004FC100004DC100003C
:100080004BC1000049C1000047C1000045C100004C
:1000900043C1000041C100003FC100000C94250C89
:1000A0003BC1000039C1000037C1000035C100006C
:1000B00033C1000031C100002FC100002DC100007C
:1000C0002BC1000029C1000027C1000025C100008C
:1000D00023C1000021C100001FC100001DC100009C
:1000E0001BC10000EC06EF06DE06E206E606260768
:1000F000F306F706FD06010705070B070F071307B1
:10010000260719071D0721079D07A207A707B107A3
:10011000BB073408C507CD07D507DF07E907F30795
:1001200002080C083408160820082A08076342361B
:10013000B79BD8A71A39685618AEBAAB558C1D3C78
:10014000B7CC5763BD6DEDFD753EF6177231BF003C
:100150000000803F08000000BE922449123EABAA76
:10016000AA2ABECDCCCC4C3E00000080BEABAAAAD1
:10017000AA3E00000000BF000000803F0000000019
:1001800000084178D3BB4387D1133D190E3CC3BD52
:100190004282AD2B3E68EC8276BED98FE1A93E4CFF
:1001A00080EFFFBE01C4FF7F3F00000000000000A1
:1001B0002100240027002A002D0030003300010117
:1001C0000000040107010A010000220025002800A8
:1001D0002B002E003100340002010000050108014F
:1001E0000B010505050507050808080802020202BB
:1001F0000A0A0808040404040101010101010101C3
:100200000303030303030303040707070C0C0C0C8D
:100210000C0C0C0C02020202060606060606060676
:100220000B0B0B0B0B0B0B0B010210202008081003
:100230002040102040800201020108040201010256
:10024000040810204080804020100804020180042F
:10025000020180402010080402010804020101028A
:100260000408102040800102040810204080000093
:100270000A0B02090C0D0E08070304010000000020
:10028000000000000000000000000000000000006E
:10029000000000000000000000001211100000002B
:1002A000000000000000000000000000000000004E
:1002B00000000000BD1611241FBECFEFD1E2DEBF4B
:1002C000CDBF00E00CBF14E0A0E0B2E0E2E7F6E34F
:1002D00000E00BBF02C007900D92AE37B107D9F70F
:1002E00026E0AEE7B4E001C01D92A83EB207E1F7F8
:1002F00011E0CBE5D1E000E006C021970109802F95
:10030000FE010E94171BCA35D10780E00807A9F734
:100310000E94BA100C94371B73CE0895E0914005EB
:1003200080913F05E81730F4F0E0EF5BFA4F8081F1
:1003300090E008958FEF9FEF089590914005809190
:100340003F05981750F4E92FF0E0EF5BFA4F20815A
:1003500030E09F5F9093400502C02FEF3FEFC9014F
:10036000089580913F0590E020914005821B9109FE
:100370000895089580E090E008951092BA040895D9
:10038000FF920F931F93CF93DF931F92CDB7DEB7EA
:100390008C01F62E60E0FC0182814983EED4F801E5
:1003A000908181819CBD8DBD8F2D8F7180688EBDA8
:1003B000000049810DB407FEFDCF8EB54EBD000093
:1003C0000DB407FEFDCF8EB561E0F8018281D5D472
:1003D00087E090E00197F1F70F90DF91CF911F91A7
:1003E0000F91FF900895CF92DF92EF92FF920F93BB
:1003F0001F93CF93DF937C01262F972F8A01809143
:100400008805882391F0C62FD72F6E01C40ED51E04
:10041000CC15DD0571F06991D701ED91FC9101904A
:10042000F081E02DC7011995F3CF642F822F0E9430
:10043000560DC801DF91CF911F910F91FF90EF9062
:10044000DF90CF900895CF93DF931F92CDB7DEB7A3
:100450006983209188052223D1F02091AA052032BA
:1004600040F021E030E0FC013383228380E090E023
:1004700015C080918905E82FF0E0E657FA4F998181
:1004800090838F5F809389058093AA0505C061E002
:10049000CE0101960E94560D81E090E00F90DF9111
:1004A000CF9108951092870581E080938605109280
:1004B000610561E084E161D461E085E15ED4E9EB4E
:1004C000F0E080818E7F808380818D7F808388E4CF
:1004D0008093B80085E48093BC000895CF93DF93A8
:1004E000EC01BC0183E002D5BE0186E0DF91CF9133
:1004F000FDC4FC01418161E0059642CFCF93DF93BB
:10050000EC016031F9F070F4623001F128F46130EF
:1005100039F520E093E026C06430B1F0683001F591
:1005200022E01FC0683CC9F038F4603499F06038AC
:10053000B9F420E091E016C0693C51F06A3C81F4C6
:1005400026E00FC021E00DC023E00BC024E009C06D
:1005500025E007C020E092E005C020E094E002C062
:1005600020E090E080E2289F9001112489818F7122
:10057000282B29838C81887F982B9C83CE01B9DF1F
:100580004C8169E0CE010596DF91CF91F9CECF93F2
:10059000DF93EB01833019F0863081F01DC080912C
:1005A00014029091150268177907B1F08FEB95E06E
:1005B000A5DFD0931502C09314020EC080911202E1
:1005C000909113026817790739F087EB95E096DF71
:1005D000D0931302C0931202DF91CF9108958AEF56
:1005E00090E07CDF60E170E083E0D1DF61E082E0F9
:1005F000C4D361E070E080E090E05ED560E170E03F
:1006000086E0C5DF61E085E0B8D361E070E080E0BE
:1006100090E052C58AEF90E061DF60E270E083E035
:10062000B6DF60E082E0A9D361E070E080E090E0B6
:1006300043D560E270E086E0AADF61E085E09DD30B
:1006400061E070E080E090E037C58AEF90E046DF3F
:1006500064E070E083E09BDF60E082E08ED361E0E5
:1006600070E080E090E028D568E070E086E08FDF01
:1006700061E085E082D361E070E080E090E01CC53D
:100680008AEF90E02BDF68E070E083E080DF60E0DD
:1006900082E073D361E070E080E090E00DD564E02B
:1006A00070E086E074DF61E085E067D361E070E0D0
:1006B00080E090E001C50F931F93CF93DF93EC018F
:1006C0008C010B5F1F4F4B8163E0C80159DE4881ED
:1006D00060E0C80155DECE010CDF4A8162E0C8014E
:1006E0004FDE4C8169E0C801DF91CF911F910F91DE
:1006F00047CEEF92FF920F931F93CF93DF93009714
:1007000021F0019709F44EC0F6C0C091EA04D091DF
:10071000EB048E01000F111FF801EA55FB4FE0902A
:10072000EC04F090ED0420813181E21AF30A88E3B1
:10073000A4D4BC01990F880B990B0E9484182BE05C
:1007400038E240EA5BE30E9438192BEC31EA45E8D5
:100750005FEB0E949B1926E638E847E850E40E94C8
:1007600038190E9451186031710510F060E070E096
:10077000F801EA55FB4F71836083C701860F971F0D
:100780009093ED048093EC042196CA30D1052CF4AB
:10079000D093EB04C093EA04A6C01092EB0410922D
:1007A000EA04A1C06115710529F06130710509F4F1
:1007B0004EC0A1C0C091E404D091E5048E01000FA9
:1007C000111FF801EE56FB4FE090E604F090E704AD
:1007D00020813181E21AF30A87E34FD4BC01990FDB
:1007E000880B990B0E9484182BE038E240EA5BE307
:1007F0000E9438192EE432E640EB5FEB0E949B1911
:1008000029E134E84BE552E40E9438190E9451185E
:100810006739710510F060E070E0F801EE56FB4FAB
:1008200071836083C701860F971F9093E7048093BD
:10083000E6042196CA30D1052CF4D093E504C09388
:10084000E40451C01092E5041092E4044CC0C0913D
:10085000E004D091E1048E01000F111FF801E2586D
:10086000FB4FE090E204F090E30420813181E21A32
:10087000F30A86E302D4BC01990F880B990B0E94FE
:1008800084182BE038E240EA5BE30E9438192EE43A
:1008900032E640EB5FEB0E949B1929E134E84BE51F
:1008A00052E40E9438190E9451186739710510F0FE
:1008B00060E070E0F801E258FB4F71836083C7018C
:1008C000860F971F9093E3048093E2042196CA3029
:1008D000D1052CF4D093E104C093E00404C010923D
:1008E000E1041092E0046AE070E00E94041B70933F
:1008F000E9046093E8048091E8049091E904DF91B1
:10090000CF911F910F91FF90EF9008950F931F9338
:10091000CF93DF93CDB7DEB728970FB6F894DEBF3D
:100920000FBECDBF60E170E089E090E00E94FC0D59
:1009300090913F05809140059817A9F00091DF0440
:1009400010E08BEA95E0F9DCF801E153FB4F80837E
:100950008091DF048F3020F48F5F8093DF04E8CF35
:100960001092DF04E5CF91E08091CF048B3A08F03C
:1009700090E081E02091D1042B3A08F080E071E012
:100980002091D3042B3A08F070E061E02091D50467
:100990002B3A08F060E051E02091D7042B3A08F0A0
:1009A00050E041E02091D9042B3A08F040E031E0DA
:1009B0002091DB042B3A08F030E021E0E091DD04E7
:1009C000EB3A08F020E028960FB6F894DEBF0FBE91
:1009D000CDBFDF91CF911F910F9108950F931F937A
:1009E000CF93DF938C01EB0162E08CEC96E00E94E8
:1009F000D90E62E08CEC96E091D6EBE3FFE1319703
:100A0000F1F78CEC96E0B9D660E080E00E944B0FE5
:100A1000C8010E943A0F61E080E00E944B0FCE01B6
:100A2000DF91CF911F910F910C943A0FCF92DF92EB
:100A3000EF92FF920F931F93CF93DF938C016A0184
:100A40007B01E90162E08CEC96E00E94D90E8CEC0F
:100A500096E093D660E080E00E944B0FC8010E94B0
:100A60003A0F60E08AE00E944B0F42E0C701B601F6
:100A70000E94E30F61E080E00E944B0FCE01DF9106
:100A8000CF911F910F91FF90EF90DF90CF900C943A
:100A90003A0F4F925F926F927F928F929F92AF9296
:100AA000BF92EF92FF920F931F93CF93DF93EC01CE
:100AB0002A013B014801590162E08CEC96E00E945A
:100AC000D90E8CEC96E059D660E080E00E944B0F86
:100AD000CE010E943A0F60E08AE00E944B0F42E094
:100AE000C301B2010E94E30F60E08EE00E944B0F51
:100AF00042E0C501B4010E94E30F61E080E00E9482
:100B00004B0FC701DF91CF911F910F91FF90EF9095
:100B1000BF90AF909F908F907F906F905F904F901D
:100B20000C943A0FCF93DF93CDB7DEB728970FB66B
:100B3000F894DEBF0FBECDBFE9DE211111C0311127
:100B400012C0711113C0611111C051110FC04111B8
:100B50000DC081110EC091110FC085E090E00EC054
:100B600080E090E00BC081E090E008C082E090E07F
:100B700005C083E090E002C084E090E028960FB6C4
:100B8000F894DEBF0FBECDBFDF91CF9108950F93D4
:100B90001F934F97B4F58091CE04811109C0C4D240
:100BA0006093CA047093CB048093CC049093CD04DB
:100BB000BBD20091CA041091CB042091CC04309197
:100BC000CD04DC01CB01801B910BA20BB30B85364E
:100BD0009105A105B10560F4A5DF8630910558F4B3
:100BE000880F991FFC01EA5EFD4F8081918105C04D
:100BF00080E194E002C080E090E021E02093CE0408
:100C00004BC06F317105B4F58091C904811109C0E1
:100C10008BD26093C5047093C6048093C7049093ED
:100C2000C80482D20091C5041091C6042091C70463
:100C30003091C804DC01CB01801B910BA20BB30BDC
:100C400085369105A105B10560F46CDF863091050C
:100C500058F4880F991FFC01EA5EFD4F8081918155
:100C600005C08AE194E002C080E090E021E020939A
:100C7000C90412C057DF8630910540F4880F991FD0
:100C8000FC01EA5EFD4F8081918102C080E090E02E
:100C90001092CE041092C9041F910F910895CF9322
:100CA000DF93CDB7DEB728970FB6F894DEBF0FBE3F
:100CB000CDBF2CDE9887772331F0662321F05523B2
:100CC00011F0411114C09885911114C0811112C006
:100CD000711110C0411111C031110FC021110DC08F
:100CE00061110EC051110CC083E090E00BC084E094
:100CF00090E008C082E090E005C080E090E002C093
:100D000081E090E028960FB6F894DEBF0FBECDBF0D
:100D1000DF91CF9108953FB7F89480913B05909172
:100D20003C05A0913D05B0913E0526B5A89B05C0A8
:100D30002F3F19F00196A11DB11D3FBFBA2FA92F5A
:100D4000982F8827820F911DA11DB11DBC01CD01D7
:100D500042E0660F771F881F991F4A95D1F70895C3
:100D6000089585ED8093BC008091BC0084FDFCCF8C
:100D70001092870508950E94331B362F90E0FC01E6
:100D8000E259FD4F4491FC01E85DFD4F2491FC01C7
:100D9000EE51FE4F9491992309F46BC0442309F45A
:100DA00055C050E0FA013197E231F10508F04EC02C
:100DB0008827EE58FF4F8F4F0C94171B80918000AF
:100DC0008F7707C0809180008F7D03C08091800065
:100DD000877F809380003AC084B58F7702C084B546
:100DE0008F7D84BD33C08091B0008F7703C0809128
:100DF000B0008F7D8093B00029C0809190008F77E4
:100E000007C0809190008F7D03C080919000877F04
:100E1000809390001BC08091A0008F7707C08091C5
:100E2000A0008F7D03C08091A000877F8093A000E9
:100E30000DC0809120018F7707C0809120018F7DA8
:100E400003C080912001877F80932001E92FF0E08B
:100E5000EE0FFF1FE853FE4FA591B4918FB7F894A2
:100E6000EC91311103C020952E2301C02E2B2C9321
:100E70008FBF0895CF93DF9390E0FC01E85DFD4FB5
:100E80002491FC01EE51FE4F8491882361F190E0A2
:100E9000880F991FFC01E255FE4FC591D491FC01CA
:100EA000E853FE4FA591B491611109C09FB7F89422
:100EB0008881209582238883EC912E230BC0623099
:100EC00061F49FB7F8943881822F809583238883BB
:100ED000EC912E2B2C939FBF06C08FB7F894E8811E
:100EE0002E2B28838FBFDF91CF9108951F93CF932F
:100EF000DF93182FEB0161E0BDDF209711F460E074
:100F000004C0CF3FD10531F461E0812FDF91CF9153
:100F10001F9133CFE12FF0E0E259FD4FE4914E2FC6
:100F200050E0FA013197E231F10508F09DC08827C1
:100F3000EC57FF4F8F4F0C94171B84B5806884BD0E
:100F4000C7BD97C084B5806284BDC8BD92C0809182
:100F50008000806880938000D0938900C0938800CF
:100F600088C080918000806280938000D0938B0045
:100F7000C0938A007EC0809180008860809380004A
:100F8000D0938D00C0938C0074C08091B0008068B5
:100F90008093B000C093B3006CC08091B0008062B9
:100FA0008093B000C093B40064C0809190008068CA
:100FB00080939000D0939900C09398005AC080917C
:100FC0009000806280939000D0939B00C0939A0021
:100FD00050C080919000886080939000D0939D00D5
:100FE000C0939C0046C08091A00080688093A000C0
:100FF0008091A0008F7B8093A000D093A900C09324
:10100000A80037C08091A00080628093A000D09398
:10101000AB00C093AA002DC08091A000886080938F
:10102000A000D093AD00C093AC0023C080912001FC
:10103000806880932001D0932901C093280119C0B2
:1010400080912001806280932001D0932B01C09376
:101050002A010FC080912001886080932001D093E5
:101060002D01C0932C0105C0C038D1050CF04CCF28
:1010700046CFDF91CF911F910895863308F08653B4
:1010800090917B00282F2870977F922B90937B0064
:101090008770806480937C0080917A008064809364
:1010A0007A0080917A0086FDFCCF809178002091B3
:1010B000790090E0922B08958F929F92AF92BF9209
:1010C000CF92DF92EF92FF926B017C0124DE4B0105
:1010D0005C01C114D104E104F104E9F01CDEDC017F
:1010E000CB0188199909AA09BB09883E9340A1053B
:1010F000B10578F321E0C21AD108E108F10888EEC1
:10110000880E83E0981EA11CB11CC114D104E10417
:10111000F10421F7DECFFF90EF90DF90CF90BF90EA
:10112000AF909F908F9008952FB7F89460913705F6
:10113000709138058091390590913A052FBF089537
:101140001F920F920FB60F9211242F933F938F93FC
:101150009F93AF93BF938091370590913805A091ED
:101160003905B0913A053091360523E0230F2D372C
:1011700020F40196A11DB11D05C026E8230F02969B
:10118000A11DB11D20933605809337059093380536
:10119000A0933905B0933A0580913B0590913C05A9
:1011A000A0913D05B0913E050196A11DB11D809312
:1011B0003B0590933C05A0933D05B0933E05BF9140
:1011C000AF919F918F913F912F910F900FBE0F90F4
:1011D0001F9018951F920F920FB60F9211240BB605
:1011E0000F922F933F934F935F936F937F938F93C0
:1011F0009F93AF93BF93EF93FF93E0910E02F09113
:101200000F021995FF91EF91BF91AF919F918F912F
:101210007F916F915F914F913F912F910F900BBEF6
:101220000F900FBE0F901F9018951F920F920FB640
:101230000F9211240BB60F922F933F934F935F930E
:101240006F937F938F939F93AF93BF93EF93FF938E
:10125000E0910C02F0910D021995FF91EF91BF9171
:10126000AF919F918F917F916F915F914F913F913E
:101270002F910F900BBE0F900FBE0F901F901895DF
:101280001F920F920FB60F9211240BB60F922F934D
:101290003F934F935F936F937F938F939F93AF93FE
:1012A000BF93EF93FF93E0910202F091030219952F
:1012B000FF91EF91BF91AF919F918F917F916F912E
:1012C0005F914F913F912F910F900BBE0F900FBEEA
:1012D0000F901F9018951F920F920FB60F92112426
:1012E0000BB60F922F933F934F935F936F937F9320
:1012F0008F939F93AF93BF93EF93FF93E09100027F
:10130000F09101021995FF91EF91BF91AF919F91DB
:101310008F917F916F915F914F913F912F910F909E
:101320000BBE0F900FBE0F901F9018951F920F923B
:101330000FB60F9211240BB60F922F933F934F933A
:101340005F936F937F938F939F93AF93BF93EF932D
:10135000FF93E0910A02F0910B021995FF91EF9132
:10136000BF91AF919F918F917F916F915F914F91BD
:101370003F912F910F900BBE0F900FBE0F901F90BB
:1013800018951F920F920FB60F9211240BB60F9261
:101390002F933F934F935F936F937F938F939F937D
:1013A000AF93BF93EF93FF93E0910802F09109028E
:1013B0001995FF91EF91BF91AF919F918F917F917F
:1013C0006F915F914F913F912F910F900BBE0F90B6
:1013D0000FBE0F901F9018951F920F920FB60F928D
:1013E00011240BB60F922F933F934F935F936F93FC
:1013F0007F938F939F93AF93BF93EF93FF93E0916E
:101400000602F09107021995FF91EF91BF91AF91FC
:101410009F918F917F916F915F914F913F912F910C
:101420000F900BBE0F900FBE0F901F9018951F923C
:101430000F920FB60F9211240BB60F922F933F937A
:101440004F935F936F937F938F939F93AF93BF93CC
:10145000EF93FF93E0910402F09105021995FF913B
:10146000EF91BF91AF919F918F917F916F915F911C
:101470004F913F912F910F900BBE0F900FBE0F9089
:101480001F9018959CB5282F23709C7F922B9CBD94
:101490002DB582FB992790F9822F8E7F892B8DBDE8
:1014A0000895CF93DF93EC018A89ECDF8C89811159
:1014B00003C08CB5806202C08CB58F7D8CBD8CB5AD
:1014C000837F9B89892B8CBD60E0898956DC8F8561
:1014D0008EBD00000DB407FEFDCF8EB561E0898999
:1014E000DF91CF914ACCCF92DF92EF92FF92CF93D0
:1014F000DF93EC01888981110CC060E08E813DDCB6
:1015000061E08E813ADC60E08E8137DC8BE891E02F
:1015100033C0C12CD12C7601C394D701C6010E80F3
:1015200004C0880F991FAA1FBB1F0A94D2F7809589
:101530009F8589238F87CE01B4DFD701C6010E8036
:1015400004C0880F991FAA1FBB1F0A94D2F72F85CA
:10155000822B8F87CE01A5DF0E8004C0CC0CDD1C52
:10156000EE1CFF1C0A94D2F7C0948F85C822CF8648
:10157000CE0197DF8BE990E00197F1F7DF91CF91F2
:10158000FF90EF90DF90CF9008958F929F92AF924F
:10159000BF92CF92DF92EF92FF920F931F93CF9360
:1015A000DF93EC018889062F10E081111FC05E01D6
:1015B00087E0A80EB11CE12CF12C650161E0F5017A
:1015C00081915F0157DCB8010E2C02C075956795BB
:1015D0000A94E2F76170F6018081CFDBFFEFEF1A2A
:1015E000FF0A84E0E816F10441F732C084E090E09D
:1015F000812C912C540183949C0124503109A80121
:1016000002C0559547952A95E2F72F8540FF0DC0FA
:1016100075016401082E04C0CC0CDD1CEE1CFF1CFF
:101620000A94D2F7C22ACF860DC0B501A401082EB4
:1016300004C0440F551F661F771F0A94D2F74095C8
:1016400042234F87019688309105B1F6CE0129DFFC
:10165000CE01DF91CF911F910F91FF90EF90DF901E
:10166000CF90BF90AF909F908F903DCFAF92BF92A1
:10167000CF92DF92EF92FF920F931F93CF93DF935E
:10168000EC01F62E642F8C8178DB8D818F3F11F079
:1016900060E073DB8D890F2D10E084FF2AC05E01AE
:1016A00087E0A80EB11CE12CF12C650161E0F50189
:1016B00081915F01DFDBB8010E2C02C07595679543
:1016C0000A94E2F76170F601808157DBFFEFEF1AB1
:1016D000FF0A88E0E816F10441F7CE01DF91CF91CF
:1016E0001F910F91FF90EF90DF90CF90BF90AF9040
:1016F000FACEB80184E0759567958A95E1F7CE0139
:1017000044DF6F2DCE01DF91CF911F910F91FF909C
:10171000EF90DF90CF90BF90AF9037CF1F93CF93D4
:10172000DF93FC012089211105C040E0DF91CF91BA
:101730001F919CCF162FEC0181E090E0A0E0B0E07B
:10174000048004C0880F991FAA1FBB1F0A94D2F7F8
:101750008095978589238787CF01A3DE612F70E06D
:1017600084E0759567958A95E1F7CE010EDF612FCC
:10177000CE01DF91CF911F9108CF61E0CFDF8BE3E6
:101780009FE10197F1F708951F93CF93DF93EC0149
:10179000162F8889811104C041E0CE0167DF1DC08A
:1017A00081E090E0A0E0B0E00C8004C0880F991FB9
:1017B000AA1FBB1F0A94D2F72F85822B8F87CE01D9
:1017C00070DE612F70E084E0759567958A95E1F78A
:1017D000CE01DBDE612FCE01D8DE81E090E0DF912B
:1017E000CF911F910895CF93CFB7F894809135058D
:1017F000811123C0E7E1F2E08491EDE5F2E09491FC
:10180000E82FF0E0EE0FFF1FE255FE4FA591B491D7
:10181000EC91E92319F461E085E3AFDA61E085E357
:1018200029DB8CB580618CBD8CB580648CBD61E09A
:1018300084E320DB61E083E31DDB809135058F5F6E
:1018400080933505CFBFCF9108951F920F920FB6A9
:101850000F9211240BB60F922F933F934F935F93E8
:101860006F937F938F939F93AF93BF93EF93FF9368
:101870008091B900887F803609F49CC068F5883271
:1018800009F45BC090F4803109F454C038F4882323
:1018900009F4F6C0883009F44DC0F5C0883109F468
:1018A0004CC0803209F45DC0EEC0803409F468C0D9
:1018B00048F4803309F455C0883309F0E4C08093BC
:1018C0008505D8C0803509F44FC0883509F45DC05E
:1018D000883409F0D8C0D6C0883909F4C7C0A8F444
:1018E000883709F467C038F4883609F463C0803754
:1018F00009F460C0C8C0883809F4B8C0803909F458
:101900005FC0803809F0BFC05BC0803B09F486C06F
:1019100038F4803A09F466C0883A09F47FC0B3C04D
:10192000803C09F4A7C0883C09F4A4C0883B09F4B2
:101930008AC0A9C08091620510C0909184058091F1
:101940008305981770F5E091840581E08E0F8093F0
:101950008405F0E0ED59FA4F80818093BB0085EC5F
:1019600086C0809385058EC0E091840581E08E0F4E
:10197000809384058091BB00F0E0ED59FA4F80839D
:1019800090918405809183056EC0E091840581E08B
:101990008E0F809384058091BB00F0E0ED59FA4FE3
:1019A00080838091860581116DC081E080936105FF
:1019B00084EA61C083E08093870510923405CFCF1D
:1019C00080913405803208F051C0E091340581E007
:1019D0008E0F809334058091BB00F0E0EC5EFA4FEF
:1019E0008083BDCF85EC8093BC00109287058091E9
:1019F0003405803230F4E0913405F0E0EC5EFA4FCB
:101A000010826091340570E0E0911205F0911305A9
:101A100084E195E019951092340535C084E08093F7
:101A200087051092110510921005E0910E05F091B6
:101A30000F05199580911005811105C081E08093F3
:101A400010051092EE04E091110581E08E0F809355
:101A50001105F0E0E251FB4F80818093BB00909133
:101A6000110580911005981708F479CF85E88093C7
:101A7000BC0009C085EC8093BC001092870503C0B0
:101A8000109285056ED9FF91EF91BF91AF919F9113
:101A90008F917F916F915F914F913F912F910F9017
:101AA0000BBE0F900FBE0F901F9018954091100520
:101AB000262F30E0240F311D21323105DCF4209136
:101AC00087052430C9F4FC0180E090E0861758F4C3
:101AD000309110052191DC01A251BB4FA30FB11D24
:101AE0002C930196F3CF80911005680F6093100539
:101AF00080E0089581E0089582E00895382F2091D4
:101B0000AA059091E706213208F049C08091870527
:101B10008111FCCF42E040938705309386053FEF6B
:101B2000309385051092840520938305AAE8B5E0DB
:101B300043E655E0FA013E2F341B321718F43D916D
:101B40003193F9CF1092620520916205990F922B83
:101B50009093620590916105913061F41092610556
:101B6000909162059093BB009091BC0093FDF8CFDB
:101B700095EC01C095EE9093BC0090918705923052
:101B8000E1F3909185059F3F79F080918505803242
:101B900041F080918505803331F084E005C081E01B
:101BA00003C082E001C083E0109289051092AA056B
:101BB000109288050895CF93DF931F92CDB7DEB7BB
:101BC00091E09093880599E29093E7061092890539
:101BD0001092AA05682F60688BEA95E049830E94FD
:101BE00023024981642F8BEA95E00E94230281E061
:101BF0000F90DF91CF9182CF909187059111FCCF0B
:101C0000613208F060E291E0909387059093860539
:101C10002FEF2093850510928405260F20938305CE
:101C20009093620590916205880F892B80936205DD
:101C300080916105813061F41092610580916205A7
:101C40008093BB008091BC0083FDF8CF85EC01C080
:101C500085EE8093BC00809187058130E1F380910F
:101C60008405861710F460918405A3E6B5E021E4AD
:101C700035E0F9018E2F821B861718F48D91819320
:101C8000F9CF1092400560933F05862F08950F937A
:101C90001F93CF93DF931092400510923F0510924F
:101CA00089051092AA050E94520281E0809388055E
:101CB00089E28093E70662E98BEA95E00E942302BD
:101CC00081E01CDF61E070E089E290E095DF8BEA63
:101CD00095E00E949D01843419F0803109F05BC0C9
:101CE00081E08093C706C091CA06D091CB06AE01B1
:101CF00060E070E060DFD093CB06C093CA06C0916D
:101D0000C806D091C9068091C706811101C0BFDF06
:101D1000AE0160E070E08FE04EDFD093C906C09363
:101D2000C80641E050E060E070E080E044DF63E03E
:101D300070E080E090E0C0D943E050E060E070E007
:101D400080E039DF07EC15E0C0E0D0E0BE010D2EE9
:101D5000000C880B990B0E94841820E030E04FE7BC
:101D600053E40E94E91720E030E040E250E40E9492
:101D70009B1920E030E04FE753E40E9438190E949D
:101D80005618F80161938F012196C115F1E0DF0724
:101D9000E9F681E001C080E0DF91CF911F910F91C2
:101DA0000895FC019181907E92619183CF010C9402
:101DB00079020F931F93CF93DF93EC01623018F0F9
:101DC0008D8988608D8B698F1A8E8BE39DE00197DA
:101DD000F1F760E08C810E94BD0660E08E810E9478
:101DE000BD068D818F3F19F060E00E94BD066D89B0
:101DF00064FD19C063E0CE01C8DB0BE416E4C80142
:101E00000197F1F763E0CE01C0DBC8010197F1F75C
:101E100063E0CE01BADB83E592E00197F1F762E07F
:101E2000CE01B3DB13C06062CE0178DC8BE496E4B4
:101E30000197F1F76D896062CE0170DC83E592E075
:101E40000197F1F76D896062CE0168DC6D8960628F
:101E5000CE0164DC84E08E8B6CE0CE015FDCCE01D1
:101E60008CDC82E08F8B66E0CE01DF91CF911F91F9
:101E70000F9154CC009761F0FC0101900020E9F72C
:101E80003197AF01481B590BBC018CEC96E031C077
:101E900080E090E00895CF93DF93CDB7DEB7289729
:101EA0000FB6F894DEBF0FBECDBF28E0ECE2F2E043
:101EB000DE01119601900D922A95E1F72091E50639
:101EC000261710F46FEF620FFE013196E60FF11D39
:101ED000E60FF11D9081682F690F60688CEC96E029
:101EE00028960FB6F894DEBF0FBECDBFDF91CF911D
:101EF00015CCCF92DF92EF92FF920F931F93CF9367
:101F0000DF936C017A018B01C0E0D0E0CE15DF05D4
:101F100089F0D8016D918D01D601ED91FC91019070
:101F2000F081E02DC6011995892B11F47E0102C0C4
:101F30002196ECCFC701DF91CF911F910F91FF90B8
:101F4000EF90DF90CF9008958F929F92AF92BF92C3
:101F50000F931F93CF93DF93CDB7DEB7A1970FB643
:101F6000F894DEBF0FBECDBF19A2423008F44AE09C
:101F70008E010F5D1F4F842E912CA12CB12CA50139
:101F800094019CD7E62FB901CA0101501109EA302A
:101F900014F4E05D01C0E95CD801EC93232B242B01
:101FA000252B69F7C80166DFA1960FB6F894DEBF4E
:101FB0000FBECDBFDF91CF911F910F91BF90AF901A
:101FC0009F908F9008954F925F926F927F928F9221
:101FD0009F92AF92BF92CF92DF92EF92FF926B01EE
:101FE0007C01B42E9B01AC010E94E719882319F0F3
:101FF00082E794E026C026013701E89477F82FEFB6
:102000003FEF4FE75FE7C301B2010E94E71981117B
:102010000CC02FEF3FEF4FE75FE7C301B201D5D709
:1020200018161CF486E794E00CC02FEF3FEF4FE743
:102030005FE4C701B6010E94341918167CF48AE7E0
:1020400094E0FF90EF90DF90CF90BF90AF909F9083
:102050008F907F906F905F904F900CCF2FEF3FEF5E
:102060004FE75FECC701B601B0D787FDE8CF20E0AE
:1020700030E0A901C701B601A8D787FF11C0E091E0
:10208000CC06F091CD060190F081E02D6DE28CEC54
:1020900096E019954C01F7FAF094F7F8F09402C025
:1020A000812C912CA12C60E070E080E09FE3AB14C8
:1020B00039F020E030E040E251E48BD7A394F7CF31
:1020C0009B01AC01C701B6011CD72B013C01EED727
:1020D0006B017C010E9482189B01AC01C301B2011B
:1020E0000FD72B013C014AE0C701B6012DDF7C016F
:1020F000E80CF91CBB2069F0E091CC06F091CD060C
:102100000190F081E02D6EE28CEC96E01995E80EDE
:10211000F91EDB2CDD2001F120E030E040E251E44B
:10212000C301B2010E9438192B013C01BFD74B01FA
:10213000A12CB12C4AE0C501B40106DFE80EF91E5E
:10214000C501B401DFD79B01AC01C301B201D8D6F0
:102150002B013C01DA94DECFC701FF90EF90DF90B6
:10216000CF90BF90AF909F908F907F906F905F9037
:102170004F900895CF93DF93CDB7DEB728970FB672
:10218000F894DEBF0FBECDBF789484B5826084BD65
:1021900084B5816084BD85B5826085BD85B581606B
:1021A00085BD80916E00816080936E0010928100E9
:1021B00080918100826080938100809181008160A4
:1021C0008093810080918000816080938000809165
:1021D000B10084608093B1008091B00081608093F1
:1021E000B000809191008260809391008091910075
:1021F0008160809391008091900081608093900035
:102200008091A10082608093A1008091A1008160F3
:102210008093A1008091A00081608093A0008091B4
:10222000210182608093210180912101816080934E
:1022300021018091200181608093200180917A00AA
:10224000846080937A0080917A00826080937A0023
:1022500080917A00816080937A0080917A00806812
:1022600080937A001092C10062E08CEC96E0A1DDD0
:102270001092400510923F05109289051092AA0510
:102280000E945202B0DA84E08093C60561E00E94A9
:10229000BD0661E08091C6050E943A0787E0809301
:1022A000BE0561E00E94BD0661E08091BE050E940E
:1022B0003A0760E083E00E94BD0661E083E00E948F
:1022C0003A0760E082E00E94BD0661E082E00E9481
:1022D0003A0760E086E00E94BD0661E086E00E9469
:1022E0003A0760E085E00E94BD0661E085E00E945B
:1022F0003A0761E070E080E090E00E945C08109294
:10230000C3051092C2051092C1051092C00510922B
:10231000BF058FEB95E00E945B031092BB05109206
:10232000BA051092B9051092B8051092B70587EB5F
:1023300095E00E945B038FEB95E033DD87EB95E042
:1023400030DD68E08FEB95E00E947E0268E087EB6D
:1023500095E00E947E028091C20580688093C2054C
:102360008FEB95E00E945B038091BA0580688093B3
:10237000BA0587EB95E00E945B0389DC60E084E2AC
:102380000E943A0761E085E20E943A0760E085E238
:102390000E94BD06E6EAF4E082E994E04EE754E0EC
:1023A00011921192DC011D921D92CD01DA011D9254
:1023B0001D92AD01B4E0EA3BFB0791F761E086E1D5
:1023C0000E943A0761E087E10E943A0761E088E1F4
:1023D0000E943A0760E082E10E943A0760E083E1F0
:1023E0000E943A072DEB31E030930B0220930A0252
:1023F000809169008F73806480936900EB9A3093B9
:10240000090220930802809169008F7C806180938B
:102410006900EA9A60E086E10E94BD0660E087E11B
:102420000E94BD0660E088E10E94BD0686E5282E78
:1024300084E0382E9AE1892E94E0992E8091100242
:10244000909111028B3024E0920709F476C20CF0CF
:10245000C9C0873FB3E09B0709F4AFC10CF042C08D
:10246000843FA3E09A0709F444C194F5883E23E031
:10247000920709F413C1833F934009F0FDC36BE653
:1024800072E08CE792E00E94EE048AEF90E00E94F6
:102490006E0268E070E083E00E94C70260E082E0C4
:1024A0000E94BD0661E070E080E090E00E945C0860
:1024B00068E070E086E00E94C70261E085E00E946B
:1024C000BD0661E070E080E090E00E945C082CC1F5
:1024D000853FB3E09B0709F415C1863F934009F49B
:1024E00033C1CAC38830A4E09A0709F4AEC10CF026
:1024F00046C08C3F23E0920709F464C187309440C2
:1025000009F0BAC360E070E081E090E00E947903D6
:102510006C0161E070E081E090E00E9479035C0171
:10252000BC01990F880B990BEFD52B013C01B6012B
:102530000D2C000C880B990BE7D5AB01BC01B1E069
:10254000EB2EB3E0FB2E930182018FE093E00E941B
:1025500049058AEF90E00E946E0264E070E083E03B
:102560000E94C70260E082E00E94BD0661E070E068
:1025700080E090E00E945C0860E170E0D0C18930AA
:10258000B4E09B0709F48FC18A30944009F074C30A
:1025900060E070E081E090E00E9479036C0161E00E
:1025A00070E081E090E00E9479035C01BC01990F2A
:1025B000880B990BA9D52B013C01B6010D2C000C01
:1025C000880B990BA1D5AB01BC01E3E4EE2EE3E04F
:1025D000FE2E930182018EE493E00E9449050E9441
:1025E00040035CC18632A4E09A0709F489C244F52D
:1025F000803124E0920709F40EC274F48C30B4E008
:102600009B0709F4C8C18D30944009F035C367E8D1
:1026100073E086E993E0F8C18A31A4E09A0709F4EF
:102620001AC28532944009F027C361ED73E081EE50
:1026300093E00E94EE040E9494086B017C012DC27D
:10264000823424E0920709F4AFC2C4F48E32B4E0BD
:102650009B0709F47AC28833944009F00DC369E1FD
:1026600074E089E294E00E94EE0480E090E00E9431
:102670006E020E9494086B017C017DC28C34A4E040
:102680009A0709F4C8C28635944009F0F5C260E69D
:1026900074E089E694E00E94EE04EEC262E572E026
:1026A00083E692E00E94EE048AEF90E00E946E02C0
:1026B00064E070E083E00E94C70260E082E00E9474
:1026C000BD0661E070E080E090E00E945C0864E09C
:1026D00070E086E00E94C70261E085E00E94BD06CE
:1026E00060ED77E080E090E00E945C0883EF93E08B
:1026F000CFC165E872E086E992E00E94EE040E9494
:10270000400308C06FE972E080EB92E00E94EE04A3
:102710000E9425030E94860429833A834B835C83AD
:102720006D837E838F8398870E944F068530910545
:1027300040F4880F991FFC01EE5DFD4F808191816F
:102740007DC083EF93E07AC069EB72E089EC92E0A0
:102750000E94EE048091C40481110AC00E94940872
:102760006093C0047093C1048093C2049093C30427
:102770000E949408C090C004D090C104E090C204AC
:10278000F090C304DC01CB018C199D09AE09BF098F
:10279000853F9140A105B10508F458C20E949408F4
:1027A000DC01CB018C199D09AE09BF09843C99401D
:1027B000A105B10508F46EC249C262ED72E082EE75
:1027C00092E022C16BEE72E089EF92E00E94EE048B
:1027D0000E9494086B017C010E949408DC01CB01EB
:1027E0008C199D09AE09BF09803D9740A105B1052F
:1027F00018F58AEF90E00E946E0268E070E083E0D6
:102800000E94C70260E082E00E94BD0661E070E0C5
:1028100080E090E00E945C0868E070E086E00E9442
:10282000C70260E085E00E94BD0661E070E080E0E4
:1028300090E00E945C08D0CF89E094E09093110270
:10284000809310021092C40417C260E070E081E02F
:1028500090E00E9479036C0161E070E081E090E01B
:102860000E9479035C01BC01990F880B990B4CD431
:102870002B013C01B6010D2C000C880B990B44D4A4
:10288000AB01BC01A8E1EA2EA3E0FA2E930182017C
:1028900082E293E00E9449050E942503B501C6012A
:1028A0000E94C705CBCF60E070E081E090E00E941D
:1028B00079036C0161E070E081E090E00E947903AF
:1028C0005C01BC01990F880B990B1ED42B013C01B4
:1028D000B6010D2C000C880B990B16D4AB01BC0172
:1028E000FBE2EF2EF3E0FF2E930182018AE393E0F7
:1028F0000E9449058AEF90E00E946E0268E070E055
:1029000083E00E94C70260E082E00E94BD0661E0B1
:1029100070E080E090E00E945C0864E070E086E097
:102920000E94C70261E085E00E94BD0661E070E0A0
:1029300080E090E00E945C08B1CF60E070E081E050
:1029400090E00E9479036C0161E070E081E090E02A
:102950000E9479035C01BC01990F880B990BD4D3B9
:102960002B013C01B6010D2C000C880B990BCCD32C
:10297000AB01BC0137E5E32E33E0F32E9301820176
:1029800086E693E00E9449058AEF90E00E946E027D
:1029900060E170E0B5CF6FE673E08EE793E00E94F0
:1029A000EE048091C40481110AC00E9494086093CF
:1029B000C0047093C1048093C2049093C3040E9426
:1029C0009408C090C004D090C104E090C204F0907C
:1029D000C304DC01CB018C199D09AE09BF09853FF9
:1029E0009140A105B10508F4B4C10E949408DC012E
:1029F000CB018C199D09AE09BF09843C9940A10502
:102A0000B10508F474C1A5C10E94EE0480E090E015
:102A10000E946E0231C10E94EF0261E070E081E02D
:102A200090E00E9479037C01BC01990F880B990BFF
:102A30006BD3AB01BC012FE933E080EB93E00E9444
:102A400016059FE1E916F1040CF016C190921102EF
:102A50008092100211C10E940A0361E070E081E0DF
:102A600090E00E9479037C01BC01990F880B990BBF
:102A70004BD3AB01BC0128EB33E089EC93E00E941F
:102A80001605ACE0EA16F1040CF0F6C085E294E01D
:102A90009093110280931002EFC00E949408DC0111
:102AA000CB018C199D09AE09BF09803D9740A10556
:102AB000B10518F58AEF90E00E946E0260E270E0C6
:102AC00083E00E94C70260E082E00E94BD0661E0F0
:102AD00070E080E090E00E945C0860E270E086E0D8
:102AE0000E94C70261E085E00E94BD0661E070E0DF
:102AF00080E090E00E945C08D0CF86E294E0C8CFEE
:102B00000E94EF0260E070E080E090E00E947903B4
:102B10007C01BC01990F880B990BF6D2AB01BC016B
:102B20002AEE33E08BEF93E00E94160590E1E91660
:102B3000F1040CF0A1C0EF2809F49EC0AEE2B4E0AD
:102B4000B0931102A093100297C00E940A0360E0A4
:102B500070E080E090E00E947903BC01990F880B3F
:102B6000990BD2D2AB01BC0124E034E081E194E0C6
:102B70000E94160581C00E949408DC01CB018C19CB
:102B80009D09AE09BF098E359A41A105B10528F40A
:102B900061E087E10E94BD06EECF60E087E10E9420
:102BA000BD0682E494E074CF61E374E080E494E0D5
:102BB0000E94EE048091BF0481110EC061E088E1A3
:102BC0000E94BD060E9494086093BB047093BC04ED
:102BD0008093BD049093BE040E949408C090BB04EF
:102BE000D090BC04E090BD04F090BE04DC01CB01A9
:102BF0008C199D09AE09BF09853F9140A105B1051A
:102C000030F08CE494E0909311028093100281E004
:102C10008093BF0431C068E474E087E594E00E94CB
:102C2000EE0481E08093BA048091BA04882329F0ED
:102C300061E086E10E94BD06F7CF60E086E10E9478
:102C4000BD06309211022092100216C00E94940814
:102C5000DC01CB018C199D09AE09BF09853C994067
:102C6000A105B10530F087EF93E0909311028093B6
:102C7000100281E08093C4046FE070E080E090E097
:102C80000E945C08A0E0B0E0AB2B09F4D7CB0E9417
:102C90000000D4CB8AEF90E00E946E0260E170E009
:102CA00083E00E94C70260E082E00E94BD0661E00E
:102CB00070E080E090E00E945C0860E170E086E0F7
:102CC0000E94C70261E085E00E94BD0661E070E0FD
:102CD00080E090E00E945C080E944F0685309105DC
:102CE000A8F5880F991FFC01EE5DFD4F2CC08AEFFF
:102CF00090E00E946E0264E070E083E00E94C702F0
:102D000060E082E00E94BD0661E070E080E090E05B
:102D10000E945C0864E070E086E00E94C70261E007
:102D200085E00E94BD0661E070E080E090E00E94D6
:102D30005C080E94920586309105E0F4880F991F87
:102D4000FC01EA5EFD4F808191818FCF83EF93E09C
:102D50008CCF0E949408DC01CB018C199D09AE092F
:102D6000BF09853C9940A105B10508F482CF8DE0EB
:102D700094E07BCF80E090E078CFCF93DF93109208
:102D8000AE051092AD0588EE93E0A0E0B0E0809330
:102D9000AF059093B005A093B105B093B20588E359
:102DA00092E09093AC058093AB0582E58093C405D7
:102DB000C1E0C093C5051092C3051092C2051092E0
:102DC000C1051092C0051092BF058093BC05C09349
:102DD000BD051092BB051092BA051092B90510926C
:102DE000B8051092B7051092C7068BEE90E090934D
:102DF000CB068093CA061092C9061092C80610929C
:102E0000CF061092CE068AE492E09093CD0680938E
:102E1000CC06C093DC0689E08093DD0661E00E9469
:102E20003A070E94F30BD4E0D093DE0684E00E94C0
:102E3000420A1092DF068CB5837F8CBDC093E006FA
:102E40008CB58F7D8CBDC093D0068FEF8093D1065B
:102E500083E08093D2061092D3061092D40610928B
:102E6000D5061092D606D093D70685E08093D80673
:102E700086E08093D90687E08093DA0661E081E0FE
:102E80000E943A078091D1068F3F19F061E00E94BD
:102E90003A0761E08091D2060E943A071092E1065B
:102EA00061E08CEC96E00E94D90E8091DC068111E5
:102EB00002C01092DC06DF91CF910895A1E21A2E94
:102EC000AA1BBB1BFD010DC0AA1FBB1FEE1FFF1FCE
:102ED000A217B307E407F50720F0A21BB30BE40B1E
:102EE000F50B661F771F881F991F1A9469F7609565
:102EF0007095809590959B01AC01BD01CF0108951F
:102F00005058BB27AA270ED075C166D130F06BD1BF
:102F100020F031F49F3F11F41EF45BC10EF4E095F4
:102F2000E7FB51C1E92F77D180F3BA176207730726
:102F30008407950718F071F49EF58FC10EF4E095A3
:102F40000B2EBA2FA02D0B01B90190010C01CA0163
:102F5000A0011124FF27591B99F0593F50F4503E0E
:102F600068F11A16F040A22F232F342F4427585F00
:102F7000F3CF469537952795A795F0405395C9F718
:102F80007EF41F16BA0B620B730B840BBAF09150D0
:102F9000A1F0FF0FBB1F661F771F881FC2F70EC06F
:102FA000BA0F621F731F841F48F487957795679542
:102FB000B795F7959E3F08F0B3CF9395880F08F02B
:102FC0009927EE0F979587950895D9D008F481E059
:102FD00008950CD00FC107D140F0FED030F021F49D
:102FE0005F3F19F0F0C0511139C1F3C014D198F30B
:102FF0009923C9F35523B1F3951B550BBB27AA277A
:1030000062177307840738F09F5F5F4F220F331FEB
:10301000441FAA1FA9F333D00E2E3AF0E0E830D0B7
:1030200091505040E695001CCAF729D0FE2F27D0BA
:10303000660F771F881FBB1F261737074807AB0788
:10304000B0E809F0BB0B802DBF01FF2793585F4FFD
:103050002AF09E3F510568F0B6C000C15F3FECF317
:10306000983EDCF3869577956795B795F7959F5FC2
:10307000C9F7880F911D9695879597F90895E1E016
:10308000660F771F881FBB1F621773078407BA0775
:1030900020F0621B730B840BBA0BEE1F88F7E095D0
:1030A000089504D06894B111D9C00895BCD088F0B7
:1030B0009F5790F0B92F9927B751A0F0D1F0660F24
:1030C000771F881F991F1AF0BA95C9F712C0B1303F
:1030D00081F0C3D0B1E00895C0C0672F782F882752
:1030E000B85F39F0B93FCCF3869577956795B3957E
:1030F000D9F73EF490958095709561957F4F8F4FED
:103100009F4F0895E89409C097FB3EF490958095F1
:10311000709561957F4F8F4F9F4F9923A9F0F92F9D
:1031200096E9BB279395F695879577956795B7951B
:10313000F111F8CFFAF4BB0F11F460FF1BC06F5F01
:103140007F4F8F4F9F4F16C0882311F096E911C013
:10315000772321F09EE8872F762F05C0662371F034
:1031600096E8862F70E060E02AF09A95660F771F48
:10317000881FDAF7880F9695879597F90895990F24
:103180000008550FAA0BE0E8FEEF16161706E80731
:10319000F907C0F012161306E407F50798F0621B52
:1031A000730B840B950B39F40A2661F0232B242B27
:1031B000252B21F408950A2609F4A140A6958FEF46
:1031C000811D811D089597F99F6780E870E060E098
:1031D00008959FEF80EC089500240A9416161706B0
:1031E00018060906089500240A94121613061406F8
:1031F00005060895092E0394000C11F4882352F05B
:10320000BB0F40F4BF2B11F460FF04C06F5F7F4F12
:103210008F4F9F4F089557FD9058440F551F59F0F9
:103220005F3F71F04795880F97FB991F61F09F3FB3
:1032300079F087950895121613061406551FF2CFDC
:103240004695F1DF08C0161617061806991FF1CF2C
:1032500086957105610508940895E894BB27662753
:103260007727CB0197F908958ADF08F48FEF089547
:103270000BD0C0CFB1DF28F0B6DF18F0952309F0EE
:10328000A2CFA7CF1124EACFC6DFA0F3959FD1F339
:10329000950F50E0551F629FF001729FBB27F00D04
:1032A000B11D639FAA27F00DB11DAA1F649F662759
:1032B000B00DA11D661F829F2227B00DA11D621FA8
:1032C000739FB00DA11D621F839FA00D611D221F62
:1032D000749F3327A00D611D231F849F600D211D46
:1032E000822F762F6A2F11249F5750408AF0E1F0E9
:1032F00088234AF0EE0FFF1FBB1F661F771F881F32
:1033000091505040A9F79E3F510570F05CCFA6CF79
:103310005F3FECF3983EDCF3869577956795B7951C
:10332000F795E7959F5FC1F7FE2B880F911D969546
:10333000879597F90895FA01EE0FFF1F3096210542
:10334000310599F16115710561F48038BFE39B0780
:1033500049F168949038810561F08038BFEF9B0790
:1033600041F0992342F5FF3FE1053105210511F1B7
:10337000E8940894E795D901AA2329F4AB2FBE2F2E
:10338000F85FD0F310C0FF5F70F4A695E0F7F7394F
:1033900050F019F0FF3A38F49F779F930CD00F90BC
:1033A00007FC905808953EF014CF60E070E080E88C
:1033B0009FE308954FE79F775F934F933F932F933A
:1033C000A2D02F913F914F915F9152DF09C0D7DE7C
:1033D000880B990B089519F40EF0F5CE3ECFF9CE77
:1033E00022DFC8F39638C0F707F80F92E8942BE372
:1033F0003AEA48EB5FE74ADF0F920F920F924DB720
:103400005EB70F92C0D0ECE2F1E016D04F915F9121
:10341000EF91FF91E595EE1FFF1F49F0FE57E06821
:103420004427EE0F441FFA95E1F74195550B32D032
:103430000F9007FE26C00895DF93CF931F930F933D
:10344000FF92EF92DF927B018C01689405C0DA2E27
:10345000EF011ADFFE01E894A59125913591459180
:103460005591AEF3EF015EDDFE019701A801DA94FC
:1034700079F7DF90EF90FF900F911F91CF91DF913F
:1034800008959B01AC0160E070E080E89FE3A1CD6E
:103490009ACEACC0C8DEE8F39923D9F3940F511D3E
:1034A000BBF39150504094F059F0882332F0660FEE
:1034B000771F881F91505040C1F79E3F510544F738
:1034C000880F911D9695879597F908955F3FACF009
:1034D000983E9CF0BB27869577956795B79508F43D
:1034E000B1609395C1F7BB0F58F711F460FFE8CFB7
:1034F0006F5F7F4F8F4F9F4FE3CFB0CE0EF076C000
:1035000068CE689460CE8FDEC8F39923D1F3C6F3FA
:10351000DF93CF931F930F93FF92C92FDD2788234B
:103520002AF02197660F771F881FDAF720E030E036
:1035300040E85FEB9FE3883920F0803E30F0219631
:103540008F77DFDCE4E5F1E003C0DBDCE1E8F1E00C
:1035500073DF8B01BE01EC01FB2E6F57710975956E
:10356000771F880B990BD0DD28E132E741E35FE359
:103570008BDEAF2D9801AE01FF900F911F91CF917F
:10358000DF91D0DC37CEFA01DC01AA0FBB1F9B0113
:10359000AC01BF5728F422273327442750781FC097
:1035A000B75188F4AB2F0024469537952795011C19
:1035B000A395D2F3002069F0220F331F441FB39567
:1035C000DAF30DD09DCC61307105A0E88A07B946C9
:1035D00030F49B01AC0166277727882790783096D6
:1035E00021F0208331834283538308959F3F31F03C
:1035F000915020F4879577956795B795880F911D21
:103600009695879597F9089597FB072E16F40094E1
:1036100006D077FD08D013D007FC05D03EF4909576
:1036200081959F4F0895709561957F4F0895EE0F96
:10363000FF1F881F8BBF0790F691E02D1994AA1BDE
:10364000BB1B51E107C0AA1FBB1FA617B70710F08D
:10365000A61BB70B881F991F5A95A9F780959095BF
:10366000BC01CD01089581E090E0F89400C0F89489
:02367000FFCF8A
:10367200B006B006B006B006B006B006B006B00698
:10368200E803080008000704080409040A040B04FC
:103692000C04F503F303F403F603FC0300004000FB
:1036A20014005400000000002302F301BA018D014E
:1036B200B1019D018E0100000000C40B790FBA0117
:1036C200B9014D4F5645544F2053544152544C4921
:1036D2004E450053544154455F30005354415254B7
:1036E2004C494E45204D4F56455354005354415476
:1036F200455F31410053544152544C494E45204D8F
:103702004F564552540053544154455F3142005381
:10371200544152544C494E45204D4F56454C54004D
:1037220053544154455F3143005354415254204C49
:103732004F535420534C4F570053544154455F311B
:1037420044005354415254204C4F53542053544F2D
:10375200500053544154455F314500524F54415437
:1037620045203930204343570053544154455F327A
:10377200004D4F564520464152204C454654005379
:10378200544154455F3341004D4F5645204C454608
:10379200540053544154455F3342004D4F56452027
:1037A2004E4F524D414C2043570053544154455FB4
:1037B2003343004D4F564520524947485400535415
:1037C2004154455F3344004D4F56452046415220F7
:1037D20052494748540053544154455F3345004CC5
:1037E2004F535420534C4F57204D4F56450053547E
:1037F2004154455F3346004C4F53542053544F506D
:10380200204D4F56450053544154455F33470042C3
:10381200414C4C2044455445435420494E205800C5
:1038220053544154455F340042414C4C204445546A
:1038320045435420494E20590053544154455F3565
:103842000041444A55535420544F20434C4F534552
:103852000053544154455F36410042414C4C204193
:103862005420434C4F534520495200535441544530
:103872005F36420042414C4C20414C49474E454440
:103882000053544154455F37004C4F574552494EFF
:10389200472050554C4C45590053544154455F38CC
:1038A200005455524E494E47204F4E204D4147003D
:1038B20053544154455F390052414953494E4720C0
:1038C20050554C4C45590053544154455F313000DA
:1038D20046494E49534845440053544154455F318B
:0E38E20031006E616E00696E66006F766600E2
:020000023000CC
:10E000000D9489F10D94B2F10D94B2F10D94B2F129
:10E010000D94B2F10D94B2F10D94B2F10D94B2F1F0
:10E020000D94B2F10D94B2F10D94B2F10D94B2F1E0
:10E030000D94B2F10D94B2F10D94B2F10D94B2F1D0
:10E040000D94B2F10D94B2F10D94B2F10D94B2F1C0
:10E050000D94B2F10D94B2F10D94B2F10D94B2F1B0
:10E060000D94B2F10D94B2F10D94B2F10D94B2F1A0
:10E070000D94B2F10D94B2F10D94B2F10D94B2F190
:10E080000D94B2F10D94B2F10D94B2F10D94B2F180
:10E090000D94B2F10D94B2F10D94B2F10D94B2F170
:10E0A0000D94B2F10D94B2F10D94B2F10D94B2F160
:10E0B0000D94B2F10D94B2F10D94B2F10D94B2F150
:10E0C0000D94B2F10D94B2F10D94B2F10D94B2F140
:10E0D0000D94B2F10D94B2F10D94B2F10D94B2F130
:10E0E0000D94B2F141546D656761323536300041AF
:10E0F000726475696E6F206578706C6F72657220DE
:10E1000073746B3530305632206279204D4C530099
:10E11000426F6F746C6F616465723E004875683F52
:10E1200000436F6D70696C6564206F6E203D200048
:10E130004350552054797065202020203D20005FF9
:10E140005F4156525F415243485F5F3D2000415658
:10E1500052204C696243205665723D20004743437C
:10E160002056657273696F6E203D20004350552024
:10E1700049442020202020203D20004C6F7720663D
:10E18000757365202020203D20004869676820665F
:10E190007573652020203D200045787420667573D6
:10E1A00065202020203D20004C6F636B2066757336
:10E1B000652020203D20004D617220203720323024
:10E1C000313300312E362E3800342E332E350056A2
:10E1D00023202020414444522020206F7020636F70
:10E1E00064652020202020696E73747275637469E1
:10E1F0006F6E2061646472202020496E74657272B3
:10E20000757074006E6F20766563746F7200726A49
:10E210006D702020006A6D70200057686174207056
:10E220006F72743A00506F7274206E6F7420737541
:10E2300070706F72746564004D7573742062652030
:10E2400061206C6574746572002000577269747483
:10E25000696E672045450052656164696E672045B7
:10E26000450045452065727220636E743D00504F35
:10E27000525400303D5A65726F2061646472003FF1
:10E280003D43505520737461747300403D454550C3
:10E29000524F4D207465737400423D426C696E6B41
:10E2A000204C454400453D44756D70204545505215
:10E2B0004F4D00463D44756D7020464C415348001B
:10E2C000483D48656C70004C3D4C69737420492F83
:10E2D0004F20506F72747300513D51756974005234
:10E2E0003D44756D702052414D00563D73686F7707
:10E2F00020696E7465727275707420566563746FF0
:10E30000727300593D506F727420626C696E6B00BD
:10E310002A0011241FBECFEFD1E2DEBFCDBF01E046
:10E320000CBF12E0A0E0B2E0EEE1FDEF03E00BBFB6
:10E3300002C007900D92A030B107D9F712E0A0E01B
:10E34000B2E001C01D92AE30B107E1F70F9460F367
:10E350000D948DFE01E20EBF0FEF0DBF11241FBE05
:10E360000D9460F30D9400F020E030E040ED57E0B4
:10E3700005C0FA013197F1F72F5F3F4F2817390792
:10E38000C0F308959C01260F311DC901A0E0B0E043
:10E390002F5F3F4FABBFFC018791882361F08093D3
:10E3A000C6008091C00086FFFCCF8091C0008064D1
:10E3B0008093C000EACF08958DE08093C6008091DD
:10E3C000C00086FFFCCF8091C00080648093C000B5
:10E3D0008AE08093C6008091C00086FFFCCF8091C8
:10E3E000C00080648093C00008950F94C2F10F9420
:10E3F000DCF10895FC019081992359F09093C600B7
:10E400008091C00086FFFCCF8091C0008064809323
:10E41000C0003196992379F70895282F982F929567
:10E420009F70892F805D8A3308F0895F8093C600D2
:10E430008091C00086FFFCCF8091C00080648093F3
:10E44000C000822F8F70982F905D9A3308F0995FEB
:10E450009093C6008091C00086FFFCCF8091C000E1
:10E4600080648093C00008959C01FB01853691056E
:10E470001CF46330710594F0C90164E670E00F94F8
:10E480002EFE605D7F4F6093C6008091C00086FFC6
:10E49000FCCF8091C00080648093C0002B30310598
:10E4A00014F43297B4F0C90164E670E00F942EFEC4
:10E4B0006AE070E00F942EFE605D7F4F6093C600AF
:10E4C0008091C00086FFFCCF8091C0008064809363
:10E4D000C000C9016AE070E00F942EFEC0968093E0
:10E4E000C6008091C00086FFFCCF8091C000806490
:10E4F0008093C00008951F93182F8EE692EE60E07F
:10E500000F94C2F11093C6008091C00086FFFCCF2B
:10E510008091C00080648093C0000F94DCF11F9153
:10E5200008952F923F924F925F926F927F928F92B7
:10E530009F92AF92BF92CF92DF92EF92FF920F9392
:10E540001F93DF93CF93CDB7DEB762970FB6F894E2
:10E55000DEBF0FBECDBF382E622ECA01DB015C01CB
:10E560006D01772420E2222E2E010894411C511CBB
:10E570008BC081E0A81680E0B80681E0C80680E084
:10E58000D80628F0C601AA27BB270F940DF2BB2797
:10E59000AD2D9C2D8B2D0F940DF28A2D0F940DF225
:10E5A0002092C6008091C00086FFFCCF8091C00001
:10E5B00080648093C0009DE29093C6008091C0006B
:10E5C00086FFFCCF8091C00080648093C0002092C1
:10E5D000C6008091C00086FFFCCF8091C00080649F
:10E5E0008093C00019828601750188249924A1E0D6
:10E5F0003A1651F03A1620F0B2E03B1661F409C029
:10E600000BBFF701779007C0C7010F9477FE782EF4
:10E6100002C0F7017080872D0F940DF22092C60082
:10E620008091C00086FFFCCF8091C0008064809301
:10E63000C000872D8052F401EF70F0708F3520F408
:10E64000E40DF51D708204C0E40DF51D8EE280839B
:10E650000894E11CF11C011D111D0894811C911CE2
:10E6600090E18916910409F0C2CF80E190E0A0E02A
:10E67000B0E0A80EB91ECA1EDB1E198AC2010F9493
:10E68000FAF10F94DCF16A94662009F072CF629679
:10E690000FB6F894DEBF0FBECDBFCF91DF911F91B3
:10E6A0000F91FF90EF90DF90CF90BF90AF909F9031
:10E6B0008F907F906F905F904F903F902F90089534
:10E6C0002F923F924F925F926F927F928F929F9282
:10E6D000AF92BF92CF92DF92EF92FF920F931F9370
:10E6E000DF93CF93CDB7DEB7CD53D1400FB6F894BB
:10E6F000DEBF0FBECDBF01E20EBF0FEF0DBF94B75F
:10E70000F894A89514BE80916000886180936000A1
:10E7100010926000789493FF05C0E0910002F091A0
:10E7200001021995279A2F9A8091C00082608093E8
:10E73000C00080E18093C40088E18093C1000000A4
:10E74000EE24FF24870144E0A42EB12CCC24DD2448
:10E7500024C0C5010197F1F70894E11CF11C011DCB
:10E76000111D21E2E2162EE4F20620E0020720E06D
:10E77000120718F031E0C32ED12CC801B70127ECE5
:10E780003BE140E050E00F9441FE611571058105C9
:10E79000910519F485B1805885B98091C00087FD35
:10E7A00003C0C114D104A9F2A6014F5F5F4FC25E3E
:10E7B000DE4F59834883CE51D140C25EDE4F8881FF
:10E7C0009981CE51D140019711F00D9410FEC05D9A
:10E7D000DE4F19821882C053D14060E0C15DDE4F28
:10E7E0001882CF52D14088249924C35DDE4F19820C
:10E7F0001882CD52D140C05EDE4F188219821A8233
:10E800001B82C052D140CE5CDE4F188219821A8220
:10E810001B82C253D140EE24FF2487010BBFF701B6
:10E8200007911691C45CDE4F19830883CC53D14005
:10E830000D940BFEC25EDE4F28813981CE51D1404E
:10E840002130310509F52091C600C25EDE4F1982E4
:10E850001882CE51D14022C02F5F3F4F4F4F5F4FA4
:10E86000213082E138078AE7480780E0580780F0C6
:10E87000C45CDE4FE881F981CC53D140EF5FFF4F9C
:10E8800019F0EE27FF27099420E030E040E050E047
:10E890008091C00087FFE0CF2091C600C35DDE4FAE
:10E8A00048815981CD52D1404F5F5F4FC35DDE4FEC
:10E8B00059834883CD52D140213209F063C64A3092
:10E8C000510508F05FC60894811C911C53E0851621
:10E8D000910409F059C600E010E018C081E280936D
:10E8E000C6008091C00086FFFCCF8091C00080648C
:10E8F0008093C0002F5F3F4F2931310579F70F9486
:10E90000DCF10F5F1F4F0530110519F020E030E0FA
:10E91000E5CF10920A0210920B0210920C02109294
:10E920000D02109206021092070210920802109235
:10E930000902109202021092030210920402109235
:10E9400005028FEE90EE60E00F94F5F180E191EE1C
:10E9500060E00F94C2F18091C00087FFFCCF9091DE
:10E96000C600903608F09F759032B8F09093C600BC
:10E970008091C00086FFFCCF8091C00080648093AE
:10E98000C000A0E2A093C6008091C00086FFFCCF2B
:10E990008091C00080648093C000983409F4D7C18E
:10E9A0009934B8F4923409F459C1933458F490333B
:10E9B00019F1903308F4E3C59F33A1F1903409F0C5
:10E9C000DEC5BDC0953409F470C1963409F0D7C5D1
:10E9D00098C1923509F42BC2933538F49C3409F46C
:10E9E000F5C1913509F0CBC518C2963509F445C279
:10E9F000993509F0C4C567C483E792EE62E00F94CD
:10EA0000F5F110920602109207021092080210927D
:10EA1000090210920A0210920B0210920C0210923C
:10EA20000D0213C18FE792EE62E00F94F5F18FEEC5
:10EA300090EE60E00F94F5F181E291EE60E00F94CA
:10EA4000C2F187EB91EE60E00F94F5F180E391EE77
:10EA500060E00F94C2F184EE90EE60E00F94F5F167
:10EA60008FE391EE60E00F94C2F186E090E061E008
:10EA700070E00F9434F20F94DCF18DE591EE60E0DC
:10EA80000F94C2F189EC91EE60E00F94F5F18EE401
:10EA900091EE60E00F94C2F183EC91EE60E00F9490
:10EAA000F5F18CE691EE60E00F94C2F18EE10F94E7
:10EAB0000DF288E90F940DF281E00F940DF20F949E
:10EAC000DCF18BE791EE60E00F94C2F119E0E0E039
:10EAD000F0E010935700E4918E2F0F940DF20F94F5
:10EAE000DCF18AE891EE60E00F94C2F1E3E0F0E03F
:10EAF00010935700E4918E2F0F940DF20F94DCF1D8
:10EB000089E991EE60E00F94C2F1E2E0F0E0109349
:10EB10005700E4918E2F0F940DF20F94DCF188EAE8
:10EB200091EE60E00F94C2F1E1E0F0E01093570045
:10EB30001491812F0F940DF20F94DCF107CF8BE825
:10EB400092EE62E00F94F5F18BE492EE60E00F94A8
:10EB5000F5F10F94DCF100E010E019C0C8016F2D51
:10EB60000F947FFEFF2031F489E492EE60E00F9471
:10EB7000C2F10BC0F092C6008091C00086FFFCCFAE
:10EB80008091C00080648093C0000F5F1F4FC80158
:10EB900081519F41A0E0B0E0ABBFFC01F790BAE229
:10EBA000FB1621F0E2E000301E07C1F60F94DCF105
:10EBB0000F94DCF187E592EE60E00F94F5F10F948D
:10EBC000DCF1CC24DD2400E010E01EC0C8010F946D
:10EBD00077FEF82E882331F489E492EE60E00F94FA
:10EBE000C2F10BC08093C6008091C00086FFFCCFAD
:10EBF0008091C00080648093C000FE1419F00894D6
:10EC0000C11CD11C0F5F1F4FC80181519F41A0E063
:10EC1000B0E0ABBFFC01E790FAE2EF1621F022E092
:10EC20000030120799F60F94DCF10F94DCF182E6C4
:10EC300092EE60E00F94C2F1C60161E070E00F94C3
:10EC400034F20F94DCF10F94DCF110920202109276
:10EC50000302109204021092050278CE89E992EE26
:10EC600062E00F94F5F1279A2F9A16C02F9880E052
:10EC700090E0E0EDF7E03197F1F7019684369105E9
:10EC8000C1F72F9A80E090E0E0EDF7E03197F1F7DF
:10EC9000019684369105C1F78091C00087FFE6CFC9
:10ECA0008091C00087FFFCCF64C485EA92EE62E0E9
:10ECB0000F94F5F140910202509103026091040219
:10ECC0007091050281E020E10F9491F2809102029F
:10ECD00090910302A0910402B091050280509F4FD1
:10ECE000AF4FBF4F8093020290930302A0930402A0
:10ECF000B093050280509041A040B04008F426CE69
:10ED0000A4CF83EB92EE62E00F94F5F140910602FE
:10ED100050910702609108027091090280E020E1A1
:10ED20000F9491F28091060290910702A09108023F
:10ED3000B091090280509F4FAF4FBF4F80930602A2
:10ED400090930702A0930802B0930902FFCD80ECD4
:10ED500092EE62E00F94F5F183E792EE60E00F949B
:10ED6000F5F18FE792EE60E00F94F5F18BE892EE0B
:10ED700060E00F94F5F189E992EE60E00F94F5F10F
:10ED800085EA92EE60E00F94F5F183EB92EE60E09D
:10ED90000F94F5F180EC92EE60E00F94F5F187ECC2
:10EDA00092EE60E00F94F5F188ED92EE60E00F9442
:10EDB000F5F18FED92EE60E00F94F5F18AEE92EEB0
:10EDC00060E00F94F5F183E093EEBDCD87EC92EE19
:10EDD00062E00F94F5F181E40F947BF282E40F94EA
:10EDE0007BF283E40F947BF284E40F947BF285E45E
:10EDF0000F947BF286E40F947BF287E40F947BF20E
:10EE000088E40F947BF28AE40F947BF28BE40F94F6
:10EE10007BF28CE40F947BF299CD88ED92EE62E068
:10EE20000F94F5F1772473948824992409C48FED05
:10EE300092EE62E00F94F5F140910A0250910B02BC
:10EE400060910C0270910D0282E020E10F9491F22A
:10EE500080910A0290910B02A0910C02B0910D02D8
:10EE600080509F4FAF4FBF4F80930A0290930B0289
:10EE7000A0930C02B0930D0269CD8AEE92EE62E08F
:10EE80000F94F5F184EE90EE60E00F94F5F18FECC5
:10EE900091EE60E00F94F5F1662477244301CC5D98
:10EEA000DE4F19821882C452D140D401C301B695F5
:10EEB000A79597958795CA5DDE4F88839983AA8326
:10EEC000BB83C652D140CC5DDE4FA881B981C4520C
:10EED000D1401196CC5DDE4FB983A883C452D14096
:10EEE000CD0162E070E00F9434F2B0E2B093C6005E
:10EEF0008091C00086FFFCCF8091C0008064809329
:10EF0000C000EDE2E093C6008091C00086FFFCCF18
:10EF10008091C00080648093C000F0E2F093C6004E
:10EF20008091C00086FFFCCF8091C00080648093F8
:10EF3000C000CA5DDE4FE880F9800A811B81C6529D
:10EF4000D140BB27A12F902F8F2D0F940DF2CA5DBA
:10EF5000DE4F8881C652D1400F940DF2B0E2FB2EF5
:10EF6000F092C6008091C00086FFFCCF8091C00067
:10EF700080648093C0000DE30093C6008091C000C0
:10EF800086FFFCCF8091C00080648093C00010E2B7
:10EF90001093C6008091C00086FFFCCF8091C00016
:10EFA00080648093C0008BBEF3012791C65DDE4F65
:10EFB0002883CA52D140A22EBB24CC24DD2408943D
:10EFC000611C711C811C911C8BBEF3018791282E42
:10EFD0003324442455240894611C711C811C911C09
:10EFE0008BBEF3013791C55DDE4F3883CB52D140E4
:10EFF0000894611C711C811C911C8BBEF30147910C
:10F00000C45DDE4F4883CC52D140ADEFEA2EAFEF66
:10F01000FA2EAFEF0A2FAFEF1A2F6E0C7F1C801E57
:10F02000911E142D032DF22CEE24EA0CFB1C0C1D5A
:10F030001D1D0F940DF220E22093C6008091C000A8
:10F0400086FFFCCF8091C00080648093C000C65DC5
:10F05000DE4F8881CA52D1400F940DF230E23093D6
:10F06000C6008091C00086FFFCCF8091C000806404
:10F070008093C000C45DDE4F8881CC52D1400F9494
:10F080000DF240E24093C6008091C00086FFFCCFA5
:10F090008091C00080648093C000C55DDE4F888190
:10F0A000CB52D1400F940DF250E25093C6008091A4
:10F0B000C00086FFFCCF8091C00080648093C000B8
:10F0C0008FEFE8168FEFF80680E0080780E018075A
:10F0D00031F484E092EE60E00F94C2F1DFC0D80119
:10F0E000C7018070907CA070B0708050904CA040A0
:10F0F000B040D1F52FEF3FE340E050E0E222F322B1
:10F1000004231523CA5DDE4FA880B980CA80DB8046
:10F11000C652D140AE0CBF1CC01ED11EAA0CBB1CD7
:10F12000CC1CDD1C8EE092EE60E00F94C2F1BB2798
:10F13000A12F902F8F2D0F940DF28E2D0F940DF285
:10F1400030E23093C6008091C00086FFFCCF8091F2
:10F15000C00080648093C0004EE34093C60080915D
:10F16000C00086FFFCCF87C08EE09EEFA0E0B0E03D
:10F17000E822F9220A231B239CE0E91694E9F90608
:10F1800090E0090790E0190709F088C0C45DDE4FE0
:10F19000A881CC52D140EA2EFF2400E010E0102FCD
:10F1A0000F2DFE2CEE24C55DDE4FB881CB52D14031
:10F1B000EB0EF11C011D111DD601C501817090706F
:10F1C000A070B070DC0199278827E80EF91E0A1F8D
:10F1D0001B1F20EF30E040E050E0A222B322C42207
:10F1E000D52241E1AA0CBB1CCC1CDD1C4A95D1F7F1
:10F1F000EA0CFB1C0C1D1D1D81E090E0A0E0B0E0BE
:10F20000282239224A225B2235E1220C331C441C7D
:10F21000551C3A95D1F7E20CF31C041D151D57013E
:10F220006801AA0CBB1CCC1CDD1C85E192EE60E0E1
:10F230000F94C2F1C801AA27BB270F940DF2BB2778
:10F24000A12F902F8F2D0F940DF28E2D0F940DF274
:10F2500090E29093C6008091C00086FFFCCF809121
:10F26000C00080648093C000AEE3A093C60080918C
:10F27000C00086FFFCCF8091C00080648093C000F6
:10F28000C601AA27BB270F940DF2BB27AD2D9C2DDD
:10F290008B2D0F940DF28A2D0F940DF20F94DCF14B
:10F2A000CC5DDE4FE881F981C452D140F99709F471
:10F2B0004DCBF4E0EF2EF12C012D112D6E0C7F1CA7
:10F2C000801E911EF2CD83E093EE62E00F94F5F183
:10F2D0008AE192EE60E00F94C2F18091C00087FF56
:10F2E000FCCF1091C6001F751093C6008091C0001E
:10F2F00086FFFCCF8091C00080648093C0000F9493
:10F30000DCF1812F81548A3108F036C1163409F4BA
:10F3100095C0173490F4133409F44EC0143430F40B
:10F320001134F1F0123409F01DC130C0143409F465
:10F3300059C0153409F016C16BC01A3409F4C4C0A1
:10F340001B3438F4173409F48FC0183409F00AC19B
:10F35000A1C01B3409F4D2C01C3409F003C1E8C0B9
:10F360008FEF81B90DC082B1809582B980E090E0C5
:10F37000E0EDF7E03197F1F70196883C9105C1F790
:10F380008091C00087FFEFCF12B8EFC08FEF84B934
:10F390000DC085B1809585B980E090E0E0EDF7E0A3
:10F3A0003197F1F70196883C9105C1F78091C00033
:10F3B00087FFEFCF15B8D9C08FEF87B90DC088B1DF
:10F3C000809588B980E090E0E0EDF7E03197F1F7C3
:10F3D0000196883C9105C1F78091C00087FFEFCF6F
:10F3E00018B8C3C08FEF8AB90DC08BB180958BB9A7
:10F3F00080E090E0E0EDF7E03197F1F70196883C8E
:10F400009105C1F78091C00087FFEFCF1BB8ADC059
:10F410008FEF8DB90DC08EB180958EB980E090E0F0
:10F42000E0EDF7E03197F1F70196883C9105C1F7DF
:10F430008091C00087FFEFCF1EB897C08FEF80BBD1
:10F440000DC081B3809581BB80E090E0E0EDF7E0F6
:10F450003197F1F70196883C9105C1F78091C00082
:10F4600087FFEFCF11BA81C08FEF83BB0DC084B38C
:10F47000809584BB80E090E0E0EDF7E03197F1F714
:10F480000196883C9105C1F78091C00087FFEFCFBE
:10F4900014BA6BC08FEF809301010FC080910201FD
:10F4A00080958093020180E090E0E0EDF7E03197F5
:10F4B000F1F70196883C9105C1F78091C00087FF64
:10F4C000EDCF1092020151C08FEF809304010FC065
:10F4D0008091050180958093050180E090E0E0ED4A
:10F4E000F7E03197F1F70196883C9105C1F78091DB
:10F4F000C00087FFEDCF1092050137C08FEF8093DA
:10F5000007010FC08091080180958093080180E079
:10F5100090E0E0EDF7E03197F1F70196883C910536
:10F52000C1F78091C00087FFEDCF109208011DC088
:10F530008FEF80930A010FC080910B01809580931B
:10F540000B0180E090E0E0EDF7E03197F1F70196F4
:10F55000883C9105C1F78091C00087FFEDCF1092E4
:10F560000B0103C085E292EEEEC98091C00087FFD7
:10F57000FCCF8091C600EAC988E392EEE4C98CE131
:10F5800091EEE1C988249924933011F1943028F444
:10F59000913089F09230B8F408C0953061F195301F
:10F5A000F0F0963009F048C043C02B3109F042C951
:10F5B00091E06BE13FC96227C15DDE4F2883CF52E6
:10F5C000D14092E037C9B22FA0E0622793E032C960
:10F5D000822F90E0A82BB92B622794E02BC92E3004
:10F5E00009F039C3622795E0C05DDE4F19821882A9
:10F5F000C053D1401FC9E1E0F0E0EC0FFD1FC05D3A
:10F60000DE4F08811981C053D140E00FF11F2083E4
:10F610000F5F1F4FC05DDE4F19830883C053D14079
:10F6200062270A171B0709F005C9D80196E002C92D
:10F63000261709F010C303C0973009F0FBC87724E0
:10F640009981933109F412C19431C8F4963009F4C8
:10F65000D8C0973050F4923009F406C1933009F4C1
:10F660006DC0913009F059C253C0913109F477C08F
:10F67000923108F0BBC0903109F04FC2F5C098310B
:10F6800009F487C0993150F4953109F4EFC09531F0
:10F6900008F4C6C1963109F040C2C2C19A3109F4DA
:10F6A0006CC09A3108F491C09B3109F45BC09D3164
:10F6B00009F033C29D81903359F48F81882311F46E
:10F6C0009EE11CC0813011F091E018C098E916C08D
:10F6D000892F807591F0903539F4E0E0F0E089E011
:10F6E0008093570094910AC0983539F4E3E0F0E034
:10F6F00089E080935700949101C090E01A821B82A8
:10F700008D818C831D829E831F8227E030E009C299
:10F710001A8288E08B8381E48C8386E58D8382E581
:10F720008E8389E48F8383E5888780E589878FE5E9
:10F730008A8782E38B872BE030E0F3C18A818139AD
:10F7400041F0823941F0803911F48FE005C080E04A
:10F7500003C082E001C08AE01A828B8344C0772410
:10F76000739482C08D81882311F48EE12CC0813086
:10F7700011F081E028C088E926C01A82E1E0F0E0BB
:10F7800089E08093570084918B831C8224E030E0D1
:10F79000C8C18B81803589F48C81883039F4E2E0EE
:10F7A000F0E089E08093570084910DC0E0E0F0E044
:10F7B00089E080935700849106C0E3E0F0E089E09F
:10F7C0008093570084911A82DFCF8D81836C99E0FA
:10F7D000E1E0F0E0082E90935700E89507B600FCB2
:10F7E000FDCF1A821B8223E030E09BC180EC8A832C
:10F7F000CE5CDE4F188219821A821B82C253D1401E
:10F800008EC18A8190E0A0E0B0E0582F44273327D2
:10F8100022278B8190E0A0E0B0E0DC0199278827C7
:10F82000282B392B4A2B5B2B8D8190E0A0E0B0E098
:10F83000282B392B4A2B5B2B8C8190E0A0E0B0E089
:10F84000BA2FA92F982F8827282B392B4A2B5B2BCF
:10F85000220F331F441F551FC05EDE4F288339839C
:10F860004A835B83C052D1401A8259C13A81C95C34
:10F87000DE4F3883C753D140CA5CDE4F1882C6536F
:10F88000D1408B81C82EDD24CA5CDE4F488159816E
:10F89000C653D140C42AD52A933109F082C0CE5C28
:10F8A000DE4F88819981AA81BB81C253D1408050AB
:10F8B000904CA340B04030F583E0CE5CDE4FE88052
:10F8C000F9800A811B81C253D140F70100935B008C
:10F8D00080935700E89507B600FCFDCFCE5CDE4F65
:10F8E000088119812A813B81C253D14000501F4FAA
:10F8F0002F4F3F4FCE5CDE4F088319832A833B8313
:10F90000C253D140C05EDE4F488159816A817B81FC
:10F91000C052D140DE011B9631E08C9111962C91A2
:10F9200011971296C75CDE4F2883C953D140C85C3B
:10F93000DE4F1882C853D14090E0C85CDE4FE881AA
:10F94000F981C853D1408E2B9F2B0C01FA01609393
:10F950005B0030935700E89511244E5F5F4F6F4F67
:10F960007F4F0EEFE02E0FEFF02ECE0CDF1CC114F8
:10F97000D10499F685E0C05EDE4F088119812A81A5
:10F980003B81C052D140F80120935B008093570027
:10F99000E89507B600FCFDCF81E180935700E8951C
:10F9A00035C0C05EDE4F88819981AA81BB81C0527B
:10F9B000D140B695A795979587957C018601ABE0D8
:10F9C000AA2EB12CAC0EBD1E0BC0D5016D915D01F0
:10F9D000C7010F947FFE0894E11CF11C01501040F8
:10F9E0000115110591F7A60160E070E0440F551F65
:10F9F000661F771FC05EDE4FE880F9800A811B8199
:10FA0000C052D1404E0D5F1D601F711F1A82C05E33
:10FA1000DE4F488359836A837B83C052D1407FC0C5
:10FA2000FA80C55CDE4FF882CB53D140C65CDE4F16
:10FA30001882CA53D1408B81C82EDD24C65CDE4FAC
:10FA400008811981CA53D140C02AD12A1A828981DA
:10FA5000BE016D5F7F4F843121F59601C05EDE4FA0
:10FA6000E880F9800A811B81C052D1400BBFF701A9
:10FA700087919691DB018C9311969C936E5F7F4FDB
:10FA8000D801C7010296A11DB11DC05EDE4F88835B
:10FA90009983AA83BB83C052D14022503040F1F6F3
:10FAA00036C0C05EDE4F288139814A815B81C052F9
:10FAB000D1400894C108D108760100E010E0089414
:10FAC000C11CD11C0894E11CF11C011D111DE20E8A
:10FAD000F31E041F151F21BDBB27A52F942F832FB5
:10FAE00082BD2F5F3F4F4F4F5F4FF89A80B5DB01CC
:10FAF0008D93BD012E153F054007510761F7C05E8C
:10FB0000DE4F288339834A835B83C052D1409601FC
:10FB10002D5F3F4FFB01108204C080EC8A8322E0FE
:10FB200030E08BE18093C6008091C00086FFFCCF5F
:10FB30008091C00080648093C000C15DDE4FF88179
:10FB4000CF52D140F093C6008091C00086FFFCCF19
:10FB50008091C00080648093C000432F3093C60022
:10FB60008091C00086FFFCCF8091C00080648093AC
:10FB7000C000922F2093C6008091C00086FFFCCF6A
:10FB80008091C00080648093C0008EE08093C600A6
:10FB90008091C00086FFFCCF8091C000806480937C
:10FBA000C00065E1C15DDE4FE880CF52D1406E25D7
:10FBB00069276427FE01319610C090819093C6009A
:10FBC0008091C00086FFFCCF31968091C000806498
:10FBD0008093C0006927215030402115310569F715
:10FBE0006093C6008091C00086FFFCCF8091C0006A
:10FBF00080648093C00085B1805885B9772081F4F6
:10FC0000C15DDE4F0881CF52D1400F5FC15DDE4F35
:10FC10000883CF52D14090E0A0E0B0E00D941AF4F8
:10FC200027982F9880E090E020ED37E0F901319798
:10FC3000F1F7019684369105C9F700008091C00064
:10FC40008D7F8093C00081E180935700E895EE2777
:10FC5000FF270994FFCF90E00D941AF497FB092E2B
:10FC600007260AD077FD04D02ED006D000201AF443
:10FC7000709561957F4F0895F6F7909581959F4F08
:10FC80000895A1E21A2EAA1BBB1BFD010DC0AA1FDD
:10FC9000BB1FEE1FFF1FA217B307E407F50720F0F5
:10FCA000A21BB30BE40BF50B661F771F881F991F70
:10FCB0001A9469F760957095809590959B01AC01B9
:10FCC000BD01CF010895AA1BBB1B51E107C0AA1FAC
:10FCD000BB1FA617B70710F0A61BB70B881F991FED
:10FCE0005A95A9F780959095BC01CD010895F99991
:10FCF000FECF92BD81BDF89A992780B50895262F31
:10FD0000F999FECF1FBA92BD81BD20BD0FB6F89400
:0EFD1000FA9AF99A0FBE01960895F894FFCF63
:040000033000E000E9
:00000001FF