:100000005AC1000089C1000087C1000085C10000FD
:1000100083C1000081C100007FC100007DC10000DC
:100020007BC1000079C1000077C1000075C10000EC
:1000300073C1000071C100006FC100006DC10000FC
:100040006BC1000069C1000067C1000065C100000C
:1000500063C1000061C100005FC10000E2C3000095
:100060005BC1000059C1000057C1000055C100002C
:1000700053C1000051C100004FC100004DC100003C
:100080004BC1000049C1000047C1000045C100004C
:1000900043C1000041C100003FC10000EAC50000AB
:1000A0003BC1000039C1000037C1000035C100006C
:1000B00033C1000031C100002FC100002DC100007C
:1000C0002BC1000029C1000027C1000025C100008C
:1000D00023C1000021C100001FC100001DC100009C
:1000E0001BC1000067026A0259025D026102A1029F
:1000F0006E02720278027C02800286028A028E02FE
:10010000A102940298029C020E0313031803220317
:100110002C03A50336033E03460350035A0364032E
:1001200073037D03A503870391039B030763423693
:10013000B79BD8A71A39685618AEBAAB558C1D3C78
:10014000B7CC5763BD6DEDFD753EF6177231BF003C
:100150000000803F08000000BE922449123EABAA76
:10016000AA2ABECDCCCC4C3E00000080BEABAAAAD1
:10017000AA3E00000000BF000000803F0000000019
:1001800000084178D3BB4387D1133D190E3CC3BD52
:100190004282AD2B3E68EC8276BED98FE1A93E4CFF
:1001A00080EFFFBE01C4FF7F3F00000000000000A1
:1001B0000A0B02090C0D0E080703040100000000E1
:1001C000000000000000000000000000000000002F
:1001D00000000000000000000000121110000000EC
:1001E000000000000000000000000000000000000F
:1001F0000000000000002200250028002B002E0037
:100200003100340002010000050108010B0100006B
:100210002100240027002A002D00300033000101B6
:100220000000040107010A01050505050705080886
:100230000808020202020A0A080804040404010170
:100240000101010101010303030303030303040785
:1002500007070C0C0C0C0C0C0C0C0202020206061C
:100260000606060606060B0B0B0B0B0B0B0B01020F
:1002700010202008081020401020408002010201B8
:100280000804020101020408102040808040201070
:1002900008040201800402018040201008040201C9
:1002A0000804020101020408102040800102040831
:1002B00010204080810E11241FBECFEFD1E2DEBF9F
:1002C000CDBF00E00CBF12E0A0E0B2E0E4E8F5E250
:1002D00000E00BBF02C007900D92A23EB107D9F714
:1002E00023E0A2EEB2E001C01D92A33DB207E1F708
:1002F00011E0CBE5D1E000E006C021970109802F95
:10030000FE010E94B812CA35D10780E00807A9F79C
:100310000E94B70A0C94C01273CE3FB7F894809134
:100320002F0390913003A0913103B091320326B591
:10033000A89B05C02F3F19F00196A11DB11D3FBF1D
:10034000BA2FA92F982F8827820F911DA11DB11DAB
:10035000BC01CD0142E0660F771F881F991F4A95A7
:10036000D1F7089585ED8093BC008091BC0084FD99
:10037000FCCF10925B03089540910403262F30E0D8
:10038000240F311D21323105DCF420915B03243030
:10039000C9F4FC0180E090E0861758F43091040322
:1003A0002191DC01AE51BD4FA30FB11D2C930196DD
:1003B000F3CF80910403680F6093040380E00895F5
:1003C00081E0089582E008950895E0917C03809192
:1003D0007D03E81730F4F0E0E45AFC4F808190E0B0
:1003E00008958FEF9FEF089590917C0380917D0396
:1003F000981750F4E92FF0E0E45AFC4F208130E0E8
:100400009F5F90937C0302C02FEF3FEFC9010895D7
:1004100080917D0390E020917C03821B91090895D7
:10042000CF93DF931F921F92CDB7DEB7CB01642F1E
:1004300049835A83A1DF4981842F5A81952F0F90D8
:100440000F90DF91CF910895CF93DF931F92CDB797
:10045000DEB7698361E0CE0101968EDF81E090E036
:100460000F90DF91CF910895089580E090E0089576
:10047000362F90E0FC01E255FE4F4491FC01E25919
:10048000FD4F2491FC01E85DFD4F9491992309F4FF
:100490006BC0442309F455C050E0FA013197E231B2
:1004A000F10508F04EC08827EE58FF4F8F4F0C948F
:1004B000B812809180008F7707C0809180008F7D77
:1004C00003C080918000877F809380003AC084B50C
:1004D0008F7702C084B58F7D84BD33C08091B0001A
:1004E0008F7703C08091B0008F7D8093B00029C0CA
:1004F000809190008F7707C0809190008F7D03C01E
:1005000080919000877F809390001BC08091A00015
:100510008F7707C08091A0008F7D03C08091A000DD
:10052000877F8093A0000DC0809120018F7707C046
:10053000809120018F7D03C080912001877F80936F
:100540002001E92FF0E0EE0FFF1FEC50FE4FA591C8
:10055000B4918FB7F894EC91311103C020952E23FC
:1005600001C02E2B2C938FBF0895FF920F931F93E2
:10057000CF93DF931F92CDB7DEB78C01F62E60E0EC
:10058000FC018281498374DFF801908181819CBDE7
:100590008DBD8F2D8F7180688EBD000049810DB497
:1005A00007FEFDCF8EB54EBD00000DB407FEFDCF9A
:1005B0008EB561E0F80182815BDF87E090E0019712
:1005C000F1F70F90DF91CF911F910F91FF90089558
:1005D0001F93CF93DF93182FEB0102D6209711F4CE
:1005E00060E004C0CF3FD10531F461E0812FDF919D
:1005F000CF911F913DCFE12FF0E0E255FE4FE49106
:100600004E2F50E0FA013197E231F10508F09DC01C
:100610008827EC57FF4F8F4F0C94B81284B5806831
:1006200084BDC7BD97C084B5806284BDC8BD92C07B
:1006300080918000806880938000D0938900C0936F
:10064000880088C080918000806280938000D09371
:100650008B00C0938A007EC0809180008860809368
:100660008000D0938D00C0938C0074C08091B00046
:1006700080688093B000C093B3006CC08091B000DC
:1006800080628093B000C093B40064C080919000F9
:10069000806880939000D0939900C09398005AC0CE
:1006A00080919000806280939000D0939B00C093D3
:1006B0009A0050C080919000886080939000D09301
:1006C0009D00C0939C0046C08091A00080688093EC
:1006D000A0008091A0008F7B8093A000D093A90000
:1006E000C093A80037C08091A00080628093A000D2
:1006F000D093AB00C093AA002DC08091A000886069
:100700008093A000D093AD00C093AC0023C0809133
:100710002001806880932001D0932901C093280193
:1007200019C080912001806280932001D0932B0119
:10073000C0932A010FC0809120018860809320011E
:10074000D0932D01C0932C0105C0C038D1050CF009
:100750004CCF46CFDF91CF911F910895863308F09B
:10076000865390917B00282F2870977F922B90932F
:100770007B008770806480937C0080917A00806425
:1007800080937A0080917A0086FDFCCF809178007A
:100790002091790090E0922B08958F929F92AF92D2
:1007A000BF92CF92DF92EF92FF926B017C01B5DD99
:1007B0004B015C01C114D104E104F104E9F0ADDDA9
:1007C000DC01CB0188199909AA09BB09883E93402D
:1007D000A105B10578F321E0C21AD108E108F108BA
:1007E00088EE880E83E0981EA11CB11CC114D104B0
:1007F000E104F10421F7DECFFF90EF90DF90CF907E
:10080000BF90AF909F908F9008952FB7F89460910C
:100810002B0370912C0380912D0390912E032FBFF9
:1008200008951F920F920FB60F9211242F933F93AA
:100830008F939F93AF93BF9380912B0390912C0341
:10084000A0912D03B0912E0330912A0323E0230FB2
:100850002D3720F40196A11DB11D05C026E8230FF8
:100860000296A11DB11D20932A0380932B03909320
:100870002C03A0932D03B0932E0380912F0390910E
:100880003003A0913103B09132030196A11DB11D37
:1008900080932F0390933003A0933103B0933203DE
:1008A000BF91AF919F918F913F912F910F900FBE6C
:1008B0000F901F9018959CB5282F23709C7F922B2A
:1008C0009CBD2DB582FB992790F9822F8E7F892BB5
:1008D0008DBD0895CF93DF93EC018A89ECDF8C897D
:1008E000811103C08CB5806202C08CB58F7D8CBD38
:1008F0008CB5837F9B89892B8CBD60E08989B8DDAD
:100900008F858EBD00000DB407FEFDCF8EB561E072
:100910008989DF91CF91ACCDCF92DF92EF92FF9298
:10092000CF93DF93EC01888981110CC060E08E8148
:100930009FDD61E08E819CDD60E08E8199DD8BE83A
:1009400091E033C0C12CD12C7601C394D701C601EC
:100950000E8004C0880F991FAA1FBB1F0A94D2F7EC
:1009600080959F8589238F87CE01B4DFD701C6018B
:100970000E8004C0880F991FAA1FBB1F0A94D2F7CC
:100980002F85822B8F87CE01A5DF0E8004C0CC0C73
:10099000DD1CEE1CFF1C0A94D2F7C0948F85C82280
:1009A000CF86CE0197DF8BE990E00197F1F7DF91D9
:1009B000CF91FF90EF90DF90CF9008958F929F920C
:1009C000AF92BF92CF92DF92EF92FF920F931F935D
:1009D000CF93DF93EC018889062F10E081111EC0B0
:1009E0005E0187E0A80EB11CE12CF12C6501F50138
:1009F00081915F01F5D3B8010E2C02C07595679502
:100A00000A94E2F76170F601808132DDFFEFEF1AA0
:100A1000FF0A84E0E816F10449F732C084E090E070
:100A2000812C912C540183949C0124503109A801FC
:100A300002C0559547952A95E2F72F8540FF0DC0D6
:100A400075016401082E04C0CC0CDD1CEE1CFF1CDB
:100A50000A94D2F7C22ACF860DC0B501A401082E90
:100A600004C0440F551F661F771F0A94D2F74095A4
:100A700042234F87019688309105B1F6CE012ADFD7
:100A8000CE01DF91CF911F910F91FF90EF90DF90FA
:100A9000CF90BF90AF909F908F903ECFAF92BF927C
:100AA000CF92DF92EF92FF920F931F93CF93DF933A
:100AB000EC01F62E642F8C81DBDC8D818F3F11F0F1
:100AC00060E0D6DC8D890F2D10E084FF29C05E0127
:100AD00087E0A80EB11CE12CF12C6501F501819194
:100AE0005F017ED3B8010E2C02C0759567950A94FC
:100AF000E2F76170F6018081BBDCFFEFEF1AFF0ABD
:100B000088E0E816F10449F7CE01DF91CF911F91FB
:100B10000F91FF90EF90DF90CF90BF90AF90FCCE01
:100B2000B80184E0759567958A95E1F7CE0146DFB7
:100B30006F2DCE01DF91CF911F910F91FF90EF901C
:100B4000DF90CF90BF90AF9039CF1F93CF93DF93BB
:100B5000FC012089211105C040E0DF91CF911F9158
:100B60009DCF162FEC0181E090E0A0E0B0E0048082
:100B700004C0880F991FAA1FBB1F0A94D2F7809543
:100B8000978589238787CF01A5DE612F70E084E0F8
:100B9000759567958A95E1F7CE0110DF612FCE013B
:100BA000DF91CF911F910ACF61E0CFDF8BE39FE10F
:100BB0000197F1F708951F93CF93DF93EC01162F60
:100BC0008889811104C041E0CE0168DF1DC081E049
:100BD00090E0A0E0B0E00C8004C0880F991FAA1F2D
:100BE000BB1F0A94D2F72F85822B8F87CE0172DE2E
:100BF000612F70E084E0759567958A95E1F7CE01E5
:100C0000DDDE612FCE01DADE81E090E0DF91CF9171
:100C10001F910895CF93CFB7F89480912903811144
:100C200020C0EDE5F2E08491E3EAF2E09491E82F50
:100C3000F0E0EE0FFF1FE25FFD4FA591B491EC9144
:100C4000E92319F461E085E313DC85E3C9D28CB5AF
:100C500080618CBD8CB580648CBD84E3C1D283E39C
:100C6000BFD2809129038F5F80932903CFBFCF919B
:100C700008951F920F920FB60F9211240BB60F9288
:100C80002F933F934F935F936F937F938F939F9394
:100C9000AF93BF93EF93FF938091B900887F803625
:100CA00009F49CC068F5883209F45BC090F4803187
:100CB00009F454C038F4882309F4F6C0883009F4E4
:100CC0004DC0F5C0883109F44CC0803209F45DC0D4
:100CD000EEC0803409F468C048F4803309F455C08C
:100CE000883309F0E4C080935903D8C0803509F4F3
:100CF0004FC0883509F45DC0883409F0D8C0D6C02B
:100D0000883909F4C7C0A8F4883709F467C038F4F3
:100D1000883609F463C0803709F460C0C8C08838D9
:100D200009F4B8C0803909F45FC0803809F0BFC049
:100D30005BC0803B09F486C038F4803A09F466C091
:100D4000883A09F47FC0B3C0803C09F4A7C0883C4E
:100D500009F4A4C0883B09F48AC0A9C08091560355
:100D600010C09091580380915703981770F5E09147
:100D7000580381E08E0F80935803F0E0EB5CFC4F4A
:100D800080818093BB0085EC86C0809359038EC020
:100D9000E091580381E08E0F809358038091BB004F
:100DA000F0E0EB5CFC4F80839091580380915703F7
:100DB0006EC0E091580381E08E0F809358038091BC
:100DC000BB00F0E0EB5CFC4F808380915A03811103
:100DD0006DC081E08093550384EA61C083E0809315
:100DE0005B0310922803CFCF80912803803208F054
:100DF00051C0E091280381E08E0F809328038091F9
:100E0000BB00F0E0E85FFC4F8083BDCF85EC8093B2
:100E1000BC0010925B0380912803803230F4E09193
:100E20002803F0E0E85FFC4F10826091280370E037
:100E3000E0910603F091070388E093E01995109282
:100E4000280335C084E080935B0310920503109261
:100E50000403E0910203F0910303199580910403C8
:100E6000811105C081E0809304031092E202E091B9
:100E7000050381E08E0F80930503F0E0EE51FD4FF6
:100E800080818093BB0090910503809104039817A3
:100E900008F479CF85E88093BC0009C085EC809385
:100EA000BC0010925B0303C0109259035BDAFF9100
:100EB000EF91BF91AF919F918F917F916F915F91D2
:100EC0004F913F912F910F900BBE0F900FBE0F903F
:100ED0001F90189560E070E083E07ADB60E070E0DE
:100EE00086E076CBFC01418161E005963ECBCF9355
:100EF000DF93EC016031F9F070F4623001F128F415
:100F0000613039F520E093E026C06430B1F06830FC
:100F100001F522E01FC0683CC9F038F4603499F054
:100F20006038B9F420E091E016C0693C51F06A3CA9
:100F300081F426E00FC021E00DC023E00BC024E0C7
:100F400009C025E007C020E092E005C020E094E061
:100F500002C020E090E080E2289F90011124898166
:100F60008F71282B29838C81887F982B9C83CE01BD
:100F7000B9DF4C8169E0CE010596DF91CF91F5CACA
:100F8000CF93DF93EB01833019F0863081F01DC0E1
:100F9000809102029091030268177907B1F08CEA00
:100FA00093E0A5DFD0930302C09302020EC08091AC
:100FB0000002909101026817790739F084EA93E002
:100FC00096DFD0930102C0930002DF91CF91089584
:100FD0006AEF70E083E0FCDA6AEF70E086E0F8DA4E
:100FE00060E170E083E0CCDF60E082E041DA61E064
:100FF00070E080E090E0D1DB60E170E086E0C0DF8F
:1010000061E085E035DA61E070E080E090E0C5CB3A
:101010006AEF70E083E0DCDA6AEF70E086E0D8DA4D
:1010200068E070E083E0ACDF60E082E021DA61E05C
:1010300070E080E090E0B1DB60E170E086E0A0DF8E
:1010400061E085E015DA61E070E080E090E0A5CB3A
:101050006AEF70E083E0BCDA6AEF70E086E0B8DA4D
:1010600060E170E083E08CDF60E082E001DA61E063
:1010700070E080E090E091DB68E070E086E080DF87
:1010800061E085E0F5D961E070E080E090E085CB3B
:101090000F931F93CF93DF93EC018C010B5F1F4FD6
:1010A0004B8163E0C80161DA488160E0C8015DDA24
:1010B000CE0118DF4A8162E0C80157DA4C8169E04D
:1010C000C801DF91CF911F910F914FCA8F929F92CC
:1010D000AF92BF92CF92DF92EF92FF920F931F9346
:1010E000CF93DF93EC014A015B016801790184EB46
:1010F00093E05ADD60E080E092D0CE0120D061E044
:1011000080E08DD042E0C501B401CAD061E087E043
:1011100086D08BE292E013D061E088E080D042E09C
:10112000C701B601DF91CF911F910F91FF90EF9012
:10113000DF90CF90BF90AF909F908F90B1C00097FD
:1011400061F0FC0101900020E9F73197AF01481BE5
:10115000590BBC0184EB93E0DFC180E090E008957F
:101160008F929F92AF92BF920F931F93CF93DF9373
:10117000CDB7DEB7A1970FB6F894DEBF0FBECDBFD7
:1011800019A2423008F44AE08E010F5D1F4F842EF1
:10119000912CA12CB12CA50194010E949612E62F4E
:1011A000B901CA0101501109EA3014F4E05D01C02F
:1011B000E95CD801EC93232B242B252B61F7C80184
:1011C000BEDFA1960FB6F894DEBF0FBECDBFDF9194
:1011D000CF911F910F91BF90AF909F908F900895E6
:1011E00090E0FC01E259FD4F2491FC01E85DFD4FC8
:1011F0008491882399F090E0880F991FFC01E25FA9
:10120000FD4FA591B491FC01EC50FE4F8591949156
:101210008FB7F894EC91E22BEC938FBF0895CF93A6
:10122000DF93CDB7DEB728970FB6F894DEBF0FBEB9
:10123000CDBF28E0E5E0F2E0DE01119601900D92CD
:101240002A95E1F72091CD03261710F46FEF620F76
:10125000FE013196E60FF11DE60FF11D9081682F1A
:10126000690F606884EB93E028960FB6F894DEBFB0
:101270000FBECDBFDF91CF9168CCCF93DF93EC0150
:1012800084EB93E091DC60E080E0C9DF8AEC92E0DF
:1012900056DF61E080E0C3DFCE01DF91CF914FCF19
:1012A0004F925F926F927F928F929F92AF92BF9276
:1012B000CF92DF92EF92FF926B017C01B42E9B01E3
:1012C000AC010E947911882319F085ED92E025C0C8
:1012D00026013701E89477F82FEF3FEF4FE75FE7FC
:1012E000C301B2010E94791181110CC02FEF3FEFB1
:1012F0004FE75FE7C301B201FFD518161CF489ED73
:1013000092E00BC02FEF3FEF4FE75FE4C701B6015C
:101310003DD718167CF48DED92E0FF90EF90DF90B2
:10132000CF90BF90AF909F908F907F906F905F9085
:101330004F9005CF2FEF3FEF4FE75FECC701B601AE
:10134000DBD587FDE8CF20E030E0A901C701B60179
:10135000D3D587FF11C0E091B403F091B50301909C
:10136000F081E02D6DE284EB93E019954C01F7FAE2
:10137000F094F7F8F09402C0812C912CA12C60E03D
:1013800070E080E09FE3AB1439F020E030E040E211
:1013900051E4B6D5A394F7CF9B01AC01C701B601C8
:1013A00047D52B013C0114D66B017C013DD69B0136
:1013B000AC01C301B2013BD52B013C014AE0C7019E
:1013C000B601CEDE7C01E80CF91CBB2069F0E0918F
:1013D000B403F091B5030190F081E02D6EE284EB4F
:1013E00093E01995E80EF91EDB2CDD20F9F020E0E2
:1013F00030E040E251E4C301B201CCD62B013C0104
:10140000E7D54B01A12CB12C4AE0C501B401A8DEFF
:10141000E80EF91EC501B40107D69B01AC01C3015A
:10142000B20105D52B013C01DA94DFCFC701FF9053
:10143000EF90DF90CF90BF90AF909F908F907F9074
:101440006F905F904F900895FC019181907E906124
:101450009183CF0147CD0F931F93CF93DF93EC017F
:10146000623018F08D8988608D8B698F1A8E8BE3BE
:101470009DE00197F1F760E08C810E94380260E006
:101480008E810E9438028D818F3F19F060E00E94AA
:1014900038026D8964FD19C063E0CE018FDA0BE478
:1014A00016E4C8010197F1F763E0CE0187DAC801BD
:1014B0000197F1F763E0CE0181DA83E592E00197CD
:1014C000F1F762E0CE017ADA13C06062CE013DDB53
:1014D0008BE496E40197F1F76D896062CE0135DB0C
:1014E00083E592E00197F1F76D896062CE012DDB13
:1014F0006D896062CE0129DB84E08E8B6CE0CE01C9
:1015000024DBCE0151DB82E08F8B66E0CE01DF91E0
:10151000CF911F910F9119CBCF92DF92EF92FF9253
:101520000F931F93CF93DF936C017A018B01C0E07F
:10153000D0E0CE15DF0589F0D8016D918D01D6017F
:10154000ED91FC910190F081E02DC6011995892B58
:1015500011F47E0102C02196ECCFC701DF91CF913B
:101560001F910F91FF90EF90DF90CF9008957894A6
:1015700084B5826084BD84B5816084BD85B5826098
:1015800085BD85B5816085BD80916E008160809349
:101590006E001092810080918100826080938100B2
:1015A00080918100816080938100809180008160C2
:1015B000809380008091B10084608093B10080911D
:1015C000B00081608093B000809191008260809330
:1015D00091008091910081608093910080919000B2
:1015E0008160809390008091A10082608093A1002F
:1015F0008091A10081608093A1008091A000816012
:101600008093A000809121018260809321018091CC
:10161000210181608093210180912001816080936C
:10162000200180917A00846080937A0080917A0012
:10163000826080937A0080917A00816080937A0042
:1016400080917A00806880937A001092C10062E0F5
:1016500084EB93E000DF10927C0310927D031092E4
:1016600034031092330310925B0381E080935A039A
:101670001092550361E084E10E94380261E085E147
:101680000E9438028091B9008E7F8093B9008091CA
:10169000B9008D7F8093B90088E48093B80085E419
:1016A0008093BC00B7DA84E08093B30361E00E94CA
:1016B00038028091B30394DD87E08093AB0361E04F
:1016C0000E9438028091AB038BDD60E083E00E94D2
:1016D000380283E085DD60E082E00E94380282E02B
:1016E0007FDD60E086E00E94380286E079DD60E020
:1016F00085E00E94380285E073DD61E070E080E003
:1017000090E04BD81092B0031092AF031092AE034A
:101710001092AD031092AC038CEA93E0B9DC109206
:10172000A8031092A7031092A6031092A50310928B
:10173000A40384EA93E0ACDC8CEA93E085DE84EADF
:1017400093E082DE68E08CEA93E0D1DB68E084EA33
:1017500093E0CDDB8091AF0380688093AF038CEA88
:1017600093E096DC8091A70380688093A70384EAC6
:1017700093E08EDC6AEF70E083E00E94E8026AEF9B
:1017800070E086E00E94E8029CE5E92E93E0F92EE5
:1017900020E0C22E20E0D22EC1E022242A943FE095
:1017A000332ED5EC80915B038111FCCFC0935B039A
:1017B000C0935A0320925903109258033092570352
:1017C000C0935603809156038261809356038091A3
:1017D0005503813069F4109255038091560380932C
:1017E000BB008091BC0083FDF8CFD093BC0003C048
:1017F00025EE2093BC0080915B038130E1F3809162
:101800005803803118F4B090580302C080E1B82E1C
:10181000A5E3B3E0ECE5F3E08E2F8E198B1518F4F9
:101820008D918193F9CF10927C03B0927D038091CA
:101830007C03B816B1F000918E0310E088E993E0C4
:101840000E94F401F801E258FC4F808380918E03DE
:101850008F3020F48F5F80938E03E9CF10928E0338
:10186000E6CF81E090917E039B3A08F080E091E022
:10187000209180032B3A08F090E021E03091820320
:101880003B3A08F020E031E0409184034B3A08F005
:1018900030E041E0509186035B3A08F040E051E0CF
:1018A000609188036B3A08F050E061E070918A0320
:1018B0007B3A08F060E071E0E0918C03EB3A08F0CD
:1018C00070E0709390036093910350939203409360
:1018D00093033093940320939503909396038093FE
:1018E000970386E30E94AE035C0187E30E94AE0388
:1018F0008C01B501BB0C880B990B98D320E030EC20
:101900004FE754E4FDD220E030E040EA50E442D416
:101910002EE432E640EB5FEBA0D44B015C01B80152
:10192000110F880B990B82D320E030EC4FE754E481
:10193000E7D220E030E040EA50E42CD42EE432E656
:1019400040EB5FEB8AD42B013C0162E370E080E066
:1019500090E00E94CD0380910402882309F49AC08C
:1019600080919503882309F453C09091940399239F
:1019700009F44EC090919303992309F449C09091C2
:101980009203992309F444C090919103992309F497
:101990003FC08DE292E071DC0E9405044B015C01C6
:1019A0000E940504DC01CB0188199909AA09BB0929
:1019B000843C9940A105B10538F56AEF70E083E0F9
:1019C0000E94E8026AEF70E086E00E94E80268E0A8
:1019D00070E083E0D5DA60E082E00E94380261E0E6
:1019E00070E080E090E00E94CD0368E070E086E067
:1019F000C7DA60E085E00E94380261E070E080E0D4
:101A000090E00E94CD03CCCFE3DA1092040272C1C1
:101A100090919603911102C0882329F08FE392E000
:101A20002CDC16DB67C180919103811104C0809189
:101A30009003882329F08AE492E01FDCE9DA5AC196
:101A400084E592E01ADC6AEF70E083E00E94E8022D
:101A50006AEF70E086E00E94E80268E070E083E0F0
:101A60008FDA60E082E00E94380261E070E080E09E
:101A700090E00E94CD0368E070E086E081DA61E0EA
:101A800085E00E94380261E070E080E090E00E9412
:101A9000CD0330C129E134E84BE552E4C501B4017E
:101AA00079D34B015C0129E134E84BE552E4C301F1
:101AB000B20170D32B013C0120E030E048EC51E44E
:101AC0001BD287FD09C020E030E048EC51E4C5019D
:101AD000B40112D287FF09C0FDD995018401B30179
:101AE000A20182E692E0F2DA05C1809195038111AC
:101AF0000CC080919403811108C0809193038111DF
:101B000004C080919203882369F16AEF70E083E05A
:101B10000E94E8026AEF70E086E00E94E80268E056
:101B200070E083E02DDA60E082E00E94380261E03C
:101B300070E080E090E00E94CD0364E070E086E019
:101B40001FDA61E085E00E94380261E070E080E029
:101B500090E00E94CD0395018401B301A20182E7C8
:101B600092E03CC080919603882341F071DA9501A0
:101B70008401B301A2018CE792E030C08091970309
:101B8000882381F16AEF70E083E00E94E8026AEF47
:101B900070E086E00E94E80260E270E083E0F0D945
:101BA00060E082E00E94380261E070E080E090E056
:101BB0000E94CD0368E070E086E0E2D961E085E054
:101BC0000E94380261E070E080E090E00E94CD0366
:101BD00095018401B301A20189E892E077DA1092BD
:101BE0008F0388C080919103882341F011DA950119
:101BF0008401B301A2018AE992E0F0CF80919003C1
:101C0000882369F16AEF70E083E00E94E8026AEFDE
:101C100070E086E00E94E80268E070E083E0B0D9FE
:101C200060E082E00E94380261E070E080E090E0D5
:101C30000E94CD0360E270E086E0A2D961E085E019
:101C40000E94380261E070E080E090E00E94CD03E5
:101C500095018401B301A20186EA92E0BFCF809191
:101C60008F0381110BC00E9405046093CF03709312
:101C7000D0038093D1039093D2033AC00E9405040D
:101C80000091CF031091D0032091D1033091D20362
:101C9000DC01CB01801B910BA20BB30B8B3F910599
:101CA000A105B10540F094D995018401B301A201C9
:101CB00086EB92E01CC00E9405040091CF031091B6
:101CC000D0032091D1033091D203DC01CB01801BE2
:101CD000910BA20BB30B853F9140A105B10540F0DC
:101CE000F9D895018401B301A20180EC92E0EED90C
:101CF000C0938F03C114D10409F454CD0E94000095
:101D000050CDCF93DF9310929B0310929A0388EEED
:101D100093E0A0E0B0E080939C0390939D03A09398
:101D20009E03B0939F0381E192E090939903809387
:101D3000980382E58093B103C1E0C093B20310928F
:101D4000B0031092AF031092AE031092AD03109245
:101D5000AC038093A903C093AA031092A803109226
:101D6000A7031092A6031092A5031092A403109249
:101D7000B7031092B60383E292E09093B503809389
:101D8000B403C093C40389E08093C50329DA0E9499
:101D90000A06D4E0D093C60384E00E945B0410924C
:101DA000C7038CB5837F8CBDC093C8038CB58F7D72
:101DB0008CBDC093B8038FEF8093B90383E0809309
:101DC000BA031092BB031092BC031092BD03109291
:101DD000BE03D093BF0385E08093C00386E0809369
:101DE000C10387E08093C20381E0FAD98091B903EF
:101DF0008F3F09F0F5D98091BA03F2D91092C90347
:101E000061E084EB93E027DB8091C403811102C081
:101E10001092C4030E9405046093CF037093D00313
:101E20008093D1039093D203DF91CF9108955058BE
:101E3000BB27AA270ED070C161D130F066D120F047
:101E400031F49F3F11F41EF456C10EF4E095E7FB08
:101E50004CC1E92F72D180F3BA1762077307840768
:101E6000950718F071F49EF58AC10EF4E0950B2EDB
:101E7000BA2FA02D0B01B90190010C01CA01A001DC
:101E80001124FF27591B99F0593F50F4503E68F137
:101E90001A16F040A22F232F342F4427585FF3CF78
:101EA000469537952795A795F0405395C9F77EF449
:101EB0001F16BA0B620B730B840BBAF09150A1F092
:101EC000FF0FBB1F661F771F881FC2F70EC0BA0F18
:101ED000621F731F841F48F4879577956795B795A0
:101EE000F7959E3F08F0B3CF9395880F08F0992798
:101EF000EE0F979587950895D4D008F481E0089562
:101F00000CD00AC102D140F0F9D030F021F45F3F8B
:101F100019F0EBC0511134C1EEC00FD198F39923E1
:101F2000C9F35523B1F3951B550BBB27AA2762179D
:101F30007307840738F09F5F5F4F220F331F441FE2
:101F4000AA1FA9F333D00E2E3AF0E0E830D091501A
:101F50005040E695001CCAF729D0FE2F27D0660F07
:101F6000771F881FBB1F261737074807AB07B0E846
:101F700009F0BB0B802DBF01FF2793585F4F2AF05C
:101F80009E3F510568F0B1C0FBC05F3FECF3983E47
:101F9000DCF3869577956795B795F7959F5FC9F7B9
:101FA000880F911D9695879597F90895E1E0660F42
:101FB000771F881FBB1F621773078407BA0720F0BB
:101FC000621B730B840BBA0BEE1F88F7E095089524
:101FD000BCD088F09F5790F0B92F9927B751A0F047
:101FE000D1F0660F771F881F991F1AF0BA95C9F7AD
:101FF00012C0B13081F0C3D0B1E00895C0C0672FE6
:10200000782F8827B85F39F0B93FCCF3869577955C
:102010006795B395D9F73EF4909580957095619545
:102020007F4F8F4F9F4F0895E89409C097FB3EF470
:1020300090958095709561957F4F8F4F9F4F992315
:10204000A9F0F92F96E9BB279395F6958795779593
:102050006795B795F111F8CFFAF4BB0F11F460FF53
:102060001BC06F5F7F4F8F4F9F4F16C0882311F0AB
:1020700096E911C0772321F09EE8872F762F05C0BF
:10208000662371F096E8862F70E060E02AF09A955A
:10209000660F771F881FDAF7880F9695879597F94F
:1020A0000895990F0008550FAA0BE0E8FEEF1616E9
:1020B0001706E807F907C0F012161306E407F5073C
:1020C00098F0621B730B840B950B39F40A2661F0B0
:1020D000232B242B252B21F408950A2609F4A14053
:1020E000A6958FEF811D811D089597F99F6780E860
:1020F00070E060E008959FEF80EC089500240A945A
:102100001616170618060906089500240A941216D2
:102110001306140605060895092E0394000C11F405
:10212000882352F0BB0F40F4BF2B11F460FF04C0B2
:102130006F5F7F4F8F4F9F4F089557FD9058440F0B
:10214000551F59F05F3F71F04795880F97FB991F16
:1021500061F09F3F79F087950895121613061406D3
:10216000551FF2CF4695F1DF08C016161706180660
:10217000991FF1CF86957105610508940895E8943B
:10218000BB2766277727CB0197F908958ADF08F4E4
:102190008FEF08950BD0C0CFB1DF28F0B6DF18F075
:1021A000952309F0A2CFA7CF1124EACFC6DFA0F371
:1021B000959FD1F3950F50E0551F629FF001729FDC
:1021C000BB27F00DB11D639FAA27F00DB11DAA1FFB
:1021D000649F6627B00DA11D661F829F2227B00D48
:1021E000A11D621F739FB00DA11D621F839FA00DD3
:1021F000611D221F749F3327A00D611D231F849F23
:10220000600D211D822F762F6A2F11249F57504079
:102210008AF0E1F088234AF0EE0FFF1FBB1F661F14
:10222000771F881F91505040A9F79E3F510570F0CD
:102230005CCFA6CF5F3FECF3983EDCF386957795B5
:102240006795B795F795E7959F5FC1F7FE2B880FC8
:10225000911D9695879597F90895FA01EE0FFF1F46
:1022600030962105310599F16115710561F48038C9
:10227000BFE39B0749F168949038810561F080388D
:10228000BFEF9B0741F0992342F5FF3FE105310580
:10229000210511F1E8940894E795D901AA2329F4BE
:1022A000AB2FBE2FF85FD0F310C0FF5F70F4A69580
:1022B000E0F7F73950F019F0FF3A38F49F779F9321
:1022C0000CD00F9007FC905808953EF014CF60E0BA
:1022D00070E080E89FE308954FE79F775F934F9307
:1022E0003F932F93A2D02F913F914F915F9152DF57
:1022F00009C0D7DE880B990B089519F40EF0F5CEBE
:102300003ECFF9CE22DFC8F39638C0F707F80F9218
:10231000E8942BE33AEA48EB5FE74ADF0F920F922B
:102320000F924DB75EB70F92C0D0ECE2F1E016D03D
:102330004F915F91EF91FF91E595EE1FFF1F49F0DF
:10234000FE57E0684427EE0F441FFA95E1F74195E8
:10235000550B32D00F9007FE26C00895DF93CF9320
:102360001F930F93FF92EF92DF927B018C01689491
:1023700005C0DA2EEF011ADFFE01E894A591259140
:10238000359145915591AEF3EF0163DDFE01970163
:10239000A801DA9479F7DF90EF90FF900F911F91E9
:1023A000CF91DF9108959B01AC0160E070E080E87F
:1023B0009FE3A6CD9ACEACC0C8DEE8F39923D9F34B
:1023C000940F511DBBF39150504094F059F0882365
:1023D00032F0660F771F881F91505040C1F79E3F23
:1023E000510544F7880F911D9695879597F90895A3
:1023F0005F3FACF0983E9CF0BB278695779567953C
:10240000B79508F4B1609395C1F7BB0F58F711F475
:1024100060FFE8CF6F5F7F4F8F4F9F4FE3CFB0CE0E
:102420000EF076C068CE689460CE8FDEC8F3992334
:10243000D1F3C6F3DF93CF931F930F93FF92C92F6E
:10244000DD2788232AF02197660F771F881FDAF788
:1024500020E030E040E85FEB9FE3883920F0803EE9
:1024600030F021968F77E4DCE4E5F1E003C0E0DCB6
:10247000E1E8F1E073DF8B01BE01EC01FB2E6F5749
:1024800071097595771F880B990BD0DD28E132E72C
:1024900041E35FE38BDEAF2D9801AE01FF900F911A
:1024A0001F91CF91DF91D5DC37CEFA01DC01AA0F65
:1024B000BB1F9B01AC01BF5728F4222733274427B9
:1024C00050781FC0B75188F4AB2F0024469537953C
:1024D0002795011CA395D2F3002069F0220F331F2A
:1024E000441FB395DAF30DD0A2CC61307105A0E89A
:1024F0008A07B94630F49B01AC0166277727882705
:102500009078309621F0208331834283538308955D
:102510009F3F31F0915020F4879577956795B79557
:10252000880F911D9695879597F90895A1E21A2E27
:10253000AA1BBB1BFD010DC0AA1FBB1FEE1FFF1F67
:10254000A217B307E407F50720F0A21BB30BE40BB7
:10255000F50B661F771F881F991F1A9469F76095FE
:102560007095809590959B01AC01BD01CF010895B8
:10257000EE0FFF1F881F8BBF0790F691E02D199477
:04258000F894FFCFFD
:10258400080008000100004000140054000000008E
:1025940000240210023502E4010802F401E50100FE
:1025A400000000DB058C0A350234022000526F74EF
:1025B4006174652039302064656772656573004D08
:1025C4004F5645205249474854004D4F5645204CDC
:1025D400454654004D4F56452053545241494748AF
:1025E40054004F424A4543542044455445435445BE
:1025F40044004D6F76696E67204357004D6F7669CE
:102604006E67205249474854004D6F76696E6720C3
:10261400464152205249474854004D6F76696E67CF
:10262400204C454654004D6F76696E6720464152F2
:10263400204C45465400534C4F57204D4F564500AF
:1026440053544F50204D4F5645005354415254203B
:1026540050415448006E616E00696E66006F766684
:02266400000074
:00000001FF
