:1000000048C1000077C1000075C1000073C1000045
:1000100071C100006FC100006DC100006BC1000024
:1000200069C1000067C1000065C1000063C1000034
:1000300061C100005FC100005DC100005BC1000044
:1000400059C1000057C1000055C1000053C1000054
:1000500051C100004FC100004DC10000A7C4000005
:1000600049C100007CC3000051C3000043C100002F
:1000700041C100003FC100003DC100003BC1000084
:1000800039C1000037C1000035C1000033C1000094
:1000900031C100002FC100002DC10000ADC600001D
:1000A00029C1000027C1000025C1000023C10000B4
:1000B00021C100001FC100001DC100001BC10000C4
:1000C00019C1000017C1000015C1000013C10000D4
:1000D00011C100000FC100000DC100000BC10000E4
:1000E00009C100001404170406040A040E044E0497
:1000F0001B041F04250429042D04330437043B0486
:100100004E0441044504490407634236B79BD8A70F
:100110001A39685618AEBAAB558C1D3CB7CC57632C
:10012000BD6DEDFD753EF6177231BF000000803FDA
:1001300008000000BE922449123EABAAAA2ABECDF6
:10014000CCCC4C3E00000080BEABAAAAAA3E000068
:100150000000BF000000803F000000000008417860
:10016000D3BB4387D1133D190E3CC3BD4282AD2B97
:100170003E68EC8276BED98FE1A93E4C80EFFFBE8F
:1001800001C4FF7F3F0000000000000021002400A8
:1001900027002A002D003000330001010000040177
:1001A00007010A0100002200250028002B002E0074
:1001B0003100340002010000050108010B010505B2
:1001C0000505070508080808020202020A0A0808CD
:1001D00004040404010101010101010103030303FB
:1001E00003030303040707070C0C0C0C0C0C0C0C8A
:1001F0000202020206060606060606060B0B0B0B9B
:100200000B0B0B0B010210202008081020401020BF
:1002100040800201020108040201010204081020CA
:1002200040808040201008040201800402018040C8
:100230002010080402010804020101020408102031
:100240004080010204081020408000000A0B0209CF
:100250000C0D0E0807030401000000000000000060
:10026000000000000000000000000000000000008E
:10027000000000000000121110000000000000004B
:10028000000000000000000000000000000000006E
:100290009F0C11241FBECFEFD1E2DEBFCDBF00E027
:1002A0000CBF12E0A0E0B2E0EEE4F2E200E00BBF2F
:1002B00002C007900D92A433B107D9F725E0A4E35B
:1002C000B2E001C01D92AD30B207E1F711E0C9E420
:1002D000D1E000E006C021970109802FFE010E94B5
:1002E0000511C834D10780E00807A9F70E94D50A94
:1002F0000C94251185CEFC01538D448D252F30E0C3
:10030000842F90E0821B930B541710F0CF96089522
:1003100001970895FC01918D828D981761F0828D6F
:10032000DF01A80FB11D5D968C91928D9F5F9F7329
:10033000928F90E008958FEF9FEF0895FC01918DCB
:10034000828D981731F0828DE80FF11D858D90E038
:1003500008958FEF9FEF0895FC01918D228D892FD5
:1003600090E0805C9F4F821B91098F7399270895BD
:1003700083E393E0F1DF21E0892B09F420E0822F71
:100380000895FC01848DDF01A80FB11DA35ABF4F52
:100390002C91848D90E001968F739927848FA68984
:1003A000B7892C93A089B1898C9180648C93938DAB
:1003B000848D981306C00288F389E02D80818F7D9B
:1003C00080830895EF92FF920F931F93CF93DF9353
:1003D000EC0181E0888F9B8D8C8D981305C0E88996
:1003E000F989808185FD23C0F62E0B8D10E00F5F0B
:1003F0001F4F0F731127E02E8C8DE8120BC00FB624
:1004000007FCFACFE889F989808185FFF5CFCE0115
:10041000B8DFF2CF8B8DFE01E80FF11DE35AFF4FDD
:10042000F0820B8FEA89FB898081806207C0EE89A8
:10043000FF896083E889F98980818064808381E015
:1004400090E0DF91CF911F910F91FF90EF90089571
:10045000CF93DF93EC01888D8823C1F0EA89FB8973
:10046000808185FD05C0A889B9898C9186FD0EC063
:100470000FB607FCF5CF808185FFF2CFA889B98937
:100480008C9185FFEDCFCE017CDFE8CFDF91CF915E
:10049000089580E090E0892B19F06ADF811125C072
:1004A00080E090E0892B41F080E090E0892B21F002
:1004B0000E94000081111CC080E090E0892B41F077
:1004C00080E090E0892B21F00E940000811113C090
:1004D00080E090E0892BA1F080E090E0892B81F012
:1004E0000E94000081110AC008950E940000D8CF28
:1004F0000E940000E1CF0E940000EACF0C940000AF
:100500000895863308F0865390917B00282F287039
:10051000977F922B90937B008770806480937C0000
:1005200080917A00806480937A0080917A0086FDC1
:10053000FCCF809178002091790090E0922B089573
:100540003FB7F8948091810290918202A09183023A
:10055000B091840226B5A89B05C02F3F19F00196E3
:10056000A11DB11D3FBFBA2FA92F982F8827820F39
:10057000911DA11DB11DBC01CD0142E0660F771F89
:10058000881F991F4A95D1F7089585ED8093BC0087
:100590008091BC0084FDFCCF10920F030895409120
:1005A0005602262F30E0240F311D21323105DCF4B4
:1005B00020910F032430C9F4FC0180E090E08617FD
:1005C00058F4309156022191DC01AC5CBD4FA30F71
:1005D000B11D2C930196F3CF80915602680F609362
:1005E000560280E0089581E0089582E0089508951C
:1005F000E091E8028091E702E81730F4F0E0E95377
:10060000FD4F808190E008958FEF9FEF08959091C6
:10061000E8028091E702981750F4E92FF0E0E953DF
:10062000FD4F208130E09F5F9093E80202C02FEFE2
:100630003FEFC90108958091E70290E02091E80220
:10064000821B91090895CF92DF92EF92FF920F9350
:100650001F93CF93DF937C01262F972F8A018091E0
:100660001003882391F0C62FD72F6E01C40ED51E1C
:10067000CC15DD0569F06991D701ED91FC910190F0
:10068000F081E02DC7011995F3CF642F822F87DF0A
:10069000C801DF91CF911F910F91FF90EF90DF90F4
:1006A000CF900895CF93DF931F92CDB7DEB76983C4
:1006B000209110032223D1F020913203203240F008
:1006C00021E030E0FC013383228380E090E014C01D
:1006D00080911103E82FF0E0EE5EFC4F998190834A
:1006E0008F5F809311038093320304C061E0CE01D9
:1006F000019655DF81E090E00F90DF91CF91089552
:10070000089580E090E008950E9421111F920F92B9
:100710000FB60F9211240BB60F922F933F934F9366
:100720005F936F937F938F939F93AF93BF93EF9359
:10073000FF9383E393E025DEFF91EF91BF91AF91AB
:100740009F918F917F916F915F914F913F912F91E9
:100750000F900BBE0F900FBE0F901F9018951F9219
:100760000F920FB60F9211240BB60F922F938F9307
:100770009F93EF93FF93E0914303F09144038081B3
:10078000E0914903F0914A0382FD12C0908180916B
:100790004C038F5F8F7320914D03821751F0E091CE
:1007A0004C03F0E0ED5CFC4F958F80934C0301C04F
:1007B0008081FF91EF919F918F912F910F900BBEB0
:1007C0000F900FBE0F901F901895362F90E0FC01F0
:1007D000E65BFD4F4491FC01EC5FFD4F2491FC0171
:1007E000E254FE4F9491992309F46BC0442309F419
:1007F00055C050E0FA013197E231F10508F04EC0E2
:100800008827EE58FF4F8F4F0C9405118091800080
:100810008F7707C0809180008F7D03C0809180001A
:10082000877F809380003AC084B58F7702C084B5FB
:100830008F7D84BD33C08091B0008F7703C08091DD
:10084000B0008F7D8093B00029C0809190008F7799
:1008500007C0809190008F7D03C080919000877FBA
:10086000809390001BC08091A0008F7707C080917B
:10087000A0008F7D03C08091A000877F8093A0009F
:100880000DC0809120018F7707C0809120018F7D5E
:1008900003C080912001877F80932001E92FF0E041
:1008A000EE0FFF1FEC55FE4FA591B4918FB7F89452
:1008B000EC91311103C020952E2301C02E2B2C93D7
:1008C0008FBF0895CF93DF9390E0FC01EC5FFD4F65
:1008D0002491FC01E254FE4F8491882361F190E061
:1008E000880F991FFC01E657FE4FC591D491FC017A
:1008F000EC55FE4FA591B491611109C09FB7F894D2
:100900008881209582238883EC912E230BC062304E
:1009100061F49FB7F8943881822F80958323888370
:10092000EC912E2B2C939FBF06C08FB7F894E881D3
:100930002E2B28838FBFDF91CF9108958F929F92A6
:10094000AF92BF92CF92DF92EF92FF926B017C0148
:10095000F7DD4B015C01C114D104E104F104E9F0BD
:10096000EFDDDC01CB0188199909AA09BB09883E92
:100970009340A105B10578F321E0C21AD108E1083E
:10098000F10888EE880E83E0981EA11CB11CC114EA
:10099000D104E104F10421F7DECFFF90EF90DF9066
:1009A000CF90BF90AF909F908F9008951F920F921D
:1009B0000FB60F9211242F933F938F939F93AF9372
:1009C000BF9380917D0290917E02A0917F02B091B1
:1009D000800230917C0223E0230F2D3720F4019612
:1009E000A11DB11D05C026E8230F0296A11DB11D52
:1009F00020937C0280937D0290937E02A0937F02DD
:100A0000B09380028091810290918202A091830232
:100A1000B09184020196A11DB11D80938102909333
:100A20008202A0938302B0938402BF91AF919F9101
:100A30008F913F912F910F900FBE0F901F9018959F
:100A40009CB5282F23709C7F922B9CBD2DB582FBDB
:100A5000992790F9822F8E7F892B8DBD0895CF9392
:100A6000DF93EC018A89ECDF8C89811103C08CB59E
:100A7000806202C08CB58F7D8CBD8CB5837F9B89D5
:100A8000892B8CBD60E08989A0DE8F858EBD00003A
:100A90000DB407FEFDCF8EB561E08989DF91CF915E
:100AA00094CECF92DF92EF92FF92CF93DF93EC013F
:100AB000888981110CC060E08E8187DE61E08E81C3
:100AC00084DE60E08E8181DE8BE891E033C0C12C52
:100AD000D12C7601C394D701C6010E8004C0880FC3
:100AE000991FAA1FBB1F0A94D2F780959F8589235F
:100AF0008F87CE01B4DFD701C6010E8004C0880FF6
:100B0000991FAA1FBB1F0A94D2F72F85822B8F87AC
:100B1000CE01A5DF0E8004C0CC0CDD1CEE1CFF1C3A
:100B20000A94D2F7C0948F85C822CF86CE0197DF72
:100B30008BE990E00197F1F7DF91CF91FF90EF9073
:100B4000DF90CF9008958F929F92AF92BF92CF92F5
:100B5000DF92EF92FF920F931F93CF93DF93EC01FD
:100B60008889062F10E081111FC05E0187E0A80E62
:100B7000B11CE12CF12C650161E0F50181915F016F
:100B8000A1DEB8010E2C02C0759567950A94E2F7B4
:100B90006170F601808119DEFFEFEF1AFF0A84E031
:100BA000E816F10441F732C084E090E0812C912CEA
:100BB000540183949C0124503109A80102C0559529
:100BC00047952A95E2F72F8540FF0DC07501640116
:100BD000082E04C0CC0CDD1CEE1CFF1C0A94D2F7BE
:100BE000C22ACF860DC0B501A401082E04C0440F4F
:100BF000551F661F771F0A94D2F7409542234F87EF
:100C0000019688309105B1F6CE0129DFCE01DF9142
:100C1000CF911F910F91FF90EF90DF90CF90BF90F9
:100C2000AF909F908F903DCFAF92BF92CF92DF92C7
:100C3000EF92FF920F931F93CF93DF93EC01F62E69
:100C4000642F8C81C2DD8D818F3F11F060E0BDDDAE
:100C50008D890F2D10E084FF2AC05E0187E0A80E69
:100C6000B11CE12CF12C650161E0F50181915F017E
:100C700029DEB8010E2C02C0759567950A94E2F73B
:100C80006170F6018081A1DDFFEFEF1AFF0A88E0B5
:100C9000E816F10441F7CE01DF91CF911F910F913A
:100CA000FF90EF90DF90CF90BF90AF90FACEB80159
:100CB00084E0759567958A95E1F7CE0144DF6F2D45
:100CC000CE01DF91CF911F910F91FF90EF90DF90B8
:100CD000CF90BF90AF9037CF1F93CF93DF93FC019E
:100CE0002089211105C040E0DF91CF911F919CCF59
:100CF000162FEC0181E090E0A0E0B0E0048004C099
:100D0000880F991FAA1FBB1F0A94D2F78095978559
:100D100089238787CF01A3DE612F70E084E075957A
:100D200067958A95E1F7CE010EDF612FCE01DF9145
:100D3000CF911F9108CF1F93CF93DF93EC01162F14
:100D40008889811104C041E0CE016EDF1DC081E0C1
:100D500090E0A0E0B0E00C8004C0880F991FAA1FAB
:100D6000BB1F0A94D2F72F85822B8F87CE0177DEA7
:100D7000612F70E084E0759567958A95E1F7CE0163
:100D8000E2DE612FCE01DFDE81E090E0DF91CF91E6
:100D90001F910895CF93CFB7F89480917B02811172
:100DA00023C0E3EFF1E08491E9E3F2E09491E82FCE
:100DB000F0E0EE0FFF1FE657FE4FA591B491EC91C6
:100DC000E92319F461E085E300DD61E085E37ADD84
:100DD0008CB580618CBD8CB580648CBD61E084E392
:100DE00071DD61E083E36EDD80917B028F5F809334
:100DF0007B02CFBFCF9108951F920F920FB60F9233
:100E000011240BB60F922F933F934F935F936F93E1
:100E10007F938F939F93AF93BF93EF93FF938091B3
:100E2000B900887F803609F49CC068F5883209F4DF
:100E30005BC090F4803109F454C038F4882309F47D
:100E4000F6C0883009F44DC0F5C0883109F44CC0B3
:100E5000803209F45DC0EEC0803409F468C048F403
:100E6000803309F455C0883309F0E4C080930D0342
:100E7000D8C0803509F44FC0883509F45DC0883486
:100E800009F0D8C0D6C0883909F4C7C0A8F488379B
:100E900009F467C038F4883609F463C0803709F470
:100EA00060C0C8C0883809F4B8C0803909F45FC090
:100EB000803809F0BFC05BC0803B09F486C038F4BD
:100EC000803A09F466C0883A09F47FC0B3C0803C18
:100ED00009F4A7C0883C09F4A4C0883B09F48AC07F
:100EE000A9C08091EA0210C090910C0380910B037D
:100EF000981770F5E0910C0381E08E0F80930C033E
:100F0000F0E0E551FD4F80818093BB0085EC86C009
:100F100080930D038EC0E0910C0381E08E0F8093CF
:100F20000C038091BB00F0E0E551FD4F8083909170
:100F30000C0380910B036EC0E0910C0381E08E0FD7
:100F400080930C038091BB00F0E0E551FD4F80835E
:100F500080910E0381116DC081E08093E90284EAE3
:100F600061C083E080930F0310927A02CFCF80910B
:100F70007A02803208F051C0E0917A0281E08E0F4F
:100F800080937A028091BB00F0E0E65AFD4F8083A7
:100F9000BDCF85EC8093BC0010920F0380917A0244
:100FA000803230F4E0917A02F0E0E65AFD4F108290
:100FB00060917A0270E0E0915802F09159028AE55E
:100FC00092E0199510927A0235C084E080930F0365
:100FD0001092570210925602E0915402F09155027D
:100FE000199580915602811105C081E080935602C7
:100FF00010923402E091570281E08E0F80935702E5
:10100000F0E0EC5CFD4F80818093BB009091570233
:1010100080915602981708F479CF85E88093BC0038
:1010200009C085EC8093BC0010920F0303C010929E
:101030000D03ABDAFF91EF91BF91AF919F918F912B
:101040007F916F915F914F913F912F910F900BBEC8
:101050000F900FBE0F901F90189510920F0381E014
:1010600080930E031092E90261E084E1AEDB61E05F
:1010700085E1ABDBE9EBF0E080818E7F80838081CE
:101080008D7F808388E48093B80085E48093BC00E2
:101090000895FF920F931F93CF93DF931F92CDB7C5
:1010A000DEB78C01F62E60E0FC01828149838DDB86
:1010B000F801908181819CBD8DBD8F2D8F718068DD
:1010C0008EBD000049810DB407FEFDCF8EB54EBD2B
:1010D00000000DB407FEFDCF8EB561E0F8018281FE
:1010E00074DB87E090E00197F1F70F90DF91CF91EB
:1010F0001F910F91FF900895FC01418161E00596D9
:10110000C8CF0F931F93CF93DF93EC018C010B5F3C
:101110001F4F4B8163E0C801BCDF488160E0C8011C
:10112000B8DFCE01E9DF4A8162E0C801B2DF4C815D
:1011300069E0C801DF91CF911F910F91AACF382F9D
:101140002091320390910C05213208F049C0809122
:101150000F038111FCCF42E040930F0330930E0345
:101160003FEF30930D0310920C0320930B03A2E189
:10117000B3E04BEE52E0FA013E2F341B321718F465
:101180003D913193F9CF1092EA022091EA02990F32
:10119000922B9093EA029091E902913061F41092BF
:1011A000E9029091EA029093BB009091BC0093FDFC
:1011B000F8CF95EC01C095EE9093BC0090910F0391
:1011C0009230E1F390910D039F3F79F080910D03F0
:1011D000803241F080910D03803331F084E005C00E
:1011E00081E003C082E001C083E0109211031092FD
:1011F0003203109210030895CF92DF92EF92FF9284
:101200000F931F93CF93DF936C017A018B01C0E0A2
:10121000D0E0CE15DF0589F0D8016D918D01D601A2
:10122000ED91FC910190F081E02DC6011995892B7B
:1012300011F47E0102C02196ECCFC701DF91CF915E
:101240001F910F91FF90EF90DF90CF900895CF9373
:10125000DF931F92CDB7DEB791E09093100399E230
:1012600090930C051092110310923203682F60685E
:1012700080ED93E0498316DA4981642F80ED93E095
:1012800011DA81E00F90DF91CF9159CF0F931F9327
:10129000CF93DF931092E8021092E70210921103AD
:1012A00010923203DADE81E08093100389E28093AA
:1012B0000C0562E980ED93E0F5D981E040DF809193
:1012C0000F038111FCCF81E080930F0380930E0305
:1012D0009FEF90930D0310920C0310920B038093D9
:1012E000EA028091EA0282658093EA028091E90233
:1012F000813061F41092E9028091EA028093BB0090
:101300008091BC0083FDF8CF85EC01C085EE809311
:10131000BC0080910F038130E1F380910C038111B7
:1013200003C080910C0301C081E0ABEEB2E027EC7A
:1013300032E0F9019E2F921B981718F49D9191931A
:10134000F9CF1092E8028093E70280ED93E05FD935
:10135000843419F0803109F056C081E08093EC04A8
:10136000C091EF04D091F004AE0160E070E06FDF57
:10137000D093F004C093EF04C091ED04D091EE043B
:101380008091EC04811101C081DFAE0160E070E06A
:101390008FE05DDFD093EE04C093ED0441E050E0B8
:1013A00060E070E080E053DF63E070E080E090E0B8
:1013B000C5DA43E050E060E070E080E048DF0CEE2A
:1013C00013E0C0E0D0E0BE010D2E000C880B990B9D
:1013D00050D420E030E04FE753E4B0D320E030E0D9
:1013E00040E250E435D520E030E04FE753E4CDD47F
:1013F00012D4F80161938F012196C115F1E0DF0746
:1014000011F781E001C080E0DF91CF911F910F9132
:101410000895CF93DF93EC0189818F718064898374
:101420008C81887F8C83CE0167DE4C8169E0CE01A0
:101430000596DF91CF912DCEFC019181907E926136
:101440009183CF0159CE0F931F93CF93DF93EC017C
:10145000623018F08D8988608D8B698F1A8E8BE3CE
:101460009DE00197F1F760E08C81AFD960E08E815B
:10147000ACD98D818F3F11F060E0A7D96D8964FDF3
:1014800019C063E0CE015FDB0BE416E4C8010197ED
:10149000F1F763E0CE0157DBC8010197F1F763E094
:1014A000CE0151DB83E592E00197F1F762E0CE01D6
:1014B0004ADB13C06062CE010FDC8BE496E4019737
:1014C000F1F76D896062CE0107DC83E592E0019758
:1014D000F1F76D896062CE01FFDB6D896062CE013C
:1014E000FBDB84E08E8B6CE0CE01F6DB61E0CE01AD
:1014F000F3DB8BE39FE10197F1F782E08F8B66E0EE
:10150000CE01DF91CF911F910F91E6CB8F929F92E9
:10151000AF92BF920F931F93CF93DF93CDB7DEB7F8
:10152000A1970FB6F894DEBF0FBECDBF19A242300F
:1015300008F44AE08E010F5D1F4F842E912CA12CE0
:10154000B12CA5019401D8D2E62FB901CA010150EE
:101550001109EA3014F4E05D01C0E95CD801EC93B4
:10156000232B242B252B69F70115110569F0F801B0
:1015700001900020E9F73197AF01401B510BB801F2
:1015800083E393E039DE02C080E090E0A1960FB6DD
:10159000F894DEBF0FBECDBFDF91CF911F910F91A9
:1015A000BF90AF909F908F900895789484B582609B
:1015B00084BD84B5816084BD85B5826085BD85B5F7
:1015C000816085BD80916E00816080936E00109275
:1015D00081008091810082608093810080918100F0
:1015E0008160809381008091800081608093800081
:1015F0008091B10084608093B1008091B0008160DF
:101600008093B000809191008260809391008091DE
:10161000910081608093910080919000816080931F
:1016200090008091A10082608093A1008091A10030
:1016300081608093A1008091A00081608093A000D0
:10164000809121018260809321018091210181603C
:1016500080932101809120018160809320018091FD
:101660007A00846080937A0080917A00826080930F
:101670007A0080917A00816080937A0080917A006C
:10168000806880937A001092C10062E081EF94E05C
:10169000DADE1092E8021092E70210921103109223
:1016A0003203DBDC77DB84E08093EB0361E08DD8F1
:1016B00061E08091EB0306D987E08093E30361E06A
:1016C00084D861E08091E303FDD860E083E07DD8B9
:1016D00061E083E0F7D860E082E077D861E082E003
:1016E000F1D860E086E071D861E086E0EBD860E098
:1016F00085E06BD861E085E0E5D861E070E080E0EE
:1017000090E01CD91092E8031092E7031092E603D0
:101710001092E5031092E40384EE93E0F2DC109261
:10172000E0031092DF031092DE031092DD031092AB
:10173000DC038CED93E0E5DC84EE93E07DDE8CED64
:1017400093E07ADE84EE93E064DE8CED93E061DE7C
:101750008091E70380688093E70384EE93E0D1DC17
:101760008091DF0380688093DF038CED93E0C9DC18
:101770008DDD60E083E2A6D860E084E2A3D861E07A
:1017800085E2A0D860E085E220D8EFEAF2E0C9E97E
:10179000D2E0A5E8B2E011921192199219921D922D
:1017A0001D9282E0E33CF807B1F761E086E18AD858
:1017B00061E087E187D861E088E184D860E086E174
:1017C00004D860E087E101D860E088E10E94E50389
:1017D000E0914303F091440382E08083E0913F0372
:1017E000F09140031082E0914103F09142038FECAD
:1017F000808310924B03E0914703F091480386E009
:101800008083E0914503F09146038081806180836D
:10181000E0914503F0914603808188608083E091E8
:101820004503F0914603808180688083E091450301
:10183000F091460380818F7D80830AE010E0C091A3
:10184000C502D091C602E091C302F091C402EE0F2E
:10185000FF1FE155FD4FE080F18088E30E94810287
:10186000BC01990F880B990B04D22BE038E240EAB7
:101870005BE38BD22BEC31EA45E85FEBE9D226E65D
:1018800038E847E850E481D2C1D16031710514F0E5
:1018900060E070E08091C3029091C402FC01EE0F01
:1018A000FF1FE155FD4F71836083CE19DF096C0F77
:1018B0007D1F7093C6026093C50201968A30910520
:1018C0002CF49093C4028093C30204C01092C4020B
:1018D0001092C302CB01B80185D47093AE0260931D
:1018E000AD026B01072E000CEE08FF0877FF14C055
:1018F000E0913303F09134030190F081E02D6DE22B
:1019000083E393E0199566277727CB016C197D094E
:101910008E099F094AE003C04AE0C701B601F6DD1F
:1019200042E050E060E372E083E393E065DC69E16C
:1019300070E080E090E002D80E94490280CFCF930F
:10194000DF93109236031092350388EE93E0A0E007
:10195000B0E08093370390933803A0933903B0939A
:101960003A0324E032E0309334032093330325EC30
:1019700030E03093400320933F0324EC30E0309379
:1019800042032093410320EC30E030934403209342
:10199000430321EC30E0309346032093450322ECCF
:1019A00030E0309348032093470326EC30E0309337
:1019B0004A032093490310924C0310924D03109256
:1019C0004E0310924F031092D3031092D2038093D0
:1019D000D4039093D503A093D603B093D70386E1A5
:1019E00092E09093D1038093D00382E58093E90342
:1019F000C1E0C093EA031092E8031092E70310924B
:101A0000E6031092E5031092E4038093E103C09390
:101A1000E2031092E0031092DF031092DE031092B3
:101A2000DD031092DC031092EC048BEE90E09093B7
:101A3000F0048093EF041092EE041092ED041092E3
:101A4000F4041092F30488E292E09093F2048093FD
:101A5000F104C093010589E08093020561E00E94D2
:101A6000620498D9D4E0D093030584E00E94200555
:101A7000109204058CB5837F8CBDC09305058CB591
:101A80008F7D8CBDC093F5048FEF8093F60483E0C7
:101A90008093F7041092F8041092F9041092FA045B
:101AA0001092FB04D093FC0485E08093FD0486E053
:101AB0008093FE0487E08093FF0461E081E00E9450
:101AC00062048091F6048F3F19F061E00E94620485
:101AD00061E08091F7040E9462041092060561E0C3
:101AE00081EF94E0B0DC80910105811102C0109279
:101AF0000105DF91CF910895A1E21A2EAA1BBB1B0D
:101B0000FD010DC0AA1FBB1FEE1FFF1FA217B307C9
:101B1000E407F50720F0A21BB30BE40BF50B661FDF
:101B2000771F881F991F1A9469F7609570958095A3
:101B300090959B01AC01BD01CF0108950CD0EBC085
:101B4000E3D040F0DAD030F021F45F3F19F0CCC0A0
:101B5000511115C1CFC0F0D098F39923C9F3552383
:101B6000B1F3951B550BBB27AA2762177307840790
:101B700038F09F5F5F4F220F331F441FAA1FA9F346
:101B800033D00E2E3AF0E0E830D091505040E69538
:101B9000001CCAF729D0FE2F27D0660F771F881F99
:101BA000BB1F261737074807AB07B0E809F0BB0B88
:101BB000802DBF01FF2793585F4F2AF09E3F5105AC
:101BC00068F092C0DCC05F3FECF3983EDCF3869592
:101BD00077956795B795F7959F5FC9F7880F911D22
:101BE0009695879597F90895E1E0660F771F881F0E
:101BF000BB1F621773078407BA0720F0621B730BC1
:101C0000840BBA0BEE1F88F7E095089504D0689412
:101C1000B111B5C0089598D088F09F5790F0B92FB2
:101C20009927B751A0F0D1F0660F771F881F991F31
:101C30001AF0BA95C9F712C0B13081F09FD0B1E067
:101C400008959CC0672F782F8827B85F39F0B93F77
:101C5000CCF3869577956795B395D9F73EF4909533
:101C60008095709561957F4F8F4F9F4F0895E894B1
:101C700009C097FB3EF490958095709561957F4FD4
:101C80008F4F9F4F9923A9F0F92F96E9BB27939582
:101C9000F695879577956795B795F111F8CFFAF492
:101CA000BB0F11F460FF1BC06F5F7F4F8F4F9F4FC3
:101CB00016C0882311F096E911C0772321F09EE821
:101CC000872F762F05C0662371F096E8862F70E087
:101CD00060E02AF09A95660F771F881FDAF7880F61
:101CE0009695879597F9089597F99F6780E870E032
:101CF00060E008959FEF80EC089500240A94161682
:101D0000170618060906089500240A9412161306E9
:101D1000140605060895092E0394000C11F4882377
:101D200052F0BB0F40F4BF2B11F460FF04C06F5F93
:101D30007F4F8F4F9F4F089557FD9058440F551F69
:101D400059F05F3F71F04795880F97FB991F61F03D
:101D50009F3F79F087950895121613061406551FB4
:101D6000F2CF4695F1DF08C0161617061806991F20
:101D7000F1CF86957105610508940895E894BB2715
:101D800066277727CB0197F908950BD0C4CFB5DF2D
:101D900028F0BADF18F0952309F0A6CFABCF1124B5
:101DA000EECFCADFA0F3959FD1F3950F50E0551FFA
:101DB000629FF001729FBB27F00DB11D639FAA27A0
:101DC000F00DB11DAA1F649F6627B00DA11D661FEF
:101DD000829F2227B00DA11D621F739FB00DA11D10
:101DE000621F839FA00D611D221F749F3327A00DCA
:101DF000611D231F849F600D211D822F762F6A2F66
:101E000011249F5750408AF0E1F088234AF0EE0FEA
:101E1000FF1FBB1F661F771F881F91505040A9F7F7
:101E20009E3F510570F060CFAACF5F3FECF3983E24
:101E3000DCF3869577956795B795F795E7959F5F5E
:101E4000C1F7FE2B880F911D9695879597F90895F8
:101E5000FA01EE0FFF1F30962105310599F161154A
:101E6000710561F48038BFE39B0749F168949038AD
:101E7000810561F08038BFEF9B0741F0992342F55F
:101E8000FF3FE1053105210511F1E8940894E7953C
:101E9000D901AA2329F4AB2FBE2FF85FD0F310C0CD
:101EA000FF5F70F4A695E0F7F73950F019F0FF3AAC
:101EB00038F49F779F930CD00F9007FC90580895AB
:101EC0003EF018CF60E070E080E89FE308954FE7B0
:101ED0009F775F934F933F932F939ED02F913F9186
:101EE0004F915F9152DF05C019F40EF0FDCE46CF41
:101EF00001CF2ADFC8F39638C0F707F80F92E894AD
:101F00002BE33AEA48EB5FE74EDF0F920F920F9216
:101F10004DB75EB70F92C0D0E8E0F1E016D04F9118
:101F20005F91EF91FF91E595EE1FFF1F49F0FE577E
:101F3000E0684427EE0F441FFA95E1F74195550BF1
:101F400032D00F9007FE26C00895DF93CF931F93E2
:101F50000F93FF92EF92DF927B018C01689405C092
:101F6000DA2EEF011EDFFE01E894A591259135914F
:101F700045915591AEF3EF01D4D0FE019701A80130
:101F8000DA9479F7DF90EF90FF900F911F91CF9146
:101F9000DF9108959B01AC0160E070E080E89FE371
:101FA000CDCDA2CE11C1D0DEE8F39923D9F3940FA1
:101FB000511DBBF39150504094F059F0882332F0FA
:101FC000660F771F881F91505040C1F79E3F510503
:101FD00044F7880F911D9695879597F908955F3F6F
:101FE000ACF0983E9CF0BB27869577956795B795A2
:101FF00008F4B1609395C1F7BB0F58F711F460FF77
:10200000E8CF6F5F7F4F8F4F9F4FE3CFB8CE0EF07B
:10201000DBC070CE689468CE97DEC8F39923D1F305
:10202000C6F3DF93CF931F930F93FF92C92FDD2742
:1020300088232AF02197660F771F881FDAF720E0A0
:1020400030E040E85FEB9FE3883920F0803E30F0DD
:1020500021968F7755D0E0E3F1E003C051D0EDE554
:10206000F1E073DF8B01BE01EC01FB2E6F577109AC
:102070007595771F880B990BFCDD28E132E741E36A
:102080005FE38FDEAF2D9801AE01FF900F911F919E
:10209000CF91DF9146D03FCEFA01DC01AA0FBB1FE2
:1020A0009B01AC01BF5728F42227332744275078DF
:1020B0001FC0B75188F4AB2F00244695379527955C
:1020C000011CA395D2F3002069F0220F331F441F97
:1020D000B395DAF30DD013C061307105A0E88A071B
:1020E000B94630F49B01AC016627772788279078A2
:1020F000309621F0208331834283538308955058D2
:10210000BB27AA270ED007CEF8DD30F0FDDD20F08A
:1021100031F49F3F11F41EF4EDCD0EF4E095E7FB92
:10212000E3CDE92F09DE80F3BA176207730784074E
:10213000950718F071F49EF521CE0EF4E0950B2E64
:10214000BA2FA02D0B01B90190010C01CA01A00109
:102150001124FF27591B99F0593F50F4503E68F164
:102160001A16F040A22F232F342F4427585FF3CFA5
:10217000469537952795A795F0405395C9F77EF476
:102180001F16BA0B620B730B840BBAF09150A1F0BF
:10219000FF0FBB1F661F771F881FC2F70EC0BA0F45
:1021A000621F731F841F48F4879577956795B795CD
:1021B000F7959E3F08F0B3CF9395880F08F09927C5
:1021C000EE0F9795879508959F3F31F0915020F439
:1021D000879577956795B795880F911D9695879503
:1021E00097F9089597FB072E16F4009406D077FD13
:1021F00008D013D007FC05D03EF4909581959F4FF1
:102200000895709561957F4F0895EE0FFF1F881F09
:102210008BBF0790F691E02D1994AA1BBB1B51E1CF
:1022200007C0AA1FBB1FA617B70710F0A61BB70B46
:10223000881F991F5A95A9F780959095BC01CD01EB
:0E224000089581E090E0F89400C0F894FFCF7C
:10224E0000000000E201FC087B012802AC018A01BB
:10225E009E0100000000520323038103F7021B03BB
:10226E000703F802000000009B06FC0881038003B0
:04227E000D0A000045
:00000001FF
