:1000000019C1000047C1000045C1000043C1000004
:1000100041C100003FC100003DC100003BC10000E4
:1000200039C1000037C1000035C1000033C10000F4
:1000300031C100002FC100002DC100002BC1000004
:1000400029C1000027C1000025C1000023C1000014
:1000500021C100001FC100001DC1000077C30000C6
:1000600019C1000017C1000015C1000013C1000034
:1000700011C100000FC100000DC100000BC1000044
:1000800009C1000007C1000005C1000003C1000054
:1000900001C10000FFC00000FDC0000078C50000E5
:1000A000F9C00000F7C00000F5C00000F3C0000078
:1000B000F1C00000EFC00000EDC00000EBC0000088
:1000C000E9C00000E7C00000E5C00000E3C0000098
:1000D000E1C00000DFC00000DDC00000DBC00000A8
:1000E000D9C00000A101A401930197019B01DB018C
:1000F000A801AC01B201B601BA01C001C401C80136
:10010000DB01CE01D201D60115021A021F0229021B
:100110003302AC023D0245024D02570261026B02FE
:100120007A028402AC028E029802A20200000A0B3C
:1001300002090C0D0E080703040100000000000076
:1001400000000000000000000000000000000000AF
:10015000000000000000000012111000000000006C
:10016000000000000000000000000000000000008F
:10017000000000002200250028002B002E00310086
:10018000340002010000050108010B0100002100FC
:10019000240027002A002D00300033000101000058
:1001A000040107010A0105050505070508080808F7
:1001B000020202020A0A08080404040401010101FF
:1001C00001010101030303030303030304070707FA
:1001D0000C0C0C0C0C0C0C0C02020202060606069F
:1001E000060606060B0B0B0B0B0B0B0B010210206C
:1001F000200808102040102040800201020108045D
:1002000002010102040810204080804020100804F0
:100210000201800402018040201008040201080449
:10022000020101020408102040800102040810208D
:100230004080B90B11241FBECFEFD1E2DEBFCDBF8E
:1002400000E00CBF12E0A0E0B2E0E6ECFBE100E071
:100250000BBF02C007900D92AA37B107D9F723E070
:10026000AAE7B2E001C01D92AB36B207E1F711E098
:10027000CAE1D1E000E006C021970109802FFE010C
:100280000E94D50DC931D10780E00807A9F762D7D0
:100290000C94E10DB5CE3FB7F89480917A0290911D
:1002A0007B02A0917C02B0917D0226B5A89B05C07F
:1002B0002F3F19F00196A11DB11D3FBFBA2FA92FE5
:1002C000982F8827820F911DA11DB11DBC01CD0162
:1002D00042E0660F771F881F991F4A95D1F708954E
:1002E0000E94DD0D362F90E0FC01E45DFE4F44914D
:1002F000FC01E451FE4F2491FC01EA55FE4F94911C
:10030000992309F46BC0442309F455C050E0FA0165
:100310003197E231F10508F04EC08827EE58FF4FC3
:100320008F4F0C94D50D809180008F7707C08091FE
:1003300080008F7D03C080918000877F8093800044
:100340003AC084B58F7702C084B58F7D84BD33C039
:100350008091B0008F7703C08091B0008F7D809333
:10036000B00029C0809190008F7707C080919000E5
:100370008F7D03C080919000877F809390001BC089
:100380008091A0008F7707C08091A0008F7D03C06F
:100390008091A000877F8093A0000DC080912001F4
:1003A0008F7707C0809120018F7D03C0809120014D
:1003B000877F80932001E92FF0E0EE0FFF1FEE58BA
:1003C000FE4FA591B4918FB7F894EC91311103C011
:1003D00020952E2301C02E2B2C938FBF08951F93A1
:1003E000CF93DF93182FEB010AD6209711F460E02A
:1003F00004C0CF3FD10531F461E0812FDF91CF916F
:100400001F9170CFE12FF0E0E45DFE4FE4914E2F9D
:1004100050E0FA013197E231F10508F09DC08827DC
:10042000EC57FF4F8F4F0C94D50D84B5806884BD79
:10043000C7BD97C084B5806284BDC8BD92C080919D
:100440008000806880938000D0938900C0938800EA
:1004500088C080918000806280938000D0938B0060
:10046000C0938A007EC08091800088608093800065
:10047000D0938D00C0938C0074C08091B0008068D0
:100480008093B000C093B3006CC08091B0008062D4
:100490008093B000C093B40064C0809190008068E5
:1004A00080939000D0939900C09398005AC0809197
:1004B0009000806280939000D0939B00C0939A003C
:1004C00050C080919000886080939000D0939D00F0
:1004D000C0939C0046C08091A00080688093A000DB
:1004E0008091A0008F7B8093A000D093A900C0933F
:1004F000A80037C08091A00080628093A000D093B4
:10050000AB00C093AA002DC08091A00088608093AA
:10051000A000D093AD00C093AC0023C08091200117
:10052000806880932001D0932901C093280119C0CD
:1005300080912001806280932001D0932B01C09391
:100540002A010FC080912001886080932001D09300
:100550002D01C0932C0105C0C038D1050CF04CCF43
:1005600046CFDF91CF911F9108958F929F92AF92C6
:10057000BF92CF92DF92EF92FF926B017C018BDEF4
:100580004B015C01C114D104E104F104E9F083DE04
:10059000DC01CB0188199909AA09BB09883E93405F
:1005A000A105B10578F321E0C21AD108E108F108EC
:1005B00088EE880E83E0981EA11CB11CC114D104E2
:1005C000E104F10421F7DECFFF90EF90DF90CF90B0
:1005D000BF90AF909F908F90089585ED8093BC0061
:1005E0008091BC0084FDFCCF1092A602089540913A
:1005F0000503262F30E0240F311D21323105DCF4B4
:100600002091A6022430C9F4FC0180E090E0861716
:1006100058F4309105032191DC01AD51BD4FA30F7A
:10062000B11D2C930196F3CF80910503680F609361
:10063000050380E0089581E0089582E0089508951B
:10064000E091C7028091C802E81730F4F0E0E95564
:10065000FD4F808190E008958FEF9FEF0895909176
:10066000C7028091C802981750F4E92FF0E0E955CD
:10067000FD4F208130E09F5F9093C70202C02FEFB3
:100680003FEFC90108958091C80290E02091C70210
:10069000821B91090895CF93DF931F921F92CDB7CC
:1006A000DEB7CB01642F49835A83A1DF4981842FB0
:1006B0005A81952F0F900F90DF91CF910895CF938E
:1006C000DF931F92CDB7DEB7698361E0CE0101965B
:1006D0008EDF81E090E00F90DF91CF910895089533
:1006E00080E090E00895FF920F931F93CF93DF93E4
:1006F0001F92CDB7DEB78C01F62E60E0FC0182813F
:100700004983F0DDF801908181819CBD8DBD8F2DE5
:100710008F7180688EBD000049810DB407FEFDCF4A
:100720008EB54EBD00000DB407FEFDCF8EB561E065
:10073000F8018281D7DD87E090E00197F1F70F9013
:10074000DF91CF911F910F91FF9008951F920F920B
:100750000FB60F9211242F933F938F939F93AF93D4
:10076000BF938091630390916403A0916503B0915E
:10077000660330912B0323E0230F2D3720F40196DD
:10078000A11DB11D05C026E8230F0296A11DB11DB4
:1007900020932B038093630390936403A0936503DA
:1007A000B093660380917A0290917B02A0917C02C3
:1007B000B0917D020196A11DB11D80937A029093A4
:1007C0007B02A0937C02B0937D02BF91AF919F9179
:1007D0008F913F912F910F900FBE0F901F90189502
:1007E0009CB5282F23709C7F922B9CBD2DB582FB3E
:1007F000992790F9822F8E7F892B8DBD0895CF93F5
:10080000DF93EC018A89ECDF8C89811103C08CB500
:10081000806202C08CB58F7D8CBD8CB5837F9B8937
:10082000892B8CBD60E089895DDD8F858EBD0000E0
:100830000DB407FEFDCF8EB561E08989DF91CF91C0
:1008400051CDCF92DF92EF92FF92CF93DF93EC01E5
:10085000888981110CC060E08E8144DD61E08E8169
:1008600041DD60E08E813EDD8BE891E033C0C12C3C
:10087000D12C7601C394D701C6010E8004C0880F25
:10088000991FAA1FBB1F0A94D2F780959F858923C1
:100890008F87CE01B4DFD701C6010E8004C0880F58
:1008A000991FAA1FBB1F0A94D2F72F85822B8F870F
:1008B000CE01A5DF0E8004C0CC0CDD1CEE1CFF1C9D
:1008C0000A94D2F7C0948F85C822CF86CE0197DFD5
:1008D0008BE990E00197F1F7DF91CF91FF90EF90D6
:1008E000DF90CF9008958F929F92AF92BF92CF9258
:1008F000DF92EF92FF920F931F93CF93DF93EC0160
:100900008889062F10E081111EC05E0187E0A80EC5
:10091000B11CE12CF12C6501F50181915F016FD3D0
:10092000B8010E2C02C0759567950A94E2F76170C4
:10093000F6018081D7DCFFEFEF1AFF0A84E0E816AA
:10094000F10449F732C084E090E0812C912C5401ED
:1009500083949C0124503109A80102C05595479504
:100960002A95E2F72F8540FF0DC075016401082E1E
:1009700004C0CC0CDD1CEE1CFF1C0A94D2F7C22A6A
:10098000CF860DC0B501A401082E04C0440F551F29
:10099000661F771F0A94D2F7409542234F8701962E
:1009A00088309105B1F6CE012ADFCE01DF91CF91DB
:1009B0001F910F91FF90EF90DF90CF90BF90AF907D
:1009C0009F908F903ECFAF92BF92CF92DF92EF92E7
:1009D000FF920F931F93CF93DF93EC01F62E642FBA
:1009E0008C8180DC8D818F3F11F060E07BDC8D8914
:1009F0000F2D10E084FF29C05E0187E0A80EB11C16
:100A0000E12CF12C6501F50181915F01F8D2B8016B
:100A10000E2C02C0759567950A94E2F76170F60195
:100A2000808160DCFFEFEF1AFF0A88E0E816F1042E
:100A300049F7CE01DF91CF911F910F91FF90EF9079
:100A4000DF90CF90BF90AF90FCCEB80184E0759559
:100A500067958A95E1F7CE0146DF6F2DCE01DF91D4
:100A6000CF911F910F91FF90EF90DF90CF90BF90AB
:100A7000AF9039CF1F93CF93DF93FC0120892111D1
:100A800005C040E0DF91CF911F919DCF162FEC0163
:100A900081E090E0A0E0B0E0048004C0880F991FDE
:100AA000AA1FBB1F0A94D2F7809597858923878751
:100AB000CF01A5DE612F70E084E0759567958A957A
:100AC000E1F7CE0110DF612FCE01DF91CF911F91B1
:100AD0000ACF1F93CF93DF93EC01162F88898111E2
:100AE00004C041E0CE016FDF1DC081E090E0A0E0D6
:100AF000B0E00C8004C0880F991FAA1FBB1F0A9486
:100B0000D2F72F85822B8F87CE0179DE612F70E09F
:100B100084E0759567958A95E1F7CE01E4DE612F53
:100B2000CE01E1DE81E090E0DF91CF911F91089549
:100B3000CF93CFB7F89480912A03811120C0EBEDB9
:100B4000F1E08491E1E2F2E09491E82FF0E0EE0F21
:100B5000FF1FE457FE4FA591B491EC91E92319F4DE
:100B600061E085E3BFDB85E34AD28CB580618CBD53
:100B70008CB580648CBD84E342D283E340D2809103
:100B80002A038F5F80932A03CFBFCF9108951F92CE
:100B90000F920FB60F9211240BB60F922F933F9323
:100BA0004F935F936F937F938F939F93AF93BF9375
:100BB000EF93FF938091B900887F803609F49CC041
:100BC00068F5883209F45BC090F4803109F454C0B0
:100BD00038F4882309F4F6C0883009F44DC0F5C014
:100BE000883109F44CC0803209F45DC0EEC0803415
:100BF00009F468C048F4803309F455C0883309F01B
:100C0000E4C08093A402D8C0803509F44FC0883571
:100C100009F45DC0883409F0D8C0D6C0883909F419
:100C2000C7C0A8F4883709F467C038F4883609F4D7
:100C300063C0803709F460C0C8C0883809F4B8C000
:100C4000803909F45FC0803809F0BFC05BC0803BC9
:100C500009F486C038F4803A09F466C0883A09F489
:100C60007FC0B3C0803C09F4A7C0883C09F4A4C08D
:100C7000883B09F48AC0A9C08091A10210C090915C
:100C8000A3028091A202981770F5E091A30281E07F
:100C90008E0F8093A302F0E0E058FD4F8081809397
:100CA000BB0085EC86C08093A4028EC0E091A302B5
:100CB00081E08E0F8093A3028091BB00F0E0E058AA
:100CC000FD4F80839091A3028091A2026EC0E091BB
:100CD000A30281E08E0F8093A3028091BB00F0E01D
:100CE000E058FD4F80838091A50281116DC081E0A5
:100CF0008093A00284EA61C083E08093A6021092F0
:100D00002903CFCF80912903803208F051C0E091B0
:100D1000290381E08E0F809329038091BB00F0E0CE
:100D2000E75FFC4F8083BDCF85EC8093BC001092C1
:100D3000A60280912903803230F4E0912903F0E08B
:100D4000E75FFC4F10826091290370E0E091070398
:100D5000F091080389E093E019951092290335C0BA
:100D600084E08093A6021092060310920503E0919E
:100D70000303F0910403199580910503811105C0C7
:100D800081E0809305031092E302E091060381E085
:100D90008E0F80930603F0E0ED51FD4F808180932C
:100DA000BB009091060380910503981708F479CF52
:100DB00085E88093BC0009C085EC8093BC0010924C
:100DC000A60203C01092A40208DCFF91EF91BF912C
:100DD000AF919F918F917F916F915F914F913F91D3
:100DE0002F910F900BBE0F900FBE0F901F90189574
:100DF00060E070E083E0F3DA60E070E086E0EFCA84
:100E0000FC01418161E005966ECCCF93DF93EC014C
:100E10006031F9F070F4623001F128F4613039F595
:100E200020E093E026C06430B1F0683001F522E0A4
:100E30001FC0683CC9F038F4603499F06038B9F4E8
:100E400020E091E016C0693C51F06A3C81F426E054
:100E50000FC021E00DC023E00BC024E009C025E055
:100E600007C020E092E005C020E094E002C020E04E
:100E700090E080E2289F9001112489818F71282BB6
:100E800029838C81887F982B9C83CE01B9DF4C818C
:100E900069E0CE010596DF91CF9125CCCF93DF930A
:100EA000EB01833019F0863081F01DC08091020281
:100EB0009091030268177907B1F080E493E0A5DF11
:100EC000D0930302C09302020EC080910002909161
:100ED00001026817790739F088E393E096DFD09331
:100EE0000102C0930002DF91CF9108956AEF70E094
:100EF00083E075DA6AEF70E086E071DA60E170E055
:100F000083E0CCDF60E082E0EDD961E070E080E07A
:100F100090E02BDB60E170E086E0C0DF61E085E01F
:100F2000E1D961E070E080E090E01FCB6AEF70E013
:100F300083E055DA6AEF70E086E051DA60E170E054
:100F400083E0ACDF60E082E0CDD961E070E080E07A
:100F500090E00BDB68E070E086E0A0DF61E085E018
:100F6000C1D961E070E080E090E0FFCA0F931F9369
:100F7000CF93DF93EC018C010B5F1F4F4B8163E03C
:100F8000C801B1DB488160E0C801ADDBCE0138DFCC
:100F90004A8162E0C801A7DB4C8169E0C801DF91AA
:100FA000CF911F910F919FCBCF92DF92EF92FF9243
:100FB0000F931F93CF93DF936C017A018B01C0E0F5
:100FC000D0E0CE15DF0589F0D8016D918D01D601F5
:100FD000ED91FC910190F081E02DC6011995892BCE
:100FE00011F47E0102C02196ECCFC701DF91CF91B1
:100FF0001F910F91FF90EF90DF90CF90089590E0B8
:10100000FC01E451FE4F2491FC01EA55FE4F84910E
:10101000882399F090E0880F991FFC01E457FE4F58
:10102000A591B491FC01EE58FE4F859194918FB734
:10103000F894EC91E22BEC938FBF0895FC01918121
:10104000907E90619183CF01DBCE0F931F93CF935E
:10105000DF93EC01623018F08D8988608D8B698F89
:101060001A8E8BE39DE00197F1F760E08C813AD90D
:1010700060E08E8137D98D818F3F11F060E032D9E9
:101080006D8964FD19C063E0CE012DDC0BE416E42C
:10109000C8010197F1F763E0CE0125DCC801019793
:1010A000F1F763E0CE011FDC83E592E00197F1F7F1
:1010B00062E0CE0118DC13C06062CE01DBDC8BE4A1
:1010C00096E40197F1F76D896062CE01D3DC83E588
:1010D00092E00197F1F76D896062CE01CBDC6D89FA
:1010E0006062CE01C7DC84E08E8B6CE0CE01C2DC96
:1010F00061E0CE01BFDC8BE39FE10197F1F782E075
:101100008F8B66E0CE01DF91CF911F910F91B2CC12
:10111000CF93DF93EC0161E088E493E0ABDC8BE3F9
:101120009FE10197F1F760E888E493E0A3DC209762
:1011300071F0FE0101900020E9F73197AF014C1BDF
:101140005D0BBE0188E493E0DF91CF912DCFDF915D
:10115000CF910895789484B5826084BD84B5816010
:1011600084BD85B5826085BD85B5816085BD809172
:101170006E00816080936E001092810080918100EA
:1011800082608093810080918100816080938100E2
:10119000809180008160809380008091B1008460A4
:1011A0008093B1008091B00081608093B000809105
:1011B0009100826080939100809191008160809382
:1011C0009100809190008160809390008091A100B7
:1011D00082608093A1008091A10081608093A10032
:1011E0008091A00081608093A000809121018260A5
:1011F0008093210180912101816080932101809160
:10120000200181608093200180917A008460809326
:101210007A0080917A00826080937A0080917A00CF
:10122000816080937A0080917A00806880937A0050
:101230001092C10062E088E493E007DF1092C702D9
:101240001092C80210927F0210927E021092A602A3
:1012500081E08093A5021092A00261E084E142D86F
:1012600061E085E13FD88091B9008E7F8093B9001D
:101270008091B9008D7F8093B90088E48093B80095
:1012800085E48093BC0054DC84E08093470361E0F4
:1012900029D880914703B3DE87E080933F0361E064
:1012A00021D880913F03ABDE60E083E01BD883E070
:1012B000A6DE60E082E016D882E0A1DE60E086E093
:1012C00011D886E09CDE60E085E00CD885E097DEF2
:1012D00061E070E080E090E048D910924403109201
:1012E000430310924203109241031092400380E4A2
:1012F00093E03CDE10923C0310923B0310923A03C1
:10130000109239031092380388E393E02FDE80E4D3
:1013100093E094DE88E393E091DE68E080E493E07C
:1013200074DD68E088E393E070DD809143038068BA
:101330008093430380E493E019DE80913B0380684F
:1013400080933B0388E393E011DE6AEF70E083E073
:1013500046D86AEF70E086E042D835EEE32EC7EA61
:10136000D2E000E010E0FF24F394DD24DA944FE0B3
:10137000C42E95ECB92E20E4A22E8091A6028111F4
:10138000FCCFF092A602F092A502D092A402109295
:10139000A302C092A202F092A1028091A1028261F6
:1013A0008093A1028091A002813069F41092A00282
:1013B0008091A1028093BB008091BC0083FDF8CF97
:1013C000B092BC0002C0E092BC008091A6028130C5
:1013D000E1F38091A302803118F47090A30202C05F
:1013E00080E1782EA0E8B2E0E7EAF2E08E2F8C1BD5
:1013F000871518F48D918193F9CF1092C7027092DE
:10140000C8028091C7027816A9F08090D902912C69
:101410008CE293E024D9F401E753FD4F808380915F
:10142000D9028F3020F48F5F8093D902EACF1092D7
:10143000D902E7CF81E09091C9029B3A08F080E0A1
:1014400091E02091CB022B3A08F090E021E030911E
:10145000CD023B3A08F020E031E04091CF024B3A18
:1014600008F030E041E05091D1025B3A08F040E0F2
:1014700051E06091D3026B3A08F050E061E0709166
:10148000D5027B3A08F060E071E0E091D702EB3AD8
:1014900008F070E07093DB026093DC025093DD0291
:1014A0004093DE023093DF022093E0029093E1024A
:1014B0008093E20280917B00877F80937B00A092E3
:1014C0007C0080917A00806480937A0080917A0019
:1014D00086FDFCCF909078008090790062E370E008
:1014E00080E090E042D822DD692D70E07829072E57
:1014F000000C880B990B46D221E634E542E55EEB01
:10150000F1D220E030E04FED52E4D2D120E030E0E3
:1015100048EC51E431D287FF02C06ADC23C18091DC
:10152000DF02811104C08091DE02882341F16AEF5D
:1015300070E083E00E94EF016AEF70E086E00E94B5
:10154000EF0168E070E083E0A9DC60E082E00E94E7
:10155000720161E070E080E090E007D864E070E044
:1015600086E09CDC61E085E00E94720161E070E051
:1015700080E090E00E94B50282E292E065C0809136
:10158000E002882321F0D2DC8CE292E05DC0809101
:10159000E202811104C08091E102882349F16AEFDF
:1015A00070E083E00E94EF016AEF70E086E00E9445
:1015B000EF0160E270E083E071DC60E082E00E94B5
:1015C000720161E070E080E090E00E94B50268E0A6
:1015D00070E086E063DC61E085E00E94720161E01A
:1015E00070E080E090E00E94B50289E392E02CC0B8
:1015F0008091DD02882361F16AEF70E083E00E9450
:10160000EF016AEF70E086E00E94EF0168E070E0B1
:1016100083E044DC60E082E00E94720161E070E0FF
:1016200080E090E00E94B50260E170E086E036DC88
:1016300061E085E00E94720161E070E080E090E08E
:101640000E94B5028AE492E063DD1092DA028AC059
:101650008091DC02811104C08091DB02882349F172
:101660006AEF70E083E00E94EF016AEF70E086E0CD
:101670000E94EF0168E070E083E010DC60E082E04F
:101680000E94720161E070E080E090E00E94B5028B
:1016900060E270E086E002DC61E085E00E947201B9
:1016A00061E070E080E090E00E94B50286E592E0A3
:1016B000CBCF8091DA022FB7811113C0F8948091BB
:1016C000630390916403A0916503B09166032FBFFB
:1016D0008093670390936803A0936903B0936A03B0
:1016E0003FC0F8948091630390916403A0916503D7
:1016F000B09166032FBF40916703509168036091DA
:10170000690370916A03841B950BA60BB70B8B3F83
:101710009105A105B10520F0E9DB86E692E01FC046
:101720002FB7F8948091630390916403A0916503AF
:10173000B09166032FBF4091670350916803609199
:10174000690370916A03841B950BA60BB70B853F49
:101750009140A105B10520F04BDB80E792E0D8DC99
:10176000F092DA020115110509F407CE0E9400007B
:1017700000CECF93DF9310922F0310922E0388EEAA
:1017800093E0A0E0B0E08093300390933103A09306
:101790003203B093330388E092E090932D0380935B
:1017A0002C0382E580934503C1E0C0934603109269
:1017B000440310924303109242031092410310928B
:1017C000400380933D03C0933E0310923C0310926C
:1017D0003B0310923A03109239031092380310928F
:1017E0004B0310924A038AE192E09093490380935D
:1017F0004803C093580389E08093590300DC98D9CB
:10180000D4E0D0935A0384E00E94F00310925B036B
:101810008CB5837F8CBDC0935C038CB58F7D8CBDF4
:10182000C0934C038FEF80934D0383E080934E036E
:1018300010924F03109250031092510310925203D2
:10184000D093530385E08093540386E0809355033F
:1018500087E08093560381E0D2DB80914D038F3F78
:1018600009F0CDDB80914E03CADB10925D0361E08D
:1018700088E493E0EADB80915803811102C0109262
:1018800058032FB7F8948091630390916403A0915B
:101890006503B09166032FBF80936703909368033D
:1018A000A0936903B0936A03DF91CF9108955058D4
:1018B000BB27AA270ED0DCC0CDD030F0D2D020F08C
:1018C00031F49F3F11F41EF4C2C00EF4E095E7FB23
:1018D000B8C0E92FDED080F3BA1762077307840718
:1018E000950718F071F49EF5F6C00EF4E0950B2EF6
:1018F000BA2FA02D0B01B90190010C01CA01A00162
:101900001124FF27591B99F0593F50F4503E68F1BC
:101910001A16F040A22F232F342F4427585FF3CFFD
:10192000469537952795A795F0405395C9F77EF4CE
:101930001F16BA0B620B730B840BBAF09150A1F017
:10194000FF0FBB1F661F771F881FC2F70EC0BA0F9D
:10195000621F731F841F48F4879577956795B79525
:10196000F7959E3F08F0B3CF9395880F08F099271D
:10197000EE0F97958795089540D008F481E008957B
:10198000E89409C097FB3EF4909580957095619519
:101990007F4F8F4F9F4F9923A9F0F92F96E9BB27CF
:1019A0009395F695879577956795B795F111F8CF4B
:1019B000FAF4BB0F11F460FF1BC06F5F7F4F8F4FB6
:1019C0009F4F16C0882311F096E911C0772321F0AC
:1019D0009EE8872F762F05C0662371F096E8862F44
:1019E00070E060E02AF09A95660F771F881FDAF79B
:1019F000880F9695879597F90895990F0008550FC8
:101A0000AA0BE0E8FEEF16161706E807F907C0F084
:101A100012161306E407F50798F0621B730B840B8C
:101A2000950B39F40A2661F0232B242B252B21F466
:101A300008950A2609F4A140A6958FEF811D811D06
:101A4000089597F99F6780E870E060E008959FEF40
:101A500080EC089500240A94161617061806090645
:101A6000089500240A941216130614060506089514
:101A7000092E0394000C11F4882352F0BB0F40F49C
:101A8000BF2B11F460FF04C06F5F7F4F8F4F9F4FDC
:101A9000089557FD9058440F551F59F05F3F71F05E
:101AA0004795880F97FB991F61F09F3F79F08795C5
:101AB0000895121613061406551FF2CF4695F1DF4E
:101AC00008C0161617061806991FF1CF86957105DE
:101AD000610508940895E894BB2766277727CB0112
:101AE00097F908950BD0C4CFB5DF28F0BADF18F00E
:101AF000952309F0A6CFABCF1124EECFCADFA0F318
:101B0000959FD1F3950F50E0551F629FF001729F92
:101B1000BB27F00DB11D639FAA27F00DB11DAA1FB1
:101B2000649F6627B00DA11D661F829F2227B00DFE
:101B3000A11D621F739FB00DA11D621F839FA00D89
:101B4000611D221F749F3327A00D611D231F849FD9
:101B5000600D211D822F762F6A2F11249F57504030
:101B60008AF0E1F088234AF0EE0FFF1FBB1F661FCB
:101B7000771F881F91505040A9F79E3F510570F084
:101B800060CFAACF5F3FECF3983EDCF38695779564
:101B90006795B795F795E7959F5FC1F7FE2B880F7F
:101BA000911D9695879597F90895EE0FFF1F881F51
:101BB0008BBF0790F691E02D199481E090E0F894A6
:061BC00000C0F894FFCF05
:101BC60008000800000000005F034B0370031F03BA
:101BD60043032F032003000000006905D4077003A8
:101BE6006F034D6F76696E67204357004D6F7669B8
:101BF6006E67205249474854004D6F76696E6720DC
:101C0600464152205249474854004D6F76696E67E7
:101C1600204C454654004D6F76696E67204641520A
:101C2600204C45465400534C4F57204D4F564500C7
:0A1C360053544F50204D4F56450007
:020000023000CC
:10E000000D9489F10D94B2F10D94B2F10D94B2F129
:10E010000D94B2F10D94B2F10D94B2F10D94B2F1F0
:10E020000D94B2F10D94B2F10D94B2F10D94B2F1E0
:10E030000D94B2F10D94B2F10D94B2F10D94B2F1D0
:10E040000D94B2F10D94B2F10D94B2F10D94B2F1C0
:10E050000D94B2F10D94B2F10D94B2F10D94B2F1B0
:10E060000D94B2F10D94B2F10D94B2F10D94B2F1A0
:10E070000D94B2F10D94B2F10D94B2F10D94B2F190
:10E080000D94B2F10D94B2F10D94B2F10D94B2F180
:10E090000D94B2F10D94B2F10D94B2F10D94B2F170
:10E0A0000D94B2F10D94B2F10D94B2F10D94B2F160
:10E0B0000D94B2F10D94B2F10D94B2F10D94B2F150
:10E0C0000D94B2F10D94B2F10D94B2F10D94B2F140
:10E0D0000D94B2F10D94B2F10D94B2F10D94B2F130
:10E0E0000D94B2F141546D656761323536300041AF
:10E0F000726475696E6F206578706C6F72657220DE
:10E1000073746B3530305632206279204D4C530099
:10E11000426F6F746C6F616465723E004875683F52
:10E1200000436F6D70696C6564206F6E203D200048
:10E130004350552054797065202020203D20005FF9
:10E140005F4156525F415243485F5F3D2000415658
:10E1500052204C696243205665723D20004743437C
:10E160002056657273696F6E203D20004350552024
:10E1700049442020202020203D20004C6F7720663D
:10E18000757365202020203D20004869676820665F
:10E190007573652020203D200045787420667573D6
:10E1A00065202020203D20004C6F636B2066757336
:10E1B000652020203D20004D617220203720323024
:10E1C000313300312E362E3800342E332E350056A2
:10E1D00023202020414444522020206F7020636F70
:10E1E00064652020202020696E73747275637469E1
:10E1F0006F6E2061646472202020496E74657272B3
:10E20000757074006E6F20766563746F7200726A49
:10E210006D702020006A6D70200057686174207056
:10E220006F72743A00506F7274206E6F7420737541
:10E2300070706F72746564004D7573742062652030
:10E2400061206C6574746572002000577269747483
:10E25000696E672045450052656164696E672045B7
:10E26000450045452065727220636E743D00504F35
:10E27000525400303D5A65726F2061646472003FF1
:10E280003D43505520737461747300403D454550C3
:10E29000524F4D207465737400423D426C696E6B41
:10E2A000204C454400453D44756D70204545505215
:10E2B0004F4D00463D44756D7020464C415348001B
:10E2C000483D48656C70004C3D4C69737420492F83
:10E2D0004F20506F72747300513D51756974005234
:10E2E0003D44756D702052414D00563D73686F7707
:10E2F00020696E7465727275707420566563746FF0
:10E30000727300593D506F727420626C696E6B00BD
:10E310002A0011241FBECFEFD1E2DEBFCDBF01E046
:10E320000CBF12E0A0E0B2E0EEE1FDEF03E00BBFB6
:10E3300002C007900D92A030B107D9F712E0A0E01B
:10E34000B2E001C01D92AE30B107E1F70F9460F367
:10E350000D948DFE01E20EBF0FEF0DBF11241FBE05
:10E360000D9460F30D9400F020E030E040ED57E0B4
:10E3700005C0FA013197F1F72F5F3F4F2817390792
:10E38000C0F308959C01260F311DC901A0E0B0E043
:10E390002F5F3F4FABBFFC018791882361F08093D3
:10E3A000C6008091C00086FFFCCF8091C0008064D1
:10E3B0008093C000EACF08958DE08093C6008091DD
:10E3C000C00086FFFCCF8091C00080648093C000B5
:10E3D0008AE08093C6008091C00086FFFCCF8091C8
:10E3E000C00080648093C00008950F94C2F10F9420
:10E3F000DCF10895FC019081992359F09093C600B7
:10E400008091C00086FFFCCF8091C0008064809323
:10E41000C0003196992379F70895282F982F929567
:10E420009F70892F805D8A3308F0895F8093C600D2
:10E430008091C00086FFFCCF8091C00080648093F3
:10E44000C000822F8F70982F905D9A3308F0995FEB
:10E450009093C6008091C00086FFFCCF8091C000E1
:10E4600080648093C00008959C01FB01853691056E
:10E470001CF46330710594F0C90164E670E00F94F8
:10E480002EFE605D7F4F6093C6008091C00086FFC6
:10E49000FCCF8091C00080648093C0002B30310598
:10E4A00014F43297B4F0C90164E670E00F942EFEC4
:10E4B0006AE070E00F942EFE605D7F4F6093C600AF
:10E4C0008091C00086FFFCCF8091C0008064809363
:10E4D000C000C9016AE070E00F942EFEC0968093E0
:10E4E000C6008091C00086FFFCCF8091C000806490
:10E4F0008093C00008951F93182F8EE692EE60E07F
:10E500000F94C2F11093C6008091C00086FFFCCF2B
:10E510008091C00080648093C0000F94DCF11F9153
:10E5200008952F923F924F925F926F927F928F92B7
:10E530009F92AF92BF92CF92DF92EF92FF920F9392
:10E540001F93DF93CF93CDB7DEB762970FB6F894E2
:10E55000DEBF0FBECDBF382E622ECA01DB015C01CB
:10E560006D01772420E2222E2E010894411C511CBB
:10E570008BC081E0A81680E0B80681E0C80680E084
:10E58000D80628F0C601AA27BB270F940DF2BB2797
:10E59000AD2D9C2D8B2D0F940DF28A2D0F940DF225
:10E5A0002092C6008091C00086FFFCCF8091C00001
:10E5B00080648093C0009DE29093C6008091C0006B
:10E5C00086FFFCCF8091C00080648093C0002092C1
:10E5D000C6008091C00086FFFCCF8091C00080649F
:10E5E0008093C00019828601750188249924A1E0D6
:10E5F0003A1651F03A1620F0B2E03B1661F409C029
:10E600000BBFF701779007C0C7010F9477FE782EF4
:10E6100002C0F7017080872D0F940DF22092C60082
:10E620008091C00086FFFCCF8091C0008064809301
:10E63000C000872D8052F401EF70F0708F3520F408
:10E64000E40DF51D708204C0E40DF51D8EE280839B
:10E650000894E11CF11C011D111D0894811C911CE2
:10E6600090E18916910409F0C2CF80E190E0A0E02A
:10E67000B0E0A80EB91ECA1EDB1E198AC2010F9493
:10E68000FAF10F94DCF16A94662009F072CF629679
:10E690000FB6F894DEBF0FBECDBFCF91DF911F91B3
:10E6A0000F91FF90EF90DF90CF90BF90AF909F9031
:10E6B0008F907F906F905F904F903F902F90089534
:10E6C0002F923F924F925F926F927F928F929F9282
:10E6D000AF92BF92CF92DF92EF92FF920F931F9370
:10E6E000DF93CF93CDB7DEB7CD53D1400FB6F894BB
:10E6F000DEBF0FBECDBF01E20EBF0FEF0DBF94B75F
:10E70000F894A89514BE80916000886180936000A1
:10E7100010926000789493FF05C0E0910002F091A0
:10E7200001021995279A2F9A8091C00082608093E8
:10E73000C00080E18093C40088E18093C1000000A4
:10E74000EE24FF24870144E0A42EB12CCC24DD2448
:10E7500024C0C5010197F1F70894E11CF11C011DCB
:10E76000111D21E2E2162EE4F20620E0020720E06D
:10E77000120718F031E0C32ED12CC801B70127ECE5
:10E780003BE140E050E00F9441FE611571058105C9
:10E79000910519F485B1805885B98091C00087FD35
:10E7A00003C0C114D104A9F2A6014F5F5F4FC25E3E
:10E7B000DE4F59834883CE51D140C25EDE4F8881FF
:10E7C0009981CE51D140019711F00D9410FEC05D9A
:10E7D000DE4F19821882C053D14060E0C15DDE4F28
:10E7E0001882CF52D14088249924C35DDE4F19820C
:10E7F0001882CD52D140C05EDE4F188219821A8233
:10E800001B82C052D140CE5CDE4F188219821A8220
:10E810001B82C253D140EE24FF2487010BBFF701B6
:10E8200007911691C45CDE4F19830883CC53D14005
:10E830000D940BFEC25EDE4F28813981CE51D1404E
:10E840002130310509F52091C600C25EDE4F1982E4
:10E850001882CE51D14022C02F5F3F4F4F4F5F4FA4
:10E86000213082E138078AE7480780E0580780F0C6
:10E87000C45CDE4FE881F981CC53D140EF5FFF4F9C
:10E8800019F0EE27FF27099420E030E040E050E047
:10E890008091C00087FFE0CF2091C600C35DDE4FAE
:10E8A00048815981CD52D1404F5F5F4FC35DDE4FEC
:10E8B00059834883CD52D140213209F063C64A3092
:10E8C000510508F05FC60894811C911C53E0851621
:10E8D000910409F059C600E010E018C081E280936D
:10E8E000C6008091C00086FFFCCF8091C00080648C
:10E8F0008093C0002F5F3F4F2931310579F70F9486
:10E90000DCF10F5F1F4F0530110519F020E030E0FA
:10E91000E5CF10920A0210920B0210920C02109294
:10E920000D02109206021092070210920802109235
:10E930000902109202021092030210920402109235
:10E9400005028FEE90EE60E00F94F5F180E191EE1C
:10E9500060E00F94C2F18091C00087FFFCCF9091DE
:10E96000C600903608F09F759032B8F09093C600BC
:10E970008091C00086FFFCCF8091C00080648093AE
:10E98000C000A0E2A093C6008091C00086FFFCCF2B
:10E990008091C00080648093C000983409F4D7C18E
:10E9A0009934B8F4923409F459C1933458F490333B
:10E9B00019F1903308F4E3C59F33A1F1903409F0C5
:10E9C000DEC5BDC0953409F470C1963409F0D7C5D1
:10E9D00098C1923509F42BC2933538F49C3409F46C
:10E9E000F5C1913509F0CBC518C2963509F445C279
:10E9F000993509F0C4C567C483E792EE62E00F94CD
:10EA0000F5F110920602109207021092080210927D
:10EA1000090210920A0210920B0210920C0210923C
:10EA20000D0213C18FE792EE62E00F94F5F18FEEC5
:10EA300090EE60E00F94F5F181E291EE60E00F94CA
:10EA4000C2F187EB91EE60E00F94F5F180E391EE77
:10EA500060E00F94C2F184EE90EE60E00F94F5F167
:10EA60008FE391EE60E00F94C2F186E090E061E008
:10EA700070E00F9434F20F94DCF18DE591EE60E0DC
:10EA80000F94C2F189EC91EE60E00F94F5F18EE401
:10EA900091EE60E00F94C2F183EC91EE60E00F9490
:10EAA000F5F18CE691EE60E00F94C2F18EE10F94E7
:10EAB0000DF288E90F940DF281E00F940DF20F949E
:10EAC000DCF18BE791EE60E00F94C2F119E0E0E039
:10EAD000F0E010935700E4918E2F0F940DF20F94F5
:10EAE000DCF18AE891EE60E00F94C2F1E3E0F0E03F
:10EAF00010935700E4918E2F0F940DF20F94DCF1D8
:10EB000089E991EE60E00F94C2F1E2E0F0E0109349
:10EB10005700E4918E2F0F940DF20F94DCF188EAE8
:10EB200091EE60E00F94C2F1E1E0F0E01093570045
:10EB30001491812F0F940DF20F94DCF107CF8BE825
:10EB400092EE62E00F94F5F18BE492EE60E00F94A8
:10EB5000F5F10F94DCF100E010E019C0C8016F2D51
:10EB60000F947FFEFF2031F489E492EE60E00F9471
:10EB7000C2F10BC0F092C6008091C00086FFFCCFAE
:10EB80008091C00080648093C0000F5F1F4FC80158
:10EB900081519F41A0E0B0E0ABBFFC01F790BAE229
:10EBA000FB1621F0E2E000301E07C1F60F94DCF105
:10EBB0000F94DCF187E592EE60E00F94F5F10F948D
:10EBC000DCF1CC24DD2400E010E01EC0C8010F946D
:10EBD00077FEF82E882331F489E492EE60E00F94FA
:10EBE000C2F10BC08093C6008091C00086FFFCCFAD
:10EBF0008091C00080648093C000FE1419F00894D6
:10EC0000C11CD11C0F5F1F4FC80181519F41A0E063
:10EC1000B0E0ABBFFC01E790FAE2EF1621F022E092
:10EC20000030120799F60F94DCF10F94DCF182E6C4
:10EC300092EE60E00F94C2F1C60161E070E00F94C3
:10EC400034F20F94DCF10F94DCF110920202109276
:10EC50000302109204021092050278CE89E992EE26
:10EC600062E00F94F5F1279A2F9A16C02F9880E052
:10EC700090E0E0EDF7E03197F1F7019684369105E9
:10EC8000C1F72F9A80E090E0E0EDF7E03197F1F7DF
:10EC9000019684369105C1F78091C00087FFE6CFC9
:10ECA0008091C00087FFFCCF64C485EA92EE62E0E9
:10ECB0000F94F5F140910202509103026091040219
:10ECC0007091050281E020E10F9491F2809102029F
:10ECD00090910302A0910402B091050280509F4FD1
:10ECE000AF4FBF4F8093020290930302A0930402A0
:10ECF000B093050280509041A040B04008F426CE69
:10ED0000A4CF83EB92EE62E00F94F5F140910602FE
:10ED100050910702609108027091090280E020E1A1
:10ED20000F9491F28091060290910702A09108023F
:10ED3000B091090280509F4FAF4FBF4F80930602A2
:10ED400090930702A0930802B0930902FFCD80ECD4
:10ED500092EE62E00F94F5F183E792EE60E00F949B
:10ED6000F5F18FE792EE60E00F94F5F18BE892EE0B
:10ED700060E00F94F5F189E992EE60E00F94F5F10F
:10ED800085EA92EE60E00F94F5F183EB92EE60E09D
:10ED90000F94F5F180EC92EE60E00F94F5F187ECC2
:10EDA00092EE60E00F94F5F188ED92EE60E00F9442
:10EDB000F5F18FED92EE60E00F94F5F18AEE92EEB0
:10EDC00060E00F94F5F183E093EEBDCD87EC92EE19
:10EDD00062E00F94F5F181E40F947BF282E40F94EA
:10EDE0007BF283E40F947BF284E40F947BF285E45E
:10EDF0000F947BF286E40F947BF287E40F947BF20E
:10EE000088E40F947BF28AE40F947BF28BE40F94F6
:10EE10007BF28CE40F947BF299CD88ED92EE62E068
:10EE20000F94F5F1772473948824992409C48FED05
:10EE300092EE62E00F94F5F140910A0250910B02BC
:10EE400060910C0270910D0282E020E10F9491F22A
:10EE500080910A0290910B02A0910C02B0910D02D8
:10EE600080509F4FAF4FBF4F80930A0290930B0289
:10EE7000A0930C02B0930D0269CD8AEE92EE62E08F
:10EE80000F94F5F184EE90EE60E00F94F5F18FECC5
:10EE900091EE60E00F94F5F1662477244301CC5D98
:10EEA000DE4F19821882C452D140D401C301B695F5
:10EEB000A79597958795CA5DDE4F88839983AA8326
:10EEC000BB83C652D140CC5DDE4FA881B981C4520C
:10EED000D1401196CC5DDE4FB983A883C452D14096
:10EEE000CD0162E070E00F9434F2B0E2B093C6005E
:10EEF0008091C00086FFFCCF8091C0008064809329
:10EF0000C000EDE2E093C6008091C00086FFFCCF18
:10EF10008091C00080648093C000F0E2F093C6004E
:10EF20008091C00086FFFCCF8091C00080648093F8
:10EF3000C000CA5DDE4FE880F9800A811B81C6529D
:10EF4000D140BB27A12F902F8F2D0F940DF2CA5DBA
:10EF5000DE4F8881C652D1400F940DF2B0E2FB2EF5
:10EF6000F092C6008091C00086FFFCCF8091C00067
:10EF700080648093C0000DE30093C6008091C000C0
:10EF800086FFFCCF8091C00080648093C00010E2B7
:10EF90001093C6008091C00086FFFCCF8091C00016
:10EFA00080648093C0008BBEF3012791C65DDE4F65
:10EFB0002883CA52D140A22EBB24CC24DD2408943D
:10EFC000611C711C811C911C8BBEF3018791282E42
:10EFD0003324442455240894611C711C811C911C09
:10EFE0008BBEF3013791C55DDE4F3883CB52D140E4
:10EFF0000894611C711C811C911C8BBEF30147910C
:10F00000C45DDE4F4883CC52D140ADEFEA2EAFEF66
:10F01000FA2EAFEF0A2FAFEF1A2F6E0C7F1C801E57
:10F02000911E142D032DF22CEE24EA0CFB1C0C1D5A
:10F030001D1D0F940DF220E22093C6008091C000A8
:10F0400086FFFCCF8091C00080648093C000C65DC5
:10F05000DE4F8881CA52D1400F940DF230E23093D6
:10F06000C6008091C00086FFFCCF8091C000806404
:10F070008093C000C45DDE4F8881CC52D1400F9494
:10F080000DF240E24093C6008091C00086FFFCCFA5
:10F090008091C00080648093C000C55DDE4F888190
:10F0A000CB52D1400F940DF250E25093C6008091A4
:10F0B000C00086FFFCCF8091C00080648093C000B8
:10F0C0008FEFE8168FEFF80680E0080780E018075A
:10F0D00031F484E092EE60E00F94C2F1DFC0D80119
:10F0E000C7018070907CA070B0708050904CA040A0
:10F0F000B040D1F52FEF3FE340E050E0E222F322B1
:10F1000004231523CA5DDE4FA880B980CA80DB8046
:10F11000C652D140AE0CBF1CC01ED11EAA0CBB1CD7
:10F12000CC1CDD1C8EE092EE60E00F94C2F1BB2798
:10F13000A12F902F8F2D0F940DF28E2D0F940DF285
:10F1400030E23093C6008091C00086FFFCCF8091F2
:10F15000C00080648093C0004EE34093C60080915D
:10F16000C00086FFFCCF87C08EE09EEFA0E0B0E03D
:10F17000E822F9220A231B239CE0E91694E9F90608
:10F1800090E0090790E0190709F088C0C45DDE4FE0
:10F19000A881CC52D140EA2EFF2400E010E0102FCD
:10F1A0000F2DFE2CEE24C55DDE4FB881CB52D14031
:10F1B000EB0EF11C011D111DD601C501817090706F
:10F1C000A070B070DC0199278827E80EF91E0A1F8D
:10F1D0001B1F20EF30E040E050E0A222B322C42207
:10F1E000D52241E1AA0CBB1CCC1CDD1C4A95D1F7F1
:10F1F000EA0CFB1C0C1D1D1D81E090E0A0E0B0E0BE
:10F20000282239224A225B2235E1220C331C441C7D
:10F21000551C3A95D1F7E20CF31C041D151D57013E
:10F220006801AA0CBB1CCC1CDD1C85E192EE60E0E1
:10F230000F94C2F1C801AA27BB270F940DF2BB2778
:10F24000A12F902F8F2D0F940DF28E2D0F940DF274
:10F2500090E29093C6008091C00086FFFCCF809121
:10F26000C00080648093C000AEE3A093C60080918C
:10F27000C00086FFFCCF8091C00080648093C000F6
:10F28000C601AA27BB270F940DF2BB27AD2D9C2DDD
:10F290008B2D0F940DF28A2D0F940DF20F94DCF14B
:10F2A000CC5DDE4FE881F981C452D140F99709F471
:10F2B0004DCBF4E0EF2EF12C012D112D6E0C7F1CA7
:10F2C000801E911EF2CD83E093EE62E00F94F5F183
:10F2D0008AE192EE60E00F94C2F18091C00087FF56
:10F2E000FCCF1091C6001F751093C6008091C0001E
:10F2F00086FFFCCF8091C00080648093C0000F9493
:10F30000DCF1812F81548A3108F036C1163409F4BA
:10F3100095C0173490F4133409F44EC0143430F40B
:10F320001134F1F0123409F01DC130C0143409F465
:10F3300059C0153409F016C16BC01A3409F4C4C0A1
:10F340001B3438F4173409F48FC0183409F00AC19B
:10F35000A1C01B3409F4D2C01C3409F003C1E8C0B9
:10F360008FEF81B90DC082B1809582B980E090E0C5
:10F37000E0EDF7E03197F1F70196883C9105C1F790
:10F380008091C00087FFEFCF12B8EFC08FEF84B934
:10F390000DC085B1809585B980E090E0E0EDF7E0A3
:10F3A0003197F1F70196883C9105C1F78091C00033
:10F3B00087FFEFCF15B8D9C08FEF87B90DC088B1DF
:10F3C000809588B980E090E0E0EDF7E03197F1F7C3
:10F3D0000196883C9105C1F78091C00087FFEFCF6F
:10F3E00018B8C3C08FEF8AB90DC08BB180958BB9A7
:10F3F00080E090E0E0EDF7E03197F1F70196883C8E
:10F400009105C1F78091C00087FFEFCF1BB8ADC059
:10F410008FEF8DB90DC08EB180958EB980E090E0F0
:10F42000E0EDF7E03197F1F70196883C9105C1F7DF
:10F430008091C00087FFEFCF1EB897C08FEF80BBD1
:10F440000DC081B3809581BB80E090E0E0EDF7E0F6
:10F450003197F1F70196883C9105C1F78091C00082
:10F4600087FFEFCF11BA81C08FEF83BB0DC084B38C
:10F47000809584BB80E090E0E0EDF7E03197F1F714
:10F480000196883C9105C1F78091C00087FFEFCFBE
:10F4900014BA6BC08FEF809301010FC080910201FD
:10F4A00080958093020180E090E0E0EDF7E03197F5
:10F4B000F1F70196883C9105C1F78091C00087FF64
:10F4C000EDCF1092020151C08FEF809304010FC065
:10F4D0008091050180958093050180E090E0E0ED4A
:10F4E000F7E03197F1F70196883C9105C1F78091DB
:10F4F000C00087FFEDCF1092050137C08FEF8093DA
:10F5000007010FC08091080180958093080180E079
:10F5100090E0E0EDF7E03197F1F70196883C910536
:10F52000C1F78091C00087FFEDCF109208011DC088
:10F530008FEF80930A010FC080910B01809580931B
:10F540000B0180E090E0E0EDF7E03197F1F70196F4
:10F55000883C9105C1F78091C00087FFEDCF1092E4
:10F560000B0103C085E292EEEEC98091C00087FFD7
:10F57000FCCF8091C600EAC988E392EEE4C98CE131
:10F5800091EEE1C988249924933011F1943028F444
:10F59000913089F09230B8F408C0953061F195301F
:10F5A000F0F0963009F048C043C02B3109F042C951
:10F5B00091E06BE13FC96227C15DDE4F2883CF52E6
:10F5C000D14092E037C9B22FA0E0622793E032C960
:10F5D000822F90E0A82BB92B622794E02BC92E3004
:10F5E00009F039C3622795E0C05DDE4F19821882A9
:10F5F000C053D1401FC9E1E0F0E0EC0FFD1FC05D3A
:10F60000DE4F08811981C053D140E00FF11F2083E4
:10F610000F5F1F4FC05DDE4F19830883C053D14079
:10F6200062270A171B0709F005C9D80196E002C92D
:10F63000261709F010C303C0973009F0FBC87724E0
:10F640009981933109F412C19431C8F4963009F4C8
:10F65000D8C0973050F4923009F406C1933009F4C1
:10F660006DC0913009F059C253C0913109F477C08F
:10F67000923108F0BBC0903109F04FC2F5C098310B
:10F6800009F487C0993150F4953109F4EFC09531F0
:10F6900008F4C6C1963109F040C2C2C19A3109F4DA
:10F6A0006CC09A3108F491C09B3109F45BC09D3164
:10F6B00009F033C29D81903359F48F81882311F46E
:10F6C0009EE11CC0813011F091E018C098E916C08D
:10F6D000892F807591F0903539F4E0E0F0E089E011
:10F6E0008093570094910AC0983539F4E3E0F0E034
:10F6F00089E080935700949101C090E01A821B82A8
:10F700008D818C831D829E831F8227E030E009C299
:10F710001A8288E08B8381E48C8386E58D8382E581
:10F720008E8389E48F8383E5888780E589878FE5E9
:10F730008A8782E38B872BE030E0F3C18A818139AD
:10F7400041F0823941F0803911F48FE005C080E04A
:10F7500003C082E001C08AE01A828B8344C0772410
:10F76000739482C08D81882311F48EE12CC0813086
:10F7700011F081E028C088E926C01A82E1E0F0E0BB
:10F7800089E08093570084918B831C8224E030E0D1
:10F79000C8C18B81803589F48C81883039F4E2E0EE
:10F7A000F0E089E08093570084910DC0E0E0F0E044
:10F7B00089E080935700849106C0E3E0F0E089E09F
:10F7C0008093570084911A82DFCF8D81836C99E0FA
:10F7D000E1E0F0E0082E90935700E89507B600FCB2
:10F7E000FDCF1A821B8223E030E09BC180EC8A832C
:10F7F000CE5CDE4F188219821A821B82C253D1401E
:10F800008EC18A8190E0A0E0B0E0582F44273327D2
:10F8100022278B8190E0A0E0B0E0DC0199278827C7
:10F82000282B392B4A2B5B2B8D8190E0A0E0B0E098
:10F83000282B392B4A2B5B2B8C8190E0A0E0B0E089
:10F84000BA2FA92F982F8827282B392B4A2B5B2BCF
:10F85000220F331F441F551FC05EDE4F288339839C
:10F860004A835B83C052D1401A8259C13A81C95C34
:10F87000DE4F3883C753D140CA5CDE4F1882C6536F
:10F88000D1408B81C82EDD24CA5CDE4F488159816E
:10F89000C653D140C42AD52A933109F082C0CE5C28
:10F8A000DE4F88819981AA81BB81C253D1408050AB
:10F8B000904CA340B04030F583E0CE5CDE4FE88052
:10F8C000F9800A811B81C253D140F70100935B008C
:10F8D00080935700E89507B600FCFDCFCE5CDE4F65
:10F8E000088119812A813B81C253D14000501F4FAA
:10F8F0002F4F3F4FCE5CDE4F088319832A833B8313
:10F90000C253D140C05EDE4F488159816A817B81FC
:10F91000C052D140DE011B9631E08C9111962C91A2
:10F9200011971296C75CDE4F2883C953D140C85C3B
:10F93000DE4F1882C853D14090E0C85CDE4FE881AA
:10F94000F981C853D1408E2B9F2B0C01FA01609393
:10F950005B0030935700E89511244E5F5F4F6F4F67
:10F960007F4F0EEFE02E0FEFF02ECE0CDF1CC114F8
:10F97000D10499F685E0C05EDE4F088119812A81A5
:10F980003B81C052D140F80120935B008093570027
:10F99000E89507B600FCFDCF81E180935700E8951C
:10F9A00035C0C05EDE4F88819981AA81BB81C0527B
:10F9B000D140B695A795979587957C018601ABE0D8
:10F9C000AA2EB12CAC0EBD1E0BC0D5016D915D01F0
:10F9D000C7010F947FFE0894E11CF11C01501040F8
:10F9E0000115110591F7A60160E070E0440F551F65
:10F9F000661F771FC05EDE4FE880F9800A811B8199
:10FA0000C052D1404E0D5F1D601F711F1A82C05E33
:10FA1000DE4F488359836A837B83C052D1407FC0C5
:10FA2000FA80C55CDE4FF882CB53D140C65CDE4F16
:10FA30001882CA53D1408B81C82EDD24C65CDE4FAC
:10FA400008811981CA53D140C02AD12A1A828981DA
:10FA5000BE016D5F7F4F843121F59601C05EDE4FA0
:10FA6000E880F9800A811B81C052D1400BBFF701A9
:10FA700087919691DB018C9311969C936E5F7F4FDB
:10FA8000D801C7010296A11DB11DC05EDE4F88835B
:10FA90009983AA83BB83C052D14022503040F1F6F3
:10FAA00036C0C05EDE4F288139814A815B81C052F9
:10FAB000D1400894C108D108760100E010E0089414
:10FAC000C11CD11C0894E11CF11C011D111DE20E8A
:10FAD000F31E041F151F21BDBB27A52F942F832FB5
:10FAE00082BD2F5F3F4F4F4F5F4FF89A80B5DB01CC
:10FAF0008D93BD012E153F054007510761F7C05E8C
:10FB0000DE4F288339834A835B83C052D1409601FC
:10FB10002D5F3F4FFB01108204C080EC8A8322E0FE
:10FB200030E08BE18093C6008091C00086FFFCCF5F
:10FB30008091C00080648093C000C15DDE4FF88179
:10FB4000CF52D140F093C6008091C00086FFFCCF19
:10FB50008091C00080648093C000432F3093C60022
:10FB60008091C00086FFFCCF8091C00080648093AC
:10FB7000C000922F2093C6008091C00086FFFCCF6A
:10FB80008091C00080648093C0008EE08093C600A6
:10FB90008091C00086FFFCCF8091C000806480937C
:10FBA000C00065E1C15DDE4FE880CF52D1406E25D7
:10FBB00069276427FE01319610C090819093C6009A
:10FBC0008091C00086FFFCCF31968091C000806498
:10FBD0008093C0006927215030402115310569F715
:10FBE0006093C6008091C00086FFFCCF8091C0006A
:10FBF00080648093C00085B1805885B9772081F4F6
:10FC0000C15DDE4F0881CF52D1400F5FC15DDE4F35
:10FC10000883CF52D14090E0A0E0B0E00D941AF4F8
:10FC200027982F9880E090E020ED37E0F901319798
:10FC3000F1F7019684369105C9F700008091C00064
:10FC40008D7F8093C00081E180935700E895EE2777
:10FC5000FF270994FFCF90E00D941AF497FB092E2B
:10FC600007260AD077FD04D02ED006D000201AF443
:10FC7000709561957F4F0895F6F7909581959F4F08
:10FC80000895A1E21A2EAA1BBB1BFD010DC0AA1FDD
:10FC9000BB1FEE1FFF1FA217B307E407F50720F0F5
:10FCA000A21BB30BE40BF50B661F771F881F991F70
:10FCB0001A9469F760957095809590959B01AC01B9
:10FCC000BD01CF010895AA1BBB1B51E107C0AA1FAC
:10FCD000BB1FA617B70710F0A61BB70B881F991FED
:10FCE0005A95A9F780959095BC01CD010895F99991
:10FCF000FECF92BD81BDF89A992780B50895262F31
:10FD0000F999FECF1FBA92BD81BD20BD0FB6F89400
:0EFD1000FA9AF99A0FBE01960895F894FFCF63
:040000033000E000E9
:00000001FF