:1000000007C1000036C1000034C1000032C1000049
:1000100030C100002EC100002CC100002AC1000028
:1000200028C1000026C1000024C1000022C1000038
:1000300020C100001EC100001CC100001AC1000048
:1000400018C1000016C1000014C1000012C1000058
:1000500010C100000EC100000CC1000073C30000FD
:1000600008C100000C94F30A0C94C90A02C10000F4
:1000700000C10000FEC00000FCC00000FAC000008B
:10008000F8C00000F6C00000F4C00000F2C000009C
:10009000F0C00000EEC00000ECC0000079C5000018
:1000A000E8C00000E6C00000E4C00000E2C00000BC
:1000B000E0C00000DEC00000DCC00000DAC00000CC
:1000C000D8C00000D6C00000D4C00000D2C00000DC
:1000D000D0C00000CEC00000CCC00000CAC00000EC
:1000E000C8C00000B502B802A702AB02AF02EF021F
:1000F000BC02C002C602CA02CE02D402D802DC028E
:10010000EF02E202E602EA020000210024002700DA
:100110002A002D0030003300010100000401070116
:100120000A0100002200250028002B002E003100CB
:10013000340002010000050108010B010505050559
:10014000070508080808020202020A0A080804044F
:10015000040401010101010101010303030303037D
:100160000303040707070C0C0C0C0C0C0C0C02020C
:10017000020206060606060606060B0B0B0B0B0B09
:100180000B0B010210202008081020401020408096
:10019000020102010804020101020408102040804B
:1001A00080402010080402018004020180402010D9
:1001B0000804020108040201010204081020408022
:1001C000010204081020408000000A0B02090C0DF7
:1001D0000E080703040100000000000000000000FA
:1001E000000000000000000000000000000000000F
:1001F00000000000121110000000000000000000CC
:100200000000000000000000000000000000290BBA
:1002100011241FBECFEFD1E2DEBFCDBF00E00CBF87
:1002200025E0A2E6B2E001C01D92AA34B207E1F7D0
:1002300012E0A0E0B2E0EEE6F1E200E00BBF02C0A7
:1002400007900D92A236B107D9F711E0C8E0D1E0CE
:1002500000E006C021970109802FFE010E94A9102D
:10026000C730D10780E00807A9F70E942F0C0C9433
:10027000B510C6CEFC01918D228D892F90E0805C57
:100280009F4F821B91098F739927089580E090E01A
:10029000892B21F00E94560A811125C080E090E050
:1002A000892B41F080E090E0892B21F00E94000032
:1002B00081111CC080E090E0892B41F080E090E04B
:1002C000892B21F00E940000811113C080E090E092
:1002D000892BA1F080E090E0892B81F00E94000042
:1002E00081110AC008950E940000D8CF0E9400002A
:1002F000E1CF0E940000EACF0C94000008953FB7C0
:10030000F8948091AF029091B002A091B102B091A7
:10031000B20226B5A89B05C02F3F19F00196A11D7A
:10032000B11D3FBFBA2FA92F982F8827820F911D8B
:10033000A11DB11DBC01CD0142E0660F771F881FD2
:10034000991F4A95D1F7089585ED8093BC0080915F
:10035000BC0084FDFCCF10921E03089540918402DE
:10036000262F30E0240F311D21323105DCF420919D
:100370001E032430C9F4FC0180E090E0861758F495
:10038000309184022191DC01AE59BD4FA30FB11D04
:100390002C930196F3CF80918402680F60938402BE
:1003A00080E0089581E0089582E008950895E09145
:1003B000D4028091D302E81730F4F0E0ED54FD4F01
:1003C000808190E008958FEF9FEF08959091D4027F
:1003D0008091D302981750F4E92FF0E0ED54FD4FCF
:1003E000208130E09F5F9093D40202C02FEF3FEF57
:1003F000C90108958091D30290E02091D402821B1C
:1004000091090895CF92DF92EF92FF920F931F937D
:10041000CF93DF937C01262F972F8A018091D502FD
:10042000882391F0C62FD72F6E01C40ED51ECC1590
:10043000DD0569F06991D701ED91FC910190F081A2
:10044000E02DC7011995F3CF642F822F87DFC801F4
:10045000DF91CF911F910F91FF90EF90DF90CF90A0
:100460000895CF93DF931F92CDB7DEB769832091B4
:10047000D5022223D1F02091F702203240F021E072
:1004800030E0FC013383228380E090E014C080914F
:10049000D602E82FF0E0E952FD4F998190838F5FFB
:1004A0008093D6028093F70204C061E0CE010196EA
:1004B00055DF81E090E00F90DF91CF91089508958E
:1004C00080E090E008950E94B110FC01848DDF016E
:1004D000A80FB11DA35ABF4F2C91848D90E00196B7
:1004E0008F739927848FA689B7892C93A089B189A6
:1004F0008C9180648C93938D848D981306C00288B0
:10050000F389E02D80818F7D80830895362F90E0E0
:10051000FC01E853FE4F4491FC01EE57FE4F24913D
:10052000FC01E45CFE4F9491992309F46BC04423D1
:1005300009F455C050E0FA013197E231F10508F0B5
:100540004EC08827EE58FF4F8F4F0C94A910809112
:1005500080008F7707C0809180008F7D03C08091DD
:100560008000877F809380003AC084B58F7702C077
:1005700084B58F7D84BD33C08091B0008F7703C078
:100580008091B0008F7D8093B00029C08091900051
:100590008F7707C0809190008F7D03C0809190007D
:1005A000877F809390001BC08091A0008F7707C049
:1005B0008091A0008F7D03C08091A000877F8093F1
:1005C000A0000DC0809120018F7707C0809120018D
:1005D0008F7D03C080912001877F80932001E92FC8
:1005E000F0E0EE0FFF1FEE5DFE4FA591B4918FB7C7
:1005F000F894EC91311103C020952E2301C02E2BCD
:100600002C938FBF0895CF93DF9390E0FC01EE57BA
:10061000FE4F2491FC01E45CFE4F8491882361F13C
:1006200090E0880F991FFC01E85FFE4FC591D491BF
:10063000FC01EE5DFE4FA591B491611109C09FB719
:10064000F8948881209582238883EC912E230BC017
:10065000623061F49FB7F8943881822F80958323AC
:100660008883EC912E2B2C939FBF06C08FB7F894F4
:10067000E8812E2B28838FBFDF91CF910895863399
:1006800008F0865390917B00282F2870977F922B3B
:1006900090937B008770806480937C0080917A00C7
:1006A000806480937A0080917A0086FDFCCF8091EF
:1006B00078002091790090E0922B08958F929F927C
:1006C000AF92BF92CF92DF92EF92FF926B017C01CB
:1006D00016DE4B015C01C114D104E104F104E9F020
:1006E0000EDEDC01CB0188199909AA09BB09883EF5
:1006F0009340A105B10578F321E0C21AD108E108C1
:10070000F10888EE880E83E0981EA11CB11CC1146C
:10071000D104E104F10421F7DECFFF90EF90DF90E8
:10072000CF90BF90AF909F908F9008952FB7F8947F
:100730006091AB027091AC028091AD029091AE02DB
:100740002FBF08951F920F920FB60F9211242F936F
:100750003F938F939F93AF93BF938091AB02909100
:10076000AC02A091AD02B091AE023091AA0223E09A
:10077000230F2D3720F40196A11DB11D05C026E8D9
:10078000230F0296A11DB11D2093AA028093AB02F4
:100790009093AC02A093AD02B093AE028091AF02F1
:1007A0009091B002A091B102B091B2020196A11D48
:1007B000B11D8093AF029093B002A093B102B093A9
:1007C000B202BF91AF919F918F913F912F910F9066
:1007D0000FBE0F901F9018959CB5282F23709C7FFB
:1007E000922B9CBD2DB582FB992790F9822F8E7F8D
:1007F000892B8DBD0895CF93DF93EC018A89ECDFBF
:100800008C89811103C08CB5806202C08CB58F7D4C
:100810008CBD8CB5837F9B89892B8CBD60E08989D9
:1008200075DE8F858EBD00000DB407FEFDCF8EB541
:1008300061E08989DF91CF9169CECF92DF92EF920B
:10084000FF92CF93DF93EC01888981110CC060E0A7
:100850008E815CDE61E08E8159DE60E08E8156DE45
:100860008BE891E033C0C12CD12C7601C394D70121
:10087000C6010E8004C0880F991FAA1FBB1F0A94CF
:10088000D2F780959F8589238F87CE01B4DFD7016A
:10089000C6010E8004C0880F991FAA1FBB1F0A94AF
:1008A000D2F72F85822B8F87CE01A5DF0E8004C063
:1008B000CC0CDD1CEE1CFF1C0A94D2F7C0948F8573
:1008C000C822CF86CE0197DF8BE990E00197F1F740
:1008D000DF91CF91FF90EF90DF90CF9008958F92AE
:1008E0009F92AF92BF92CF92DF92EF92FF920F93BF
:1008F0001F93CF93DF93EC018889062F10E08111BD
:100900001FC05E0187E0A80EB11CE12CF12C65012F
:1009100061E0F50181915F0176DEB8010E2C02C025
:10092000759567950A94E2F76170F6018081EEDDB6
:10093000FFEFEF1AFF0A84E0E816F10441F732C036
:1009400084E090E0812C912C540183949C012450EC
:100950003109A80102C0559547952A95E2F72F85E0
:1009600040FF0DC075016401082E04C0CC0CDD1CD5
:10097000EE1CFF1C0A94D2F7C22ACF860DC0B50127
:10098000A401082E04C0440F551F661F771F0A9448
:10099000D2F7409542234F87019688309105B1F6F2
:1009A000CE0129DFCE01DF91CF911F910F91FF90F2
:1009B000EF90DF90CF90BF90AF909F908F903DCF02
:1009C000AF92BF92CF92DF92EF92FF920F931F935D
:1009D000CF93DF93EC01F62E642F8C8197DD8D8110
:1009E0008F3F11F060E092DD8D890F2D10E084FFC4
:1009F0002AC05E0187E0A80EB11CE12CF12C650134
:100A000061E0F50181915F01FEDDB8010E2C02C0AD
:100A1000759567950A94E2F76170F601808176DD3D
:100A2000FFEFEF1AFF0A88E0E816F10441F7CE0164
:100A3000DF91CF911F910F91FF90EF90DF90CF90BA
:100A4000BF90AF90FACEB80184E0759567958A950E
:100A5000E1F7CE0144DF6F2DCE01DF91CF911F91E1
:100A60000F91FF90EF90DF90CF90BF90AF9037CF76
:100A70001F93CF93DF93FC012089211105C040E033
:100A8000DF91CF911F919CCF162FEC0181E090E078
:100A9000A0E0B0E0048004C0880F991FAA1FBB1F0C
:100AA0000A94D2F78095978589238787CF01A3DEA3
:100AB000612F70E084E0759567958A95E1F7CE0126
:100AC0000EDF612FCE01DF91CF911F9108CF1F93D1
:100AD000CF93DF93EC01162F8889811104C041E088
:100AE000CE016EDF1DC081E090E0A0E0B0E00C80A0
:100AF00004C0880F991FAA1FBB1F0A94D2F72F8525
:100B0000822B8F87CE0177DE612F70E084E07595B0
:100B100067958A95E1F7CE01E2DE612FCE01DFDE37
:100B200081E090E0DF91CF911F910895CF93CFB7EF
:100B3000F8948091A902811123C0E1E7F1E084914A
:100B4000E7EBF1E09491E82FF0E0EE0FFF1FE85F94
:100B5000FE4FA591B491EC91E92319F461E085E38E
:100B6000D5DC61E085E34FDD8CB580618CBD8CB553
:100B700080648CBD61E084E346DD61E083E343DDB6
:100B80008091A9028F5F8093A902CFBFCF91089572
:100B90001F920F920FB60F9211240BB60F922F9344
:100BA0003F934F935F936F937F938F939F93AF93F5
:100BB000BF93EF93FF938091B900887F803609F44B
:100BC0009CC068F5883209F45BC090F4803109F468
:100BD00054C038F4882309F4F6C0883009F44DC0B5
:100BE000F5C0883109F44CC0803209F45DC0EEC014
:100BF000803409F468C048F4803309F455C0883360
:100C000009F0E4C080931C03D8C0803509F44FC0BC
:100C1000883509F45DC0883409F0D8C0D6C0883959
:100C200009F4C7C0A8F4883709F467C038F48836D7
:100C300009F463C0803709F460C0C8C0883809F47B
:100C4000B8C0803909F45FC0803809F0BFC05BC00C
:100C5000803B09F486C038F4803A09F466C0883ACB
:100C600009F47FC0B3C0803C09F4A7C0883C09F4F4
:100C7000A4C0883B09F48AC0A9C08091F90210C0C1
:100C800090911B0380911A03981770F5E0911B0354
:100C900081E08E0F80931B03F0E0E650FD4F8081D2
:100CA0008093BB0085EC86C080931C038EC0E091CE
:100CB0001B0381E08E0F80931B038091BB00F0E04B
:100CC000E650FD4F808390911B0380911A036EC004
:100CD000E0911B0381E08E0F80931B038091BB008A
:100CE000F0E0E650FD4F808380911D0381116DC0BF
:100CF00081E08093F80284EA61C083E080931E0360
:100D00001092A802CFCF8091A802803208F051C083
:100D1000E091A80281E08E0F8093A8028091BB0031
:100D2000F0E0E857FD4F8083BDCF85EC8093BC0099
:100D300010921E038091A802803230F4E091A80244
:100D4000F0E0E857FD4F10826091A80270E0E0915A
:100D50008602F091870288E892E019951092A80225
:100D600035C084E080931E031092850210928402A5
:100D7000E0918202F09183021995809184028111A1
:100D800005C081E08093840210926202E0918502A6
:100D900081E08E0F80938502F0E0EE59FD4F808157
:100DA0008093BB009091850280918402981708F48B
:100DB00079CF85E88093BC0009C085EC8093BC00A6
:100DC00010921E0303C010921C03BEDAFF91EF9134
:100DD000BF91AF919F918F917F916F915F914F9153
:100DE0003F912F910F900BBE0F900FBE0F901F9051
:100DF0001895FF920F931F93CF93DF931F92CDB758
:100E0000DEB78C01F62E60E0FC01828149837EDB37
:100E1000F801908181819CBD8DBD8F2D8F7180687F
:100E20008EBD000049810DB407FEFDCF8EB54EBDCD
:100E300000000DB407FEFDCF8EB561E0F8018281A0
:100E400065DB87E090E00197F1F70F90DF91CF919C
:100E50001F910F91FF900895FC01418161E005967B
:100E6000C8CF0F931F93CF93DF93EC018C010B5FDF
:100E70001F4F4B8163E0C801BCDF488160E0C801BF
:100E8000B8DFCE01E9DF4A8162E0C801B2DF4C8100
:100E900069E0C801DF91CF911F910F91AACF909186
:100EA0001E039111FCCF32E030931E0320931D03EB
:100EB0002FEF20931C0310921B0340931A03FB0196
:100EC0006AEF72E0DB012A2F261B241718F4219108
:100ED0002D93F9CF1092F9022091F902880F822BFD
:100EE0008093F9028091F802813061F41092F80247
:100EF0008091F9028093BB008091BC0083FDF8CF04
:100F000085EC01C085EE8093BC0080911E03823089
:100F1000E1F380911C038F3F69F080911C038032C4
:100F200031F080911C03803321F094E003C092E003
:100F300001C093E0892F0895282F4091F7028091F6
:100F40004105413220F467ED72E0A9DF01C081E084
:100F50001092D6021092F7021092D5020895CF9205
:100F6000DF92EF92FF920F931F93CF93DF936C0169
:100F70007A018B01C0E0D0E0CE15DF0589F0D80101
:100F80006D918D01D601ED91FC910190F081E02DE4
:100F9000C6011995892B11F47E0102C02196ECCF70
:100FA000C701DF91CF911F910F91FF90EF90DF90DC
:100FB000CF900895CF93DF931F92CDB7DEB791E026
:100FC0009093D50299E2909341051092D602109227
:100FD000F702682F606885E094E0498342DA49812E
:100FE000642F85E094E03DDA81E00F90DF91CF91AE
:100FF000A3CFEFE1F3E0A089B18982E08C93A485CF
:10100000B5851C92A685B7858FEC8C93108EA4892C
:10101000B58986E08C93A289B3898C9180618C9389
:10102000A289B3898C9188608C93A289B3898C91B1
:1010300080688C930288F389E02D80818F7D808386
:1010400008951092D4021092D3021092D6021092F8
:10105000F70210921E0381E080931D031092F802A4
:1010600061E084E153DA61E085E150DAE9EBF0E038
:1010700080818E7F808380818D7F808388E48093D0
:10108000B80085E48093BC000895CF93DF93EC0112
:1010900089818F71806489838C81887F8C83CE0164
:1010A000DBDE4C8169E0CE010596DF91CF91A1CEC8
:1010B000FC019181907E92619183CF01CDCE0F93FF
:1010C0001F93CF93DF93EC01623018F08D89886015
:1010D0008D8B698F1A8E8BE39DE00197F1F760E0AD
:1010E0008C8114DA60E08E8111DA8D818F3F11F0EE
:1010F00060E00CDA6D8964FD19C063E0CE01EFDBBE
:101100000BE416E4C8010197F1F763E0CE01E7DBD9
:10111000C8010197F1F763E0CE01E1DB83E592E0DE
:101120000197F1F762E0CE01DADB13C06062CE0115
:101130009FDC8BE496E40197F1F76D896062CE0144
:1011400097DC83E592E00197F1F76D896062CE014B
:101150008FDC6D896062CE018BDC84E08E8B6CE06D
:10116000CE0186DC61E0CE0183DC8BE39FE1019759
:10117000F1F782E08F8B66E0CE01DF91CF911F9176
:101180000F9176CC8F929F92AF92BF92CF92DF92C7
:10119000EF92FF926B017C01C9DA4B015C01C60E34
:1011A000D71EE81EF91EC2DA681579058A059B0567
:1011B00028F0C616D706E806F906A8F7FF90EF90C4
:1011C000DF90CF90BF90AF909F908F900895611562
:1011D000710579F0FB0101900020E9F73197AF012B
:1011E000461B570BDC01ED91FC910280F381E02D51
:1011F000199480E090E008954F925F926F927F92F1
:10120000EF92FF920F931F93CF93DF93CDB7DEB78B
:10121000A1970FB6F894DEBF0FBECDBF7C01FA01D7
:10122000CB0119A2223008F42AE08E010F5D1F4F76
:10123000422E512C612C712CBF01A3019201CED6FC
:10124000F901CA01015011096A3014F4605D01C04E
:10125000695CD8016C93232B242B252B69F7B801EB
:10126000C701B5DFA1960FB6F894DEBF0FBECDBFA4
:10127000DF91CF911F910F91FF90EF907F906F9032
:101280005F904F900895CF93DF93DBDE81E08093F2
:10129000D50289E2809341051092D6021092F7029E
:1012A00062E985E094E0DDD881E046DE80911E03AE
:1012B0008111FCCF81E080931E0380931D039FEF7B
:1012C00090931C0310921B0310921A038093F9024F
:1012D0008091F90282658093F9028091F802813051
:1012E00061F41092F8028091F9028093BB00809122
:1012F000BC0083FDF8CF85EC01C085EE8093BC0077
:1013000080911E038130E1F380911B03811103C0A2
:1013100080911B0301C081E0AAEFB2E023EB32E031
:10132000F9019E2F921B981718F49D919193F9CF74
:101330001092D4028093D30285E094E047D8C82F5E
:10134000482F50E060E070E020E18FE193E054DF4F
:1013500063E572E08FE193E03ADFC434A1F581E008
:1013600080932104C0912404D0912504AE0160E053
:1013700070E020DED0932504C0932404C0912204A1
:10138000D091230480912104811101C07CDFAE0142
:1013900060E070E08FE00EDED0932304C09322045F
:1013A00041E050E060E070E080E004DE63E070E087
:1013B00080E090E083D943E050E060E070E080E0BE
:1013C000F9DD81E001C080E0DF91CF910895FFCE8B
:1013D000CF92DF92EF92FF92CF93DF931F92CDB720
:1013E000DEB7198288E0C82ED12CE12CF12C21E047
:1013F00040E0BE016F5F7F4F8C2D51DD811112C027
:101400002AE0B701A6018091FF0390910004F4DE69
:1014100060E372E08091FF0390910004D8DF81E0E7
:101420008093C2038FEFC81AD80AE80AF80A87E740
:10143000C816D104E104F104D1F60F90DF91CF91E9
:10144000FF90EF90DF90CF900895FC01538D448D75
:10145000252F30E0842F90E0821B930B541710F05F
:10146000CF96089501970895FC01918D828D98176C
:1014700061F0828DDF01A80FB11D5D968C91928D78
:101480009F5F9F73928F90E008958FEF9FEF089575
:10149000FC01918D828D981731F0828DE80FF11D3E
:1014A000858D90E008958FEF9FEF08958FE193E091
:1014B0000E943A0121E0892B09F420E0822F08954F
:1014C000EF92FF920F931F93CF93DF93EC0181E094
:1014D000888F9B8D8C8D981305C0E889F989808150
:1014E00085FD24C0F62E0B8D10E00F5F1F4F0F738C
:1014F0001127E02E8C8DE8120CC00FB607FCFACF36
:10150000E889F989808185FFF5CFCE010E946502C7
:10151000F1CF8B8DFE01E80FF11DE35AFF4FF082F2
:101520000B8FEA89FB898081806207C0EE89FF8981
:101530006083E889F98980818064808381E090E01C
:10154000DF91CF911F910F91FF90EF900895CF936E
:10155000DF93EC01888D8823C9F0EA89FB898081BB
:1015600085FD05C0A889B9898C9186FD0FC00FB68D
:1015700007FCF5CF808185FFF2CFA889B9898C91CE
:1015800085FFEDCFCE010E946502E7CFDF91CF91BD
:1015900008951F920F920FB60F9211240BB60F925F
:1015A0002F933F934F935F936F937F938F939F936B
:1015B000AF93BF93EF93FF938FE193E00E94650297
:1015C000FF91EF91BF91AF919F918F917F916F911B
:1015D0005F914F913F912F910F900BBE0F900FBED7
:1015E0000F901F9018951F920F920FB60F92112413
:1015F0000BB60F922F938F939F93EF93FF93E091EE
:101600002F03F09130038081E0913503F091360390
:1016100082FD12C09081809138038F5F8F7320917B
:101620003903821751F0E0913803F0E0E15EFC4F9E
:10163000958F8093380301C08081FF91EF919F9136
:101640008F912F910F900BBE0F900FBE0F901F9098
:101650001895CF93DF93109222031092210388EE06
:1016600093E0A0E0B0E08093230390932403A09341
:101670002503B093260324E032E030932003209327
:101680001F0325EC30E030932C0320932B0324EC34
:1016900030E030932E0320932D0320EC30E0309384
:1016A000300320932F0321EC30E03093320320935A
:1016B000310322EC30E0309334032093330326ECE3
:1016C00030E03093360320933503109238031092A4
:1016D000390310923A0310923B031092C303109205
:1016E000C4031092C5031092C6031092C703109250
:1016F000C8031092C9031092CA031092CB03109230
:10170000CC031092CD031092CE031092CF0310920F
:10171000D0031092D1031092D203109208041092B9
:1017200007048093090490930A04A0930B04B093D8
:101730000C0486E192E0909306048093050482E510
:1017400080931E04C1E0C0931F0410921D041092E8
:101750001C0410921B0410921A0410921904809316
:101760001604C093170410921504109214041092DA
:1017700013041092120410921104109221048BEEA3
:1017800090E09093250480932404109223041092F7
:101790002204109229051092280588E292E0909385
:1017A000270580932605C093360589E08093370589
:1017B00061E00E940303BAD9D4E0D093380584E0F5
:1017C0000BD8109239058CB5837F8CBDC0933A0538
:1017D0008CB58F7D8CBDC0932A058FEF80932B0530
:1017E00083E080932C0510922D0510922E05109207
:1017F0002F0510923005D093310585E08093320596
:1018000086E08093330587E08093340561E081E0D2
:101810000E94030380912B058F3F19F061E00E9425
:10182000030361E080912C050E94030310923B05A5
:1018300061E086E295E043DC80913605811102C0CB
:10184000109236050E9496036093420570934305FB
:101850008093440590934505DF91CF910895789446
:1018600084B5826084BD84B5816084BD85B58260A5
:1018700085BD85B5816085BD80916E008160809356
:101880006E001092810080918100826080938100BF
:1018900080918100816080938100809180008160CF
:1018A000809380008091B10084608093B10080912A
:1018B000B00081608093B00080919100826080933D
:1018C00091008091910081608093910080919000BF
:1018D0008160809390008091A10082608093A1003C
:1018E0008091A10081608093A1008091A00081601F
:1018F0008093A000809121018260809321018091DA
:101900002101816080932101809120018160809379
:10191000200180917A00846080937A0080917A001F
:10192000826080937A0080917A00816080937A004F
:1019300080917A00806880937A001092C1001092A2
:1019400001041092020410920304109204041092F5
:10195000BE031092BF031092C0031092C10368EB44
:101960007BE080E090E00EDC8FE193E09093000458
:101970008093FF033EDB0E9496036093BE03709347
:10198000BF038093C0039093C10362E372E0809130
:10199000FF03909100041BDD6AE070E080E090E0BE
:1019A000F1DB81E08093D3034CDB0E949603C0906F
:1019B000BE03D090BF03E090C003F090C103DC01F0
:1019C000CB018C199D09AE09BF0981329105A10592
:1019D000B10568F441E250E060E070E08A019B01EB
:1019E000081B190B2A0B3B0BC901B801CBDB0E946A
:1019F00096036093BE037093BF038093C0039093DC
:101A0000C10364E472E08091FF0390910004DFDC85
:101A10008091C203811101C0DBDC6BE472E0809134
:101A2000FF0390910004D3DC6BE472E08091FF032C
:101A300090910004CCDC6BE472E08091FF03909104
:101A40000004C5DC6BE472E08091FF039091000418
:101A5000BEDC6DE472E08091FF0390910004B7DC7E
:101A60006AE070E080E090E08DDB62E086E295E085
:101A700026DBE7DA5BD884E08093200461E00E94F3
:101A8000860261E0809120040E94030387E0809336
:101A9000180461E00E94860261E0809118040E94AF
:101AA000030360E083E00E94860261E083E00E941D
:101AB000030360E082E00E94860261E082E00E940F
:101AC000030360E086E00E94860261E086E00E94F7
:101AD000030360E085E00E94860261E085E00E94E9
:101AE000030361E070E080E090E00E945E031092EA
:101AF0001D0410921C0410921B0410921A041092E0
:101B0000190489E194E0ADD91092150410921404DF
:101B100010921304109212041092110481E194E0C7
:101B2000A0D989E194E0C4DA81E194E0C1DA89E1E5
:101B300094E0ABDA81E194E0A8DA80911C0480683B
:101B400080931C0489E194E08CD98091140480680E
:101B50008093140481E194E084D995DB60E084E211
:101B60000E94030361E085E20E94030360E085E2D6
:101B70000E9486023EDA0E949603C0904605D090ED
:101B80004705E0904805F0904905DC01CB018C1930
:101B90009D09AE09BF0986399105A105B10508F473
:101BA00052C00E9496036093460570934705809348
:101BB00048059093490561E070E080E090E0E2DA4A
:101BC0000E9496036093BE037093BF038093C0038B
:101BD0009093C10364E472E08091FF03909100044C
:101BE000F6DB8091C203811101C0F2DB61E070E09D
:101BF00080E090E0C7DA6BE472E08091FF0390919F
:101C00000004E5DB6BE472E08091FF039091000437
:101C1000DEDB6BE472E08091FF0390910004D7DB80
:101C20006BE472E08091FF0390910004D0DB6DE4DF
:101C300072E08091FF0390910004C9DB61E070E0E5
:101C400080E090E09FDA86E30E943F0360E070E06E
:101C5000CB01B1D06B017C014B015C019B01AC015C
:101C600074D2882319F066E572E018C026013701A6
:101C7000E89477F82FEF3FEF4FE75FE7C301B2013A
:101C800064D281110FC02FEF3FEF4FE75FE7C30131
:101C9000B2018BD0181634F46AE572E08FE193E05C
:101CA00096DA7BC02FEF3FEF4FE75FE4C701B60145
:101CB00048D218161CF46EE572E0F0CF2FEF3FEF1C
:101CC0004FE75FECC701B60170D087FDF4CF20E08D
:101CD00030E0A901C701B60168D087FF11C0E091CB
:101CE0001F03F09120030190F081E02D6DE28FE160
:101CF00093E0199546015701B7FAB094B7F8B0943C
:101D00002AE037ED43EA5BE3C501B4018AD14B0118
:101D10005C01EBD16B017C014CD09B01AC01C50196
:101D2000B4017ED14B015C012AE0B701A6018FE12D
:101D300093E062DAE0911F03F09120030190F081BB
:101D4000E02D6EE28FE193E0199520E030E040E273
:101D500051E4C501B4018ED04B015C01C6D16B01C9
:101D6000E12CF12C2AE0B701A6018FE193E044DADF
:101D7000C701B6011ED09B01AC01C501B40150D111
:101D800020E030E040E251E475D0AFD1AB0160E03B
:101D900070E02AE08FE193E02FDA63E572E08FE1F3
:101DA00093E015DA0E944601E6CE40D008F481E0C7
:101DB0000895E89409C097FB3EF49095809570953E
:101DC00061957F4F8F4F9F4F9923A9F0F92F96E987
:101DD000BB279395F695879577956795B795F111FC
:101DE000F8CFFAF4BB0F11F460FF1BC06F5F7F4F99
:101DF0008F4F9F4F16C0882311F096E911C07723AB
:101E000021F09EE8872F762F05C0662371F096E8B3
:101E1000862F70E060E02AF09A95660F771F881F82
:101E2000DAF7880F9695879597F90895990F000826
:101E3000550FAA0BE0E8FEEF16161706E807F9079C
:101E4000C0F012161306E407F50798F0621B730B37
:101E5000840B950B39F40A2661F0232B242B252BB8
:101E600021F408950A2609F4A140A6958FEF811D5B
:101E7000811D08950BD078C069D028F06ED018F07D
:101E8000952309F05AC05FC01124A2C07ED0A0F3F0
:101E9000959FD1F3950F50E0551F629FF001729FFF
:101EA000BB27F00DB11D639FAA27F00DB11DAA1F1E
:101EB000649F6627B00DA11D661F829F2227B00D6B
:101EC000A11D621F739FB00DA11D621F839FA00DF6
:101ED000611D221F749F3327A00D611D231F849F46
:101EE000600D211D822F762F6A2F11249F5750409D
:101EF0008AF0E1F088234AF0EE0FFF1FBB1F661F38
:101F0000771F881F91505040A9F79E3F510570F0F0
:101F100014C05EC05F3FECF3983EDCF38695779586
:101F20006795B795F795E7959F5FC1F7FE2B880FEB
:101F3000911D9695879597F9089597F99F6780E881
:101F400070E060E008959FEF80EC089500240A940B
:101F50001616170618060906089500240A94121684
:101F60001306140605060895092E0394000C11F4B7
:101F7000882352F0BB0F40F4BF2B11F460FF04C064
:101F80006F5F7F4F8F4F9F4F089557FD9058440FBD
:101F9000551F59F05F3F71F04795880F97FB991FC8
:101FA00061F09F3F79F08795089512161306140685
:101FB000551FF2CF4695F1DF08C016161706180612
:101FC000991FF1CF86957105610508940895E894ED
:101FD000BB2766277727CB0197F90895A1E21A2E30
:101FE000AA1BBB1BFD010DC0AA1FBB1FEE1FFF1FBD
:101FF000A217B307E407F50720F0A21BB30BE40B0D
:10200000F50B661F771F881F991F1A9469F7609553
:102010007095809590959B01AC01BD01CF0108950D
:102020005058BB27AA270ED09FCF90DF30F095DF06
:1020300020F031F49F3F11F41EF485CF0EF4E095AB
:10204000E7FB7BCFE92FA1DF80F3BA1762077307A5
:102050008407950718F071F49EF5B9CF0EF4E0955A
:102060000B2EBA2FA02D0B01B90190010C01CA0152
:10207000A0011124FF27591B99F0593F50F4503EFD
:1020800068F11A16F040A22F232F342F4427585FEF
:10209000F3CF469537952795A795F0405395C9F707
:1020A0007EF41F16BA0B620B730B840BBAF09150BF
:1020B000A1F0FF0FBB1F661F771F881FC2F70EC05E
:1020C000BA0F621F731F841F48F487957795679531
:1020D000B795F7959E3F08F0B3CF9395880F08F01A
:1020E0009927EE0F97958795089557DF88F09F57AA
:1020F00090F0B92F9927B751A0F0D1F0660F771F54
:10210000881F991F1AF0BA95C9F712C0B13081F033
:102110005EDFB1E008955BCF672F782F8827B85F27
:1021200039F0B93FCCF3869577956795B395D9F794
:102130003EF490958095709561957F4F8F4F9F4F9E
:10214000089574DE08F48FEF089570DE880B990B04
:102150000895EE0FFF1F881F8BBF0790F691E02DAB
:0E216000199481E090E0F89400C0F894FFCF4D
:10216E0000000000600AAF07250AA70A3A01340AE8
:10217E00480A00000000310202026002D601FA0194
:10218E00E601D701000000006705AF0760025F029D
:10219E003A00564D4450565F317C315F564D445097
:1021AE00560D0A00564D4450525F007C005F564D4E
:1021BE004450520D0A006E616E00696E66006F76B5
:0221CE006600A9
:00000001FF
