:1000000007C1000035C1000033C1000031C100004C
:100010002FC100002DC100002BC1000029C100002C
:1000200027C1000025C1000023C1000021C100003C
:100030001FC100001DC100001BC1000019C100004C
:1000400017C1000015C1000013C1000011C100005C
:100050000FC100000DC100000BC10000EBC3000088
:1000600007C10000BDC2000092C2000001C1000033
:10007000FFC00000FDC00000FBC00000F9C0000090
:10008000F7C00000F5C00000F3C00000F1C00000A0
:10009000EFC00000EDC00000EBC0000094C4000001
:1000A000E7C00000E5C00000E3C00000E1C00000C0
:1000B000DFC00000DDC00000DBC00000D9C00000D0
:1000C000D7C00000D5C00000D3C00000D1C00000E0
:1000D000CFC00000CDC00000CBC00000C9C00000F0
:1000E000C7C000005503580347034B034F038F035A
:1000F0005C03600366036A036E03740378037C0386
:100100008F03820386038A0300000A0B02090C0D89
:100110000E080703040100000000000000000000BA
:1001200000000000000000000000000000000000CF
:10013000000000001211100000000000000000008C
:1001400000000000000000000000000000000000AF
:100150002200250028002B002E003100340002016F
:100160000000050108010B01000021002400270008
:100170002A002D00300033000101000004010701B6
:100180000A0105050505070508080808020202021C
:100190000A0A080804040404010101010101010123
:1001A0000303030303030303040707070C0C0C0CEE
:1001B0000C0C0C0C020202020606060606060606D7
:1001C0000B0B0B0B0B0B0B0B010210202008081064
:1001D00020401020408002010201080402010102B7
:1001E0000408102040808040201008040201800490
:1001F00002018040201008040201080402010102EB
:100200000408102040800102040810204080560C91
:1002100011241FBECFEFD1E2DEBFCDBF00E00CBF87
:1002200024E0A6E6B2E001C01D92A133B207E1F7D7
:1002300012E0A0E0B2E0E4E0FAE100E00BBF02C0AF
:1002400007900D92A636B107D9F711E0C8E0D1E0CA
:1002500000E006C021970109802FFE010E94F40CE6
:10026000C730D10780E00807A9F771D70C94000DBB
:10027000C7CEFC01538D448D252F30E0842F90E0B4
:10028000821B930B541710F0CF9608950197089591
:10029000FC01918D828D981761F0828DDF01A80F8E
:1002A000B11D5D968C91928D9F5F9F73928F90E0B0
:1002B00008958FEF9FEF0895FC01918D828D98171F
:1002C00031F0828DE80FF11D858D90E008958FEF5C
:1002D0009FEF0895FC01918D228D892F90E0805C25
:1002E0009F4F821B91098F739927089587E193E0AF
:1002F000F1DF21E0892B09F420E0822F0895FC0131
:10030000848DDF01A80FB11DA35ABF4F2C91848D9E
:1003100090E001968F739927848FA689B7892C93D3
:10032000A089B1898C9180648C93938D848D98136E
:1003300006C00288F389E02D80818F7D8083089537
:10034000EF92FF920F931F93CF93DF93EC0181E025
:10035000888F9B8D8C8D981305C0E889F9898081E1
:1003600085FD23C0F62E0B8D10E00F5F1F4F0F731E
:100370001127E02E8C8DE8120BC00FB607FCFACFC8
:10038000E889F989808185FFF5CFCE01B8DFF2CF0A
:100390008B8DFE01E80FF11DE35AFF4FF0820B8FAA
:1003A000EA89FB898081806207C0EE89FF896083CA
:1003B000E889F98980818064808381E090E0DF9121
:1003C000CF911F910F91FF90EF900895CF93DF93FE
:1003D000EC01888D8823C1F0EA89FB89808185FD45
:1003E00005C0A889B9898C9186FD0EC00FB607FC9F
:1003F000F5CF808185FFF2CFA889B9898C9185FFDF
:10040000EDCFCE017CDFE8CFDF91CF91089580E082
:1004100090E0892B19F06ADF811125C080E090E01F
:10042000892B41F080E090E0892B21F00E940000B0
:1004300081111CC080E090E0892B41F080E090E0C9
:10044000892B21F00E940000811113C080E090E010
:10045000892BA1F080E090E0892B81F00E940000C0
:1004600081110AC008950E940000D8CF0E940000A8
:10047000E1CF0E940000EACF0C940000089585EDC2
:100480008093BC008091BC0084FDFCCF10921603C9
:10049000089540918802262F30E0240F311D21322B
:1004A0003105DCF4209116032430C9F4FC0180E00E
:1004B00090E0861758F4309188022191DC01AA5906
:1004C000BD4FA30FB11D2C930196F3CF80918802ED
:1004D000680F6093880280E0089581E0089582E0CB
:1004E00008950895E091D8028091D902E81730F478
:1004F000F0E0E854FD4F808190E008958FEF9FEF8A
:1005000008959091D8028091D902981750F4E92F5C
:10051000F0E0E854FD4F208130E09F5F9093D802D7
:1005200002C02FEF3FEFC90108958091D90290E0FA
:100530002091D802821B91090895CF93DF931F92D7
:100540001F92CDB7DEB7CB01642F49835A83A1DF59
:100550004981842F5A81952F0F900F90DF91CF9171
:100560000895CF93DF931F92CDB7DEB7698361E023
:10057000CE0101968EDF81E090E00F90DF91CF9168
:100580000895089580E090E008950E94FC0C1F9269
:100590000F920FB60F9211240BB60F922F933F9329
:1005A0004F935F936F937F938F939F93AF93BF937B
:1005B000EF93FF9387E193E0A2DEFF91EF91BF916C
:1005C000AF919F918F917F916F915F914F913F91EB
:1005D0002F910F900BBE0F900FBE0F901F9018958C
:1005E0001F920F920FB60F9211240BB60F922F93FA
:1005F0008F939F93EF93FF93E0912703F09128034C
:100600008081E0912D03F0912E0382FD12C0908134
:10061000809130038F5F8F7320913103821751F0E7
:10062000E0913003F0E0E95EFC4F958F809330035A
:1006300001C08081FF91EF919F918F912F910F9039
:100640000BBE0F900FBE0F901F901895362F90E0A5
:10065000FC01E85FFE4F4491FC01E853FE4F2491FA
:10066000FC01EE57FE4F9491992309F46BC044238B
:1006700009F455C050E0FA013197E231F10508F074
:100680004EC08827EE58FF4F8F4F0C94F40C80918A
:1006900080008F7707C0809180008F7D03C080919C
:1006A0008000877F809380003AC084B58F7702C036
:1006B00084B58F7D84BD33C08091B0008F7703C037
:1006C0008091B0008F7D8093B00029C08091900010
:1006D0008F7707C0809190008F7D03C0809190003C
:1006E000877F809390001BC08091A0008F7707C008
:1006F0008091A0008F7D03C08091A000877F8093B0
:10070000A0000DC0809120018F7707C0809120014B
:100710008F7D03C080912001877F80932001E92F86
:10072000F0E0EE0FFF1FE25BFE4FA591B4918FB793
:10073000F894EC91311103C020952E2301C02E2B8B
:100740002C938FBF0895CF93DF93EC0160E08E81EF
:100750007DDF61E08E817ADF60E08E8177DF8BE87C
:1007600091E00197F1F7DF91CF910895FF920F93F8
:100770001F93CF93DF931F92CDB7DEB78C01F62E78
:1007800060E0FC018281498361DFF8019081818111
:100790009CBD8DBD8F2D8F7180688EBD00004981FD
:1007A0000DB407FEFDCF8EB54EBD00000DB407FEA3
:1007B000FDCF8EB561E0F801828148DF87E090E0EF
:1007C0000197F1F70F90DF91CF911F910F91FF905B
:1007D00008953FB7F8948091B2029091B302A0912E
:1007E000B402B091B50226B5A89B05C02F3F19F001
:1007F0000196A11DB11D3FBFBA2FA92F982F8827A1
:10080000820F911DA11DB11DBC01CD0142E0660FFB
:10081000771F881F991F4A95D1F708952FB7F8942D
:100820006091AE027091AF028091B0029091B102DE
:100830002FBF08951F920F920FB60F9211242F937E
:100840003F938F939F93AF93BF938091AE0290910C
:10085000AF02A091B002B091B1023091AD0223E09D
:10086000230F2D3720F40196A11DB11D05C026E8E8
:10087000230F0296A11DB11D2093AD028093AE02FD
:100880009093AF02A093B002B093B1028091B202F4
:100890009091B302A091B402B091B5020196A11D4E
:1008A000B11D8093B2029093B302A093B402B093AF
:1008B000B502BF91AF919F918F913F912F910F9072
:1008C0000FBE0F901F901895CF92DF92EF92FF927C
:1008D0000F931F93CF93DF937C016C0187E0C80EC9
:1008E000D11CC0E0D0E0062F10E0B8010C2E02C0F1
:1008F000759567950A94E2F76170F60181916F0131
:10090000A5DE2196C430D10581F7C701DF91CF91D3
:100910001F910F91FF90EF90DF90CF9014CFCF9267
:10092000DF92EF92FF920F931F93CF93DF93EC012F
:10093000F62E642F8C818ADE8D818F3F11F060E06E
:1009400085DE8F850F2D10E084FF23C06E0187E0C8
:10095000C80ED11CE12CF12CB8010E2C02C07595EB
:1009600067950A94E2F76170F60181916F016EDE7E
:10097000FFEFEF1AFF0A88E0E816F10469F7CE01ED
:10098000DF91CF911F910F91FF90EF90DF90CF906B
:10099000DACEB80184E0759567958A95E1F7CE01C6
:1009A00093DF6F2DCE01DF91CF911F910F91FF90BB
:1009B000EF90DF90CF9088CF41E0B1DF81E090E011
:1009C000089540E0ACCF1F920F920FB60F92112402
:1009D0000BB60F922F933F934F935F936F937F9339
:1009E0008F939F93AF93BF93EF93FF938091B90041
:1009F000887F803609F49CC068F5883209F45BC0B2
:100A000090F4803109F454C038F4882309F4F6C016
:100A1000883009F44DC0F5C0883109F44CC08032EB
:100A200009F45DC0EEC0803409F468C048F4803336
:100A300009F455C0883309F0E4C080931403D8C08A
:100A4000803509F44FC0883509F45DC0883409F059
:100A5000D8C0D6C0883909F4C7C0A8F4883709F4CB
:100A600067C038F4883609F463C0803709F460C081
:100A7000C8C0883809F4B8C0803909F45FC080382C
:100A800009F0BFC05BC0803B09F486C038F4803AEF
:100A900009F466C0883A09F47FC0B3C0803C09F409
:100AA000A7C0883C09F4A4C0883B09F48AC0A9C047
:100AB0008091F10210C09091130380911203981756
:100AC00070F5E091130381E08E0F80931303F0E043
:100AD000EE50FD4F80818093BB0085EC86C08093F3
:100AE00014038EC0E091130381E08E0F80931303F3
:100AF0008091BB00F0E0EE50FD4F80839091130396
:100B0000809112036EC0E091130381E08E0F8093F9
:100B100013038091BB00F0E0EE50FD4F8083809185
:100B2000150381116DC081E08093F00284EA61C0F9
:100B300083E0809316031092AC02CFCF8091AC0279
:100B4000803208F051C0E091AC0281E08E0F8093BA
:100B5000AC028091BB00F0E0E457FD4F8083BDCF35
:100B600085EC8093BC00109216038091AC02803219
:100B700030F4E091AC02F0E0E457FD4F1082609158
:100B8000AC0270E0E0918A02F0918B028CE892E076
:100B900019951092AC0235C084E080931603109230
:100BA000890210928802E0918602F09187021995DD
:100BB00080918802811105C081E0809388021092A3
:100BC0006602E091890281E08E0F80938902F0E055
:100BD000EA59FD4F80818093BB00909189028091FA
:100BE0008802981708F479CF85E88093BC0009C083
:100BF00085EC8093BC001092160303C0109214037E
:100C00003EDCFF91EF91BF91AF919F918F917F91CA
:100C10006F915F914F913F912F910F900BBE0F906D
:100C20000FBE0F901F9018951092160381E08093CD
:100C300015031092F00261E084E108DD61E085E1D6
:100C400005DDE9EBF0E080818E7F808380818D7F00
:100C5000808388E48093B80085E48093BC00089585
:100C60001F93CF93DF93182F61E0F0DCC7E0D0E053
:100C7000CE010197F1F760E0812FE8DC2197F1F7D1
:100C80008BE891E00197F1F7DF91CF911F910895E3
:100C9000FC01418161E0059669CDCF93DF93EC01C2
:100CA0006031F9F070F4623001F128F4613039F507
:100CB00020E093E026C06430B1F0683001F522E016
:100CC0001FC0683CC9F038F4603499F06038B9F45A
:100CD00020E091E016C0693C51F06A3C81F426E0C6
:100CE0000FC021E00DC023E00BC024E009C025E0C7
:100CF00007C020E092E005C020E094E002C020E0C0
:100D000090E080E2289F9001112489818F71282B27
:100D100029838C81887F982B9C83CE01B9DF4C81FD
:100D200069E0CE010596DF91CF9120CD0F931F93FF
:100D3000CF93DF93EC018C010B5F1F4F4B8163E07E
:100D4000C80114DD488160E0C80110DDCE01A0DFDC
:100D50004A8162E0C8010ADD4C8169E0C801DF9187
:100D6000CF911F910F9102CD22E5FC01208321E05C
:100D700021830895CF92DF92EF92FF920F931F93FA
:100D8000CF93DF936C017A018B01C0E0D0E0CE15E8
:100D9000DF0589F0D8016D918D01D601ED91FC91AF
:100DA0000190F081E02DC6011995892B11F47E0187
:100DB00002C02196ECCFC701DF91CF911F910F9117
:100DC000FF90EF90DF90CF900895FC019181907E8D
:100DD0009E609183CF015CCFCF92DF92EF92FF9222
:100DE000F8DC6B017C01F5DCDC01CB018C199D0981
:100DF000AE09BF09883E9340A105B105A0F3FF905D
:100E0000EF90DF90CF90089590E0FC01E853FE4F03
:100E10002491FC01EE57FE4F8491882399F090E0D5
:100E2000880F991FFC01E859FE4FA591B491FC0170
:100E3000E25BFE4F859194918FB7F894EC91E22B91
:100E4000EC938FBF0895EF92FF920F931F93CF9370
:100E5000DF93EC01623018F08F8588608F876B8B91
:100E60001C8A80E48D8B80E18E8B80E58F8B8C815A
:100E7000CBDF8D818F3F09F0C7DF8E81C5DF7E011B
:100E800087E0E80EF11C00E010E08F8584FD03C0D0
:100E900084E090E002C088E090E0081719073CF475
:100EA000F70181917F01B0DF0F5F1F4FEECF8BE322
:100EB0009DE00197F1F760E08C81C8DB60E08E81F6
:100EC000C5DB8D818F3F11F060E0C0DB6F8564FD75
:100ED00019C063E0CE01F8DC0BE416E4C801019709
:100EE000F1F763E0CE01F0DCC8010197F1F763E0B0
:100EF000CE01EADC83E592E00197F1F762E0CE01F2
:100F0000E3DC13C06062CE015CDD8BE496E4019704
:100F1000F1F76F856062CE0154DD83E592E00197C1
:100F2000F1F76F856062CE014CDD6F856062CE01A6
:100F300048DD84E0888B6CE0CE0143DD61E0CE01CA
:100F400040DD8BE39FE10197F1F782E0898B66E05A
:100F5000CE01DF91CF911F910F91FF90EF9031CD96
:100F60008F929F92AF92BF92CF92DF92EF92FF92B9
:100F70006B017C0153DC4B015C01C60ED71EE81EE1
:100F8000F91E4CDC681579058A059B0528F0C61604
:100F9000D706E806F906A8F7FF90EF90DF90CF900C
:100FA000BF90AF909F908F9008956115710579F073
:100FB000FB0101900020E9F73197AF01461B570B69
:100FC000DC01ED91FC910280F381E02D199480E029
:100FD00090E008954F925F926F927F92EF92FF920E
:100FE0000F931F93CF93DF93CDB7DEB7A1970FB6C3
:100FF000F894DEBF0FBECDBF7C01FA01CB0119A270
:10100000223008F42AE08E010F5D1F4F422E512C32
:10101000612C712CBF01A3019201C4D4F901CA0152
:10102000015011096A3014F4605D01C0695CD80197
:101030006C93232B242B252B69F7B801C701B5DF4F
:10104000A1960FB6F894DEBF0FBECDBFDF91CF9152
:101050001F910F91FF90EF907F906F905F904F9056
:101060000895A3CFBF92CF92DF92EF92FF920F939A
:101070001F93CF93DF9348E0C42ED12CE12CF12CA9
:10108000D2E0C1E01FEF05EE55ECB52E80911603BE
:101090008111FCCFD0931603C09315031093140352
:1010A00010921303109212031092F1022091F10298
:1010B000C601880F991F822B8093F1028091F00264
:1010C000813069F41092F0028091F1028093BB00AC
:1010D0008091BC0083FDF8CFB092BC0002C00093A9
:1010E000BC00809116038230E1F3809114038F3F9E
:1010F000E1F080911403803211F0809114038FEF9E
:10110000C81AD80AE80AF80A87E7C816D104E10421
:10111000F10409F0BBCFDF91CF911F910F91FF90A8
:10112000EF90DF90CF90BF9008952AE0B701A6011D
:101130008091F7039091F8034DDF6DE572E08091A7
:10114000F7039091F8038DDFC093BA03D8CF78945A
:1011500084B5826084BD84B5816084BD85B58260BC
:1011600085BD85B5816085BD80916E00816080936D
:101170006E001092810080918100826080938100D6
:1011800080918100816080938100809180008160E6
:10119000809380008091B10084608093B100809141
:1011A000B00081608093B000809191008260809354
:1011B00091008091910081608093910080919000D6
:1011C0008160809390008091A10082608093A10053
:1011D0008091A10081608093A1008091A000816036
:1011E0008093A000809121018260809321018091F1
:1011F0002101816080932101809120018160809391
:10120000200180917A00846080937A0080917A0036
:10121000826080937A0080917A00816080937A0066
:1012200080917A00806880937A001092C1001092B9
:10123000F9031092FA031092FB031092FC03109230
:10124000B6031092B7031092B8031092B90368EB7B
:101250007BE080E090E084DE87E193E09093F80308
:101260008093F703E0912703F091280382E08083C5
:10127000E0912303F09124031082E0912503F09183
:1012800026038FEC808310922F03E0912B03F091C3
:101290002C0386E08083E0912903F0912A0380816A
:1012A00080618083E0912903F0912A038081886026
:1012B0008083E0912903F0912A03808180688083F4
:1012C000E0912903F0912A0380818F7D8083A6DA43
:1012D0006093B6037093B7038093B8039093B903F8
:1012E00060E372E08091F7039091F803BADE6AE060
:1012F00070E080E090E034DE81E08093CB031092D8
:10130000D8021092D9021092B7021092B6028CDC69
:1013100085DA0091B6031091B7032091B80330919C
:10132000B903DC01CB01801B910BA20BB30B813203
:101330009105A105B10568F441E250E060E070E07C
:101340008A019B01081B190B2A0B3B0BC901B80131
:1013500007DE64DA6093B6037093B7038093B80333
:101360009093B90362E472E08091F7039091F803DF
:1013700078DE8091BA03811101C074DE69E472E005
:101380008091F7039091F8036CDE69E472E080913C
:10139000F7039091F80365DE69E472E08091F7034A
:1013A0009091F8035EDE69E472E08091F70390911A
:1013B000F80357DE6BE472E08091F7039091F80335
:1013C00050DE6AE070E080E090E0CADD62E089E132
:1013D00094E039DD1092D8021092D9021092B7022F
:1013E0001092B60221DCCFB7F8948091DA02811115
:1013F00020C0E7EBF1E08491EDEFF1E09491E82F6C
:10140000F0E0EE0FFF1FE859FE4FA591B491EC916B
:10141000E92319F461E085E319D985E3F5DC8CB59E
:1014200080618CBD8CB580648CBD84E3EDDC83E38E
:10143000EBDC8091DA028F5F8093DA02CFBF84E029
:101440008093180461E002D980911804DDDC87E004
:101450008093100461E0FAD880911004D5DC60E03C
:1014600083E0F4D883E0D0DC60E082E0EFD882E073
:10147000CBDC60E086E0EAD886E0C6DC60E085E0B0
:10148000E5D885E0C1DCA8DC1092150410921404A4
:1014900010921304109212041092110481E194E04E
:1014A00045DC10920D0410920C0410920B04109263
:1014B0000A041092090489E094E038DC81E194E0A8
:1014C00084DC89E094E081DC68E081E194E0E5DBA4
:1014D00068E089E094E0E1DB809114048068809307
:1014E000140481E194E022DC80910C0480688093F4
:1014F0000C0489E094E01ADC11E033243A9405EC02
:1015000094EF892E99249394A12CB12C21E2422EA0
:10151000512C612C712C82D9C090EC02D090ED023C
:10152000E090EE02F090EF02DC01CB018C199D09F6
:10153000AE09BF0986399105A105B10508F450C06F
:101540006DD96093EC027093ED028093EE0290935C
:10155000EF0261E070E080E090E002DD5FD960932F
:10156000B6037093B7038093B8039093B90362E412
:1015700072E08091F7039091F80373DD8091BA03D4
:10158000811101C06FDD61E070E080E090E0E8DC97
:1015900069E472E08091F7039091F80362DD69E4F9
:1015A00072E08091F7039091F8035BDD69E472E0EB
:1015B0008091F7039091F80354DD69E472E0809123
:1015C000F7039091F8034DDD6BE472E08091F7032F
:1015D0009091F80346DD61E070E080E090E0C0DCCF
:1015E000809116038111FCCF1093160310931503FD
:1015F00030921403109213032FE0209312031093E0
:10160000F1028091F10282618093F1028091F002F7
:10161000813069F41092F0028091F1028093BB0056
:101620008091BC0083FDF8CF0093BC0003C035EE71
:101630003093BC00809116038130E1F38091130355
:10164000803118F42090130302C080E1282EA2EF0D
:10165000B2E0E8EBF2E08E2F48EB52E0841B8215FB
:1016600018F48D918193F7CF1092D8022092D9026D
:101670008091D8022816A9F0C091EB02D0E08DEF3E
:1016800093E00E948102C552DD4F88838091EB0276
:101690008F3020F48F5F8093EB02EACF1092EB0241
:1016A000E7CF62E089E194E0CEDB8092C3039092C1
:1016B000C403A092C503B092C6031092C703109250
:1016C000C8031092C9031092CA038091BB03909182
:1016D000BC03A091BD03B091BE038093BF03909360
:1016E000C003A093C103B093C20398D86093BB0317
:1016F0007093BC038093BD039093BE038FD8C090BA
:10170000B603D090B703E090B803F090B903DC01C2
:10171000CB018C199D09AE09BF0981329105A10544
:10172000B10548F4A3019201281B390B4A0B5B0B4E
:10173000CA01B90115DC72D86093B6037093B70380
:101740008093B8039093B90369D86B017C0164E579
:1017500072E08091F7039091F80383DC2AE041E086
:1017600050E060E070E08091F7039091F80332DC84
:101770006BE572E08091F7039091F80372DC2AE048
:10178000B701A6018091F7039091F80323DC6DE582
:1017900072E08091F7039091F80363DC8091BB03C2
:1017A0009091BC03A091BD03B091BE03B701A60107
:1017B000481B590B6A0B7B0B2AE08091F703909131
:1017C000F80308DC6DE572E08091F7039091F8036F
:1017D00048DC4091BB035091BC036091BD03709104
:1017E000BE038091BF039091C003A091C103B0914B
:1017F000C203481B590B6A0B7B0B2AE08091F7034D
:101800009091F803E7DBC091F703D091F8036FE5FF
:1018100072E0CE01CADB61E572E0CE01C6DB62E0B8
:1018200070E080E090E09CDB0E940E046093BB03BC
:101830007093BC038093BD039093BE03E1E080915D
:101840002C048111E0E0E195F0E0E75EFB4F648954
:10185000606889E194E0B5D84091DB0250E060E037
:1018600070E02AE089E194E0B5DB61E081E194E099
:1018700014DA61E089E094E010DA61E081E194E05B
:101880000CDA60E083E00E94260383E0E9D9A4DA61
:1018900061E089E094E001DA61E085E00E942603DE
:1018A00086E0DED999DA0E94070235CEE7E1F3E05F
:1018B0001382128288EE93E0A0E0B0E084839583E7
:1018C000A683B78324E032E03183208325EC30E027
:1018D0003587248724EC30E03787268720EC30E0FA
:1018E000318B208B21EC30E0338B228B22EC30E0EB
:1018F000358B248B26EC30E0378B268B118E128EA5
:10190000138E148EE4EBF3E0178210861186128694
:1019100013861486158616861786108A118A128AEF
:10192000138A148A158A168AEDEFF3E01382128265
:1019300084839583A683B78386E192E09183808335
:1019400086E194E011DAE1E1F4E01482138212827C
:10195000118210828EE094E007DAE9E0F4E014826C
:101960001382128211821082E9E1F4E01382128262
:1019700088E292E09183808383E284838FEF858382
:1019800082E286838EE187838FE1808780E2818790
:1019900081E282871386148615861686178661E093
:1019A000CF0151CAA1E21A2EAA1BBB1BFD010DC01B
:1019B000AA1FBB1FEE1FFF1FA217B307E407F507FF
:1019C00020F0A21BB30BE40BF50B661F771F881FDB
:1019D000991F1A9469F760957095809590959B0171
:1019E000AC01BD01CF010895EE0FFF1F881F8BBF13
:1019F0000790F691E02D199481E090E0F89400C0F2
:041A0000F894FFCF88
:101A040000000000A001BA063901E6016A0148019C
:101A14005C0100000000B1029D02C2027102950245
:101A24008102720200000000DC04BA06C202C10294
:101A3400564D4450565F317C315F564D4450560DDF
:101A44000A00564D4450525F007C005F564D44508E
:101A5400520D0A00564D4450455F003A323A005F39
:061A6400564D4450450000
:00000001FF
